{
	"compilerInput": "{\"language\":\"Solidity\",\"sources\":{\"contracts/Marketplace.sol\":{\"content\":\"// SPDX-License-Identifier: MIT\\r\\npragma solidity ^0.8.20;\\r\\n\\r\\nimport \\\"@openzeppelin/contracts/access/Ownable.sol\\\";\\r\\nimport \\\"./ArtifactNFT.sol\\\";\\r\\n\\r\\n/**\\r\\n * @title Marketplace\\r\\n * @dev Marketplace allows NFTs to be listed for sale.\\r\\n * The Marketplace owner can list NFTs on behalf of owners if the NFT owner has approved the Marketplace.\\r\\n */\\r\\ncontract Marketplace is Ownable {\\r\\n    ArtifactNFT public nftContract;\\r\\n\\r\\n    struct Listing {\\r\\n        uint256 tokenId;\\r\\n        address seller;\\r\\n        uint256 price; // in wei\\r\\n        bool active;\\r\\n    }\\r\\n\\r\\n    mapping(uint256 => Listing) public listings;\\r\\n\\r\\n    event Listed(uint256 indexed tokenId, address seller, uint256 price);\\r\\n    event Delisted(uint256 indexed tokenId);\\r\\n    event SaleConfirmed(uint256 indexed tokenId, address buyer);\\r\\n\\r\\n    constructor(address _nftAddress, address initialOwner) Ownable(initialOwner) {\\r\\n        nftContract = ArtifactNFT(_nftAddress);\\r\\n    }\\r\\n\\r\\n    /**\\r\\n     * @dev List NFT for sale. Can be called by the NFT owner or the Marketplace owner on behalf of an approved owner.\\r\\n     * @param tokenId NFT tokenId\\r\\n     * @param price Listing price\\r\\n     */\\r\\n    function list(uint256 tokenId, uint256 price) external {\\r\\n        address nftOwner = nftContract.ownerOf(tokenId);\\r\\n\\r\\n        // Either the sender is the NFT owner, OR the sender is the Marketplace owner\\r\\n        require(\\r\\n            msg.sender == nftOwner || msg.sender == owner(),\\r\\n            \\\"Not owner or marketplace admin\\\"\\r\\n        );\\r\\n\\r\\n        // If sender is Marketplace owner, ensure the NFT owner approved the Marketplace\\r\\n        if (msg.sender == owner() && nftOwner != owner()) {\\r\\n            require(\\r\\n                nftContract.getApproved(tokenId) == address(this) ||\\r\\n                nftContract.isApprovedForAll(nftOwner, address(this)),\\r\\n                \\\"NFT not approved for marketplace\\\"\\r\\n            );\\r\\n        }\\r\\n\\r\\n        require(!listings[tokenId].active, \\\"Already listed\\\");\\r\\n\\r\\n        listings[tokenId] = Listing({\\r\\n            tokenId: tokenId,\\r\\n            seller: nftOwner,\\r\\n            price: price,\\r\\n            active: true\\r\\n        });\\r\\n\\r\\n        emit Listed(tokenId, nftOwner, price);\\r\\n    }\\r\\n\\r\\n    function delist(uint256 tokenId) external {\\r\\n        Listing memory listing = listings[tokenId];\\r\\n        require(listing.active, \\\"Not listed\\\");\\r\\n        require(\\r\\n            msg.sender == listing.seller || msg.sender == owner(),\\r\\n            \\\"Not seller or marketplace admin\\\"\\r\\n        );\\r\\n\\r\\n        delete listings[tokenId];\\r\\n        emit Delisted(tokenId);\\r\\n    }\\r\\n\\r\\n    function confirmSale(uint256 tokenId, address buyer) external {\\r\\n        Listing memory listing = listings[tokenId];\\r\\n        require(listing.active, \\\"Not listed\\\");\\r\\n        require(\\r\\n            msg.sender == listing.seller || msg.sender == owner(),\\r\\n            \\\"Not seller or marketplace admin\\\"\\r\\n        );\\r\\n\\r\\n        delete listings[tokenId];\\r\\n        nftContract.safeTransferFrom(listing.seller, buyer, tokenId);\\r\\n        emit SaleConfirmed(tokenId, buyer);\\r\\n    }\\r\\n}\\r\\n\"},\"contracts/ArtifactNFT.sol\":{\"content\":\"// SPDX-License-Identifier: MIT\\r\\npragma solidity ^0.8.20;\\r\\n\\r\\nimport \\\"@openzeppelin/contracts/token/ERC721/extensions/ERC721URIStorage.sol\\\";\\r\\nimport \\\"@openzeppelin/contracts/token/ERC721/IERC721.sol\\\";\\r\\nimport \\\"@openzeppelin/contracts/token/ERC721/ERC721.sol\\\";\\r\\nimport \\\"@openzeppelin/contracts/access/Ownable.sol\\\";\\r\\n\\r\\ncontract ArtifactNFT is ERC721URIStorage, Ownable {\\r\\n    uint256 private _nextTokenId;\\r\\n    address public marketplace;\\r\\n\\r\\n    /// @notice Constructor sets the owner and optionally a marketplace address\\r\\n    /// @param initialOwner The address that will own/mint NFTs\\r\\n    /// @param _marketplace The marketplace contract address (can be 0 initially)\\r\\n    constructor(address initialOwner, address _marketplace)\\r\\n        ERC721(\\\"ArtifactNFT\\\", \\\"ARTF\\\")\\r\\n        Ownable(initialOwner)\\r\\n    {\\r\\n        marketplace = _marketplace;\\r\\n    }\\r\\n\\r\\n    /// @notice Mint a new NFT to a user\\r\\n    /// @param to Recipient of the NFT\\r\\n    /// @param uri Metadata URI (IPFS link or JSON URL)\\r\\n    /// @return tokenId The minted NFT token ID\\r\\n    function mint(address to, string memory uri)\\r\\n        public\\r\\n        onlyOwner\\r\\n        returns (uint256)\\r\\n    {\\r\\n        uint256 tokenId = _nextTokenId++;\\r\\n        _safeMint(to, tokenId);\\r\\n        _setTokenURI(tokenId, uri);\\r\\n        return tokenId;\\r\\n    }\\r\\n\\r\\n    /// @notice Auto-approve the marketplace for all transfers\\r\\n    function isApprovedForAll(address owner, address operator)\\r\\n        public\\r\\n        view\\r\\n        override(ERC721, IERC721)\\r\\n        returns (bool)\\r\\n    {\\r\\n        if (operator == marketplace) {\\r\\n            return true;\\r\\n        }\\r\\n        return super.isApprovedForAll(owner, operator);\\r\\n    }\\r\\n\\r\\n    /// @notice Set or update the marketplace address after deployment\\r\\n    /// @param _marketplace The marketplace contract address\\r\\n    function setMarketplace(address _marketplace) external onlyOwner {\\r\\n        marketplace = _marketplace;\\r\\n    }\\r\\n}\\r\\n\"},\"@openzeppelin/contracts/access/Ownable.sol\":{\"content\":\"// SPDX-License-Identifier: MIT\\n// OpenZeppelin Contracts (last updated v5.0.0) (access/Ownable.sol)\\n\\npragma solidity ^0.8.20;\\n\\nimport {Context} from \\\"../utils/Context.sol\\\";\\n\\n/**\\n * @dev Contract module which provides a basic access control mechanism, where\\n * there is an account (an owner) that can be granted exclusive access to\\n * specific functions.\\n *\\n * The initial owner is set to the address provided by the deployer. This can\\n * later be changed with {transferOwnership}.\\n *\\n * This module is used through inheritance. It will make available the modifier\\n * `onlyOwner`, which can be applied to your functions to restrict their use to\\n * the owner.\\n */\\nabstract contract Ownable is Context {\\n    address private _owner;\\n\\n    /**\\n     * @dev The caller account is not authorized to perform an operation.\\n     */\\n    error OwnableUnauthorizedAccount(address account);\\n\\n    /**\\n     * @dev The owner is not a valid owner account. (eg. `address(0)`)\\n     */\\n    error OwnableInvalidOwner(address owner);\\n\\n    event OwnershipTransferred(address indexed previousOwner, address indexed newOwner);\\n\\n    /**\\n     * @dev Initializes the contract setting the address provided by the deployer as the initial owner.\\n     */\\n    constructor(address initialOwner) {\\n        if (initialOwner == address(0)) {\\n            revert OwnableInvalidOwner(address(0));\\n        }\\n        _transferOwnership(initialOwner);\\n    }\\n\\n    /**\\n     * @dev Throws if called by any account other than the owner.\\n     */\\n    modifier onlyOwner() {\\n        _checkOwner();\\n        _;\\n    }\\n\\n    /**\\n     * @dev Returns the address of the current owner.\\n     */\\n    function owner() public view virtual returns (address) {\\n        return _owner;\\n    }\\n\\n    /**\\n     * @dev Throws if the sender is not the owner.\\n     */\\n    function _checkOwner() internal view virtual {\\n        if (owner() != _msgSender()) {\\n            revert OwnableUnauthorizedAccount(_msgSender());\\n        }\\n    }\\n\\n    /**\\n     * @dev Leaves the contract without owner. It will not be possible to call\\n     * `onlyOwner` functions. Can only be called by the current owner.\\n     *\\n     * NOTE: Renouncing ownership will leave the contract without an owner,\\n     * thereby disabling any functionality that is only available to the owner.\\n     */\\n    function renounceOwnership() public virtual onlyOwner {\\n        _transferOwnership(address(0));\\n    }\\n\\n    /**\\n     * @dev Transfers ownership of the contract to a new account (`newOwner`).\\n     * Can only be called by the current owner.\\n     */\\n    function transferOwnership(address newOwner) public virtual onlyOwner {\\n        if (newOwner == address(0)) {\\n            revert OwnableInvalidOwner(address(0));\\n        }\\n        _transferOwnership(newOwner);\\n    }\\n\\n    /**\\n     * @dev Transfers ownership of the contract to a new account (`newOwner`).\\n     * Internal function without access restriction.\\n     */\\n    function _transferOwnership(address newOwner) internal virtual {\\n        address oldOwner = _owner;\\n        _owner = newOwner;\\n        emit OwnershipTransferred(oldOwner, newOwner);\\n    }\\n}\\n\"},\"@openzeppelin/contracts/token/ERC721/ERC721.sol\":{\"content\":\"// SPDX-License-Identifier: MIT\\n// OpenZeppelin Contracts (last updated v5.4.0) (token/ERC721/ERC721.sol)\\n\\npragma solidity ^0.8.20;\\n\\nimport {IERC721} from \\\"./IERC721.sol\\\";\\nimport {IERC721Metadata} from \\\"./extensions/IERC721Metadata.sol\\\";\\nimport {ERC721Utils} from \\\"./utils/ERC721Utils.sol\\\";\\nimport {Context} from \\\"../../utils/Context.sol\\\";\\nimport {Strings} from \\\"../../utils/Strings.sol\\\";\\nimport {IERC165, ERC165} from \\\"../../utils/introspection/ERC165.sol\\\";\\nimport {IERC721Errors} from \\\"../../interfaces/draft-IERC6093.sol\\\";\\n\\n/**\\n * @dev Implementation of https://eips.ethereum.org/EIPS/eip-721[ERC-721] Non-Fungible Token Standard, including\\n * the Metadata extension, but not including the Enumerable extension, which is available separately as\\n * {ERC721Enumerable}.\\n */\\nabstract contract ERC721 is Context, ERC165, IERC721, IERC721Metadata, IERC721Errors {\\n    using Strings for uint256;\\n\\n    // Token name\\n    string private _name;\\n\\n    // Token symbol\\n    string private _symbol;\\n\\n    mapping(uint256 tokenId => address) private _owners;\\n\\n    mapping(address owner => uint256) private _balances;\\n\\n    mapping(uint256 tokenId => address) private _tokenApprovals;\\n\\n    mapping(address owner => mapping(address operator => bool)) private _operatorApprovals;\\n\\n    /**\\n     * @dev Initializes the contract by setting a `name` and a `symbol` to the token collection.\\n     */\\n    constructor(string memory name_, string memory symbol_) {\\n        _name = name_;\\n        _symbol = symbol_;\\n    }\\n\\n    /// @inheritdoc IERC165\\n    function supportsInterface(bytes4 interfaceId) public view virtual override(ERC165, IERC165) returns (bool) {\\n        return\\n            interfaceId == type(IERC721).interfaceId ||\\n            interfaceId == type(IERC721Metadata).interfaceId ||\\n            super.supportsInterface(interfaceId);\\n    }\\n\\n    /// @inheritdoc IERC721\\n    function balanceOf(address owner) public view virtual returns (uint256) {\\n        if (owner == address(0)) {\\n            revert ERC721InvalidOwner(address(0));\\n        }\\n        return _balances[owner];\\n    }\\n\\n    /// @inheritdoc IERC721\\n    function ownerOf(uint256 tokenId) public view virtual returns (address) {\\n        return _requireOwned(tokenId);\\n    }\\n\\n    /// @inheritdoc IERC721Metadata\\n    function name() public view virtual returns (string memory) {\\n        return _name;\\n    }\\n\\n    /// @inheritdoc IERC721Metadata\\n    function symbol() public view virtual returns (string memory) {\\n        return _symbol;\\n    }\\n\\n    /// @inheritdoc IERC721Metadata\\n    function tokenURI(uint256 tokenId) public view virtual returns (string memory) {\\n        _requireOwned(tokenId);\\n\\n        string memory baseURI = _baseURI();\\n        return bytes(baseURI).length > 0 ? string.concat(baseURI, tokenId.toString()) : \\\"\\\";\\n    }\\n\\n    /**\\n     * @dev Base URI for computing {tokenURI}. If set, the resulting URI for each\\n     * token will be the concatenation of the `baseURI` and the `tokenId`. Empty\\n     * by default, can be overridden in child contracts.\\n     */\\n    function _baseURI() internal view virtual returns (string memory) {\\n        return \\\"\\\";\\n    }\\n\\n    /// @inheritdoc IERC721\\n    function approve(address to, uint256 tokenId) public virtual {\\n        _approve(to, tokenId, _msgSender());\\n    }\\n\\n    /// @inheritdoc IERC721\\n    function getApproved(uint256 tokenId) public view virtual returns (address) {\\n        _requireOwned(tokenId);\\n\\n        return _getApproved(tokenId);\\n    }\\n\\n    /// @inheritdoc IERC721\\n    function setApprovalForAll(address operator, bool approved) public virtual {\\n        _setApprovalForAll(_msgSender(), operator, approved);\\n    }\\n\\n    /// @inheritdoc IERC721\\n    function isApprovedForAll(address owner, address operator) public view virtual returns (bool) {\\n        return _operatorApprovals[owner][operator];\\n    }\\n\\n    /// @inheritdoc IERC721\\n    function transferFrom(address from, address to, uint256 tokenId) public virtual {\\n        if (to == address(0)) {\\n            revert ERC721InvalidReceiver(address(0));\\n        }\\n        // Setting an \\\"auth\\\" arguments enables the `_isAuthorized` check which verifies that the token exists\\n        // (from != 0). Therefore, it is not needed to verify that the return value is not 0 here.\\n        address previousOwner = _update(to, tokenId, _msgSender());\\n        if (previousOwner != from) {\\n            revert ERC721IncorrectOwner(from, tokenId, previousOwner);\\n        }\\n    }\\n\\n    /// @inheritdoc IERC721\\n    function safeTransferFrom(address from, address to, uint256 tokenId) public {\\n        safeTransferFrom(from, to, tokenId, \\\"\\\");\\n    }\\n\\n    /// @inheritdoc IERC721\\n    function safeTransferFrom(address from, address to, uint256 tokenId, bytes memory data) public virtual {\\n        transferFrom(from, to, tokenId);\\n        ERC721Utils.checkOnERC721Received(_msgSender(), from, to, tokenId, data);\\n    }\\n\\n    /**\\n     * @dev Returns the owner of the `tokenId`. Does NOT revert if token doesn't exist\\n     *\\n     * IMPORTANT: Any overrides to this function that add ownership of tokens not tracked by the\\n     * core ERC-721 logic MUST be matched with the use of {_increaseBalance} to keep balances\\n     * consistent with ownership. The invariant to preserve is that for any address `a` the value returned by\\n     * `balanceOf(a)` must be equal to the number of tokens such that `_ownerOf(tokenId)` is `a`.\\n     */\\n    function _ownerOf(uint256 tokenId) internal view virtual returns (address) {\\n        return _owners[tokenId];\\n    }\\n\\n    /**\\n     * @dev Returns the approved address for `tokenId`. Returns 0 if `tokenId` is not minted.\\n     */\\n    function _getApproved(uint256 tokenId) internal view virtual returns (address) {\\n        return _tokenApprovals[tokenId];\\n    }\\n\\n    /**\\n     * @dev Returns whether `spender` is allowed to manage `owner`'s tokens, or `tokenId` in\\n     * particular (ignoring whether it is owned by `owner`).\\n     *\\n     * WARNING: This function assumes that `owner` is the actual owner of `tokenId` and does not verify this\\n     * assumption.\\n     */\\n    function _isAuthorized(address owner, address spender, uint256 tokenId) internal view virtual returns (bool) {\\n        return\\n            spender != address(0) &&\\n            (owner == spender || isApprovedForAll(owner, spender) || _getApproved(tokenId) == spender);\\n    }\\n\\n    /**\\n     * @dev Checks if `spender` can operate on `tokenId`, assuming the provided `owner` is the actual owner.\\n     * Reverts if:\\n     * - `spender` does not have approval from `owner` for `tokenId`.\\n     * - `spender` does not have approval to manage all of `owner`'s assets.\\n     *\\n     * WARNING: This function assumes that `owner` is the actual owner of `tokenId` and does not verify this\\n     * assumption.\\n     */\\n    function _checkAuthorized(address owner, address spender, uint256 tokenId) internal view virtual {\\n        if (!_isAuthorized(owner, spender, tokenId)) {\\n            if (owner == address(0)) {\\n                revert ERC721NonexistentToken(tokenId);\\n            } else {\\n                revert ERC721InsufficientApproval(spender, tokenId);\\n            }\\n        }\\n    }\\n\\n    /**\\n     * @dev Unsafe write access to the balances, used by extensions that \\\"mint\\\" tokens using an {ownerOf} override.\\n     *\\n     * NOTE: the value is limited to type(uint128).max. This protect against _balance overflow. It is unrealistic that\\n     * a uint256 would ever overflow from increments when these increments are bounded to uint128 values.\\n     *\\n     * WARNING: Increasing an account's balance using this function tends to be paired with an override of the\\n     * {_ownerOf} function to resolve the ownership of the corresponding tokens so that balances and ownership\\n     * remain consistent with one another.\\n     */\\n    function _increaseBalance(address account, uint128 value) internal virtual {\\n        unchecked {\\n            _balances[account] += value;\\n        }\\n    }\\n\\n    /**\\n     * @dev Transfers `tokenId` from its current owner to `to`, or alternatively mints (or burns) if the current owner\\n     * (or `to`) is the zero address. Returns the owner of the `tokenId` before the update.\\n     *\\n     * The `auth` argument is optional. If the value passed is non 0, then this function will check that\\n     * `auth` is either the owner of the token, or approved to operate on the token (by the owner).\\n     *\\n     * Emits a {Transfer} event.\\n     *\\n     * NOTE: If overriding this function in a way that tracks balances, see also {_increaseBalance}.\\n     */\\n    function _update(address to, uint256 tokenId, address auth) internal virtual returns (address) {\\n        address from = _ownerOf(tokenId);\\n\\n        // Perform (optional) operator check\\n        if (auth != address(0)) {\\n            _checkAuthorized(from, auth, tokenId);\\n        }\\n\\n        // Execute the update\\n        if (from != address(0)) {\\n            // Clear approval. No need to re-authorize or emit the Approval event\\n            _approve(address(0), tokenId, address(0), false);\\n\\n            unchecked {\\n                _balances[from] -= 1;\\n            }\\n        }\\n\\n        if (to != address(0)) {\\n            unchecked {\\n                _balances[to] += 1;\\n            }\\n        }\\n\\n        _owners[tokenId] = to;\\n\\n        emit Transfer(from, to, tokenId);\\n\\n        return from;\\n    }\\n\\n    /**\\n     * @dev Mints `tokenId` and transfers it to `to`.\\n     *\\n     * WARNING: Usage of this method is discouraged, use {_safeMint} whenever possible\\n     *\\n     * Requirements:\\n     *\\n     * - `tokenId` must not exist.\\n     * - `to` cannot be the zero address.\\n     *\\n     * Emits a {Transfer} event.\\n     */\\n    function _mint(address to, uint256 tokenId) internal {\\n        if (to == address(0)) {\\n            revert ERC721InvalidReceiver(address(0));\\n        }\\n        address previousOwner = _update(to, tokenId, address(0));\\n        if (previousOwner != address(0)) {\\n            revert ERC721InvalidSender(address(0));\\n        }\\n    }\\n\\n    /**\\n     * @dev Mints `tokenId`, transfers it to `to` and checks for `to` acceptance.\\n     *\\n     * Requirements:\\n     *\\n     * - `tokenId` must not exist.\\n     * - If `to` refers to a smart contract, it must implement {IERC721Receiver-onERC721Received}, which is called upon a safe transfer.\\n     *\\n     * Emits a {Transfer} event.\\n     */\\n    function _safeMint(address to, uint256 tokenId) internal {\\n        _safeMint(to, tokenId, \\\"\\\");\\n    }\\n\\n    /**\\n     * @dev Same as {xref-ERC721-_safeMint-address-uint256-}[`_safeMint`], with an additional `data` parameter which is\\n     * forwarded in {IERC721Receiver-onERC721Received} to contract recipients.\\n     */\\n    function _safeMint(address to, uint256 tokenId, bytes memory data) internal virtual {\\n        _mint(to, tokenId);\\n        ERC721Utils.checkOnERC721Received(_msgSender(), address(0), to, tokenId, data);\\n    }\\n\\n    /**\\n     * @dev Destroys `tokenId`.\\n     * The approval is cleared when the token is burned.\\n     * This is an internal function that does not check if the sender is authorized to operate on the token.\\n     *\\n     * Requirements:\\n     *\\n     * - `tokenId` must exist.\\n     *\\n     * Emits a {Transfer} event.\\n     */\\n    function _burn(uint256 tokenId) internal {\\n        address previousOwner = _update(address(0), tokenId, address(0));\\n        if (previousOwner == address(0)) {\\n            revert ERC721NonexistentToken(tokenId);\\n        }\\n    }\\n\\n    /**\\n     * @dev Transfers `tokenId` from `from` to `to`.\\n     *  As opposed to {transferFrom}, this imposes no restrictions on msg.sender.\\n     *\\n     * Requirements:\\n     *\\n     * - `to` cannot be the zero address.\\n     * - `tokenId` token must be owned by `from`.\\n     *\\n     * Emits a {Transfer} event.\\n     */\\n    function _transfer(address from, address to, uint256 tokenId) internal {\\n        if (to == address(0)) {\\n            revert ERC721InvalidReceiver(address(0));\\n        }\\n        address previousOwner = _update(to, tokenId, address(0));\\n        if (previousOwner == address(0)) {\\n            revert ERC721NonexistentToken(tokenId);\\n        } else if (previousOwner != from) {\\n            revert ERC721IncorrectOwner(from, tokenId, previousOwner);\\n        }\\n    }\\n\\n    /**\\n     * @dev Safely transfers `tokenId` token from `from` to `to`, checking that contract recipients\\n     * are aware of the ERC-721 standard to prevent tokens from being forever locked.\\n     *\\n     * `data` is additional data, it has no specified format and it is sent in call to `to`.\\n     *\\n     * This internal function is like {safeTransferFrom} in the sense that it invokes\\n     * {IERC721Receiver-onERC721Received} on the receiver, and can be used to e.g.\\n     * implement alternative mechanisms to perform token transfer, such as signature-based.\\n     *\\n     * Requirements:\\n     *\\n     * - `tokenId` token must exist and be owned by `from`.\\n     * - `to` cannot be the zero address.\\n     * - `from` cannot be the zero address.\\n     * - If `to` refers to a smart contract, it must implement {IERC721Receiver-onERC721Received}, which is called upon a safe transfer.\\n     *\\n     * Emits a {Transfer} event.\\n     */\\n    function _safeTransfer(address from, address to, uint256 tokenId) internal {\\n        _safeTransfer(from, to, tokenId, \\\"\\\");\\n    }\\n\\n    /**\\n     * @dev Same as {xref-ERC721-_safeTransfer-address-address-uint256-}[`_safeTransfer`], with an additional `data` parameter which is\\n     * forwarded in {IERC721Receiver-onERC721Received} to contract recipients.\\n     */\\n    function _safeTransfer(address from, address to, uint256 tokenId, bytes memory data) internal virtual {\\n        _transfer(from, to, tokenId);\\n        ERC721Utils.checkOnERC721Received(_msgSender(), from, to, tokenId, data);\\n    }\\n\\n    /**\\n     * @dev Approve `to` to operate on `tokenId`\\n     *\\n     * The `auth` argument is optional. If the value passed is non 0, then this function will check that `auth` is\\n     * either the owner of the token, or approved to operate on all tokens held by this owner.\\n     *\\n     * Emits an {Approval} event.\\n     *\\n     * Overrides to this logic should be done to the variant with an additional `bool emitEvent` argument.\\n     */\\n    function _approve(address to, uint256 tokenId, address auth) internal {\\n        _approve(to, tokenId, auth, true);\\n    }\\n\\n    /**\\n     * @dev Variant of `_approve` with an optional flag to enable or disable the {Approval} event. The event is not\\n     * emitted in the context of transfers.\\n     */\\n    function _approve(address to, uint256 tokenId, address auth, bool emitEvent) internal virtual {\\n        // Avoid reading the owner unless necessary\\n        if (emitEvent || auth != address(0)) {\\n            address owner = _requireOwned(tokenId);\\n\\n            // We do not use _isAuthorized because single-token approvals should not be able to call approve\\n            if (auth != address(0) && owner != auth && !isApprovedForAll(owner, auth)) {\\n                revert ERC721InvalidApprover(auth);\\n            }\\n\\n            if (emitEvent) {\\n                emit Approval(owner, to, tokenId);\\n            }\\n        }\\n\\n        _tokenApprovals[tokenId] = to;\\n    }\\n\\n    /**\\n     * @dev Approve `operator` to operate on all of `owner` tokens\\n     *\\n     * Requirements:\\n     * - operator can't be the address zero.\\n     *\\n     * Emits an {ApprovalForAll} event.\\n     */\\n    function _setApprovalForAll(address owner, address operator, bool approved) internal virtual {\\n        if (operator == address(0)) {\\n            revert ERC721InvalidOperator(operator);\\n        }\\n        _operatorApprovals[owner][operator] = approved;\\n        emit ApprovalForAll(owner, operator, approved);\\n    }\\n\\n    /**\\n     * @dev Reverts if the `tokenId` doesn't have a current owner (it hasn't been minted, or it has been burned).\\n     * Returns the owner.\\n     *\\n     * Overrides to ownership logic should be done to {_ownerOf}.\\n     */\\n    function _requireOwned(uint256 tokenId) internal view returns (address) {\\n        address owner = _ownerOf(tokenId);\\n        if (owner == address(0)) {\\n            revert ERC721NonexistentToken(tokenId);\\n        }\\n        return owner;\\n    }\\n}\\n\"},\"@openzeppelin/contracts/token/ERC721/IERC721.sol\":{\"content\":\"// SPDX-License-Identifier: MIT\\n// OpenZeppelin Contracts (last updated v5.4.0) (token/ERC721/IERC721.sol)\\n\\npragma solidity >=0.6.2;\\n\\nimport {IERC165} from \\\"../../utils/introspection/IERC165.sol\\\";\\n\\n/**\\n * @dev Required interface of an ERC-721 compliant contract.\\n */\\ninterface IERC721 is IERC165 {\\n    /**\\n     * @dev Emitted when `tokenId` token is transferred from `from` to `to`.\\n     */\\n    event Transfer(address indexed from, address indexed to, uint256 indexed tokenId);\\n\\n    /**\\n     * @dev Emitted when `owner` enables `approved` to manage the `tokenId` token.\\n     */\\n    event Approval(address indexed owner, address indexed approved, uint256 indexed tokenId);\\n\\n    /**\\n     * @dev Emitted when `owner` enables or disables (`approved`) `operator` to manage all of its assets.\\n     */\\n    event ApprovalForAll(address indexed owner, address indexed operator, bool approved);\\n\\n    /**\\n     * @dev Returns the number of tokens in ``owner``'s account.\\n     */\\n    function balanceOf(address owner) external view returns (uint256 balance);\\n\\n    /**\\n     * @dev Returns the owner of the `tokenId` token.\\n     *\\n     * Requirements:\\n     *\\n     * - `tokenId` must exist.\\n     */\\n    function ownerOf(uint256 tokenId) external view returns (address owner);\\n\\n    /**\\n     * @dev Safely transfers `tokenId` token from `from` to `to`.\\n     *\\n     * Requirements:\\n     *\\n     * - `from` cannot be the zero address.\\n     * - `to` cannot be the zero address.\\n     * - `tokenId` token must exist and be owned by `from`.\\n     * - If the caller is not `from`, it must be approved to move this token by either {approve} or {setApprovalForAll}.\\n     * - If `to` refers to a smart contract, it must implement {IERC721Receiver-onERC721Received}, which is called upon\\n     *   a safe transfer.\\n     *\\n     * Emits a {Transfer} event.\\n     */\\n    function safeTransferFrom(address from, address to, uint256 tokenId, bytes calldata data) external;\\n\\n    /**\\n     * @dev Safely transfers `tokenId` token from `from` to `to`, checking first that contract recipients\\n     * are aware of the ERC-721 protocol to prevent tokens from being forever locked.\\n     *\\n     * Requirements:\\n     *\\n     * - `from` cannot be the zero address.\\n     * - `to` cannot be the zero address.\\n     * - `tokenId` token must exist and be owned by `from`.\\n     * - If the caller is not `from`, it must have been allowed to move this token by either {approve} or\\n     *   {setApprovalForAll}.\\n     * - If `to` refers to a smart contract, it must implement {IERC721Receiver-onERC721Received}, which is called upon\\n     *   a safe transfer.\\n     *\\n     * Emits a {Transfer} event.\\n     */\\n    function safeTransferFrom(address from, address to, uint256 tokenId) external;\\n\\n    /**\\n     * @dev Transfers `tokenId` token from `from` to `to`.\\n     *\\n     * WARNING: Note that the caller is responsible to confirm that the recipient is capable of receiving ERC-721\\n     * or else they may be permanently lost. Usage of {safeTransferFrom} prevents loss, though the caller must\\n     * understand this adds an external call which potentially creates a reentrancy vulnerability.\\n     *\\n     * Requirements:\\n     *\\n     * - `from` cannot be the zero address.\\n     * - `to` cannot be the zero address.\\n     * - `tokenId` token must be owned by `from`.\\n     * - If the caller is not `from`, it must be approved to move this token by either {approve} or {setApprovalForAll}.\\n     *\\n     * Emits a {Transfer} event.\\n     */\\n    function transferFrom(address from, address to, uint256 tokenId) external;\\n\\n    /**\\n     * @dev Gives permission to `to` to transfer `tokenId` token to another account.\\n     * The approval is cleared when the token is transferred.\\n     *\\n     * Only a single account can be approved at a time, so approving the zero address clears previous approvals.\\n     *\\n     * Requirements:\\n     *\\n     * - The caller must own the token or be an approved operator.\\n     * - `tokenId` must exist.\\n     *\\n     * Emits an {Approval} event.\\n     */\\n    function approve(address to, uint256 tokenId) external;\\n\\n    /**\\n     * @dev Approve or remove `operator` as an operator for the caller.\\n     * Operators can call {transferFrom} or {safeTransferFrom} for any token owned by the caller.\\n     *\\n     * Requirements:\\n     *\\n     * - The `operator` cannot be the address zero.\\n     *\\n     * Emits an {ApprovalForAll} event.\\n     */\\n    function setApprovalForAll(address operator, bool approved) external;\\n\\n    /**\\n     * @dev Returns the account approved for `tokenId` token.\\n     *\\n     * Requirements:\\n     *\\n     * - `tokenId` must exist.\\n     */\\n    function getApproved(uint256 tokenId) external view returns (address operator);\\n\\n    /**\\n     * @dev Returns if the `operator` is allowed to manage all of the assets of `owner`.\\n     *\\n     * See {setApprovalForAll}\\n     */\\n    function isApprovedForAll(address owner, address operator) external view returns (bool);\\n}\\n\"},\"@openzeppelin/contracts/token/ERC721/extensions/ERC721URIStorage.sol\":{\"content\":\"// SPDX-License-Identifier: MIT\\n// OpenZeppelin Contracts (last updated v5.4.0) (token/ERC721/extensions/ERC721URIStorage.sol)\\n\\npragma solidity ^0.8.20;\\n\\nimport {ERC721} from \\\"../ERC721.sol\\\";\\nimport {IERC721Metadata} from \\\"./IERC721Metadata.sol\\\";\\nimport {Strings} from \\\"../../../utils/Strings.sol\\\";\\nimport {IERC4906} from \\\"../../../interfaces/IERC4906.sol\\\";\\nimport {IERC165} from \\\"../../../interfaces/IERC165.sol\\\";\\n\\n/**\\n * @dev ERC-721 token with storage based token URI management.\\n */\\nabstract contract ERC721URIStorage is IERC4906, ERC721 {\\n    using Strings for uint256;\\n\\n    // Interface ID as defined in ERC-4906. This does not correspond to a traditional interface ID as ERC-4906 only\\n    // defines events and does not include any external function.\\n    bytes4 private constant ERC4906_INTERFACE_ID = bytes4(0x49064906);\\n\\n    // Optional mapping for token URIs\\n    mapping(uint256 tokenId => string) private _tokenURIs;\\n\\n    /// @inheritdoc IERC165\\n    function supportsInterface(bytes4 interfaceId) public view virtual override(ERC721, IERC165) returns (bool) {\\n        return interfaceId == ERC4906_INTERFACE_ID || super.supportsInterface(interfaceId);\\n    }\\n\\n    /// @inheritdoc IERC721Metadata\\n    function tokenURI(uint256 tokenId) public view virtual override returns (string memory) {\\n        _requireOwned(tokenId);\\n\\n        string memory _tokenURI = _tokenURIs[tokenId];\\n        string memory base = _baseURI();\\n\\n        // If there is no base URI, return the token URI.\\n        if (bytes(base).length == 0) {\\n            return _tokenURI;\\n        }\\n        // If both are set, concatenate the baseURI and tokenURI (via string.concat).\\n        if (bytes(_tokenURI).length > 0) {\\n            return string.concat(base, _tokenURI);\\n        }\\n\\n        return super.tokenURI(tokenId);\\n    }\\n\\n    /**\\n     * @dev Sets `_tokenURI` as the tokenURI of `tokenId`.\\n     *\\n     * Emits {IERC4906-MetadataUpdate}.\\n     */\\n    function _setTokenURI(uint256 tokenId, string memory _tokenURI) internal virtual {\\n        _tokenURIs[tokenId] = _tokenURI;\\n        emit MetadataUpdate(tokenId);\\n    }\\n}\\n\"},\"@openzeppelin/contracts/utils/Context.sol\":{\"content\":\"// SPDX-License-Identifier: MIT\\n// OpenZeppelin Contracts (last updated v5.0.1) (utils/Context.sol)\\n\\npragma solidity ^0.8.20;\\n\\n/**\\n * @dev Provides information about the current execution context, including the\\n * sender of the transaction and its data. While these are generally available\\n * via msg.sender and msg.data, they should not be accessed in such a direct\\n * manner, since when dealing with meta-transactions the account sending and\\n * paying for execution may not be the actual sender (as far as an application\\n * is concerned).\\n *\\n * This contract is only required for intermediate, library-like contracts.\\n */\\nabstract contract Context {\\n    function _msgSender() internal view virtual returns (address) {\\n        return msg.sender;\\n    }\\n\\n    function _msgData() internal view virtual returns (bytes calldata) {\\n        return msg.data;\\n    }\\n\\n    function _contextSuffixLength() internal view virtual returns (uint256) {\\n        return 0;\\n    }\\n}\\n\"},\"@openzeppelin/contracts/interfaces/IERC165.sol\":{\"content\":\"// SPDX-License-Identifier: MIT\\n// OpenZeppelin Contracts (last updated v5.4.0) (interfaces/IERC165.sol)\\n\\npragma solidity >=0.4.16;\\n\\nimport {IERC165} from \\\"../utils/introspection/IERC165.sol\\\";\\n\"},\"@openzeppelin/contracts/interfaces/IERC4906.sol\":{\"content\":\"// SPDX-License-Identifier: MIT\\n// OpenZeppelin Contracts (last updated v5.4.0) (interfaces/IERC4906.sol)\\n\\npragma solidity >=0.6.2;\\n\\nimport {IERC165} from \\\"./IERC165.sol\\\";\\nimport {IERC721} from \\\"./IERC721.sol\\\";\\n\\n/// @title ERC-721 Metadata Update Extension\\ninterface IERC4906 is IERC165, IERC721 {\\n    /// @dev This event emits when the metadata of a token is changed.\\n    /// So that the third-party platforms such as NFT market could\\n    /// timely update the images and related attributes of the NFT.\\n    event MetadataUpdate(uint256 _tokenId);\\n\\n    /// @dev This event emits when the metadata of a range of tokens is changed.\\n    /// So that the third-party platforms such as NFT market could\\n    /// timely update the images and related attributes of the NFTs.\\n    event BatchMetadataUpdate(uint256 _fromTokenId, uint256 _toTokenId);\\n}\\n\"},\"@openzeppelin/contracts/utils/Strings.sol\":{\"content\":\"// SPDX-License-Identifier: MIT\\n// OpenZeppelin Contracts (last updated v5.4.0) (utils/Strings.sol)\\n\\npragma solidity ^0.8.20;\\n\\nimport {Math} from \\\"./math/Math.sol\\\";\\nimport {SafeCast} from \\\"./math/SafeCast.sol\\\";\\nimport {SignedMath} from \\\"./math/SignedMath.sol\\\";\\n\\n/**\\n * @dev String operations.\\n */\\nlibrary Strings {\\n    using SafeCast for *;\\n\\n    bytes16 private constant HEX_DIGITS = \\\"0123456789abcdef\\\";\\n    uint8 private constant ADDRESS_LENGTH = 20;\\n    uint256 private constant SPECIAL_CHARS_LOOKUP =\\n        (1 << 0x08) | // backspace\\n            (1 << 0x09) | // tab\\n            (1 << 0x0a) | // newline\\n            (1 << 0x0c) | // form feed\\n            (1 << 0x0d) | // carriage return\\n            (1 << 0x22) | // double quote\\n            (1 << 0x5c); // backslash\\n\\n    /**\\n     * @dev The `value` string doesn't fit in the specified `length`.\\n     */\\n    error StringsInsufficientHexLength(uint256 value, uint256 length);\\n\\n    /**\\n     * @dev The string being parsed contains characters that are not in scope of the given base.\\n     */\\n    error StringsInvalidChar();\\n\\n    /**\\n     * @dev The string being parsed is not a properly formatted address.\\n     */\\n    error StringsInvalidAddressFormat();\\n\\n    /**\\n     * @dev Converts a `uint256` to its ASCII `string` decimal representation.\\n     */\\n    function toString(uint256 value) internal pure returns (string memory) {\\n        unchecked {\\n            uint256 length = Math.log10(value) + 1;\\n            string memory buffer = new string(length);\\n            uint256 ptr;\\n            assembly (\\\"memory-safe\\\") {\\n                ptr := add(add(buffer, 0x20), length)\\n            }\\n            while (true) {\\n                ptr--;\\n                assembly (\\\"memory-safe\\\") {\\n                    mstore8(ptr, byte(mod(value, 10), HEX_DIGITS))\\n                }\\n                value /= 10;\\n                if (value == 0) break;\\n            }\\n            return buffer;\\n        }\\n    }\\n\\n    /**\\n     * @dev Converts a `int256` to its ASCII `string` decimal representation.\\n     */\\n    function toStringSigned(int256 value) internal pure returns (string memory) {\\n        return string.concat(value < 0 ? \\\"-\\\" : \\\"\\\", toString(SignedMath.abs(value)));\\n    }\\n\\n    /**\\n     * @dev Converts a `uint256` to its ASCII `string` hexadecimal representation.\\n     */\\n    function toHexString(uint256 value) internal pure returns (string memory) {\\n        unchecked {\\n            return toHexString(value, Math.log256(value) + 1);\\n        }\\n    }\\n\\n    /**\\n     * @dev Converts a `uint256` to its ASCII `string` hexadecimal representation with fixed length.\\n     */\\n    function toHexString(uint256 value, uint256 length) internal pure returns (string memory) {\\n        uint256 localValue = value;\\n        bytes memory buffer = new bytes(2 * length + 2);\\n        buffer[0] = \\\"0\\\";\\n        buffer[1] = \\\"x\\\";\\n        for (uint256 i = 2 * length + 1; i > 1; --i) {\\n            buffer[i] = HEX_DIGITS[localValue & 0xf];\\n            localValue >>= 4;\\n        }\\n        if (localValue != 0) {\\n            revert StringsInsufficientHexLength(value, length);\\n        }\\n        return string(buffer);\\n    }\\n\\n    /**\\n     * @dev Converts an `address` with fixed length of 20 bytes to its not checksummed ASCII `string` hexadecimal\\n     * representation.\\n     */\\n    function toHexString(address addr) internal pure returns (string memory) {\\n        return toHexString(uint256(uint160(addr)), ADDRESS_LENGTH);\\n    }\\n\\n    /**\\n     * @dev Converts an `address` with fixed length of 20 bytes to its checksummed ASCII `string` hexadecimal\\n     * representation, according to EIP-55.\\n     */\\n    function toChecksumHexString(address addr) internal pure returns (string memory) {\\n        bytes memory buffer = bytes(toHexString(addr));\\n\\n        // hash the hex part of buffer (skip length + 2 bytes, length 40)\\n        uint256 hashValue;\\n        assembly (\\\"memory-safe\\\") {\\n            hashValue := shr(96, keccak256(add(buffer, 0x22), 40))\\n        }\\n\\n        for (uint256 i = 41; i > 1; --i) {\\n            // possible values for buffer[i] are 48 (0) to 57 (9) and 97 (a) to 102 (f)\\n            if (hashValue & 0xf > 7 && uint8(buffer[i]) > 96) {\\n                // case shift by xoring with 0x20\\n                buffer[i] ^= 0x20;\\n            }\\n            hashValue >>= 4;\\n        }\\n        return string(buffer);\\n    }\\n\\n    /**\\n     * @dev Returns true if the two strings are equal.\\n     */\\n    function equal(string memory a, string memory b) internal pure returns (bool) {\\n        return bytes(a).length == bytes(b).length && keccak256(bytes(a)) == keccak256(bytes(b));\\n    }\\n\\n    /**\\n     * @dev Parse a decimal string and returns the value as a `uint256`.\\n     *\\n     * Requirements:\\n     * - The string must be formatted as `[0-9]*`\\n     * - The result must fit into an `uint256` type\\n     */\\n    function parseUint(string memory input) internal pure returns (uint256) {\\n        return parseUint(input, 0, bytes(input).length);\\n    }\\n\\n    /**\\n     * @dev Variant of {parseUint-string} that parses a substring of `input` located between position `begin` (included) and\\n     * `end` (excluded).\\n     *\\n     * Requirements:\\n     * - The substring must be formatted as `[0-9]*`\\n     * - The result must fit into an `uint256` type\\n     */\\n    function parseUint(string memory input, uint256 begin, uint256 end) internal pure returns (uint256) {\\n        (bool success, uint256 value) = tryParseUint(input, begin, end);\\n        if (!success) revert StringsInvalidChar();\\n        return value;\\n    }\\n\\n    /**\\n     * @dev Variant of {parseUint-string} that returns false if the parsing fails because of an invalid character.\\n     *\\n     * NOTE: This function will revert if the result does not fit in a `uint256`.\\n     */\\n    function tryParseUint(string memory input) internal pure returns (bool success, uint256 value) {\\n        return _tryParseUintUncheckedBounds(input, 0, bytes(input).length);\\n    }\\n\\n    /**\\n     * @dev Variant of {parseUint-string-uint256-uint256} that returns false if the parsing fails because of an invalid\\n     * character.\\n     *\\n     * NOTE: This function will revert if the result does not fit in a `uint256`.\\n     */\\n    function tryParseUint(\\n        string memory input,\\n        uint256 begin,\\n        uint256 end\\n    ) internal pure returns (bool success, uint256 value) {\\n        if (end > bytes(input).length || begin > end) return (false, 0);\\n        return _tryParseUintUncheckedBounds(input, begin, end);\\n    }\\n\\n    /**\\n     * @dev Implementation of {tryParseUint-string-uint256-uint256} that does not check bounds. Caller should make sure that\\n     * `begin <= end <= input.length`. Other inputs would result in undefined behavior.\\n     */\\n    function _tryParseUintUncheckedBounds(\\n        string memory input,\\n        uint256 begin,\\n        uint256 end\\n    ) private pure returns (bool success, uint256 value) {\\n        bytes memory buffer = bytes(input);\\n\\n        uint256 result = 0;\\n        for (uint256 i = begin; i < end; ++i) {\\n            uint8 chr = _tryParseChr(bytes1(_unsafeReadBytesOffset(buffer, i)));\\n            if (chr > 9) return (false, 0);\\n            result *= 10;\\n            result += chr;\\n        }\\n        return (true, result);\\n    }\\n\\n    /**\\n     * @dev Parse a decimal string and returns the value as a `int256`.\\n     *\\n     * Requirements:\\n     * - The string must be formatted as `[-+]?[0-9]*`\\n     * - The result must fit in an `int256` type.\\n     */\\n    function parseInt(string memory input) internal pure returns (int256) {\\n        return parseInt(input, 0, bytes(input).length);\\n    }\\n\\n    /**\\n     * @dev Variant of {parseInt-string} that parses a substring of `input` located between position `begin` (included) and\\n     * `end` (excluded).\\n     *\\n     * Requirements:\\n     * - The substring must be formatted as `[-+]?[0-9]*`\\n     * - The result must fit in an `int256` type.\\n     */\\n    function parseInt(string memory input, uint256 begin, uint256 end) internal pure returns (int256) {\\n        (bool success, int256 value) = tryParseInt(input, begin, end);\\n        if (!success) revert StringsInvalidChar();\\n        return value;\\n    }\\n\\n    /**\\n     * @dev Variant of {parseInt-string} that returns false if the parsing fails because of an invalid character or if\\n     * the result does not fit in a `int256`.\\n     *\\n     * NOTE: This function will revert if the absolute value of the result does not fit in a `uint256`.\\n     */\\n    function tryParseInt(string memory input) internal pure returns (bool success, int256 value) {\\n        return _tryParseIntUncheckedBounds(input, 0, bytes(input).length);\\n    }\\n\\n    uint256 private constant ABS_MIN_INT256 = 2 ** 255;\\n\\n    /**\\n     * @dev Variant of {parseInt-string-uint256-uint256} that returns false if the parsing fails because of an invalid\\n     * character or if the result does not fit in a `int256`.\\n     *\\n     * NOTE: This function will revert if the absolute value of the result does not fit in a `uint256`.\\n     */\\n    function tryParseInt(\\n        string memory input,\\n        uint256 begin,\\n        uint256 end\\n    ) internal pure returns (bool success, int256 value) {\\n        if (end > bytes(input).length || begin > end) return (false, 0);\\n        return _tryParseIntUncheckedBounds(input, begin, end);\\n    }\\n\\n    /**\\n     * @dev Implementation of {tryParseInt-string-uint256-uint256} that does not check bounds. Caller should make sure that\\n     * `begin <= end <= input.length`. Other inputs would result in undefined behavior.\\n     */\\n    function _tryParseIntUncheckedBounds(\\n        string memory input,\\n        uint256 begin,\\n        uint256 end\\n    ) private pure returns (bool success, int256 value) {\\n        bytes memory buffer = bytes(input);\\n\\n        // Check presence of a negative sign.\\n        bytes1 sign = begin == end ? bytes1(0) : bytes1(_unsafeReadBytesOffset(buffer, begin)); // don't do out-of-bound (possibly unsafe) read if sub-string is empty\\n        bool positiveSign = sign == bytes1(\\\"+\\\");\\n        bool negativeSign = sign == bytes1(\\\"-\\\");\\n        uint256 offset = (positiveSign || negativeSign).toUint();\\n\\n        (bool absSuccess, uint256 absValue) = tryParseUint(input, begin + offset, end);\\n\\n        if (absSuccess && absValue < ABS_MIN_INT256) {\\n            return (true, negativeSign ? -int256(absValue) : int256(absValue));\\n        } else if (absSuccess && negativeSign && absValue == ABS_MIN_INT256) {\\n            return (true, type(int256).min);\\n        } else return (false, 0);\\n    }\\n\\n    /**\\n     * @dev Parse a hexadecimal string (with or without \\\"0x\\\" prefix), and returns the value as a `uint256`.\\n     *\\n     * Requirements:\\n     * - The string must be formatted as `(0x)?[0-9a-fA-F]*`\\n     * - The result must fit in an `uint256` type.\\n     */\\n    function parseHexUint(string memory input) internal pure returns (uint256) {\\n        return parseHexUint(input, 0, bytes(input).length);\\n    }\\n\\n    /**\\n     * @dev Variant of {parseHexUint-string} that parses a substring of `input` located between position `begin` (included) and\\n     * `end` (excluded).\\n     *\\n     * Requirements:\\n     * - The substring must be formatted as `(0x)?[0-9a-fA-F]*`\\n     * - The result must fit in an `uint256` type.\\n     */\\n    function parseHexUint(string memory input, uint256 begin, uint256 end) internal pure returns (uint256) {\\n        (bool success, uint256 value) = tryParseHexUint(input, begin, end);\\n        if (!success) revert StringsInvalidChar();\\n        return value;\\n    }\\n\\n    /**\\n     * @dev Variant of {parseHexUint-string} that returns false if the parsing fails because of an invalid character.\\n     *\\n     * NOTE: This function will revert if the result does not fit in a `uint256`.\\n     */\\n    function tryParseHexUint(string memory input) internal pure returns (bool success, uint256 value) {\\n        return _tryParseHexUintUncheckedBounds(input, 0, bytes(input).length);\\n    }\\n\\n    /**\\n     * @dev Variant of {parseHexUint-string-uint256-uint256} that returns false if the parsing fails because of an\\n     * invalid character.\\n     *\\n     * NOTE: This function will revert if the result does not fit in a `uint256`.\\n     */\\n    function tryParseHexUint(\\n        string memory input,\\n        uint256 begin,\\n        uint256 end\\n    ) internal pure returns (bool success, uint256 value) {\\n        if (end > bytes(input).length || begin > end) return (false, 0);\\n        return _tryParseHexUintUncheckedBounds(input, begin, end);\\n    }\\n\\n    /**\\n     * @dev Implementation of {tryParseHexUint-string-uint256-uint256} that does not check bounds. Caller should make sure that\\n     * `begin <= end <= input.length`. Other inputs would result in undefined behavior.\\n     */\\n    function _tryParseHexUintUncheckedBounds(\\n        string memory input,\\n        uint256 begin,\\n        uint256 end\\n    ) private pure returns (bool success, uint256 value) {\\n        bytes memory buffer = bytes(input);\\n\\n        // skip 0x prefix if present\\n        bool hasPrefix = (end > begin + 1) && bytes2(_unsafeReadBytesOffset(buffer, begin)) == bytes2(\\\"0x\\\"); // don't do out-of-bound (possibly unsafe) read if sub-string is empty\\n        uint256 offset = hasPrefix.toUint() * 2;\\n\\n        uint256 result = 0;\\n        for (uint256 i = begin + offset; i < end; ++i) {\\n            uint8 chr = _tryParseChr(bytes1(_unsafeReadBytesOffset(buffer, i)));\\n            if (chr > 15) return (false, 0);\\n            result *= 16;\\n            unchecked {\\n                // Multiplying by 16 is equivalent to a shift of 4 bits (with additional overflow check).\\n                // This guarantees that adding a value < 16 will not cause an overflow, hence the unchecked.\\n                result += chr;\\n            }\\n        }\\n        return (true, result);\\n    }\\n\\n    /**\\n     * @dev Parse a hexadecimal string (with or without \\\"0x\\\" prefix), and returns the value as an `address`.\\n     *\\n     * Requirements:\\n     * - The string must be formatted as `(0x)?[0-9a-fA-F]{40}`\\n     */\\n    function parseAddress(string memory input) internal pure returns (address) {\\n        return parseAddress(input, 0, bytes(input).length);\\n    }\\n\\n    /**\\n     * @dev Variant of {parseAddress-string} that parses a substring of `input` located between position `begin` (included) and\\n     * `end` (excluded).\\n     *\\n     * Requirements:\\n     * - The substring must be formatted as `(0x)?[0-9a-fA-F]{40}`\\n     */\\n    function parseAddress(string memory input, uint256 begin, uint256 end) internal pure returns (address) {\\n        (bool success, address value) = tryParseAddress(input, begin, end);\\n        if (!success) revert StringsInvalidAddressFormat();\\n        return value;\\n    }\\n\\n    /**\\n     * @dev Variant of {parseAddress-string} that returns false if the parsing fails because the input is not a properly\\n     * formatted address. See {parseAddress-string} requirements.\\n     */\\n    function tryParseAddress(string memory input) internal pure returns (bool success, address value) {\\n        return tryParseAddress(input, 0, bytes(input).length);\\n    }\\n\\n    /**\\n     * @dev Variant of {parseAddress-string-uint256-uint256} that returns false if the parsing fails because input is not a properly\\n     * formatted address. See {parseAddress-string-uint256-uint256} requirements.\\n     */\\n    function tryParseAddress(\\n        string memory input,\\n        uint256 begin,\\n        uint256 end\\n    ) internal pure returns (bool success, address value) {\\n        if (end > bytes(input).length || begin > end) return (false, address(0));\\n\\n        bool hasPrefix = (end > begin + 1) && bytes2(_unsafeReadBytesOffset(bytes(input), begin)) == bytes2(\\\"0x\\\"); // don't do out-of-bound (possibly unsafe) read if sub-string is empty\\n        uint256 expectedLength = 40 + hasPrefix.toUint() * 2;\\n\\n        // check that input is the correct length\\n        if (end - begin == expectedLength) {\\n            // length guarantees that this does not overflow, and value is at most type(uint160).max\\n            (bool s, uint256 v) = _tryParseHexUintUncheckedBounds(input, begin, end);\\n            return (s, address(uint160(v)));\\n        } else {\\n            return (false, address(0));\\n        }\\n    }\\n\\n    function _tryParseChr(bytes1 chr) private pure returns (uint8) {\\n        uint8 value = uint8(chr);\\n\\n        // Try to parse `chr`:\\n        // - Case 1: [0-9]\\n        // - Case 2: [a-f]\\n        // - Case 3: [A-F]\\n        // - otherwise not supported\\n        unchecked {\\n            if (value > 47 && value < 58) value -= 48;\\n            else if (value > 96 && value < 103) value -= 87;\\n            else if (value > 64 && value < 71) value -= 55;\\n            else return type(uint8).max;\\n        }\\n\\n        return value;\\n    }\\n\\n    /**\\n     * @dev Escape special characters in JSON strings. This can be useful to prevent JSON injection in NFT metadata.\\n     *\\n     * WARNING: This function should only be used in double quoted JSON strings. Single quotes are not escaped.\\n     *\\n     * NOTE: This function escapes all unicode characters, and not just the ones in ranges defined in section 2.5 of\\n     * RFC-4627 (U+0000 to U+001F, U+0022 and U+005C). ECMAScript's `JSON.parse` does recover escaped unicode\\n     * characters that are not in this range, but other tooling may provide different results.\\n     */\\n    function escapeJSON(string memory input) internal pure returns (string memory) {\\n        bytes memory buffer = bytes(input);\\n        bytes memory output = new bytes(2 * buffer.length); // worst case scenario\\n        uint256 outputLength = 0;\\n\\n        for (uint256 i; i < buffer.length; ++i) {\\n            bytes1 char = bytes1(_unsafeReadBytesOffset(buffer, i));\\n            if (((SPECIAL_CHARS_LOOKUP & (1 << uint8(char))) != 0)) {\\n                output[outputLength++] = \\\"\\\\\\\\\\\";\\n                if (char == 0x08) output[outputLength++] = \\\"b\\\";\\n                else if (char == 0x09) output[outputLength++] = \\\"t\\\";\\n                else if (char == 0x0a) output[outputLength++] = \\\"n\\\";\\n                else if (char == 0x0c) output[outputLength++] = \\\"f\\\";\\n                else if (char == 0x0d) output[outputLength++] = \\\"r\\\";\\n                else if (char == 0x5c) output[outputLength++] = \\\"\\\\\\\\\\\";\\n                else if (char == 0x22) {\\n                    // solhint-disable-next-line quotes\\n                    output[outputLength++] = '\\\"';\\n                }\\n            } else {\\n                output[outputLength++] = char;\\n            }\\n        }\\n        // write the actual length and deallocate unused memory\\n        assembly (\\\"memory-safe\\\") {\\n            mstore(output, outputLength)\\n            mstore(0x40, add(output, shl(5, shr(5, add(outputLength, 63)))))\\n        }\\n\\n        return string(output);\\n    }\\n\\n    /**\\n     * @dev Reads a bytes32 from a bytes array without bounds checking.\\n     *\\n     * NOTE: making this function internal would mean it could be used with memory unsafe offset, and marking the\\n     * assembly block as such would prevent some optimizations.\\n     */\\n    function _unsafeReadBytesOffset(bytes memory buffer, uint256 offset) private pure returns (bytes32 value) {\\n        // This is not memory safe in the general case, but all calls to this private function are within bounds.\\n        assembly (\\\"memory-safe\\\") {\\n            value := mload(add(add(buffer, 0x20), offset))\\n        }\\n    }\\n}\\n\"},\"@openzeppelin/contracts/token/ERC721/extensions/IERC721Metadata.sol\":{\"content\":\"// SPDX-License-Identifier: MIT\\n// OpenZeppelin Contracts (last updated v5.4.0) (token/ERC721/extensions/IERC721Metadata.sol)\\n\\npragma solidity >=0.6.2;\\n\\nimport {IERC721} from \\\"../IERC721.sol\\\";\\n\\n/**\\n * @title ERC-721 Non-Fungible Token Standard, optional metadata extension\\n * @dev See https://eips.ethereum.org/EIPS/eip-721\\n */\\ninterface IERC721Metadata is IERC721 {\\n    /**\\n     * @dev Returns the token collection name.\\n     */\\n    function name() external view returns (string memory);\\n\\n    /**\\n     * @dev Returns the token collection symbol.\\n     */\\n    function symbol() external view returns (string memory);\\n\\n    /**\\n     * @dev Returns the Uniform Resource Identifier (URI) for `tokenId` token.\\n     */\\n    function tokenURI(uint256 tokenId) external view returns (string memory);\\n}\\n\"},\"@openzeppelin/contracts/utils/introspection/IERC165.sol\":{\"content\":\"// SPDX-License-Identifier: MIT\\n// OpenZeppelin Contracts (last updated v5.4.0) (utils/introspection/IERC165.sol)\\n\\npragma solidity >=0.4.16;\\n\\n/**\\n * @dev Interface of the ERC-165 standard, as defined in the\\n * https://eips.ethereum.org/EIPS/eip-165[ERC].\\n *\\n * Implementers can declare support of contract interfaces, which can then be\\n * queried by others ({ERC165Checker}).\\n *\\n * For an implementation, see {ERC165}.\\n */\\ninterface IERC165 {\\n    /**\\n     * @dev Returns true if this contract implements the interface defined by\\n     * `interfaceId`. See the corresponding\\n     * https://eips.ethereum.org/EIPS/eip-165#how-interfaces-are-identified[ERC section]\\n     * to learn more about how these ids are created.\\n     *\\n     * This function call must use less than 30 000 gas.\\n     */\\n    function supportsInterface(bytes4 interfaceId) external view returns (bool);\\n}\\n\"},\"@openzeppelin/contracts/interfaces/draft-IERC6093.sol\":{\"content\":\"// SPDX-License-Identifier: MIT\\n// OpenZeppelin Contracts (last updated v5.4.0) (interfaces/draft-IERC6093.sol)\\npragma solidity >=0.8.4;\\n\\n/**\\n * @dev Standard ERC-20 Errors\\n * Interface of the https://eips.ethereum.org/EIPS/eip-6093[ERC-6093] custom errors for ERC-20 tokens.\\n */\\ninterface IERC20Errors {\\n    /**\\n     * @dev Indicates an error related to the current `balance` of a `sender`. Used in transfers.\\n     * @param sender Address whose tokens are being transferred.\\n     * @param balance Current balance for the interacting account.\\n     * @param needed Minimum amount required to perform a transfer.\\n     */\\n    error ERC20InsufficientBalance(address sender, uint256 balance, uint256 needed);\\n\\n    /**\\n     * @dev Indicates a failure with the token `sender`. Used in transfers.\\n     * @param sender Address whose tokens are being transferred.\\n     */\\n    error ERC20InvalidSender(address sender);\\n\\n    /**\\n     * @dev Indicates a failure with the token `receiver`. Used in transfers.\\n     * @param receiver Address to which tokens are being transferred.\\n     */\\n    error ERC20InvalidReceiver(address receiver);\\n\\n    /**\\n     * @dev Indicates a failure with the `spender`s `allowance`. Used in transfers.\\n     * @param spender Address that may be allowed to operate on tokens without being their owner.\\n     * @param allowance Amount of tokens a `spender` is allowed to operate with.\\n     * @param needed Minimum amount required to perform a transfer.\\n     */\\n    error ERC20InsufficientAllowance(address spender, uint256 allowance, uint256 needed);\\n\\n    /**\\n     * @dev Indicates a failure with the `approver` of a token to be approved. Used in approvals.\\n     * @param approver Address initiating an approval operation.\\n     */\\n    error ERC20InvalidApprover(address approver);\\n\\n    /**\\n     * @dev Indicates a failure with the `spender` to be approved. Used in approvals.\\n     * @param spender Address that may be allowed to operate on tokens without being their owner.\\n     */\\n    error ERC20InvalidSpender(address spender);\\n}\\n\\n/**\\n * @dev Standard ERC-721 Errors\\n * Interface of the https://eips.ethereum.org/EIPS/eip-6093[ERC-6093] custom errors for ERC-721 tokens.\\n */\\ninterface IERC721Errors {\\n    /**\\n     * @dev Indicates that an address can't be an owner. For example, `address(0)` is a forbidden owner in ERC-20.\\n     * Used in balance queries.\\n     * @param owner Address of the current owner of a token.\\n     */\\n    error ERC721InvalidOwner(address owner);\\n\\n    /**\\n     * @dev Indicates a `tokenId` whose `owner` is the zero address.\\n     * @param tokenId Identifier number of a token.\\n     */\\n    error ERC721NonexistentToken(uint256 tokenId);\\n\\n    /**\\n     * @dev Indicates an error related to the ownership over a particular token. Used in transfers.\\n     * @param sender Address whose tokens are being transferred.\\n     * @param tokenId Identifier number of a token.\\n     * @param owner Address of the current owner of a token.\\n     */\\n    error ERC721IncorrectOwner(address sender, uint256 tokenId, address owner);\\n\\n    /**\\n     * @dev Indicates a failure with the token `sender`. Used in transfers.\\n     * @param sender Address whose tokens are being transferred.\\n     */\\n    error ERC721InvalidSender(address sender);\\n\\n    /**\\n     * @dev Indicates a failure with the token `receiver`. Used in transfers.\\n     * @param receiver Address to which tokens are being transferred.\\n     */\\n    error ERC721InvalidReceiver(address receiver);\\n\\n    /**\\n     * @dev Indicates a failure with the `operator`s approval. Used in transfers.\\n     * @param operator Address that may be allowed to operate on tokens without being their owner.\\n     * @param tokenId Identifier number of a token.\\n     */\\n    error ERC721InsufficientApproval(address operator, uint256 tokenId);\\n\\n    /**\\n     * @dev Indicates a failure with the `approver` of a token to be approved. Used in approvals.\\n     * @param approver Address initiating an approval operation.\\n     */\\n    error ERC721InvalidApprover(address approver);\\n\\n    /**\\n     * @dev Indicates a failure with the `operator` to be approved. Used in approvals.\\n     * @param operator Address that may be allowed to operate on tokens without being their owner.\\n     */\\n    error ERC721InvalidOperator(address operator);\\n}\\n\\n/**\\n * @dev Standard ERC-1155 Errors\\n * Interface of the https://eips.ethereum.org/EIPS/eip-6093[ERC-6093] custom errors for ERC-1155 tokens.\\n */\\ninterface IERC1155Errors {\\n    /**\\n     * @dev Indicates an error related to the current `balance` of a `sender`. Used in transfers.\\n     * @param sender Address whose tokens are being transferred.\\n     * @param balance Current balance for the interacting account.\\n     * @param needed Minimum amount required to perform a transfer.\\n     * @param tokenId Identifier number of a token.\\n     */\\n    error ERC1155InsufficientBalance(address sender, uint256 balance, uint256 needed, uint256 tokenId);\\n\\n    /**\\n     * @dev Indicates a failure with the token `sender`. Used in transfers.\\n     * @param sender Address whose tokens are being transferred.\\n     */\\n    error ERC1155InvalidSender(address sender);\\n\\n    /**\\n     * @dev Indicates a failure with the token `receiver`. Used in transfers.\\n     * @param receiver Address to which tokens are being transferred.\\n     */\\n    error ERC1155InvalidReceiver(address receiver);\\n\\n    /**\\n     * @dev Indicates a failure with the `operator`s approval. Used in transfers.\\n     * @param operator Address that may be allowed to operate on tokens without being their owner.\\n     * @param owner Address of the current owner of a token.\\n     */\\n    error ERC1155MissingApprovalForAll(address operator, address owner);\\n\\n    /**\\n     * @dev Indicates a failure with the `approver` of a token to be approved. Used in approvals.\\n     * @param approver Address initiating an approval operation.\\n     */\\n    error ERC1155InvalidApprover(address approver);\\n\\n    /**\\n     * @dev Indicates a failure with the `operator` to be approved. Used in approvals.\\n     * @param operator Address that may be allowed to operate on tokens without being their owner.\\n     */\\n    error ERC1155InvalidOperator(address operator);\\n\\n    /**\\n     * @dev Indicates an array length mismatch between ids and values in a safeBatchTransferFrom operation.\\n     * Used in batch transfers.\\n     * @param idsLength Length of the array of token identifiers\\n     * @param valuesLength Length of the array of token amounts\\n     */\\n    error ERC1155InvalidArrayLength(uint256 idsLength, uint256 valuesLength);\\n}\\n\"},\"@openzeppelin/contracts/utils/introspection/ERC165.sol\":{\"content\":\"// SPDX-License-Identifier: MIT\\n// OpenZeppelin Contracts (last updated v5.4.0) (utils/introspection/ERC165.sol)\\n\\npragma solidity ^0.8.20;\\n\\nimport {IERC165} from \\\"./IERC165.sol\\\";\\n\\n/**\\n * @dev Implementation of the {IERC165} interface.\\n *\\n * Contracts that want to implement ERC-165 should inherit from this contract and override {supportsInterface} to check\\n * for the additional interface id that will be supported. For example:\\n *\\n * ```solidity\\n * function supportsInterface(bytes4 interfaceId) public view virtual override returns (bool) {\\n *     return interfaceId == type(MyInterface).interfaceId || super.supportsInterface(interfaceId);\\n * }\\n * ```\\n */\\nabstract contract ERC165 is IERC165 {\\n    /// @inheritdoc IERC165\\n    function supportsInterface(bytes4 interfaceId) public view virtual returns (bool) {\\n        return interfaceId == type(IERC165).interfaceId;\\n    }\\n}\\n\"},\"@openzeppelin/contracts/token/ERC721/utils/ERC721Utils.sol\":{\"content\":\"// SPDX-License-Identifier: MIT\\n// OpenZeppelin Contracts (last updated v5.4.0) (token/ERC721/utils/ERC721Utils.sol)\\n\\npragma solidity ^0.8.20;\\n\\nimport {IERC721Receiver} from \\\"../IERC721Receiver.sol\\\";\\nimport {IERC721Errors} from \\\"../../../interfaces/draft-IERC6093.sol\\\";\\n\\n/**\\n * @dev Library that provide common ERC-721 utility functions.\\n *\\n * See https://eips.ethereum.org/EIPS/eip-721[ERC-721].\\n *\\n * _Available since v5.1._\\n */\\nlibrary ERC721Utils {\\n    /**\\n     * @dev Performs an acceptance check for the provided `operator` by calling {IERC721Receiver-onERC721Received}\\n     * on the `to` address. The `operator` is generally the address that initiated the token transfer (i.e. `msg.sender`).\\n     *\\n     * The acceptance call is not executed and treated as a no-op if the target address doesn't contain code (i.e. an EOA).\\n     * Otherwise, the recipient must implement {IERC721Receiver-onERC721Received} and return the acceptance magic value to accept\\n     * the transfer.\\n     */\\n    function checkOnERC721Received(\\n        address operator,\\n        address from,\\n        address to,\\n        uint256 tokenId,\\n        bytes memory data\\n    ) internal {\\n        if (to.code.length > 0) {\\n            try IERC721Receiver(to).onERC721Received(operator, from, tokenId, data) returns (bytes4 retval) {\\n                if (retval != IERC721Receiver.onERC721Received.selector) {\\n                    // Token rejected\\n                    revert IERC721Errors.ERC721InvalidReceiver(to);\\n                }\\n            } catch (bytes memory reason) {\\n                if (reason.length == 0) {\\n                    // non-IERC721Receiver implementer\\n                    revert IERC721Errors.ERC721InvalidReceiver(to);\\n                } else {\\n                    assembly (\\\"memory-safe\\\") {\\n                        revert(add(reason, 0x20), mload(reason))\\n                    }\\n                }\\n            }\\n        }\\n    }\\n}\\n\"},\"@openzeppelin/contracts/utils/math/SignedMath.sol\":{\"content\":\"// SPDX-License-Identifier: MIT\\n// OpenZeppelin Contracts (last updated v5.1.0) (utils/math/SignedMath.sol)\\n\\npragma solidity ^0.8.20;\\n\\nimport {SafeCast} from \\\"./SafeCast.sol\\\";\\n\\n/**\\n * @dev Standard signed math utilities missing in the Solidity language.\\n */\\nlibrary SignedMath {\\n    /**\\n     * @dev Branchless ternary evaluation for `a ? b : c`. Gas costs are constant.\\n     *\\n     * IMPORTANT: This function may reduce bytecode size and consume less gas when used standalone.\\n     * However, the compiler may optimize Solidity ternary operations (i.e. `a ? b : c`) to only compute\\n     * one branch when needed, making this function more expensive.\\n     */\\n    function ternary(bool condition, int256 a, int256 b) internal pure returns (int256) {\\n        unchecked {\\n            // branchless ternary works because:\\n            // b ^ (a ^ b) == a\\n            // b ^ 0 == b\\n            return b ^ ((a ^ b) * int256(SafeCast.toUint(condition)));\\n        }\\n    }\\n\\n    /**\\n     * @dev Returns the largest of two signed numbers.\\n     */\\n    function max(int256 a, int256 b) internal pure returns (int256) {\\n        return ternary(a > b, a, b);\\n    }\\n\\n    /**\\n     * @dev Returns the smallest of two signed numbers.\\n     */\\n    function min(int256 a, int256 b) internal pure returns (int256) {\\n        return ternary(a < b, a, b);\\n    }\\n\\n    /**\\n     * @dev Returns the average of two signed numbers without overflow.\\n     * The result is rounded towards zero.\\n     */\\n    function average(int256 a, int256 b) internal pure returns (int256) {\\n        // Formula from the book \\\"Hacker's Delight\\\"\\n        int256 x = (a & b) + ((a ^ b) >> 1);\\n        return x + (int256(uint256(x) >> 255) & (a ^ b));\\n    }\\n\\n    /**\\n     * @dev Returns the absolute unsigned value of a signed value.\\n     */\\n    function abs(int256 n) internal pure returns (uint256) {\\n        unchecked {\\n            // Formula from the \\\"Bit Twiddling Hacks\\\" by Sean Eron Anderson.\\n            // Since `n` is a signed integer, the generated bytecode will use the SAR opcode to perform the right shift,\\n            // taking advantage of the most significant (or \\\"sign\\\" bit) in two's complement representation.\\n            // This opcode adds new most significant bits set to the value of the previous most significant bit. As a result,\\n            // the mask will either be `bytes32(0)` (if n is positive) or `~bytes32(0)` (if n is negative).\\n            int256 mask = n >> 255;\\n\\n            // A `bytes32(0)` mask leaves the input unchanged, while a `~bytes32(0)` mask complements it.\\n            return uint256((n + mask) ^ mask);\\n        }\\n    }\\n}\\n\"},\"@openzeppelin/contracts/utils/math/SafeCast.sol\":{\"content\":\"// SPDX-License-Identifier: MIT\\n// OpenZeppelin Contracts (last updated v5.1.0) (utils/math/SafeCast.sol)\\n// This file was procedurally generated from scripts/generate/templates/SafeCast.js.\\n\\npragma solidity ^0.8.20;\\n\\n/**\\n * @dev Wrappers over Solidity's uintXX/intXX/bool casting operators with added overflow\\n * checks.\\n *\\n * Downcasting from uint256/int256 in Solidity does not revert on overflow. This can\\n * easily result in undesired exploitation or bugs, since developers usually\\n * assume that overflows raise errors. `SafeCast` restores this intuition by\\n * reverting the transaction when such an operation overflows.\\n *\\n * Using this library instead of the unchecked operations eliminates an entire\\n * class of bugs, so it's recommended to use it always.\\n */\\nlibrary SafeCast {\\n    /**\\n     * @dev Value doesn't fit in an uint of `bits` size.\\n     */\\n    error SafeCastOverflowedUintDowncast(uint8 bits, uint256 value);\\n\\n    /**\\n     * @dev An int value doesn't fit in an uint of `bits` size.\\n     */\\n    error SafeCastOverflowedIntToUint(int256 value);\\n\\n    /**\\n     * @dev Value doesn't fit in an int of `bits` size.\\n     */\\n    error SafeCastOverflowedIntDowncast(uint8 bits, int256 value);\\n\\n    /**\\n     * @dev An uint value doesn't fit in an int of `bits` size.\\n     */\\n    error SafeCastOverflowedUintToInt(uint256 value);\\n\\n    /**\\n     * @dev Returns the downcasted uint248 from uint256, reverting on\\n     * overflow (when the input is greater than largest uint248).\\n     *\\n     * Counterpart to Solidity's `uint248` operator.\\n     *\\n     * Requirements:\\n     *\\n     * - input must fit into 248 bits\\n     */\\n    function toUint248(uint256 value) internal pure returns (uint248) {\\n        if (value > type(uint248).max) {\\n            revert SafeCastOverflowedUintDowncast(248, value);\\n        }\\n        return uint248(value);\\n    }\\n\\n    /**\\n     * @dev Returns the downcasted uint240 from uint256, reverting on\\n     * overflow (when the input is greater than largest uint240).\\n     *\\n     * Counterpart to Solidity's `uint240` operator.\\n     *\\n     * Requirements:\\n     *\\n     * - input must fit into 240 bits\\n     */\\n    function toUint240(uint256 value) internal pure returns (uint240) {\\n        if (value > type(uint240).max) {\\n            revert SafeCastOverflowedUintDowncast(240, value);\\n        }\\n        return uint240(value);\\n    }\\n\\n    /**\\n     * @dev Returns the downcasted uint232 from uint256, reverting on\\n     * overflow (when the input is greater than largest uint232).\\n     *\\n     * Counterpart to Solidity's `uint232` operator.\\n     *\\n     * Requirements:\\n     *\\n     * - input must fit into 232 bits\\n     */\\n    function toUint232(uint256 value) internal pure returns (uint232) {\\n        if (value > type(uint232).max) {\\n            revert SafeCastOverflowedUintDowncast(232, value);\\n        }\\n        return uint232(value);\\n    }\\n\\n    /**\\n     * @dev Returns the downcasted uint224 from uint256, reverting on\\n     * overflow (when the input is greater than largest uint224).\\n     *\\n     * Counterpart to Solidity's `uint224` operator.\\n     *\\n     * Requirements:\\n     *\\n     * - input must fit into 224 bits\\n     */\\n    function toUint224(uint256 value) internal pure returns (uint224) {\\n        if (value > type(uint224).max) {\\n            revert SafeCastOverflowedUintDowncast(224, value);\\n        }\\n        return uint224(value);\\n    }\\n\\n    /**\\n     * @dev Returns the downcasted uint216 from uint256, reverting on\\n     * overflow (when the input is greater than largest uint216).\\n     *\\n     * Counterpart to Solidity's `uint216` operator.\\n     *\\n     * Requirements:\\n     *\\n     * - input must fit into 216 bits\\n     */\\n    function toUint216(uint256 value) internal pure returns (uint216) {\\n        if (value > type(uint216).max) {\\n            revert SafeCastOverflowedUintDowncast(216, value);\\n        }\\n        return uint216(value);\\n    }\\n\\n    /**\\n     * @dev Returns the downcasted uint208 from uint256, reverting on\\n     * overflow (when the input is greater than largest uint208).\\n     *\\n     * Counterpart to Solidity's `uint208` operator.\\n     *\\n     * Requirements:\\n     *\\n     * - input must fit into 208 bits\\n     */\\n    function toUint208(uint256 value) internal pure returns (uint208) {\\n        if (value > type(uint208).max) {\\n            revert SafeCastOverflowedUintDowncast(208, value);\\n        }\\n        return uint208(value);\\n    }\\n\\n    /**\\n     * @dev Returns the downcasted uint200 from uint256, reverting on\\n     * overflow (when the input is greater than largest uint200).\\n     *\\n     * Counterpart to Solidity's `uint200` operator.\\n     *\\n     * Requirements:\\n     *\\n     * - input must fit into 200 bits\\n     */\\n    function toUint200(uint256 value) internal pure returns (uint200) {\\n        if (value > type(uint200).max) {\\n            revert SafeCastOverflowedUintDowncast(200, value);\\n        }\\n        return uint200(value);\\n    }\\n\\n    /**\\n     * @dev Returns the downcasted uint192 from uint256, reverting on\\n     * overflow (when the input is greater than largest uint192).\\n     *\\n     * Counterpart to Solidity's `uint192` operator.\\n     *\\n     * Requirements:\\n     *\\n     * - input must fit into 192 bits\\n     */\\n    function toUint192(uint256 value) internal pure returns (uint192) {\\n        if (value > type(uint192).max) {\\n            revert SafeCastOverflowedUintDowncast(192, value);\\n        }\\n        return uint192(value);\\n    }\\n\\n    /**\\n     * @dev Returns the downcasted uint184 from uint256, reverting on\\n     * overflow (when the input is greater than largest uint184).\\n     *\\n     * Counterpart to Solidity's `uint184` operator.\\n     *\\n     * Requirements:\\n     *\\n     * - input must fit into 184 bits\\n     */\\n    function toUint184(uint256 value) internal pure returns (uint184) {\\n        if (value > type(uint184).max) {\\n            revert SafeCastOverflowedUintDowncast(184, value);\\n        }\\n        return uint184(value);\\n    }\\n\\n    /**\\n     * @dev Returns the downcasted uint176 from uint256, reverting on\\n     * overflow (when the input is greater than largest uint176).\\n     *\\n     * Counterpart to Solidity's `uint176` operator.\\n     *\\n     * Requirements:\\n     *\\n     * - input must fit into 176 bits\\n     */\\n    function toUint176(uint256 value) internal pure returns (uint176) {\\n        if (value > type(uint176).max) {\\n            revert SafeCastOverflowedUintDowncast(176, value);\\n        }\\n        return uint176(value);\\n    }\\n\\n    /**\\n     * @dev Returns the downcasted uint168 from uint256, reverting on\\n     * overflow (when the input is greater than largest uint168).\\n     *\\n     * Counterpart to Solidity's `uint168` operator.\\n     *\\n     * Requirements:\\n     *\\n     * - input must fit into 168 bits\\n     */\\n    function toUint168(uint256 value) internal pure returns (uint168) {\\n        if (value > type(uint168).max) {\\n            revert SafeCastOverflowedUintDowncast(168, value);\\n        }\\n        return uint168(value);\\n    }\\n\\n    /**\\n     * @dev Returns the downcasted uint160 from uint256, reverting on\\n     * overflow (when the input is greater than largest uint160).\\n     *\\n     * Counterpart to Solidity's `uint160` operator.\\n     *\\n     * Requirements:\\n     *\\n     * - input must fit into 160 bits\\n     */\\n    function toUint160(uint256 value) internal pure returns (uint160) {\\n        if (value > type(uint160).max) {\\n            revert SafeCastOverflowedUintDowncast(160, value);\\n        }\\n        return uint160(value);\\n    }\\n\\n    /**\\n     * @dev Returns the downcasted uint152 from uint256, reverting on\\n     * overflow (when the input is greater than largest uint152).\\n     *\\n     * Counterpart to Solidity's `uint152` operator.\\n     *\\n     * Requirements:\\n     *\\n     * - input must fit into 152 bits\\n     */\\n    function toUint152(uint256 value) internal pure returns (uint152) {\\n        if (value > type(uint152).max) {\\n            revert SafeCastOverflowedUintDowncast(152, value);\\n        }\\n        return uint152(value);\\n    }\\n\\n    /**\\n     * @dev Returns the downcasted uint144 from uint256, reverting on\\n     * overflow (when the input is greater than largest uint144).\\n     *\\n     * Counterpart to Solidity's `uint144` operator.\\n     *\\n     * Requirements:\\n     *\\n     * - input must fit into 144 bits\\n     */\\n    function toUint144(uint256 value) internal pure returns (uint144) {\\n        if (value > type(uint144).max) {\\n            revert SafeCastOverflowedUintDowncast(144, value);\\n        }\\n        return uint144(value);\\n    }\\n\\n    /**\\n     * @dev Returns the downcasted uint136 from uint256, reverting on\\n     * overflow (when the input is greater than largest uint136).\\n     *\\n     * Counterpart to Solidity's `uint136` operator.\\n     *\\n     * Requirements:\\n     *\\n     * - input must fit into 136 bits\\n     */\\n    function toUint136(uint256 value) internal pure returns (uint136) {\\n        if (value > type(uint136).max) {\\n            revert SafeCastOverflowedUintDowncast(136, value);\\n        }\\n        return uint136(value);\\n    }\\n\\n    /**\\n     * @dev Returns the downcasted uint128 from uint256, reverting on\\n     * overflow (when the input is greater than largest uint128).\\n     *\\n     * Counterpart to Solidity's `uint128` operator.\\n     *\\n     * Requirements:\\n     *\\n     * - input must fit into 128 bits\\n     */\\n    function toUint128(uint256 value) internal pure returns (uint128) {\\n        if (value > type(uint128).max) {\\n            revert SafeCastOverflowedUintDowncast(128, value);\\n        }\\n        return uint128(value);\\n    }\\n\\n    /**\\n     * @dev Returns the downcasted uint120 from uint256, reverting on\\n     * overflow (when the input is greater than largest uint120).\\n     *\\n     * Counterpart to Solidity's `uint120` operator.\\n     *\\n     * Requirements:\\n     *\\n     * - input must fit into 120 bits\\n     */\\n    function toUint120(uint256 value) internal pure returns (uint120) {\\n        if (value > type(uint120).max) {\\n            revert SafeCastOverflowedUintDowncast(120, value);\\n        }\\n        return uint120(value);\\n    }\\n\\n    /**\\n     * @dev Returns the downcasted uint112 from uint256, reverting on\\n     * overflow (when the input is greater than largest uint112).\\n     *\\n     * Counterpart to Solidity's `uint112` operator.\\n     *\\n     * Requirements:\\n     *\\n     * - input must fit into 112 bits\\n     */\\n    function toUint112(uint256 value) internal pure returns (uint112) {\\n        if (value > type(uint112).max) {\\n            revert SafeCastOverflowedUintDowncast(112, value);\\n        }\\n        return uint112(value);\\n    }\\n\\n    /**\\n     * @dev Returns the downcasted uint104 from uint256, reverting on\\n     * overflow (when the input is greater than largest uint104).\\n     *\\n     * Counterpart to Solidity's `uint104` operator.\\n     *\\n     * Requirements:\\n     *\\n     * - input must fit into 104 bits\\n     */\\n    function toUint104(uint256 value) internal pure returns (uint104) {\\n        if (value > type(uint104).max) {\\n            revert SafeCastOverflowedUintDowncast(104, value);\\n        }\\n        return uint104(value);\\n    }\\n\\n    /**\\n     * @dev Returns the downcasted uint96 from uint256, reverting on\\n     * overflow (when the input is greater than largest uint96).\\n     *\\n     * Counterpart to Solidity's `uint96` operator.\\n     *\\n     * Requirements:\\n     *\\n     * - input must fit into 96 bits\\n     */\\n    function toUint96(uint256 value) internal pure returns (uint96) {\\n        if (value > type(uint96).max) {\\n            revert SafeCastOverflowedUintDowncast(96, value);\\n        }\\n        return uint96(value);\\n    }\\n\\n    /**\\n     * @dev Returns the downcasted uint88 from uint256, reverting on\\n     * overflow (when the input is greater than largest uint88).\\n     *\\n     * Counterpart to Solidity's `uint88` operator.\\n     *\\n     * Requirements:\\n     *\\n     * - input must fit into 88 bits\\n     */\\n    function toUint88(uint256 value) internal pure returns (uint88) {\\n        if (value > type(uint88).max) {\\n            revert SafeCastOverflowedUintDowncast(88, value);\\n        }\\n        return uint88(value);\\n    }\\n\\n    /**\\n     * @dev Returns the downcasted uint80 from uint256, reverting on\\n     * overflow (when the input is greater than largest uint80).\\n     *\\n     * Counterpart to Solidity's `uint80` operator.\\n     *\\n     * Requirements:\\n     *\\n     * - input must fit into 80 bits\\n     */\\n    function toUint80(uint256 value) internal pure returns (uint80) {\\n        if (value > type(uint80).max) {\\n            revert SafeCastOverflowedUintDowncast(80, value);\\n        }\\n        return uint80(value);\\n    }\\n\\n    /**\\n     * @dev Returns the downcasted uint72 from uint256, reverting on\\n     * overflow (when the input is greater than largest uint72).\\n     *\\n     * Counterpart to Solidity's `uint72` operator.\\n     *\\n     * Requirements:\\n     *\\n     * - input must fit into 72 bits\\n     */\\n    function toUint72(uint256 value) internal pure returns (uint72) {\\n        if (value > type(uint72).max) {\\n            revert SafeCastOverflowedUintDowncast(72, value);\\n        }\\n        return uint72(value);\\n    }\\n\\n    /**\\n     * @dev Returns the downcasted uint64 from uint256, reverting on\\n     * overflow (when the input is greater than largest uint64).\\n     *\\n     * Counterpart to Solidity's `uint64` operator.\\n     *\\n     * Requirements:\\n     *\\n     * - input must fit into 64 bits\\n     */\\n    function toUint64(uint256 value) internal pure returns (uint64) {\\n        if (value > type(uint64).max) {\\n            revert SafeCastOverflowedUintDowncast(64, value);\\n        }\\n        return uint64(value);\\n    }\\n\\n    /**\\n     * @dev Returns the downcasted uint56 from uint256, reverting on\\n     * overflow (when the input is greater than largest uint56).\\n     *\\n     * Counterpart to Solidity's `uint56` operator.\\n     *\\n     * Requirements:\\n     *\\n     * - input must fit into 56 bits\\n     */\\n    function toUint56(uint256 value) internal pure returns (uint56) {\\n        if (value > type(uint56).max) {\\n            revert SafeCastOverflowedUintDowncast(56, value);\\n        }\\n        return uint56(value);\\n    }\\n\\n    /**\\n     * @dev Returns the downcasted uint48 from uint256, reverting on\\n     * overflow (when the input is greater than largest uint48).\\n     *\\n     * Counterpart to Solidity's `uint48` operator.\\n     *\\n     * Requirements:\\n     *\\n     * - input must fit into 48 bits\\n     */\\n    function toUint48(uint256 value) internal pure returns (uint48) {\\n        if (value > type(uint48).max) {\\n            revert SafeCastOverflowedUintDowncast(48, value);\\n        }\\n        return uint48(value);\\n    }\\n\\n    /**\\n     * @dev Returns the downcasted uint40 from uint256, reverting on\\n     * overflow (when the input is greater than largest uint40).\\n     *\\n     * Counterpart to Solidity's `uint40` operator.\\n     *\\n     * Requirements:\\n     *\\n     * - input must fit into 40 bits\\n     */\\n    function toUint40(uint256 value) internal pure returns (uint40) {\\n        if (value > type(uint40).max) {\\n            revert SafeCastOverflowedUintDowncast(40, value);\\n        }\\n        return uint40(value);\\n    }\\n\\n    /**\\n     * @dev Returns the downcasted uint32 from uint256, reverting on\\n     * overflow (when the input is greater than largest uint32).\\n     *\\n     * Counterpart to Solidity's `uint32` operator.\\n     *\\n     * Requirements:\\n     *\\n     * - input must fit into 32 bits\\n     */\\n    function toUint32(uint256 value) internal pure returns (uint32) {\\n        if (value > type(uint32).max) {\\n            revert SafeCastOverflowedUintDowncast(32, value);\\n        }\\n        return uint32(value);\\n    }\\n\\n    /**\\n     * @dev Returns the downcasted uint24 from uint256, reverting on\\n     * overflow (when the input is greater than largest uint24).\\n     *\\n     * Counterpart to Solidity's `uint24` operator.\\n     *\\n     * Requirements:\\n     *\\n     * - input must fit into 24 bits\\n     */\\n    function toUint24(uint256 value) internal pure returns (uint24) {\\n        if (value > type(uint24).max) {\\n            revert SafeCastOverflowedUintDowncast(24, value);\\n        }\\n        return uint24(value);\\n    }\\n\\n    /**\\n     * @dev Returns the downcasted uint16 from uint256, reverting on\\n     * overflow (when the input is greater than largest uint16).\\n     *\\n     * Counterpart to Solidity's `uint16` operator.\\n     *\\n     * Requirements:\\n     *\\n     * - input must fit into 16 bits\\n     */\\n    function toUint16(uint256 value) internal pure returns (uint16) {\\n        if (value > type(uint16).max) {\\n            revert SafeCastOverflowedUintDowncast(16, value);\\n        }\\n        return uint16(value);\\n    }\\n\\n    /**\\n     * @dev Returns the downcasted uint8 from uint256, reverting on\\n     * overflow (when the input is greater than largest uint8).\\n     *\\n     * Counterpart to Solidity's `uint8` operator.\\n     *\\n     * Requirements:\\n     *\\n     * - input must fit into 8 bits\\n     */\\n    function toUint8(uint256 value) internal pure returns (uint8) {\\n        if (value > type(uint8).max) {\\n            revert SafeCastOverflowedUintDowncast(8, value);\\n        }\\n        return uint8(value);\\n    }\\n\\n    /**\\n     * @dev Converts a signed int256 into an unsigned uint256.\\n     *\\n     * Requirements:\\n     *\\n     * - input must be greater than or equal to 0.\\n     */\\n    function toUint256(int256 value) internal pure returns (uint256) {\\n        if (value < 0) {\\n            revert SafeCastOverflowedIntToUint(value);\\n        }\\n        return uint256(value);\\n    }\\n\\n    /**\\n     * @dev Returns the downcasted int248 from int256, reverting on\\n     * overflow (when the input is less than smallest int248 or\\n     * greater than largest int248).\\n     *\\n     * Counterpart to Solidity's `int248` operator.\\n     *\\n     * Requirements:\\n     *\\n     * - input must fit into 248 bits\\n     */\\n    function toInt248(int256 value) internal pure returns (int248 downcasted) {\\n        downcasted = int248(value);\\n        if (downcasted != value) {\\n            revert SafeCastOverflowedIntDowncast(248, value);\\n        }\\n    }\\n\\n    /**\\n     * @dev Returns the downcasted int240 from int256, reverting on\\n     * overflow (when the input is less than smallest int240 or\\n     * greater than largest int240).\\n     *\\n     * Counterpart to Solidity's `int240` operator.\\n     *\\n     * Requirements:\\n     *\\n     * - input must fit into 240 bits\\n     */\\n    function toInt240(int256 value) internal pure returns (int240 downcasted) {\\n        downcasted = int240(value);\\n        if (downcasted != value) {\\n            revert SafeCastOverflowedIntDowncast(240, value);\\n        }\\n    }\\n\\n    /**\\n     * @dev Returns the downcasted int232 from int256, reverting on\\n     * overflow (when the input is less than smallest int232 or\\n     * greater than largest int232).\\n     *\\n     * Counterpart to Solidity's `int232` operator.\\n     *\\n     * Requirements:\\n     *\\n     * - input must fit into 232 bits\\n     */\\n    function toInt232(int256 value) internal pure returns (int232 downcasted) {\\n        downcasted = int232(value);\\n        if (downcasted != value) {\\n            revert SafeCastOverflowedIntDowncast(232, value);\\n        }\\n    }\\n\\n    /**\\n     * @dev Returns the downcasted int224 from int256, reverting on\\n     * overflow (when the input is less than smallest int224 or\\n     * greater than largest int224).\\n     *\\n     * Counterpart to Solidity's `int224` operator.\\n     *\\n     * Requirements:\\n     *\\n     * - input must fit into 224 bits\\n     */\\n    function toInt224(int256 value) internal pure returns (int224 downcasted) {\\n        downcasted = int224(value);\\n        if (downcasted != value) {\\n            revert SafeCastOverflowedIntDowncast(224, value);\\n        }\\n    }\\n\\n    /**\\n     * @dev Returns the downcasted int216 from int256, reverting on\\n     * overflow (when the input is less than smallest int216 or\\n     * greater than largest int216).\\n     *\\n     * Counterpart to Solidity's `int216` operator.\\n     *\\n     * Requirements:\\n     *\\n     * - input must fit into 216 bits\\n     */\\n    function toInt216(int256 value) internal pure returns (int216 downcasted) {\\n        downcasted = int216(value);\\n        if (downcasted != value) {\\n            revert SafeCastOverflowedIntDowncast(216, value);\\n        }\\n    }\\n\\n    /**\\n     * @dev Returns the downcasted int208 from int256, reverting on\\n     * overflow (when the input is less than smallest int208 or\\n     * greater than largest int208).\\n     *\\n     * Counterpart to Solidity's `int208` operator.\\n     *\\n     * Requirements:\\n     *\\n     * - input must fit into 208 bits\\n     */\\n    function toInt208(int256 value) internal pure returns (int208 downcasted) {\\n        downcasted = int208(value);\\n        if (downcasted != value) {\\n            revert SafeCastOverflowedIntDowncast(208, value);\\n        }\\n    }\\n\\n    /**\\n     * @dev Returns the downcasted int200 from int256, reverting on\\n     * overflow (when the input is less than smallest int200 or\\n     * greater than largest int200).\\n     *\\n     * Counterpart to Solidity's `int200` operator.\\n     *\\n     * Requirements:\\n     *\\n     * - input must fit into 200 bits\\n     */\\n    function toInt200(int256 value) internal pure returns (int200 downcasted) {\\n        downcasted = int200(value);\\n        if (downcasted != value) {\\n            revert SafeCastOverflowedIntDowncast(200, value);\\n        }\\n    }\\n\\n    /**\\n     * @dev Returns the downcasted int192 from int256, reverting on\\n     * overflow (when the input is less than smallest int192 or\\n     * greater than largest int192).\\n     *\\n     * Counterpart to Solidity's `int192` operator.\\n     *\\n     * Requirements:\\n     *\\n     * - input must fit into 192 bits\\n     */\\n    function toInt192(int256 value) internal pure returns (int192 downcasted) {\\n        downcasted = int192(value);\\n        if (downcasted != value) {\\n            revert SafeCastOverflowedIntDowncast(192, value);\\n        }\\n    }\\n\\n    /**\\n     * @dev Returns the downcasted int184 from int256, reverting on\\n     * overflow (when the input is less than smallest int184 or\\n     * greater than largest int184).\\n     *\\n     * Counterpart to Solidity's `int184` operator.\\n     *\\n     * Requirements:\\n     *\\n     * - input must fit into 184 bits\\n     */\\n    function toInt184(int256 value) internal pure returns (int184 downcasted) {\\n        downcasted = int184(value);\\n        if (downcasted != value) {\\n            revert SafeCastOverflowedIntDowncast(184, value);\\n        }\\n    }\\n\\n    /**\\n     * @dev Returns the downcasted int176 from int256, reverting on\\n     * overflow (when the input is less than smallest int176 or\\n     * greater than largest int176).\\n     *\\n     * Counterpart to Solidity's `int176` operator.\\n     *\\n     * Requirements:\\n     *\\n     * - input must fit into 176 bits\\n     */\\n    function toInt176(int256 value) internal pure returns (int176 downcasted) {\\n        downcasted = int176(value);\\n        if (downcasted != value) {\\n            revert SafeCastOverflowedIntDowncast(176, value);\\n        }\\n    }\\n\\n    /**\\n     * @dev Returns the downcasted int168 from int256, reverting on\\n     * overflow (when the input is less than smallest int168 or\\n     * greater than largest int168).\\n     *\\n     * Counterpart to Solidity's `int168` operator.\\n     *\\n     * Requirements:\\n     *\\n     * - input must fit into 168 bits\\n     */\\n    function toInt168(int256 value) internal pure returns (int168 downcasted) {\\n        downcasted = int168(value);\\n        if (downcasted != value) {\\n            revert SafeCastOverflowedIntDowncast(168, value);\\n        }\\n    }\\n\\n    /**\\n     * @dev Returns the downcasted int160 from int256, reverting on\\n     * overflow (when the input is less than smallest int160 or\\n     * greater than largest int160).\\n     *\\n     * Counterpart to Solidity's `int160` operator.\\n     *\\n     * Requirements:\\n     *\\n     * - input must fit into 160 bits\\n     */\\n    function toInt160(int256 value) internal pure returns (int160 downcasted) {\\n        downcasted = int160(value);\\n        if (downcasted != value) {\\n            revert SafeCastOverflowedIntDowncast(160, value);\\n        }\\n    }\\n\\n    /**\\n     * @dev Returns the downcasted int152 from int256, reverting on\\n     * overflow (when the input is less than smallest int152 or\\n     * greater than largest int152).\\n     *\\n     * Counterpart to Solidity's `int152` operator.\\n     *\\n     * Requirements:\\n     *\\n     * - input must fit into 152 bits\\n     */\\n    function toInt152(int256 value) internal pure returns (int152 downcasted) {\\n        downcasted = int152(value);\\n        if (downcasted != value) {\\n            revert SafeCastOverflowedIntDowncast(152, value);\\n        }\\n    }\\n\\n    /**\\n     * @dev Returns the downcasted int144 from int256, reverting on\\n     * overflow (when the input is less than smallest int144 or\\n     * greater than largest int144).\\n     *\\n     * Counterpart to Solidity's `int144` operator.\\n     *\\n     * Requirements:\\n     *\\n     * - input must fit into 144 bits\\n     */\\n    function toInt144(int256 value) internal pure returns (int144 downcasted) {\\n        downcasted = int144(value);\\n        if (downcasted != value) {\\n            revert SafeCastOverflowedIntDowncast(144, value);\\n        }\\n    }\\n\\n    /**\\n     * @dev Returns the downcasted int136 from int256, reverting on\\n     * overflow (when the input is less than smallest int136 or\\n     * greater than largest int136).\\n     *\\n     * Counterpart to Solidity's `int136` operator.\\n     *\\n     * Requirements:\\n     *\\n     * - input must fit into 136 bits\\n     */\\n    function toInt136(int256 value) internal pure returns (int136 downcasted) {\\n        downcasted = int136(value);\\n        if (downcasted != value) {\\n            revert SafeCastOverflowedIntDowncast(136, value);\\n        }\\n    }\\n\\n    /**\\n     * @dev Returns the downcasted int128 from int256, reverting on\\n     * overflow (when the input is less than smallest int128 or\\n     * greater than largest int128).\\n     *\\n     * Counterpart to Solidity's `int128` operator.\\n     *\\n     * Requirements:\\n     *\\n     * - input must fit into 128 bits\\n     */\\n    function toInt128(int256 value) internal pure returns (int128 downcasted) {\\n        downcasted = int128(value);\\n        if (downcasted != value) {\\n            revert SafeCastOverflowedIntDowncast(128, value);\\n        }\\n    }\\n\\n    /**\\n     * @dev Returns the downcasted int120 from int256, reverting on\\n     * overflow (when the input is less than smallest int120 or\\n     * greater than largest int120).\\n     *\\n     * Counterpart to Solidity's `int120` operator.\\n     *\\n     * Requirements:\\n     *\\n     * - input must fit into 120 bits\\n     */\\n    function toInt120(int256 value) internal pure returns (int120 downcasted) {\\n        downcasted = int120(value);\\n        if (downcasted != value) {\\n            revert SafeCastOverflowedIntDowncast(120, value);\\n        }\\n    }\\n\\n    /**\\n     * @dev Returns the downcasted int112 from int256, reverting on\\n     * overflow (when the input is less than smallest int112 or\\n     * greater than largest int112).\\n     *\\n     * Counterpart to Solidity's `int112` operator.\\n     *\\n     * Requirements:\\n     *\\n     * - input must fit into 112 bits\\n     */\\n    function toInt112(int256 value) internal pure returns (int112 downcasted) {\\n        downcasted = int112(value);\\n        if (downcasted != value) {\\n            revert SafeCastOverflowedIntDowncast(112, value);\\n        }\\n    }\\n\\n    /**\\n     * @dev Returns the downcasted int104 from int256, reverting on\\n     * overflow (when the input is less than smallest int104 or\\n     * greater than largest int104).\\n     *\\n     * Counterpart to Solidity's `int104` operator.\\n     *\\n     * Requirements:\\n     *\\n     * - input must fit into 104 bits\\n     */\\n    function toInt104(int256 value) internal pure returns (int104 downcasted) {\\n        downcasted = int104(value);\\n        if (downcasted != value) {\\n            revert SafeCastOverflowedIntDowncast(104, value);\\n        }\\n    }\\n\\n    /**\\n     * @dev Returns the downcasted int96 from int256, reverting on\\n     * overflow (when the input is less than smallest int96 or\\n     * greater than largest int96).\\n     *\\n     * Counterpart to Solidity's `int96` operator.\\n     *\\n     * Requirements:\\n     *\\n     * - input must fit into 96 bits\\n     */\\n    function toInt96(int256 value) internal pure returns (int96 downcasted) {\\n        downcasted = int96(value);\\n        if (downcasted != value) {\\n            revert SafeCastOverflowedIntDowncast(96, value);\\n        }\\n    }\\n\\n    /**\\n     * @dev Returns the downcasted int88 from int256, reverting on\\n     * overflow (when the input is less than smallest int88 or\\n     * greater than largest int88).\\n     *\\n     * Counterpart to Solidity's `int88` operator.\\n     *\\n     * Requirements:\\n     *\\n     * - input must fit into 88 bits\\n     */\\n    function toInt88(int256 value) internal pure returns (int88 downcasted) {\\n        downcasted = int88(value);\\n        if (downcasted != value) {\\n            revert SafeCastOverflowedIntDowncast(88, value);\\n        }\\n    }\\n\\n    /**\\n     * @dev Returns the downcasted int80 from int256, reverting on\\n     * overflow (when the input is less than smallest int80 or\\n     * greater than largest int80).\\n     *\\n     * Counterpart to Solidity's `int80` operator.\\n     *\\n     * Requirements:\\n     *\\n     * - input must fit into 80 bits\\n     */\\n    function toInt80(int256 value) internal pure returns (int80 downcasted) {\\n        downcasted = int80(value);\\n        if (downcasted != value) {\\n            revert SafeCastOverflowedIntDowncast(80, value);\\n        }\\n    }\\n\\n    /**\\n     * @dev Returns the downcasted int72 from int256, reverting on\\n     * overflow (when the input is less than smallest int72 or\\n     * greater than largest int72).\\n     *\\n     * Counterpart to Solidity's `int72` operator.\\n     *\\n     * Requirements:\\n     *\\n     * - input must fit into 72 bits\\n     */\\n    function toInt72(int256 value) internal pure returns (int72 downcasted) {\\n        downcasted = int72(value);\\n        if (downcasted != value) {\\n            revert SafeCastOverflowedIntDowncast(72, value);\\n        }\\n    }\\n\\n    /**\\n     * @dev Returns the downcasted int64 from int256, reverting on\\n     * overflow (when the input is less than smallest int64 or\\n     * greater than largest int64).\\n     *\\n     * Counterpart to Solidity's `int64` operator.\\n     *\\n     * Requirements:\\n     *\\n     * - input must fit into 64 bits\\n     */\\n    function toInt64(int256 value) internal pure returns (int64 downcasted) {\\n        downcasted = int64(value);\\n        if (downcasted != value) {\\n            revert SafeCastOverflowedIntDowncast(64, value);\\n        }\\n    }\\n\\n    /**\\n     * @dev Returns the downcasted int56 from int256, reverting on\\n     * overflow (when the input is less than smallest int56 or\\n     * greater than largest int56).\\n     *\\n     * Counterpart to Solidity's `int56` operator.\\n     *\\n     * Requirements:\\n     *\\n     * - input must fit into 56 bits\\n     */\\n    function toInt56(int256 value) internal pure returns (int56 downcasted) {\\n        downcasted = int56(value);\\n        if (downcasted != value) {\\n            revert SafeCastOverflowedIntDowncast(56, value);\\n        }\\n    }\\n\\n    /**\\n     * @dev Returns the downcasted int48 from int256, reverting on\\n     * overflow (when the input is less than smallest int48 or\\n     * greater than largest int48).\\n     *\\n     * Counterpart to Solidity's `int48` operator.\\n     *\\n     * Requirements:\\n     *\\n     * - input must fit into 48 bits\\n     */\\n    function toInt48(int256 value) internal pure returns (int48 downcasted) {\\n        downcasted = int48(value);\\n        if (downcasted != value) {\\n            revert SafeCastOverflowedIntDowncast(48, value);\\n        }\\n    }\\n\\n    /**\\n     * @dev Returns the downcasted int40 from int256, reverting on\\n     * overflow (when the input is less than smallest int40 or\\n     * greater than largest int40).\\n     *\\n     * Counterpart to Solidity's `int40` operator.\\n     *\\n     * Requirements:\\n     *\\n     * - input must fit into 40 bits\\n     */\\n    function toInt40(int256 value) internal pure returns (int40 downcasted) {\\n        downcasted = int40(value);\\n        if (downcasted != value) {\\n            revert SafeCastOverflowedIntDowncast(40, value);\\n        }\\n    }\\n\\n    /**\\n     * @dev Returns the downcasted int32 from int256, reverting on\\n     * overflow (when the input is less than smallest int32 or\\n     * greater than largest int32).\\n     *\\n     * Counterpart to Solidity's `int32` operator.\\n     *\\n     * Requirements:\\n     *\\n     * - input must fit into 32 bits\\n     */\\n    function toInt32(int256 value) internal pure returns (int32 downcasted) {\\n        downcasted = int32(value);\\n        if (downcasted != value) {\\n            revert SafeCastOverflowedIntDowncast(32, value);\\n        }\\n    }\\n\\n    /**\\n     * @dev Returns the downcasted int24 from int256, reverting on\\n     * overflow (when the input is less than smallest int24 or\\n     * greater than largest int24).\\n     *\\n     * Counterpart to Solidity's `int24` operator.\\n     *\\n     * Requirements:\\n     *\\n     * - input must fit into 24 bits\\n     */\\n    function toInt24(int256 value) internal pure returns (int24 downcasted) {\\n        downcasted = int24(value);\\n        if (downcasted != value) {\\n            revert SafeCastOverflowedIntDowncast(24, value);\\n        }\\n    }\\n\\n    /**\\n     * @dev Returns the downcasted int16 from int256, reverting on\\n     * overflow (when the input is less than smallest int16 or\\n     * greater than largest int16).\\n     *\\n     * Counterpart to Solidity's `int16` operator.\\n     *\\n     * Requirements:\\n     *\\n     * - input must fit into 16 bits\\n     */\\n    function toInt16(int256 value) internal pure returns (int16 downcasted) {\\n        downcasted = int16(value);\\n        if (downcasted != value) {\\n            revert SafeCastOverflowedIntDowncast(16, value);\\n        }\\n    }\\n\\n    /**\\n     * @dev Returns the downcasted int8 from int256, reverting on\\n     * overflow (when the input is less than smallest int8 or\\n     * greater than largest int8).\\n     *\\n     * Counterpart to Solidity's `int8` operator.\\n     *\\n     * Requirements:\\n     *\\n     * - input must fit into 8 bits\\n     */\\n    function toInt8(int256 value) internal pure returns (int8 downcasted) {\\n        downcasted = int8(value);\\n        if (downcasted != value) {\\n            revert SafeCastOverflowedIntDowncast(8, value);\\n        }\\n    }\\n\\n    /**\\n     * @dev Converts an unsigned uint256 into a signed int256.\\n     *\\n     * Requirements:\\n     *\\n     * - input must be less than or equal to maxInt256.\\n     */\\n    function toInt256(uint256 value) internal pure returns (int256) {\\n        // Note: Unsafe cast below is okay because `type(int256).max` is guaranteed to be positive\\n        if (value > uint256(type(int256).max)) {\\n            revert SafeCastOverflowedUintToInt(value);\\n        }\\n        return int256(value);\\n    }\\n\\n    /**\\n     * @dev Cast a boolean (false or true) to a uint256 (0 or 1) with no jump.\\n     */\\n    function toUint(bool b) internal pure returns (uint256 u) {\\n        assembly (\\\"memory-safe\\\") {\\n            u := iszero(iszero(b))\\n        }\\n    }\\n}\\n\"},\"@openzeppelin/contracts/utils/math/Math.sol\":{\"content\":\"// SPDX-License-Identifier: MIT\\n// OpenZeppelin Contracts (last updated v5.3.0) (utils/math/Math.sol)\\n\\npragma solidity ^0.8.20;\\n\\nimport {Panic} from \\\"../Panic.sol\\\";\\nimport {SafeCast} from \\\"./SafeCast.sol\\\";\\n\\n/**\\n * @dev Standard math utilities missing in the Solidity language.\\n */\\nlibrary Math {\\n    enum Rounding {\\n        Floor, // Toward negative infinity\\n        Ceil, // Toward positive infinity\\n        Trunc, // Toward zero\\n        Expand // Away from zero\\n    }\\n\\n    /**\\n     * @dev Return the 512-bit addition of two uint256.\\n     *\\n     * The result is stored in two 256 variables such that sum = high * 2 + low.\\n     */\\n    function add512(uint256 a, uint256 b) internal pure returns (uint256 high, uint256 low) {\\n        assembly (\\\"memory-safe\\\") {\\n            low := add(a, b)\\n            high := lt(low, a)\\n        }\\n    }\\n\\n    /**\\n     * @dev Return the 512-bit multiplication of two uint256.\\n     *\\n     * The result is stored in two 256 variables such that product = high * 2 + low.\\n     */\\n    function mul512(uint256 a, uint256 b) internal pure returns (uint256 high, uint256 low) {\\n        // 512-bit multiply [high low] = x * y. Compute the product mod 2 and mod 2 - 1, then use\\n        // the Chinese Remainder Theorem to reconstruct the 512 bit result. The result is stored in two 256\\n        // variables such that product = high * 2 + low.\\n        assembly (\\\"memory-safe\\\") {\\n            let mm := mulmod(a, b, not(0))\\n            low := mul(a, b)\\n            high := sub(sub(mm, low), lt(mm, low))\\n        }\\n    }\\n\\n    /**\\n     * @dev Returns the addition of two unsigned integers, with a success flag (no overflow).\\n     */\\n    function tryAdd(uint256 a, uint256 b) internal pure returns (bool success, uint256 result) {\\n        unchecked {\\n            uint256 c = a + b;\\n            success = c >= a;\\n            result = c * SafeCast.toUint(success);\\n        }\\n    }\\n\\n    /**\\n     * @dev Returns the subtraction of two unsigned integers, with a success flag (no overflow).\\n     */\\n    function trySub(uint256 a, uint256 b) internal pure returns (bool success, uint256 result) {\\n        unchecked {\\n            uint256 c = a - b;\\n            success = c <= a;\\n            result = c * SafeCast.toUint(success);\\n        }\\n    }\\n\\n    /**\\n     * @dev Returns the multiplication of two unsigned integers, with a success flag (no overflow).\\n     */\\n    function tryMul(uint256 a, uint256 b) internal pure returns (bool success, uint256 result) {\\n        unchecked {\\n            uint256 c = a * b;\\n            assembly (\\\"memory-safe\\\") {\\n                // Only true when the multiplication doesn't overflow\\n                // (c / a == b) || (a == 0)\\n                success := or(eq(div(c, a), b), iszero(a))\\n            }\\n            // equivalent to: success ? c : 0\\n            result = c * SafeCast.toUint(success);\\n        }\\n    }\\n\\n    /**\\n     * @dev Returns the division of two unsigned integers, with a success flag (no division by zero).\\n     */\\n    function tryDiv(uint256 a, uint256 b) internal pure returns (bool success, uint256 result) {\\n        unchecked {\\n            success = b > 0;\\n            assembly (\\\"memory-safe\\\") {\\n                // The `DIV` opcode returns zero when the denominator is 0.\\n                result := div(a, b)\\n            }\\n        }\\n    }\\n\\n    /**\\n     * @dev Returns the remainder of dividing two unsigned integers, with a success flag (no division by zero).\\n     */\\n    function tryMod(uint256 a, uint256 b) internal pure returns (bool success, uint256 result) {\\n        unchecked {\\n            success = b > 0;\\n            assembly (\\\"memory-safe\\\") {\\n                // The `MOD` opcode returns zero when the denominator is 0.\\n                result := mod(a, b)\\n            }\\n        }\\n    }\\n\\n    /**\\n     * @dev Unsigned saturating addition, bounds to `2 - 1` instead of overflowing.\\n     */\\n    function saturatingAdd(uint256 a, uint256 b) internal pure returns (uint256) {\\n        (bool success, uint256 result) = tryAdd(a, b);\\n        return ternary(success, result, type(uint256).max);\\n    }\\n\\n    /**\\n     * @dev Unsigned saturating subtraction, bounds to zero instead of overflowing.\\n     */\\n    function saturatingSub(uint256 a, uint256 b) internal pure returns (uint256) {\\n        (, uint256 result) = trySub(a, b);\\n        return result;\\n    }\\n\\n    /**\\n     * @dev Unsigned saturating multiplication, bounds to `2 - 1` instead of overflowing.\\n     */\\n    function saturatingMul(uint256 a, uint256 b) internal pure returns (uint256) {\\n        (bool success, uint256 result) = tryMul(a, b);\\n        return ternary(success, result, type(uint256).max);\\n    }\\n\\n    /**\\n     * @dev Branchless ternary evaluation for `a ? b : c`. Gas costs are constant.\\n     *\\n     * IMPORTANT: This function may reduce bytecode size and consume less gas when used standalone.\\n     * However, the compiler may optimize Solidity ternary operations (i.e. `a ? b : c`) to only compute\\n     * one branch when needed, making this function more expensive.\\n     */\\n    function ternary(bool condition, uint256 a, uint256 b) internal pure returns (uint256) {\\n        unchecked {\\n            // branchless ternary works because:\\n            // b ^ (a ^ b) == a\\n            // b ^ 0 == b\\n            return b ^ ((a ^ b) * SafeCast.toUint(condition));\\n        }\\n    }\\n\\n    /**\\n     * @dev Returns the largest of two numbers.\\n     */\\n    function max(uint256 a, uint256 b) internal pure returns (uint256) {\\n        return ternary(a > b, a, b);\\n    }\\n\\n    /**\\n     * @dev Returns the smallest of two numbers.\\n     */\\n    function min(uint256 a, uint256 b) internal pure returns (uint256) {\\n        return ternary(a < b, a, b);\\n    }\\n\\n    /**\\n     * @dev Returns the average of two numbers. The result is rounded towards\\n     * zero.\\n     */\\n    function average(uint256 a, uint256 b) internal pure returns (uint256) {\\n        // (a + b) / 2 can overflow.\\n        return (a & b) + (a ^ b) / 2;\\n    }\\n\\n    /**\\n     * @dev Returns the ceiling of the division of two numbers.\\n     *\\n     * This differs from standard division with `/` in that it rounds towards infinity instead\\n     * of rounding towards zero.\\n     */\\n    function ceilDiv(uint256 a, uint256 b) internal pure returns (uint256) {\\n        if (b == 0) {\\n            // Guarantee the same behavior as in a regular Solidity division.\\n            Panic.panic(Panic.DIVISION_BY_ZERO);\\n        }\\n\\n        // The following calculation ensures accurate ceiling division without overflow.\\n        // Since a is non-zero, (a - 1) / b will not overflow.\\n        // The largest possible result occurs when (a - 1) / b is type(uint256).max,\\n        // but the largest value we can obtain is type(uint256).max - 1, which happens\\n        // when a = type(uint256).max and b = 1.\\n        unchecked {\\n            return SafeCast.toUint(a > 0) * ((a - 1) / b + 1);\\n        }\\n    }\\n\\n    /**\\n     * @dev Calculates floor(x * y / denominator) with full precision. Throws if result overflows a uint256 or\\n     * denominator == 0.\\n     *\\n     * Original credit to Remco Bloemen under MIT license (https://xn--2-umb.com/21/muldiv) with further edits by\\n     * Uniswap Labs also under MIT license.\\n     */\\n    function mulDiv(uint256 x, uint256 y, uint256 denominator) internal pure returns (uint256 result) {\\n        unchecked {\\n            (uint256 high, uint256 low) = mul512(x, y);\\n\\n            // Handle non-overflow cases, 256 by 256 division.\\n            if (high == 0) {\\n                // Solidity will revert if denominator == 0, unlike the div opcode on its own.\\n                // The surrounding unchecked block does not change this fact.\\n                // See https://docs.soliditylang.org/en/latest/control-structures.html#checked-or-unchecked-arithmetic.\\n                return low / denominator;\\n            }\\n\\n            // Make sure the result is less than 2. Also prevents denominator == 0.\\n            if (denominator <= high) {\\n                Panic.panic(ternary(denominator == 0, Panic.DIVISION_BY_ZERO, Panic.UNDER_OVERFLOW));\\n            }\\n\\n            ///////////////////////////////////////////////\\n            // 512 by 256 division.\\n            ///////////////////////////////////////////////\\n\\n            // Make division exact by subtracting the remainder from [high low].\\n            uint256 remainder;\\n            assembly (\\\"memory-safe\\\") {\\n                // Compute remainder using mulmod.\\n                remainder := mulmod(x, y, denominator)\\n\\n                // Subtract 256 bit number from 512 bit number.\\n                high := sub(high, gt(remainder, low))\\n                low := sub(low, remainder)\\n            }\\n\\n            // Factor powers of two out of denominator and compute largest power of two divisor of denominator.\\n            // Always >= 1. See https://cs.stackexchange.com/q/138556/92363.\\n\\n            uint256 twos = denominator & (0 - denominator);\\n            assembly (\\\"memory-safe\\\") {\\n                // Divide denominator by twos.\\n                denominator := div(denominator, twos)\\n\\n                // Divide [high low] by twos.\\n                low := div(low, twos)\\n\\n                // Flip twos such that it is 2 / twos. If twos is zero, then it becomes one.\\n                twos := add(div(sub(0, twos), twos), 1)\\n            }\\n\\n            // Shift in bits from high into low.\\n            low |= high * twos;\\n\\n            // Invert denominator mod 2. Now that denominator is an odd number, it has an inverse modulo 2 such\\n            // that denominator * inv  1 mod 2. Compute the inverse by starting with a seed that is correct for\\n            // four bits. That is, denominator * inv  1 mod 2.\\n            uint256 inverse = (3 * denominator) ^ 2;\\n\\n            // Use the Newton-Raphson iteration to improve the precision. Thanks to Hensel's lifting lemma, this also\\n            // works in modular arithmetic, doubling the correct bits in each step.\\n            inverse *= 2 - denominator * inverse; // inverse mod 2\\n            inverse *= 2 - denominator * inverse; // inverse mod 2\\n            inverse *= 2 - denominator * inverse; // inverse mod 2\\n            inverse *= 2 - denominator * inverse; // inverse mod 2\\n            inverse *= 2 - denominator * inverse; // inverse mod 2\\n            inverse *= 2 - denominator * inverse; // inverse mod 2\\n\\n            // Because the division is now exact we can divide by multiplying with the modular inverse of denominator.\\n            // This will give us the correct result modulo 2. Since the preconditions guarantee that the outcome is\\n            // less than 2, this is the final result. We don't need to compute the high bits of the result and high\\n            // is no longer required.\\n            result = low * inverse;\\n            return result;\\n        }\\n    }\\n\\n    /**\\n     * @dev Calculates x * y / denominator with full precision, following the selected rounding direction.\\n     */\\n    function mulDiv(uint256 x, uint256 y, uint256 denominator, Rounding rounding) internal pure returns (uint256) {\\n        return mulDiv(x, y, denominator) + SafeCast.toUint(unsignedRoundsUp(rounding) && mulmod(x, y, denominator) > 0);\\n    }\\n\\n    /**\\n     * @dev Calculates floor(x * y >> n) with full precision. Throws if result overflows a uint256.\\n     */\\n    function mulShr(uint256 x, uint256 y, uint8 n) internal pure returns (uint256 result) {\\n        unchecked {\\n            (uint256 high, uint256 low) = mul512(x, y);\\n            if (high >= 1 << n) {\\n                Panic.panic(Panic.UNDER_OVERFLOW);\\n            }\\n            return (high << (256 - n)) | (low >> n);\\n        }\\n    }\\n\\n    /**\\n     * @dev Calculates x * y >> n with full precision, following the selected rounding direction.\\n     */\\n    function mulShr(uint256 x, uint256 y, uint8 n, Rounding rounding) internal pure returns (uint256) {\\n        return mulShr(x, y, n) + SafeCast.toUint(unsignedRoundsUp(rounding) && mulmod(x, y, 1 << n) > 0);\\n    }\\n\\n    /**\\n     * @dev Calculate the modular multiplicative inverse of a number in Z/nZ.\\n     *\\n     * If n is a prime, then Z/nZ is a field. In that case all elements are inversible, except 0.\\n     * If n is not a prime, then Z/nZ is not a field, and some elements might not be inversible.\\n     *\\n     * If the input value is not inversible, 0 is returned.\\n     *\\n     * NOTE: If you know for sure that n is (big) a prime, it may be cheaper to use Fermat's little theorem and get the\\n     * inverse using `Math.modExp(a, n - 2, n)`. See {invModPrime}.\\n     */\\n    function invMod(uint256 a, uint256 n) internal pure returns (uint256) {\\n        unchecked {\\n            if (n == 0) return 0;\\n\\n            // The inverse modulo is calculated using the Extended Euclidean Algorithm (iterative version)\\n            // Used to compute integers x and y such that: ax + ny = gcd(a, n).\\n            // When the gcd is 1, then the inverse of a modulo n exists and it's x.\\n            // ax + ny = 1\\n            // ax = 1 + (-y)n\\n            // ax  1 (mod n) # x is the inverse of a modulo n\\n\\n            // If the remainder is 0 the gcd is n right away.\\n            uint256 remainder = a % n;\\n            uint256 gcd = n;\\n\\n            // Therefore the initial coefficients are:\\n            // ax + ny = gcd(a, n) = n\\n            // 0a + 1n = n\\n            int256 x = 0;\\n            int256 y = 1;\\n\\n            while (remainder != 0) {\\n                uint256 quotient = gcd / remainder;\\n\\n                (gcd, remainder) = (\\n                    // The old remainder is the next gcd to try.\\n                    remainder,\\n                    // Compute the next remainder.\\n                    // Can't overflow given that (a % gcd) * (gcd // (a % gcd)) <= gcd\\n                    // where gcd is at most n (capped to type(uint256).max)\\n                    gcd - remainder * quotient\\n                );\\n\\n                (x, y) = (\\n                    // Increment the coefficient of a.\\n                    y,\\n                    // Decrement the coefficient of n.\\n                    // Can overflow, but the result is casted to uint256 so that the\\n                    // next value of y is \\\"wrapped around\\\" to a value between 0 and n - 1.\\n                    x - y * int256(quotient)\\n                );\\n            }\\n\\n            if (gcd != 1) return 0; // No inverse exists.\\n            return ternary(x < 0, n - uint256(-x), uint256(x)); // Wrap the result if it's negative.\\n        }\\n    }\\n\\n    /**\\n     * @dev Variant of {invMod}. More efficient, but only works if `p` is known to be a prime greater than `2`.\\n     *\\n     * From https://en.wikipedia.org/wiki/Fermat%27s_little_theorem[Fermat's little theorem], we know that if p is\\n     * prime, then `a**(p-1)  1 mod p`. As a consequence, we have `a * a**(p-2)  1 mod p`, which means that\\n     * `a**(p-2)` is the modular multiplicative inverse of a in Fp.\\n     *\\n     * NOTE: this function does NOT check that `p` is a prime greater than `2`.\\n     */\\n    function invModPrime(uint256 a, uint256 p) internal view returns (uint256) {\\n        unchecked {\\n            return Math.modExp(a, p - 2, p);\\n        }\\n    }\\n\\n    /**\\n     * @dev Returns the modular exponentiation of the specified base, exponent and modulus (b ** e % m)\\n     *\\n     * Requirements:\\n     * - modulus can't be zero\\n     * - underlying staticcall to precompile must succeed\\n     *\\n     * IMPORTANT: The result is only valid if the underlying call succeeds. When using this function, make\\n     * sure the chain you're using it on supports the precompiled contract for modular exponentiation\\n     * at address 0x05 as specified in https://eips.ethereum.org/EIPS/eip-198[EIP-198]. Otherwise,\\n     * the underlying function will succeed given the lack of a revert, but the result may be incorrectly\\n     * interpreted as 0.\\n     */\\n    function modExp(uint256 b, uint256 e, uint256 m) internal view returns (uint256) {\\n        (bool success, uint256 result) = tryModExp(b, e, m);\\n        if (!success) {\\n            Panic.panic(Panic.DIVISION_BY_ZERO);\\n        }\\n        return result;\\n    }\\n\\n    /**\\n     * @dev Returns the modular exponentiation of the specified base, exponent and modulus (b ** e % m).\\n     * It includes a success flag indicating if the operation succeeded. Operation will be marked as failed if trying\\n     * to operate modulo 0 or if the underlying precompile reverted.\\n     *\\n     * IMPORTANT: The result is only valid if the success flag is true. When using this function, make sure the chain\\n     * you're using it on supports the precompiled contract for modular exponentiation at address 0x05 as specified in\\n     * https://eips.ethereum.org/EIPS/eip-198[EIP-198]. Otherwise, the underlying function will succeed given the lack\\n     * of a revert, but the result may be incorrectly interpreted as 0.\\n     */\\n    function tryModExp(uint256 b, uint256 e, uint256 m) internal view returns (bool success, uint256 result) {\\n        if (m == 0) return (false, 0);\\n        assembly (\\\"memory-safe\\\") {\\n            let ptr := mload(0x40)\\n            // | Offset    | Content    | Content (Hex)                                                      |\\n            // |-----------|------------|--------------------------------------------------------------------|\\n            // | 0x00:0x1f | size of b  | 0x0000000000000000000000000000000000000000000000000000000000000020 |\\n            // | 0x20:0x3f | size of e  | 0x0000000000000000000000000000000000000000000000000000000000000020 |\\n            // | 0x40:0x5f | size of m  | 0x0000000000000000000000000000000000000000000000000000000000000020 |\\n            // | 0x60:0x7f | value of b | 0x<.............................................................b> |\\n            // | 0x80:0x9f | value of e | 0x<.............................................................e> |\\n            // | 0xa0:0xbf | value of m | 0x<.............................................................m> |\\n            mstore(ptr, 0x20)\\n            mstore(add(ptr, 0x20), 0x20)\\n            mstore(add(ptr, 0x40), 0x20)\\n            mstore(add(ptr, 0x60), b)\\n            mstore(add(ptr, 0x80), e)\\n            mstore(add(ptr, 0xa0), m)\\n\\n            // Given the result < m, it's guaranteed to fit in 32 bytes,\\n            // so we can use the memory scratch space located at offset 0.\\n            success := staticcall(gas(), 0x05, ptr, 0xc0, 0x00, 0x20)\\n            result := mload(0x00)\\n        }\\n    }\\n\\n    /**\\n     * @dev Variant of {modExp} that supports inputs of arbitrary length.\\n     */\\n    function modExp(bytes memory b, bytes memory e, bytes memory m) internal view returns (bytes memory) {\\n        (bool success, bytes memory result) = tryModExp(b, e, m);\\n        if (!success) {\\n            Panic.panic(Panic.DIVISION_BY_ZERO);\\n        }\\n        return result;\\n    }\\n\\n    /**\\n     * @dev Variant of {tryModExp} that supports inputs of arbitrary length.\\n     */\\n    function tryModExp(\\n        bytes memory b,\\n        bytes memory e,\\n        bytes memory m\\n    ) internal view returns (bool success, bytes memory result) {\\n        if (_zeroBytes(m)) return (false, new bytes(0));\\n\\n        uint256 mLen = m.length;\\n\\n        // Encode call args in result and move the free memory pointer\\n        result = abi.encodePacked(b.length, e.length, mLen, b, e, m);\\n\\n        assembly (\\\"memory-safe\\\") {\\n            let dataPtr := add(result, 0x20)\\n            // Write result on top of args to avoid allocating extra memory.\\n            success := staticcall(gas(), 0x05, dataPtr, mload(result), dataPtr, mLen)\\n            // Overwrite the length.\\n            // result.length > returndatasize() is guaranteed because returndatasize() == m.length\\n            mstore(result, mLen)\\n            // Set the memory pointer after the returned data.\\n            mstore(0x40, add(dataPtr, mLen))\\n        }\\n    }\\n\\n    /**\\n     * @dev Returns whether the provided byte array is zero.\\n     */\\n    function _zeroBytes(bytes memory byteArray) private pure returns (bool) {\\n        for (uint256 i = 0; i < byteArray.length; ++i) {\\n            if (byteArray[i] != 0) {\\n                return false;\\n            }\\n        }\\n        return true;\\n    }\\n\\n    /**\\n     * @dev Returns the square root of a number. If the number is not a perfect square, the value is rounded\\n     * towards zero.\\n     *\\n     * This method is based on Newton's method for computing square roots; the algorithm is restricted to only\\n     * using integer operations.\\n     */\\n    function sqrt(uint256 a) internal pure returns (uint256) {\\n        unchecked {\\n            // Take care of easy edge cases when a == 0 or a == 1\\n            if (a <= 1) {\\n                return a;\\n            }\\n\\n            // In this function, we use Newton's method to get a root of `f(x) := x - a`. It involves building a\\n            // sequence x_n that converges toward sqrt(a). For each iteration x_n, we also define the error between\\n            // the current value as `_n = | x_n - sqrt(a) |`.\\n            //\\n            // For our first estimation, we consider `e` the smallest power of 2 which is bigger than the square root\\n            // of the target. (i.e. `2**(e-1)  sqrt(a) < 2**e`). We know that `e  128` because `(2) = 2` is\\n            // bigger than any uint256.\\n            //\\n            // By noticing that\\n            // `2**(e-1)  sqrt(a) < 2**e  (2**(e-1))  a < (2**e)  2**(2*e-2)  a < 2**(2*e)`\\n            // we can deduce that `e - 1` is `log2(a) / 2`. We can thus compute `x_n = 2**(e-1)` using a method similar\\n            // to the msb function.\\n            uint256 aa = a;\\n            uint256 xn = 1;\\n\\n            if (aa >= (1 << 128)) {\\n                aa >>= 128;\\n                xn <<= 64;\\n            }\\n            if (aa >= (1 << 64)) {\\n                aa >>= 64;\\n                xn <<= 32;\\n            }\\n            if (aa >= (1 << 32)) {\\n                aa >>= 32;\\n                xn <<= 16;\\n            }\\n            if (aa >= (1 << 16)) {\\n                aa >>= 16;\\n                xn <<= 8;\\n            }\\n            if (aa >= (1 << 8)) {\\n                aa >>= 8;\\n                xn <<= 4;\\n            }\\n            if (aa >= (1 << 4)) {\\n                aa >>= 4;\\n                xn <<= 2;\\n            }\\n            if (aa >= (1 << 2)) {\\n                xn <<= 1;\\n            }\\n\\n            // We now have x_n such that `x_n = 2**(e-1)  sqrt(a) < 2**e = 2 * x_n`. This implies _n  2**(e-1).\\n            //\\n            // We can refine our estimation by noticing that the middle of that interval minimizes the error.\\n            // If we move x_n to equal 2**(e-1) + 2**(e-2), then we reduce the error to _n  2**(e-2).\\n            // This is going to be our x_0 (and _0)\\n            xn = (3 * xn) >> 1; // _0 := | x_0 - sqrt(a) |  2**(e-2)\\n\\n            // From here, Newton's method give us:\\n            // x_{n+1} = (x_n + a / x_n) / 2\\n            //\\n            // One should note that:\\n            // x_{n+1} - a = ((x_n + a / x_n) / 2) - a\\n            //              = ((x_n + a) / (2 * x_n)) - a\\n            //              = (x_n + 2 * a * x_n + a) / (4 * x_n) - a\\n            //              = (x_n + 2 * a * x_n + a - 4 * a * x_n) / (4 * x_n)\\n            //              = (x_n - 2 * a * x_n + a) / (4 * x_n)\\n            //              = (x_n - a) / (2 * x_n)\\n            //              = ((x_n - a) / (2 * x_n))\\n            //               0\\n            // Which proves that for all n  1, sqrt(a)  x_n\\n            //\\n            // This gives us the proof of quadratic convergence of the sequence:\\n            // _{n+1} = | x_{n+1} - sqrt(a) |\\n            //         = | (x_n + a / x_n) / 2 - sqrt(a) |\\n            //         = | (x_n + a - 2*x_n*sqrt(a)) / (2 * x_n) |\\n            //         = | (x_n - sqrt(a)) / (2 * x_n) |\\n            //         = | _n / (2 * x_n) |\\n            //         = _n / | (2 * x_n) |\\n            //\\n            // For the first iteration, we have a special case where x_0 is known:\\n            // _1 = _0 / | (2 * x_0) |\\n            //      (2**(e-2)) / (2 * (2**(e-1) + 2**(e-2)))\\n            //      2**(2*e-4) / (3 * 2**(e-1))\\n            //      2**(e-3) / 3\\n            //      2**(e-3-log2(3))\\n            //      2**(e-4.5)\\n            //\\n            // For the following iterations, we use the fact that, 2**(e-1)  sqrt(a)  x_n:\\n            // _{n+1} = _n / | (2 * x_n) |\\n            //          (2**(e-k)) / (2 * 2**(e-1))\\n            //          2**(2*e-2*k) / 2**e\\n            //          2**(e-2*k)\\n            xn = (xn + a / xn) >> 1; // _1 := | x_1 - sqrt(a) |  2**(e-4.5)  -- special case, see above\\n            xn = (xn + a / xn) >> 1; // _2 := | x_2 - sqrt(a) |  2**(e-9)    -- general case with k = 4.5\\n            xn = (xn + a / xn) >> 1; // _3 := | x_3 - sqrt(a) |  2**(e-18)   -- general case with k = 9\\n            xn = (xn + a / xn) >> 1; // _4 := | x_4 - sqrt(a) |  2**(e-36)   -- general case with k = 18\\n            xn = (xn + a / xn) >> 1; // _5 := | x_5 - sqrt(a) |  2**(e-72)   -- general case with k = 36\\n            xn = (xn + a / xn) >> 1; // _6 := | x_6 - sqrt(a) |  2**(e-144)  -- general case with k = 72\\n\\n            // Because e  128 (as discussed during the first estimation phase), we know have reached a precision\\n            // _6  2**(e-144) < 1. Given we're operating on integers, then we can ensure that xn is now either\\n            // sqrt(a) or sqrt(a) + 1.\\n            return xn - SafeCast.toUint(xn > a / xn);\\n        }\\n    }\\n\\n    /**\\n     * @dev Calculates sqrt(a), following the selected rounding direction.\\n     */\\n    function sqrt(uint256 a, Rounding rounding) internal pure returns (uint256) {\\n        unchecked {\\n            uint256 result = sqrt(a);\\n            return result + SafeCast.toUint(unsignedRoundsUp(rounding) && result * result < a);\\n        }\\n    }\\n\\n    /**\\n     * @dev Return the log in base 2 of a positive value rounded towards zero.\\n     * Returns 0 if given 0.\\n     */\\n    function log2(uint256 x) internal pure returns (uint256 r) {\\n        // If value has upper 128 bits set, log2 result is at least 128\\n        r = SafeCast.toUint(x > 0xffffffffffffffffffffffffffffffff) << 7;\\n        // If upper 64 bits of 128-bit half set, add 64 to result\\n        r |= SafeCast.toUint((x >> r) > 0xffffffffffffffff) << 6;\\n        // If upper 32 bits of 64-bit half set, add 32 to result\\n        r |= SafeCast.toUint((x >> r) > 0xffffffff) << 5;\\n        // If upper 16 bits of 32-bit half set, add 16 to result\\n        r |= SafeCast.toUint((x >> r) > 0xffff) << 4;\\n        // If upper 8 bits of 16-bit half set, add 8 to result\\n        r |= SafeCast.toUint((x >> r) > 0xff) << 3;\\n        // If upper 4 bits of 8-bit half set, add 4 to result\\n        r |= SafeCast.toUint((x >> r) > 0xf) << 2;\\n\\n        // Shifts value right by the current result and use it as an index into this lookup table:\\n        //\\n        // | x (4 bits) |  index  | table[index] = MSB position |\\n        // |------------|---------|-----------------------------|\\n        // |    0000    |    0    |        table[0] = 0         |\\n        // |    0001    |    1    |        table[1] = 0         |\\n        // |    0010    |    2    |        table[2] = 1         |\\n        // |    0011    |    3    |        table[3] = 1         |\\n        // |    0100    |    4    |        table[4] = 2         |\\n        // |    0101    |    5    |        table[5] = 2         |\\n        // |    0110    |    6    |        table[6] = 2         |\\n        // |    0111    |    7    |        table[7] = 2         |\\n        // |    1000    |    8    |        table[8] = 3         |\\n        // |    1001    |    9    |        table[9] = 3         |\\n        // |    1010    |   10    |        table[10] = 3        |\\n        // |    1011    |   11    |        table[11] = 3        |\\n        // |    1100    |   12    |        table[12] = 3        |\\n        // |    1101    |   13    |        table[13] = 3        |\\n        // |    1110    |   14    |        table[14] = 3        |\\n        // |    1111    |   15    |        table[15] = 3        |\\n        //\\n        // The lookup table is represented as a 32-byte value with the MSB positions for 0-15 in the last 16 bytes.\\n        assembly (\\\"memory-safe\\\") {\\n            r := or(r, byte(shr(r, x), 0x0000010102020202030303030303030300000000000000000000000000000000))\\n        }\\n    }\\n\\n    /**\\n     * @dev Return the log in base 2, following the selected rounding direction, of a positive value.\\n     * Returns 0 if given 0.\\n     */\\n    function log2(uint256 value, Rounding rounding) internal pure returns (uint256) {\\n        unchecked {\\n            uint256 result = log2(value);\\n            return result + SafeCast.toUint(unsignedRoundsUp(rounding) && 1 << result < value);\\n        }\\n    }\\n\\n    /**\\n     * @dev Return the log in base 10 of a positive value rounded towards zero.\\n     * Returns 0 if given 0.\\n     */\\n    function log10(uint256 value) internal pure returns (uint256) {\\n        uint256 result = 0;\\n        unchecked {\\n            if (value >= 10 ** 64) {\\n                value /= 10 ** 64;\\n                result += 64;\\n            }\\n            if (value >= 10 ** 32) {\\n                value /= 10 ** 32;\\n                result += 32;\\n            }\\n            if (value >= 10 ** 16) {\\n                value /= 10 ** 16;\\n                result += 16;\\n            }\\n            if (value >= 10 ** 8) {\\n                value /= 10 ** 8;\\n                result += 8;\\n            }\\n            if (value >= 10 ** 4) {\\n                value /= 10 ** 4;\\n                result += 4;\\n            }\\n            if (value >= 10 ** 2) {\\n                value /= 10 ** 2;\\n                result += 2;\\n            }\\n            if (value >= 10 ** 1) {\\n                result += 1;\\n            }\\n        }\\n        return result;\\n    }\\n\\n    /**\\n     * @dev Return the log in base 10, following the selected rounding direction, of a positive value.\\n     * Returns 0 if given 0.\\n     */\\n    function log10(uint256 value, Rounding rounding) internal pure returns (uint256) {\\n        unchecked {\\n            uint256 result = log10(value);\\n            return result + SafeCast.toUint(unsignedRoundsUp(rounding) && 10 ** result < value);\\n        }\\n    }\\n\\n    /**\\n     * @dev Return the log in base 256 of a positive value rounded towards zero.\\n     * Returns 0 if given 0.\\n     *\\n     * Adding one to the result gives the number of pairs of hex symbols needed to represent `value` as a hex string.\\n     */\\n    function log256(uint256 x) internal pure returns (uint256 r) {\\n        // If value has upper 128 bits set, log2 result is at least 128\\n        r = SafeCast.toUint(x > 0xffffffffffffffffffffffffffffffff) << 7;\\n        // If upper 64 bits of 128-bit half set, add 64 to result\\n        r |= SafeCast.toUint((x >> r) > 0xffffffffffffffff) << 6;\\n        // If upper 32 bits of 64-bit half set, add 32 to result\\n        r |= SafeCast.toUint((x >> r) > 0xffffffff) << 5;\\n        // If upper 16 bits of 32-bit half set, add 16 to result\\n        r |= SafeCast.toUint((x >> r) > 0xffff) << 4;\\n        // Add 1 if upper 8 bits of 16-bit half set, and divide accumulated result by 8\\n        return (r >> 3) | SafeCast.toUint((x >> r) > 0xff);\\n    }\\n\\n    /**\\n     * @dev Return the log in base 256, following the selected rounding direction, of a positive value.\\n     * Returns 0 if given 0.\\n     */\\n    function log256(uint256 value, Rounding rounding) internal pure returns (uint256) {\\n        unchecked {\\n            uint256 result = log256(value);\\n            return result + SafeCast.toUint(unsignedRoundsUp(rounding) && 1 << (result << 3) < value);\\n        }\\n    }\\n\\n    /**\\n     * @dev Returns whether a provided rounding mode is considered rounding up for unsigned integers.\\n     */\\n    function unsignedRoundsUp(Rounding rounding) internal pure returns (bool) {\\n        return uint8(rounding) % 2 == 1;\\n    }\\n}\\n\"},\"@openzeppelin/contracts/token/ERC721/IERC721Receiver.sol\":{\"content\":\"// SPDX-License-Identifier: MIT\\n// OpenZeppelin Contracts (last updated v5.4.0) (token/ERC721/IERC721Receiver.sol)\\n\\npragma solidity >=0.5.0;\\n\\n/**\\n * @title ERC-721 token receiver interface\\n * @dev Interface for any contract that wants to support safeTransfers\\n * from ERC-721 asset contracts.\\n */\\ninterface IERC721Receiver {\\n    /**\\n     * @dev Whenever an {IERC721} `tokenId` token is transferred to this contract via {IERC721-safeTransferFrom}\\n     * by `operator` from `from`, this function is called.\\n     *\\n     * It must return its Solidity selector to confirm the token transfer.\\n     * If any other value is returned or the interface is not implemented by the recipient, the transfer will be\\n     * reverted.\\n     *\\n     * The selector can be obtained in Solidity with `IERC721Receiver.onERC721Received.selector`.\\n     */\\n    function onERC721Received(\\n        address operator,\\n        address from,\\n        uint256 tokenId,\\n        bytes calldata data\\n    ) external returns (bytes4);\\n}\\n\"},\"@openzeppelin/contracts/interfaces/IERC721.sol\":{\"content\":\"// SPDX-License-Identifier: MIT\\n// OpenZeppelin Contracts (last updated v5.4.0) (interfaces/IERC721.sol)\\n\\npragma solidity >=0.6.2;\\n\\nimport {IERC721} from \\\"../token/ERC721/IERC721.sol\\\";\\n\"},\"@openzeppelin/contracts/utils/Panic.sol\":{\"content\":\"// SPDX-License-Identifier: MIT\\n// OpenZeppelin Contracts (last updated v5.1.0) (utils/Panic.sol)\\n\\npragma solidity ^0.8.20;\\n\\n/**\\n * @dev Helper library for emitting standardized panic codes.\\n *\\n * ```solidity\\n * contract Example {\\n *      using Panic for uint256;\\n *\\n *      // Use any of the declared internal constants\\n *      function foo() { Panic.GENERIC.panic(); }\\n *\\n *      // Alternatively\\n *      function foo() { Panic.panic(Panic.GENERIC); }\\n * }\\n * ```\\n *\\n * Follows the list from https://github.com/ethereum/solidity/blob/v0.8.24/libsolutil/ErrorCodes.h[libsolutil].\\n *\\n * _Available since v5.1._\\n */\\n// slither-disable-next-line unused-state\\nlibrary Panic {\\n    /// @dev generic / unspecified error\\n    uint256 internal constant GENERIC = 0x00;\\n    /// @dev used by the assert() builtin\\n    uint256 internal constant ASSERT = 0x01;\\n    /// @dev arithmetic underflow or overflow\\n    uint256 internal constant UNDER_OVERFLOW = 0x11;\\n    /// @dev division or modulo by zero\\n    uint256 internal constant DIVISION_BY_ZERO = 0x12;\\n    /// @dev enum conversion error\\n    uint256 internal constant ENUM_CONVERSION_ERROR = 0x21;\\n    /// @dev invalid encoding in storage\\n    uint256 internal constant STORAGE_ENCODING_ERROR = 0x22;\\n    /// @dev empty array pop\\n    uint256 internal constant EMPTY_ARRAY_POP = 0x31;\\n    /// @dev array out of bounds access\\n    uint256 internal constant ARRAY_OUT_OF_BOUNDS = 0x32;\\n    /// @dev resource error (too large allocation or too large array)\\n    uint256 internal constant RESOURCE_ERROR = 0x41;\\n    /// @dev calling invalid internal function\\n    uint256 internal constant INVALID_INTERNAL_FUNCTION = 0x51;\\n\\n    /// @dev Reverts with a panic code. Recommended to use with\\n    /// the internal constants with predefined codes.\\n    function panic(uint256 code) internal pure {\\n        assembly (\\\"memory-safe\\\") {\\n            mstore(0x00, 0x4e487b71)\\n            mstore(0x20, code)\\n            revert(0x1c, 0x24)\\n        }\\n    }\\n}\\n\"}},\"settings\":{\"optimizer\":{\"enabled\":false,\"runs\":200},\"outputSelection\":{\"*\":{\"\":[\"ast\"],\"*\":[\"abi\",\"metadata\",\"devdoc\",\"userdoc\",\"storageLayout\",\"evm.legacyAssembly\",\"evm.bytecode\",\"evm.deployedBytecode\",\"evm.methodIdentifiers\",\"evm.gasEstimates\",\"evm.assembly\"]}},\"remappings\":[]}}",
	"name": "Marketplace",
	"bytecode": {
		"linkReferences": {},
		"object": "608060405234801561000f575f5ffd5b5060405161161838038061161883398181016040528101906100319190610218565b805f73ffffffffffffffffffffffffffffffffffffffff168173ffffffffffffffffffffffffffffffffffffffff16036100a2575f6040517f1e4fbdf70000000000000000000000000000000000000000000000000000000081526004016100999190610265565b60405180910390fd5b6100b1816100f960201b60201c565b508160015f6101000a81548173ffffffffffffffffffffffffffffffffffffffff021916908373ffffffffffffffffffffffffffffffffffffffff160217905550505061027e565b5f5f5f9054906101000a900473ffffffffffffffffffffffffffffffffffffffff169050815f5f6101000a81548173ffffffffffffffffffffffffffffffffffffffff021916908373ffffffffffffffffffffffffffffffffffffffff1602179055508173ffffffffffffffffffffffffffffffffffffffff168173ffffffffffffffffffffffffffffffffffffffff167f8be0079c531659141344cd1fd0a4f28419497f9722a3daafe3b4186f6b6457e060405160405180910390a35050565b5f5ffd5b5f73ffffffffffffffffffffffffffffffffffffffff82169050919050565b5f6101e7826101be565b9050919050565b6101f7816101dd565b8114610201575f5ffd5b50565b5f81519050610212816101ee565b92915050565b5f5f6040838503121561022e5761022d6101ba565b5b5f61023b85828601610204565b925050602061024c85828601610204565b9150509250929050565b61025f816101dd565b82525050565b5f6020820190506102785f830184610256565b92915050565b61138d8061028b5f395ff3fe608060405234801561000f575f5ffd5b5060043610610086575f3560e01c8063964bc33f11610059578063964bc33f146100ea578063d56d229d14610106578063de74e57b14610124578063f2fde38b1461015757610086565b806350fd73671461008a578063715018a6146100a657806378ead8b5146100b05780638da5cb5b146100cc575b5f5ffd5b6100a4600480360381019061009f9190610ddb565b610173565b005b6100ae610642565b005b6100ca60048036038101906100c59190610e73565b610655565b005b6100d461090f565b6040516100e19190610ec0565b60405180910390f35b61010460048036038101906100ff9190610ed9565b610936565b005b61010e610b55565b60405161011b9190610f5f565b60405180910390f35b61013e60048036038101906101399190610ed9565b610b7a565b60405161014e9493929190610fa1565b60405180910390f35b610171600480360381019061016c9190610fe4565b610bd1565b005b5f60015f9054906101000a900473ffffffffffffffffffffffffffffffffffffffff1673ffffffffffffffffffffffffffffffffffffffff16636352211e846040518263ffffffff1660e01b81526004016101ce919061100f565b602060405180830381865afa1580156101e9573d5f5f3e3d5ffd5b505050506040513d601f19601f8201168201806040525081019061020d919061103c565b90508073ffffffffffffffffffffffffffffffffffffffff163373ffffffffffffffffffffffffffffffffffffffff16148061027b575061024c61090f565b73ffffffffffffffffffffffffffffffffffffffff163373ffffffffffffffffffffffffffffffffffffffff16145b6102ba576040517f08c379a00000000000000000000000000000000000000000000000000000000081526004016102b1906110c1565b60405180910390fd5b6102c261090f565b73ffffffffffffffffffffffffffffffffffffffff163373ffffffffffffffffffffffffffffffffffffffff1614801561032f57506102ff61090f565b73ffffffffffffffffffffffffffffffffffffffff168173ffffffffffffffffffffffffffffffffffffffff1614155b156104dd573073ffffffffffffffffffffffffffffffffffffffff1660015f9054906101000a900473ffffffffffffffffffffffffffffffffffffffff1673ffffffffffffffffffffffffffffffffffffffff1663081812fc856040518263ffffffff1660e01b81526004016103a5919061100f565b602060405180830381865afa1580156103c0573d5f5f3e3d5ffd5b505050506040513d601f19601f820116820180604052508101906103e4919061103c565b73ffffffffffffffffffffffffffffffffffffffff16148061049d575060015f9054906101000a900473ffffffffffffffffffffffffffffffffffffffff1673ffffffffffffffffffffffffffffffffffffffff1663e985e9c582306040518363ffffffff1660e01b815260040161045d9291906110df565b602060405180830381865afa158015610478573d5f5f3e3d5ffd5b505050506040513d601f19601f8201168201806040525081019061049c9190611130565b5b6104dc576040517f08c379a00000000000000000000000000000000000000000000000000000000081526004016104d3906111a5565b60405180910390fd5b5b60025f8481526020019081526020015f206003015f9054906101000a900460ff161561053e576040517f08c379a00000000000000000000000000000000000000000000000000000000081526004016105359061120d565b60405180910390fd5b60405180608001604052808481526020018273ffffffffffffffffffffffffffffffffffffffff1681526020018381526020016001151581525060025f8581526020019081526020015f205f820151815f01556020820151816001015f6101000a81548173ffffffffffffffffffffffffffffffffffffffff021916908373ffffffffffffffffffffffffffffffffffffffff160217905550604082015181600201556060820151816003015f6101000a81548160ff021916908315150217905550905050827f50955776c5778c3b7d968d86d8c51fb6b29a7a74c20866b533268e209fc08343828460405161063592919061122b565b60405180910390a2505050565b61064a610c55565b6106535f610cdc565b565b5f60025f8481526020019081526020015f206040518060800160405290815f8201548152602001600182015f9054906101000a900473ffffffffffffffffffffffffffffffffffffffff1673ffffffffffffffffffffffffffffffffffffffff1673ffffffffffffffffffffffffffffffffffffffff16815260200160028201548152602001600382015f9054906101000a900460ff1615151515815250509050806060015161073a576040517f08c379a00000000000000000000000000000000000000000000000000000000081526004016107319061129c565b60405180910390fd5b806020015173ffffffffffffffffffffffffffffffffffffffff163373ffffffffffffffffffffffffffffffffffffffff1614806107aa575061077b61090f565b73ffffffffffffffffffffffffffffffffffffffff163373ffffffffffffffffffffffffffffffffffffffff16145b6107e9576040517f08c379a00000000000000000000000000000000000000000000000000000000081526004016107e090611304565b60405180910390fd5b60025f8481526020019081526020015f205f5f82015f9055600182015f6101000a81549073ffffffffffffffffffffffffffffffffffffffff0219169055600282015f9055600382015f6101000a81549060ff0219169055505060015f9054906101000a900473ffffffffffffffffffffffffffffffffffffffff1673ffffffffffffffffffffffffffffffffffffffff166342842e0e826020015184866040518463ffffffff1660e01b81526004016108a593929190611322565b5f604051808303815f87803b1580156108bc575f5ffd5b505af11580156108ce573d5f5f3e3d5ffd5b50505050827f61ac2c63e95d648867e788d81a1c73e60d790021130bd30ff89e2214373b5017836040516109029190610ec0565b60405180910390a2505050565b5f5f5f9054906101000a900473ffffffffffffffffffffffffffffffffffffffff16905090565b5f60025f8381526020019081526020015f206040518060800160405290815f8201548152602001600182015f9054906101000a900473ffffffffffffffffffffffffffffffffffffffff1673ffffffffffffffffffffffffffffffffffffffff1673ffffffffffffffffffffffffffffffffffffffff16815260200160028201548152602001600382015f9054906101000a900460ff16151515158152505090508060600151610a1b576040517f08c379a0000000000000000000000000000000000000000000000000000000008152600401610a129061129c565b60405180910390fd5b806020015173ffffffffffffffffffffffffffffffffffffffff163373ffffffffffffffffffffffffffffffffffffffff161480610a8b5750610a5c61090f565b73ffffffffffffffffffffffffffffffffffffffff163373ffffffffffffffffffffffffffffffffffffffff16145b610aca576040517f08c379a0000000000000000000000000000000000000000000000000000000008152600401610ac190611304565b60405180910390fd5b60025f8381526020019081526020015f205f5f82015f9055600182015f6101000a81549073ffffffffffffffffffffffffffffffffffffffff0219169055600282015f9055600382015f6101000a81549060ff02191690555050817fc40fdc946efe80191c467f60727c4abc08254a056035d467a4516a86005ab76360405160405180910390a25050565b60015f9054906101000a900473ffffffffffffffffffffffffffffffffffffffff1681565b6002602052805f5260405f205f91509050805f015490806001015f9054906101000a900473ffffffffffffffffffffffffffffffffffffffff1690806002015490806003015f9054906101000a900460ff16905084565b610bd9610c55565b5f73ffffffffffffffffffffffffffffffffffffffff168173ffffffffffffffffffffffffffffffffffffffff1603610c49575f6040517f1e4fbdf7000000000000000000000000000000000000000000000000000000008152600401610c409190610ec0565b60405180910390fd5b610c5281610cdc565b50565b610c5d610d9d565b73ffffffffffffffffffffffffffffffffffffffff16610c7b61090f565b73ffffffffffffffffffffffffffffffffffffffff1614610cda57610c9e610d9d565b6040517f118cdaa7000000000000000000000000000000000000000000000000000000008152600401610cd19190610ec0565b60405180910390fd5b565b5f5f5f9054906101000a900473ffffffffffffffffffffffffffffffffffffffff169050815f5f6101000a81548173ffffffffffffffffffffffffffffffffffffffff021916908373ffffffffffffffffffffffffffffffffffffffff1602179055508173ffffffffffffffffffffffffffffffffffffffff168173ffffffffffffffffffffffffffffffffffffffff167f8be0079c531659141344cd1fd0a4f28419497f9722a3daafe3b4186f6b6457e060405160405180910390a35050565b5f33905090565b5f5ffd5b5f819050919050565b610dba81610da8565b8114610dc4575f5ffd5b50565b5f81359050610dd581610db1565b92915050565b5f5f60408385031215610df157610df0610da4565b5b5f610dfe85828601610dc7565b9250506020610e0f85828601610dc7565b9150509250929050565b5f73ffffffffffffffffffffffffffffffffffffffff82169050919050565b5f610e4282610e19565b9050919050565b610e5281610e38565b8114610e5c575f5ffd5b50565b5f81359050610e6d81610e49565b92915050565b5f5f60408385031215610e8957610e88610da4565b5b5f610e9685828601610dc7565b9250506020610ea785828601610e5f565b9150509250929050565b610eba81610e38565b82525050565b5f602082019050610ed35f830184610eb1565b92915050565b5f60208284031215610eee57610eed610da4565b5b5f610efb84828501610dc7565b91505092915050565b5f819050919050565b5f610f27610f22610f1d84610e19565b610f04565b610e19565b9050919050565b5f610f3882610f0d565b9050919050565b5f610f4982610f2e565b9050919050565b610f5981610f3f565b82525050565b5f602082019050610f725f830184610f50565b92915050565b610f8181610da8565b82525050565b5f8115159050919050565b610f9b81610f87565b82525050565b5f608082019050610fb45f830187610f78565b610fc16020830186610eb1565b610fce6040830185610f78565b610fdb6060830184610f92565b95945050505050565b5f60208284031215610ff957610ff8610da4565b5b5f61100684828501610e5f565b91505092915050565b5f6020820190506110225f830184610f78565b92915050565b5f8151905061103681610e49565b92915050565b5f6020828403121561105157611050610da4565b5b5f61105e84828501611028565b91505092915050565b5f82825260208201905092915050565b7f4e6f74206f776e6572206f72206d61726b6574706c6163652061646d696e00005f82015250565b5f6110ab601e83611067565b91506110b682611077565b602082019050919050565b5f6020820190508181035f8301526110d88161109f565b9050919050565b5f6040820190506110f25f830185610eb1565b6110ff6020830184610eb1565b9392505050565b61110f81610f87565b8114611119575f5ffd5b50565b5f8151905061112a81611106565b92915050565b5f6020828403121561114557611144610da4565b5b5f6111528482850161111c565b91505092915050565b7f4e4654206e6f7420617070726f76656420666f72206d61726b6574706c6163655f82015250565b5f61118f602083611067565b915061119a8261115b565b602082019050919050565b5f6020820190508181035f8301526111bc81611183565b9050919050565b7f416c7265616479206c69737465640000000000000000000000000000000000005f82015250565b5f6111f7600e83611067565b9150611202826111c3565b602082019050919050565b5f6020820190508181035f830152611224816111eb565b9050919050565b5f60408201905061123e5f830185610eb1565b61124b6020830184610f78565b9392505050565b7f4e6f74206c6973746564000000000000000000000000000000000000000000005f82015250565b5f611286600a83611067565b915061129182611252565b602082019050919050565b5f6020820190508181035f8301526112b38161127a565b9050919050565b7f4e6f742073656c6c6572206f72206d61726b6574706c6163652061646d696e005f82015250565b5f6112ee601f83611067565b91506112f9826112ba565b602082019050919050565b5f6020820190508181035f83015261131b816112e2565b9050919050565b5f6060820190506113355f830186610eb1565b6113426020830185610eb1565b61134f6040830184610f78565b94935050505056fea26469706673582212200fef773b23498e10ba270a942fb6e27dab00fa1b9ea747d36cc5f843d1931ad064736f6c634300081e0033",
		"opcodes": "PUSH1 0x80 PUSH1 0x40 MSTORE CALLVALUE DUP1 ISZERO PUSH2 0xF JUMPI PUSH0 PUSH0 REVERT JUMPDEST POP PUSH1 0x40 MLOAD PUSH2 0x1618 CODESIZE SUB DUP1 PUSH2 0x1618 DUP4 CODECOPY DUP2 DUP2 ADD PUSH1 0x40 MSTORE DUP2 ADD SWAP1 PUSH2 0x31 SWAP2 SWAP1 PUSH2 0x218 JUMP JUMPDEST DUP1 PUSH0 PUSH20 0xFFFFFFFFFFFFFFFFFFFFFFFFFFFFFFFFFFFFFFFF AND DUP2 PUSH20 0xFFFFFFFFFFFFFFFFFFFFFFFFFFFFFFFFFFFFFFFF AND SUB PUSH2 0xA2 JUMPI PUSH0 PUSH1 0x40 MLOAD PUSH32 0x1E4FBDF700000000000000000000000000000000000000000000000000000000 DUP2 MSTORE PUSH1 0x4 ADD PUSH2 0x99 SWAP2 SWAP1 PUSH2 0x265 JUMP JUMPDEST PUSH1 0x40 MLOAD DUP1 SWAP2 SUB SWAP1 REVERT JUMPDEST PUSH2 0xB1 DUP2 PUSH2 0xF9 PUSH1 0x20 SHL PUSH1 0x20 SHR JUMP JUMPDEST POP DUP2 PUSH1 0x1 PUSH0 PUSH2 0x100 EXP DUP2 SLOAD DUP2 PUSH20 0xFFFFFFFFFFFFFFFFFFFFFFFFFFFFFFFFFFFFFFFF MUL NOT AND SWAP1 DUP4 PUSH20 0xFFFFFFFFFFFFFFFFFFFFFFFFFFFFFFFFFFFFFFFF AND MUL OR SWAP1 SSTORE POP POP POP PUSH2 0x27E JUMP JUMPDEST PUSH0 PUSH0 PUSH0 SWAP1 SLOAD SWAP1 PUSH2 0x100 EXP SWAP1 DIV PUSH20 0xFFFFFFFFFFFFFFFFFFFFFFFFFFFFFFFFFFFFFFFF AND SWAP1 POP DUP2 PUSH0 PUSH0 PUSH2 0x100 EXP DUP2 SLOAD DUP2 PUSH20 0xFFFFFFFFFFFFFFFFFFFFFFFFFFFFFFFFFFFFFFFF MUL NOT AND SWAP1 DUP4 PUSH20 0xFFFFFFFFFFFFFFFFFFFFFFFFFFFFFFFFFFFFFFFF AND MUL OR SWAP1 SSTORE POP DUP2 PUSH20 0xFFFFFFFFFFFFFFFFFFFFFFFFFFFFFFFFFFFFFFFF AND DUP2 PUSH20 0xFFFFFFFFFFFFFFFFFFFFFFFFFFFFFFFFFFFFFFFF AND PUSH32 0x8BE0079C531659141344CD1FD0A4F28419497F9722A3DAAFE3B4186F6B6457E0 PUSH1 0x40 MLOAD PUSH1 0x40 MLOAD DUP1 SWAP2 SUB SWAP1 LOG3 POP POP JUMP JUMPDEST PUSH0 PUSH0 REVERT JUMPDEST PUSH0 PUSH20 0xFFFFFFFFFFFFFFFFFFFFFFFFFFFFFFFFFFFFFFFF DUP3 AND SWAP1 POP SWAP2 SWAP1 POP JUMP JUMPDEST PUSH0 PUSH2 0x1E7 DUP3 PUSH2 0x1BE JUMP JUMPDEST SWAP1 POP SWAP2 SWAP1 POP JUMP JUMPDEST PUSH2 0x1F7 DUP2 PUSH2 0x1DD JUMP JUMPDEST DUP2 EQ PUSH2 0x201 JUMPI PUSH0 PUSH0 REVERT JUMPDEST POP JUMP JUMPDEST PUSH0 DUP2 MLOAD SWAP1 POP PUSH2 0x212 DUP2 PUSH2 0x1EE JUMP JUMPDEST SWAP3 SWAP2 POP POP JUMP JUMPDEST PUSH0 PUSH0 PUSH1 0x40 DUP4 DUP6 SUB SLT ISZERO PUSH2 0x22E JUMPI PUSH2 0x22D PUSH2 0x1BA JUMP JUMPDEST JUMPDEST PUSH0 PUSH2 0x23B DUP6 DUP3 DUP7 ADD PUSH2 0x204 JUMP JUMPDEST SWAP3 POP POP PUSH1 0x20 PUSH2 0x24C DUP6 DUP3 DUP7 ADD PUSH2 0x204 JUMP JUMPDEST SWAP2 POP POP SWAP3 POP SWAP3 SWAP1 POP JUMP JUMPDEST PUSH2 0x25F DUP2 PUSH2 0x1DD JUMP JUMPDEST DUP3 MSTORE POP POP JUMP JUMPDEST PUSH0 PUSH1 0x20 DUP3 ADD SWAP1 POP PUSH2 0x278 PUSH0 DUP4 ADD DUP5 PUSH2 0x256 JUMP JUMPDEST SWAP3 SWAP2 POP POP JUMP JUMPDEST PUSH2 0x138D DUP1 PUSH2 0x28B PUSH0 CODECOPY PUSH0 RETURN INVALID PUSH1 0x80 PUSH1 0x40 MSTORE CALLVALUE DUP1 ISZERO PUSH2 0xF JUMPI PUSH0 PUSH0 REVERT JUMPDEST POP PUSH1 0x4 CALLDATASIZE LT PUSH2 0x86 JUMPI PUSH0 CALLDATALOAD PUSH1 0xE0 SHR DUP1 PUSH4 0x964BC33F GT PUSH2 0x59 JUMPI DUP1 PUSH4 0x964BC33F EQ PUSH2 0xEA JUMPI DUP1 PUSH4 0xD56D229D EQ PUSH2 0x106 JUMPI DUP1 PUSH4 0xDE74E57B EQ PUSH2 0x124 JUMPI DUP1 PUSH4 0xF2FDE38B EQ PUSH2 0x157 JUMPI PUSH2 0x86 JUMP JUMPDEST DUP1 PUSH4 0x50FD7367 EQ PUSH2 0x8A JUMPI DUP1 PUSH4 0x715018A6 EQ PUSH2 0xA6 JUMPI DUP1 PUSH4 0x78EAD8B5 EQ PUSH2 0xB0 JUMPI DUP1 PUSH4 0x8DA5CB5B EQ PUSH2 0xCC JUMPI JUMPDEST PUSH0 PUSH0 REVERT JUMPDEST PUSH2 0xA4 PUSH1 0x4 DUP1 CALLDATASIZE SUB DUP2 ADD SWAP1 PUSH2 0x9F SWAP2 SWAP1 PUSH2 0xDDB JUMP JUMPDEST PUSH2 0x173 JUMP JUMPDEST STOP JUMPDEST PUSH2 0xAE PUSH2 0x642 JUMP JUMPDEST STOP JUMPDEST PUSH2 0xCA PUSH1 0x4 DUP1 CALLDATASIZE SUB DUP2 ADD SWAP1 PUSH2 0xC5 SWAP2 SWAP1 PUSH2 0xE73 JUMP JUMPDEST PUSH2 0x655 JUMP JUMPDEST STOP JUMPDEST PUSH2 0xD4 PUSH2 0x90F JUMP JUMPDEST PUSH1 0x40 MLOAD PUSH2 0xE1 SWAP2 SWAP1 PUSH2 0xEC0 JUMP JUMPDEST PUSH1 0x40 MLOAD DUP1 SWAP2 SUB SWAP1 RETURN JUMPDEST PUSH2 0x104 PUSH1 0x4 DUP1 CALLDATASIZE SUB DUP2 ADD SWAP1 PUSH2 0xFF SWAP2 SWAP1 PUSH2 0xED9 JUMP JUMPDEST PUSH2 0x936 JUMP JUMPDEST STOP JUMPDEST PUSH2 0x10E PUSH2 0xB55 JUMP JUMPDEST PUSH1 0x40 MLOAD PUSH2 0x11B SWAP2 SWAP1 PUSH2 0xF5F JUMP JUMPDEST PUSH1 0x40 MLOAD DUP1 SWAP2 SUB SWAP1 RETURN JUMPDEST PUSH2 0x13E PUSH1 0x4 DUP1 CALLDATASIZE SUB DUP2 ADD SWAP1 PUSH2 0x139 SWAP2 SWAP1 PUSH2 0xED9 JUMP JUMPDEST PUSH2 0xB7A JUMP JUMPDEST PUSH1 0x40 MLOAD PUSH2 0x14E SWAP5 SWAP4 SWAP3 SWAP2 SWAP1 PUSH2 0xFA1 JUMP JUMPDEST PUSH1 0x40 MLOAD DUP1 SWAP2 SUB SWAP1 RETURN JUMPDEST PUSH2 0x171 PUSH1 0x4 DUP1 CALLDATASIZE SUB DUP2 ADD SWAP1 PUSH2 0x16C SWAP2 SWAP1 PUSH2 0xFE4 JUMP JUMPDEST PUSH2 0xBD1 JUMP JUMPDEST STOP JUMPDEST PUSH0 PUSH1 0x1 PUSH0 SWAP1 SLOAD SWAP1 PUSH2 0x100 EXP SWAP1 DIV PUSH20 0xFFFFFFFFFFFFFFFFFFFFFFFFFFFFFFFFFFFFFFFF AND PUSH20 0xFFFFFFFFFFFFFFFFFFFFFFFFFFFFFFFFFFFFFFFF AND PUSH4 0x6352211E DUP5 PUSH1 0x40 MLOAD DUP3 PUSH4 0xFFFFFFFF AND PUSH1 0xE0 SHL DUP2 MSTORE PUSH1 0x4 ADD PUSH2 0x1CE SWAP2 SWAP1 PUSH2 0x100F JUMP JUMPDEST PUSH1 0x20 PUSH1 0x40 MLOAD DUP1 DUP4 SUB DUP2 DUP7 GAS STATICCALL ISZERO DUP1 ISZERO PUSH2 0x1E9 JUMPI RETURNDATASIZE PUSH0 PUSH0 RETURNDATACOPY RETURNDATASIZE PUSH0 REVERT JUMPDEST POP POP POP POP PUSH1 0x40 MLOAD RETURNDATASIZE PUSH1 0x1F NOT PUSH1 0x1F DUP3 ADD AND DUP3 ADD DUP1 PUSH1 0x40 MSTORE POP DUP2 ADD SWAP1 PUSH2 0x20D SWAP2 SWAP1 PUSH2 0x103C JUMP JUMPDEST SWAP1 POP DUP1 PUSH20 0xFFFFFFFFFFFFFFFFFFFFFFFFFFFFFFFFFFFFFFFF AND CALLER PUSH20 0xFFFFFFFFFFFFFFFFFFFFFFFFFFFFFFFFFFFFFFFF AND EQ DUP1 PUSH2 0x27B JUMPI POP PUSH2 0x24C PUSH2 0x90F JUMP JUMPDEST PUSH20 0xFFFFFFFFFFFFFFFFFFFFFFFFFFFFFFFFFFFFFFFF AND CALLER PUSH20 0xFFFFFFFFFFFFFFFFFFFFFFFFFFFFFFFFFFFFFFFF AND EQ JUMPDEST PUSH2 0x2BA JUMPI PUSH1 0x40 MLOAD PUSH32 0x8C379A000000000000000000000000000000000000000000000000000000000 DUP2 MSTORE PUSH1 0x4 ADD PUSH2 0x2B1 SWAP1 PUSH2 0x10C1 JUMP JUMPDEST PUSH1 0x40 MLOAD DUP1 SWAP2 SUB SWAP1 REVERT JUMPDEST PUSH2 0x2C2 PUSH2 0x90F JUMP JUMPDEST PUSH20 0xFFFFFFFFFFFFFFFFFFFFFFFFFFFFFFFFFFFFFFFF AND CALLER PUSH20 0xFFFFFFFFFFFFFFFFFFFFFFFFFFFFFFFFFFFFFFFF AND EQ DUP1 ISZERO PUSH2 0x32F JUMPI POP PUSH2 0x2FF PUSH2 0x90F JUMP JUMPDEST PUSH20 0xFFFFFFFFFFFFFFFFFFFFFFFFFFFFFFFFFFFFFFFF AND DUP2 PUSH20 0xFFFFFFFFFFFFFFFFFFFFFFFFFFFFFFFFFFFFFFFF AND EQ ISZERO JUMPDEST ISZERO PUSH2 0x4DD JUMPI ADDRESS PUSH20 0xFFFFFFFFFFFFFFFFFFFFFFFFFFFFFFFFFFFFFFFF AND PUSH1 0x1 PUSH0 SWAP1 SLOAD SWAP1 PUSH2 0x100 EXP SWAP1 DIV PUSH20 0xFFFFFFFFFFFFFFFFFFFFFFFFFFFFFFFFFFFFFFFF AND PUSH20 0xFFFFFFFFFFFFFFFFFFFFFFFFFFFFFFFFFFFFFFFF AND PUSH4 0x81812FC DUP6 PUSH1 0x40 MLOAD DUP3 PUSH4 0xFFFFFFFF AND PUSH1 0xE0 SHL DUP2 MSTORE PUSH1 0x4 ADD PUSH2 0x3A5 SWAP2 SWAP1 PUSH2 0x100F JUMP JUMPDEST PUSH1 0x20 PUSH1 0x40 MLOAD DUP1 DUP4 SUB DUP2 DUP7 GAS STATICCALL ISZERO DUP1 ISZERO PUSH2 0x3C0 JUMPI RETURNDATASIZE PUSH0 PUSH0 RETURNDATACOPY RETURNDATASIZE PUSH0 REVERT JUMPDEST POP POP POP POP PUSH1 0x40 MLOAD RETURNDATASIZE PUSH1 0x1F NOT PUSH1 0x1F DUP3 ADD AND DUP3 ADD DUP1 PUSH1 0x40 MSTORE POP DUP2 ADD SWAP1 PUSH2 0x3E4 SWAP2 SWAP1 PUSH2 0x103C JUMP JUMPDEST PUSH20 0xFFFFFFFFFFFFFFFFFFFFFFFFFFFFFFFFFFFFFFFF AND EQ DUP1 PUSH2 0x49D JUMPI POP PUSH1 0x1 PUSH0 SWAP1 SLOAD SWAP1 PUSH2 0x100 EXP SWAP1 DIV PUSH20 0xFFFFFFFFFFFFFFFFFFFFFFFFFFFFFFFFFFFFFFFF AND PUSH20 0xFFFFFFFFFFFFFFFFFFFFFFFFFFFFFFFFFFFFFFFF AND PUSH4 0xE985E9C5 DUP3 ADDRESS PUSH1 0x40 MLOAD DUP4 PUSH4 0xFFFFFFFF AND PUSH1 0xE0 SHL DUP2 MSTORE PUSH1 0x4 ADD PUSH2 0x45D SWAP3 SWAP2 SWAP1 PUSH2 0x10DF JUMP JUMPDEST PUSH1 0x20 PUSH1 0x40 MLOAD DUP1 DUP4 SUB DUP2 DUP7 GAS STATICCALL ISZERO DUP1 ISZERO PUSH2 0x478 JUMPI RETURNDATASIZE PUSH0 PUSH0 RETURNDATACOPY RETURNDATASIZE PUSH0 REVERT JUMPDEST POP POP POP POP PUSH1 0x40 MLOAD RETURNDATASIZE PUSH1 0x1F NOT PUSH1 0x1F DUP3 ADD AND DUP3 ADD DUP1 PUSH1 0x40 MSTORE POP DUP2 ADD SWAP1 PUSH2 0x49C SWAP2 SWAP1 PUSH2 0x1130 JUMP JUMPDEST JUMPDEST PUSH2 0x4DC JUMPI PUSH1 0x40 MLOAD PUSH32 0x8C379A000000000000000000000000000000000000000000000000000000000 DUP2 MSTORE PUSH1 0x4 ADD PUSH2 0x4D3 SWAP1 PUSH2 0x11A5 JUMP JUMPDEST PUSH1 0x40 MLOAD DUP1 SWAP2 SUB SWAP1 REVERT JUMPDEST JUMPDEST PUSH1 0x2 PUSH0 DUP5 DUP2 MSTORE PUSH1 0x20 ADD SWAP1 DUP2 MSTORE PUSH1 0x20 ADD PUSH0 KECCAK256 PUSH1 0x3 ADD PUSH0 SWAP1 SLOAD SWAP1 PUSH2 0x100 EXP SWAP1 DIV PUSH1 0xFF AND ISZERO PUSH2 0x53E JUMPI PUSH1 0x40 MLOAD PUSH32 0x8C379A000000000000000000000000000000000000000000000000000000000 DUP2 MSTORE PUSH1 0x4 ADD PUSH2 0x535 SWAP1 PUSH2 0x120D JUMP JUMPDEST PUSH1 0x40 MLOAD DUP1 SWAP2 SUB SWAP1 REVERT JUMPDEST PUSH1 0x40 MLOAD DUP1 PUSH1 0x80 ADD PUSH1 0x40 MSTORE DUP1 DUP5 DUP2 MSTORE PUSH1 0x20 ADD DUP3 PUSH20 0xFFFFFFFFFFFFFFFFFFFFFFFFFFFFFFFFFFFFFFFF AND DUP2 MSTORE PUSH1 0x20 ADD DUP4 DUP2 MSTORE PUSH1 0x20 ADD PUSH1 0x1 ISZERO ISZERO DUP2 MSTORE POP PUSH1 0x2 PUSH0 DUP6 DUP2 MSTORE PUSH1 0x20 ADD SWAP1 DUP2 MSTORE PUSH1 0x20 ADD PUSH0 KECCAK256 PUSH0 DUP3 ADD MLOAD DUP2 PUSH0 ADD SSTORE PUSH1 0x20 DUP3 ADD MLOAD DUP2 PUSH1 0x1 ADD PUSH0 PUSH2 0x100 EXP DUP2 SLOAD DUP2 PUSH20 0xFFFFFFFFFFFFFFFFFFFFFFFFFFFFFFFFFFFFFFFF MUL NOT AND SWAP1 DUP4 PUSH20 0xFFFFFFFFFFFFFFFFFFFFFFFFFFFFFFFFFFFFFFFF AND MUL OR SWAP1 SSTORE POP PUSH1 0x40 DUP3 ADD MLOAD DUP2 PUSH1 0x2 ADD SSTORE PUSH1 0x60 DUP3 ADD MLOAD DUP2 PUSH1 0x3 ADD PUSH0 PUSH2 0x100 EXP DUP2 SLOAD DUP2 PUSH1 0xFF MUL NOT AND SWAP1 DUP4 ISZERO ISZERO MUL OR SWAP1 SSTORE POP SWAP1 POP POP DUP3 PUSH32 0x50955776C5778C3B7D968D86D8C51FB6B29A7A74C20866B533268E209FC08343 DUP3 DUP5 PUSH1 0x40 MLOAD PUSH2 0x635 SWAP3 SWAP2 SWAP1 PUSH2 0x122B JUMP JUMPDEST PUSH1 0x40 MLOAD DUP1 SWAP2 SUB SWAP1 LOG2 POP POP POP JUMP JUMPDEST PUSH2 0x64A PUSH2 0xC55 JUMP JUMPDEST PUSH2 0x653 PUSH0 PUSH2 0xCDC JUMP JUMPDEST JUMP JUMPDEST PUSH0 PUSH1 0x2 PUSH0 DUP5 DUP2 MSTORE PUSH1 0x20 ADD SWAP1 DUP2 MSTORE PUSH1 0x20 ADD PUSH0 KECCAK256 PUSH1 0x40 MLOAD DUP1 PUSH1 0x80 ADD PUSH1 0x40 MSTORE SWAP1 DUP2 PUSH0 DUP3 ADD SLOAD DUP2 MSTORE PUSH1 0x20 ADD PUSH1 0x1 DUP3 ADD PUSH0 SWAP1 SLOAD SWAP1 PUSH2 0x100 EXP SWAP1 DIV PUSH20 0xFFFFFFFFFFFFFFFFFFFFFFFFFFFFFFFFFFFFFFFF AND PUSH20 0xFFFFFFFFFFFFFFFFFFFFFFFFFFFFFFFFFFFFFFFF AND PUSH20 0xFFFFFFFFFFFFFFFFFFFFFFFFFFFFFFFFFFFFFFFF AND DUP2 MSTORE PUSH1 0x20 ADD PUSH1 0x2 DUP3 ADD SLOAD DUP2 MSTORE PUSH1 0x20 ADD PUSH1 0x3 DUP3 ADD PUSH0 SWAP1 SLOAD SWAP1 PUSH2 0x100 EXP SWAP1 DIV PUSH1 0xFF AND ISZERO ISZERO ISZERO ISZERO DUP2 MSTORE POP POP SWAP1 POP DUP1 PUSH1 0x60 ADD MLOAD PUSH2 0x73A JUMPI PUSH1 0x40 MLOAD PUSH32 0x8C379A000000000000000000000000000000000000000000000000000000000 DUP2 MSTORE PUSH1 0x4 ADD PUSH2 0x731 SWAP1 PUSH2 0x129C JUMP JUMPDEST PUSH1 0x40 MLOAD DUP1 SWAP2 SUB SWAP1 REVERT JUMPDEST DUP1 PUSH1 0x20 ADD MLOAD PUSH20 0xFFFFFFFFFFFFFFFFFFFFFFFFFFFFFFFFFFFFFFFF AND CALLER PUSH20 0xFFFFFFFFFFFFFFFFFFFFFFFFFFFFFFFFFFFFFFFF AND EQ DUP1 PUSH2 0x7AA JUMPI POP PUSH2 0x77B PUSH2 0x90F JUMP JUMPDEST PUSH20 0xFFFFFFFFFFFFFFFFFFFFFFFFFFFFFFFFFFFFFFFF AND CALLER PUSH20 0xFFFFFFFFFFFFFFFFFFFFFFFFFFFFFFFFFFFFFFFF AND EQ JUMPDEST PUSH2 0x7E9 JUMPI PUSH1 0x40 MLOAD PUSH32 0x8C379A000000000000000000000000000000000000000000000000000000000 DUP2 MSTORE PUSH1 0x4 ADD PUSH2 0x7E0 SWAP1 PUSH2 0x1304 JUMP JUMPDEST PUSH1 0x40 MLOAD DUP1 SWAP2 SUB SWAP1 REVERT JUMPDEST PUSH1 0x2 PUSH0 DUP5 DUP2 MSTORE PUSH1 0x20 ADD SWAP1 DUP2 MSTORE PUSH1 0x20 ADD PUSH0 KECCAK256 PUSH0 PUSH0 DUP3 ADD PUSH0 SWAP1 SSTORE PUSH1 0x1 DUP3 ADD PUSH0 PUSH2 0x100 EXP DUP2 SLOAD SWAP1 PUSH20 0xFFFFFFFFFFFFFFFFFFFFFFFFFFFFFFFFFFFFFFFF MUL NOT AND SWAP1 SSTORE PUSH1 0x2 DUP3 ADD PUSH0 SWAP1 SSTORE PUSH1 0x3 DUP3 ADD PUSH0 PUSH2 0x100 EXP DUP2 SLOAD SWAP1 PUSH1 0xFF MUL NOT AND SWAP1 SSTORE POP POP PUSH1 0x1 PUSH0 SWAP1 SLOAD SWAP1 PUSH2 0x100 EXP SWAP1 DIV PUSH20 0xFFFFFFFFFFFFFFFFFFFFFFFFFFFFFFFFFFFFFFFF AND PUSH20 0xFFFFFFFFFFFFFFFFFFFFFFFFFFFFFFFFFFFFFFFF AND PUSH4 0x42842E0E DUP3 PUSH1 0x20 ADD MLOAD DUP5 DUP7 PUSH1 0x40 MLOAD DUP5 PUSH4 0xFFFFFFFF AND PUSH1 0xE0 SHL DUP2 MSTORE PUSH1 0x4 ADD PUSH2 0x8A5 SWAP4 SWAP3 SWAP2 SWAP1 PUSH2 0x1322 JUMP JUMPDEST PUSH0 PUSH1 0x40 MLOAD DUP1 DUP4 SUB DUP2 PUSH0 DUP8 DUP1 EXTCODESIZE ISZERO DUP1 ISZERO PUSH2 0x8BC JUMPI PUSH0 PUSH0 REVERT JUMPDEST POP GAS CALL ISZERO DUP1 ISZERO PUSH2 0x8CE JUMPI RETURNDATASIZE PUSH0 PUSH0 RETURNDATACOPY RETURNDATASIZE PUSH0 REVERT JUMPDEST POP POP POP POP DUP3 PUSH32 0x61AC2C63E95D648867E788D81A1C73E60D790021130BD30FF89E2214373B5017 DUP4 PUSH1 0x40 MLOAD PUSH2 0x902 SWAP2 SWAP1 PUSH2 0xEC0 JUMP JUMPDEST PUSH1 0x40 MLOAD DUP1 SWAP2 SUB SWAP1 LOG2 POP POP POP JUMP JUMPDEST PUSH0 PUSH0 PUSH0 SWAP1 SLOAD SWAP1 PUSH2 0x100 EXP SWAP1 DIV PUSH20 0xFFFFFFFFFFFFFFFFFFFFFFFFFFFFFFFFFFFFFFFF AND SWAP1 POP SWAP1 JUMP JUMPDEST PUSH0 PUSH1 0x2 PUSH0 DUP4 DUP2 MSTORE PUSH1 0x20 ADD SWAP1 DUP2 MSTORE PUSH1 0x20 ADD PUSH0 KECCAK256 PUSH1 0x40 MLOAD DUP1 PUSH1 0x80 ADD PUSH1 0x40 MSTORE SWAP1 DUP2 PUSH0 DUP3 ADD SLOAD DUP2 MSTORE PUSH1 0x20 ADD PUSH1 0x1 DUP3 ADD PUSH0 SWAP1 SLOAD SWAP1 PUSH2 0x100 EXP SWAP1 DIV PUSH20 0xFFFFFFFFFFFFFFFFFFFFFFFFFFFFFFFFFFFFFFFF AND PUSH20 0xFFFFFFFFFFFFFFFFFFFFFFFFFFFFFFFFFFFFFFFF AND PUSH20 0xFFFFFFFFFFFFFFFFFFFFFFFFFFFFFFFFFFFFFFFF AND DUP2 MSTORE PUSH1 0x20 ADD PUSH1 0x2 DUP3 ADD SLOAD DUP2 MSTORE PUSH1 0x20 ADD PUSH1 0x3 DUP3 ADD PUSH0 SWAP1 SLOAD SWAP1 PUSH2 0x100 EXP SWAP1 DIV PUSH1 0xFF AND ISZERO ISZERO ISZERO ISZERO DUP2 MSTORE POP POP SWAP1 POP DUP1 PUSH1 0x60 ADD MLOAD PUSH2 0xA1B JUMPI PUSH1 0x40 MLOAD PUSH32 0x8C379A000000000000000000000000000000000000000000000000000000000 DUP2 MSTORE PUSH1 0x4 ADD PUSH2 0xA12 SWAP1 PUSH2 0x129C JUMP JUMPDEST PUSH1 0x40 MLOAD DUP1 SWAP2 SUB SWAP1 REVERT JUMPDEST DUP1 PUSH1 0x20 ADD MLOAD PUSH20 0xFFFFFFFFFFFFFFFFFFFFFFFFFFFFFFFFFFFFFFFF AND CALLER PUSH20 0xFFFFFFFFFFFFFFFFFFFFFFFFFFFFFFFFFFFFFFFF AND EQ DUP1 PUSH2 0xA8B JUMPI POP PUSH2 0xA5C PUSH2 0x90F JUMP JUMPDEST PUSH20 0xFFFFFFFFFFFFFFFFFFFFFFFFFFFFFFFFFFFFFFFF AND CALLER PUSH20 0xFFFFFFFFFFFFFFFFFFFFFFFFFFFFFFFFFFFFFFFF AND EQ JUMPDEST PUSH2 0xACA JUMPI PUSH1 0x40 MLOAD PUSH32 0x8C379A000000000000000000000000000000000000000000000000000000000 DUP2 MSTORE PUSH1 0x4 ADD PUSH2 0xAC1 SWAP1 PUSH2 0x1304 JUMP JUMPDEST PUSH1 0x40 MLOAD DUP1 SWAP2 SUB SWAP1 REVERT JUMPDEST PUSH1 0x2 PUSH0 DUP4 DUP2 MSTORE PUSH1 0x20 ADD SWAP1 DUP2 MSTORE PUSH1 0x20 ADD PUSH0 KECCAK256 PUSH0 PUSH0 DUP3 ADD PUSH0 SWAP1 SSTORE PUSH1 0x1 DUP3 ADD PUSH0 PUSH2 0x100 EXP DUP2 SLOAD SWAP1 PUSH20 0xFFFFFFFFFFFFFFFFFFFFFFFFFFFFFFFFFFFFFFFF MUL NOT AND SWAP1 SSTORE PUSH1 0x2 DUP3 ADD PUSH0 SWAP1 SSTORE PUSH1 0x3 DUP3 ADD PUSH0 PUSH2 0x100 EXP DUP2 SLOAD SWAP1 PUSH1 0xFF MUL NOT AND SWAP1 SSTORE POP POP DUP2 PUSH32 0xC40FDC946EFE80191C467F60727C4ABC08254A056035D467A4516A86005AB763 PUSH1 0x40 MLOAD PUSH1 0x40 MLOAD DUP1 SWAP2 SUB SWAP1 LOG2 POP POP JUMP JUMPDEST PUSH1 0x1 PUSH0 SWAP1 SLOAD SWAP1 PUSH2 0x100 EXP SWAP1 DIV PUSH20 0xFFFFFFFFFFFFFFFFFFFFFFFFFFFFFFFFFFFFFFFF AND DUP2 JUMP JUMPDEST PUSH1 0x2 PUSH1 0x20 MSTORE DUP1 PUSH0 MSTORE PUSH1 0x40 PUSH0 KECCAK256 PUSH0 SWAP2 POP SWAP1 POP DUP1 PUSH0 ADD SLOAD SWAP1 DUP1 PUSH1 0x1 ADD PUSH0 SWAP1 SLOAD SWAP1 PUSH2 0x100 EXP SWAP1 DIV PUSH20 0xFFFFFFFFFFFFFFFFFFFFFFFFFFFFFFFFFFFFFFFF AND SWAP1 DUP1 PUSH1 0x2 ADD SLOAD SWAP1 DUP1 PUSH1 0x3 ADD PUSH0 SWAP1 SLOAD SWAP1 PUSH2 0x100 EXP SWAP1 DIV PUSH1 0xFF AND SWAP1 POP DUP5 JUMP JUMPDEST PUSH2 0xBD9 PUSH2 0xC55 JUMP JUMPDEST PUSH0 PUSH20 0xFFFFFFFFFFFFFFFFFFFFFFFFFFFFFFFFFFFFFFFF AND DUP2 PUSH20 0xFFFFFFFFFFFFFFFFFFFFFFFFFFFFFFFFFFFFFFFF AND SUB PUSH2 0xC49 JUMPI PUSH0 PUSH1 0x40 MLOAD PUSH32 0x1E4FBDF700000000000000000000000000000000000000000000000000000000 DUP2 MSTORE PUSH1 0x4 ADD PUSH2 0xC40 SWAP2 SWAP1 PUSH2 0xEC0 JUMP JUMPDEST PUSH1 0x40 MLOAD DUP1 SWAP2 SUB SWAP1 REVERT JUMPDEST PUSH2 0xC52 DUP2 PUSH2 0xCDC JUMP JUMPDEST POP JUMP JUMPDEST PUSH2 0xC5D PUSH2 0xD9D JUMP JUMPDEST PUSH20 0xFFFFFFFFFFFFFFFFFFFFFFFFFFFFFFFFFFFFFFFF AND PUSH2 0xC7B PUSH2 0x90F JUMP JUMPDEST PUSH20 0xFFFFFFFFFFFFFFFFFFFFFFFFFFFFFFFFFFFFFFFF AND EQ PUSH2 0xCDA JUMPI PUSH2 0xC9E PUSH2 0xD9D JUMP JUMPDEST PUSH1 0x40 MLOAD PUSH32 0x118CDAA700000000000000000000000000000000000000000000000000000000 DUP2 MSTORE PUSH1 0x4 ADD PUSH2 0xCD1 SWAP2 SWAP1 PUSH2 0xEC0 JUMP JUMPDEST PUSH1 0x40 MLOAD DUP1 SWAP2 SUB SWAP1 REVERT JUMPDEST JUMP JUMPDEST PUSH0 PUSH0 PUSH0 SWAP1 SLOAD SWAP1 PUSH2 0x100 EXP SWAP1 DIV PUSH20 0xFFFFFFFFFFFFFFFFFFFFFFFFFFFFFFFFFFFFFFFF AND SWAP1 POP DUP2 PUSH0 PUSH0 PUSH2 0x100 EXP DUP2 SLOAD DUP2 PUSH20 0xFFFFFFFFFFFFFFFFFFFFFFFFFFFFFFFFFFFFFFFF MUL NOT AND SWAP1 DUP4 PUSH20 0xFFFFFFFFFFFFFFFFFFFFFFFFFFFFFFFFFFFFFFFF AND MUL OR SWAP1 SSTORE POP DUP2 PUSH20 0xFFFFFFFFFFFFFFFFFFFFFFFFFFFFFFFFFFFFFFFF AND DUP2 PUSH20 0xFFFFFFFFFFFFFFFFFFFFFFFFFFFFFFFFFFFFFFFF AND PUSH32 0x8BE0079C531659141344CD1FD0A4F28419497F9722A3DAAFE3B4186F6B6457E0 PUSH1 0x40 MLOAD PUSH1 0x40 MLOAD DUP1 SWAP2 SUB SWAP1 LOG3 POP POP JUMP JUMPDEST PUSH0 CALLER SWAP1 POP SWAP1 JUMP JUMPDEST PUSH0 PUSH0 REVERT JUMPDEST PUSH0 DUP2 SWAP1 POP SWAP2 SWAP1 POP JUMP JUMPDEST PUSH2 0xDBA DUP2 PUSH2 0xDA8 JUMP JUMPDEST DUP2 EQ PUSH2 0xDC4 JUMPI PUSH0 PUSH0 REVERT JUMPDEST POP JUMP JUMPDEST PUSH0 DUP2 CALLDATALOAD SWAP1 POP PUSH2 0xDD5 DUP2 PUSH2 0xDB1 JUMP JUMPDEST SWAP3 SWAP2 POP POP JUMP JUMPDEST PUSH0 PUSH0 PUSH1 0x40 DUP4 DUP6 SUB SLT ISZERO PUSH2 0xDF1 JUMPI PUSH2 0xDF0 PUSH2 0xDA4 JUMP JUMPDEST JUMPDEST PUSH0 PUSH2 0xDFE DUP6 DUP3 DUP7 ADD PUSH2 0xDC7 JUMP JUMPDEST SWAP3 POP POP PUSH1 0x20 PUSH2 0xE0F DUP6 DUP3 DUP7 ADD PUSH2 0xDC7 JUMP JUMPDEST SWAP2 POP POP SWAP3 POP SWAP3 SWAP1 POP JUMP JUMPDEST PUSH0 PUSH20 0xFFFFFFFFFFFFFFFFFFFFFFFFFFFFFFFFFFFFFFFF DUP3 AND SWAP1 POP SWAP2 SWAP1 POP JUMP JUMPDEST PUSH0 PUSH2 0xE42 DUP3 PUSH2 0xE19 JUMP JUMPDEST SWAP1 POP SWAP2 SWAP1 POP JUMP JUMPDEST PUSH2 0xE52 DUP2 PUSH2 0xE38 JUMP JUMPDEST DUP2 EQ PUSH2 0xE5C JUMPI PUSH0 PUSH0 REVERT JUMPDEST POP JUMP JUMPDEST PUSH0 DUP2 CALLDATALOAD SWAP1 POP PUSH2 0xE6D DUP2 PUSH2 0xE49 JUMP JUMPDEST SWAP3 SWAP2 POP POP JUMP JUMPDEST PUSH0 PUSH0 PUSH1 0x40 DUP4 DUP6 SUB SLT ISZERO PUSH2 0xE89 JUMPI PUSH2 0xE88 PUSH2 0xDA4 JUMP JUMPDEST JUMPDEST PUSH0 PUSH2 0xE96 DUP6 DUP3 DUP7 ADD PUSH2 0xDC7 JUMP JUMPDEST SWAP3 POP POP PUSH1 0x20 PUSH2 0xEA7 DUP6 DUP3 DUP7 ADD PUSH2 0xE5F JUMP JUMPDEST SWAP2 POP POP SWAP3 POP SWAP3 SWAP1 POP JUMP JUMPDEST PUSH2 0xEBA DUP2 PUSH2 0xE38 JUMP JUMPDEST DUP3 MSTORE POP POP JUMP JUMPDEST PUSH0 PUSH1 0x20 DUP3 ADD SWAP1 POP PUSH2 0xED3 PUSH0 DUP4 ADD DUP5 PUSH2 0xEB1 JUMP JUMPDEST SWAP3 SWAP2 POP POP JUMP JUMPDEST PUSH0 PUSH1 0x20 DUP3 DUP5 SUB SLT ISZERO PUSH2 0xEEE JUMPI PUSH2 0xEED PUSH2 0xDA4 JUMP JUMPDEST JUMPDEST PUSH0 PUSH2 0xEFB DUP5 DUP3 DUP6 ADD PUSH2 0xDC7 JUMP JUMPDEST SWAP2 POP POP SWAP3 SWAP2 POP POP JUMP JUMPDEST PUSH0 DUP2 SWAP1 POP SWAP2 SWAP1 POP JUMP JUMPDEST PUSH0 PUSH2 0xF27 PUSH2 0xF22 PUSH2 0xF1D DUP5 PUSH2 0xE19 JUMP JUMPDEST PUSH2 0xF04 JUMP JUMPDEST PUSH2 0xE19 JUMP JUMPDEST SWAP1 POP SWAP2 SWAP1 POP JUMP JUMPDEST PUSH0 PUSH2 0xF38 DUP3 PUSH2 0xF0D JUMP JUMPDEST SWAP1 POP SWAP2 SWAP1 POP JUMP JUMPDEST PUSH0 PUSH2 0xF49 DUP3 PUSH2 0xF2E JUMP JUMPDEST SWAP1 POP SWAP2 SWAP1 POP JUMP JUMPDEST PUSH2 0xF59 DUP2 PUSH2 0xF3F JUMP JUMPDEST DUP3 MSTORE POP POP JUMP JUMPDEST PUSH0 PUSH1 0x20 DUP3 ADD SWAP1 POP PUSH2 0xF72 PUSH0 DUP4 ADD DUP5 PUSH2 0xF50 JUMP JUMPDEST SWAP3 SWAP2 POP POP JUMP JUMPDEST PUSH2 0xF81 DUP2 PUSH2 0xDA8 JUMP JUMPDEST DUP3 MSTORE POP POP JUMP JUMPDEST PUSH0 DUP2 ISZERO ISZERO SWAP1 POP SWAP2 SWAP1 POP JUMP JUMPDEST PUSH2 0xF9B DUP2 PUSH2 0xF87 JUMP JUMPDEST DUP3 MSTORE POP POP JUMP JUMPDEST PUSH0 PUSH1 0x80 DUP3 ADD SWAP1 POP PUSH2 0xFB4 PUSH0 DUP4 ADD DUP8 PUSH2 0xF78 JUMP JUMPDEST PUSH2 0xFC1 PUSH1 0x20 DUP4 ADD DUP7 PUSH2 0xEB1 JUMP JUMPDEST PUSH2 0xFCE PUSH1 0x40 DUP4 ADD DUP6 PUSH2 0xF78 JUMP JUMPDEST PUSH2 0xFDB PUSH1 0x60 DUP4 ADD DUP5 PUSH2 0xF92 JUMP JUMPDEST SWAP6 SWAP5 POP POP POP POP POP JUMP JUMPDEST PUSH0 PUSH1 0x20 DUP3 DUP5 SUB SLT ISZERO PUSH2 0xFF9 JUMPI PUSH2 0xFF8 PUSH2 0xDA4 JUMP JUMPDEST JUMPDEST PUSH0 PUSH2 0x1006 DUP5 DUP3 DUP6 ADD PUSH2 0xE5F JUMP JUMPDEST SWAP2 POP POP SWAP3 SWAP2 POP POP JUMP JUMPDEST PUSH0 PUSH1 0x20 DUP3 ADD SWAP1 POP PUSH2 0x1022 PUSH0 DUP4 ADD DUP5 PUSH2 0xF78 JUMP JUMPDEST SWAP3 SWAP2 POP POP JUMP JUMPDEST PUSH0 DUP2 MLOAD SWAP1 POP PUSH2 0x1036 DUP2 PUSH2 0xE49 JUMP JUMPDEST SWAP3 SWAP2 POP POP JUMP JUMPDEST PUSH0 PUSH1 0x20 DUP3 DUP5 SUB SLT ISZERO PUSH2 0x1051 JUMPI PUSH2 0x1050 PUSH2 0xDA4 JUMP JUMPDEST JUMPDEST PUSH0 PUSH2 0x105E DUP5 DUP3 DUP6 ADD PUSH2 0x1028 JUMP JUMPDEST SWAP2 POP POP SWAP3 SWAP2 POP POP JUMP JUMPDEST PUSH0 DUP3 DUP3 MSTORE PUSH1 0x20 DUP3 ADD SWAP1 POP SWAP3 SWAP2 POP POP JUMP JUMPDEST PUSH32 0x4E6F74206F776E6572206F72206D61726B6574706C6163652061646D696E0000 PUSH0 DUP3 ADD MSTORE POP JUMP JUMPDEST PUSH0 PUSH2 0x10AB PUSH1 0x1E DUP4 PUSH2 0x1067 JUMP JUMPDEST SWAP2 POP PUSH2 0x10B6 DUP3 PUSH2 0x1077 JUMP JUMPDEST PUSH1 0x20 DUP3 ADD SWAP1 POP SWAP2 SWAP1 POP JUMP JUMPDEST PUSH0 PUSH1 0x20 DUP3 ADD SWAP1 POP DUP2 DUP2 SUB PUSH0 DUP4 ADD MSTORE PUSH2 0x10D8 DUP2 PUSH2 0x109F JUMP JUMPDEST SWAP1 POP SWAP2 SWAP1 POP JUMP JUMPDEST PUSH0 PUSH1 0x40 DUP3 ADD SWAP1 POP PUSH2 0x10F2 PUSH0 DUP4 ADD DUP6 PUSH2 0xEB1 JUMP JUMPDEST PUSH2 0x10FF PUSH1 0x20 DUP4 ADD DUP5 PUSH2 0xEB1 JUMP JUMPDEST SWAP4 SWAP3 POP POP POP JUMP JUMPDEST PUSH2 0x110F DUP2 PUSH2 0xF87 JUMP JUMPDEST DUP2 EQ PUSH2 0x1119 JUMPI PUSH0 PUSH0 REVERT JUMPDEST POP JUMP JUMPDEST PUSH0 DUP2 MLOAD SWAP1 POP PUSH2 0x112A DUP2 PUSH2 0x1106 JUMP JUMPDEST SWAP3 SWAP2 POP POP JUMP JUMPDEST PUSH0 PUSH1 0x20 DUP3 DUP5 SUB SLT ISZERO PUSH2 0x1145 JUMPI PUSH2 0x1144 PUSH2 0xDA4 JUMP JUMPDEST JUMPDEST PUSH0 PUSH2 0x1152 DUP5 DUP3 DUP6 ADD PUSH2 0x111C JUMP JUMPDEST SWAP2 POP POP SWAP3 SWAP2 POP POP JUMP JUMPDEST PUSH32 0x4E4654206E6F7420617070726F76656420666F72206D61726B6574706C616365 PUSH0 DUP3 ADD MSTORE POP JUMP JUMPDEST PUSH0 PUSH2 0x118F PUSH1 0x20 DUP4 PUSH2 0x1067 JUMP JUMPDEST SWAP2 POP PUSH2 0x119A DUP3 PUSH2 0x115B JUMP JUMPDEST PUSH1 0x20 DUP3 ADD SWAP1 POP SWAP2 SWAP1 POP JUMP JUMPDEST PUSH0 PUSH1 0x20 DUP3 ADD SWAP1 POP DUP2 DUP2 SUB PUSH0 DUP4 ADD MSTORE PUSH2 0x11BC DUP2 PUSH2 0x1183 JUMP JUMPDEST SWAP1 POP SWAP2 SWAP1 POP JUMP JUMPDEST PUSH32 0x416C7265616479206C6973746564000000000000000000000000000000000000 PUSH0 DUP3 ADD MSTORE POP JUMP JUMPDEST PUSH0 PUSH2 0x11F7 PUSH1 0xE DUP4 PUSH2 0x1067 JUMP JUMPDEST SWAP2 POP PUSH2 0x1202 DUP3 PUSH2 0x11C3 JUMP JUMPDEST PUSH1 0x20 DUP3 ADD SWAP1 POP SWAP2 SWAP1 POP JUMP JUMPDEST PUSH0 PUSH1 0x20 DUP3 ADD SWAP1 POP DUP2 DUP2 SUB PUSH0 DUP4 ADD MSTORE PUSH2 0x1224 DUP2 PUSH2 0x11EB JUMP JUMPDEST SWAP1 POP SWAP2 SWAP1 POP JUMP JUMPDEST PUSH0 PUSH1 0x40 DUP3 ADD SWAP1 POP PUSH2 0x123E PUSH0 DUP4 ADD DUP6 PUSH2 0xEB1 JUMP JUMPDEST PUSH2 0x124B PUSH1 0x20 DUP4 ADD DUP5 PUSH2 0xF78 JUMP JUMPDEST SWAP4 SWAP3 POP POP POP JUMP JUMPDEST PUSH32 0x4E6F74206C697374656400000000000000000000000000000000000000000000 PUSH0 DUP3 ADD MSTORE POP JUMP JUMPDEST PUSH0 PUSH2 0x1286 PUSH1 0xA DUP4 PUSH2 0x1067 JUMP JUMPDEST SWAP2 POP PUSH2 0x1291 DUP3 PUSH2 0x1252 JUMP JUMPDEST PUSH1 0x20 DUP3 ADD SWAP1 POP SWAP2 SWAP1 POP JUMP JUMPDEST PUSH0 PUSH1 0x20 DUP3 ADD SWAP1 POP DUP2 DUP2 SUB PUSH0 DUP4 ADD MSTORE PUSH2 0x12B3 DUP2 PUSH2 0x127A JUMP JUMPDEST SWAP1 POP SWAP2 SWAP1 POP JUMP JUMPDEST PUSH32 0x4E6F742073656C6C6572206F72206D61726B6574706C6163652061646D696E00 PUSH0 DUP3 ADD MSTORE POP JUMP JUMPDEST PUSH0 PUSH2 0x12EE PUSH1 0x1F DUP4 PUSH2 0x1067 JUMP JUMPDEST SWAP2 POP PUSH2 0x12F9 DUP3 PUSH2 0x12BA JUMP JUMPDEST PUSH1 0x20 DUP3 ADD SWAP1 POP SWAP2 SWAP1 POP JUMP JUMPDEST PUSH0 PUSH1 0x20 DUP3 ADD SWAP1 POP DUP2 DUP2 SUB PUSH0 DUP4 ADD MSTORE PUSH2 0x131B DUP2 PUSH2 0x12E2 JUMP JUMPDEST SWAP1 POP SWAP2 SWAP1 POP JUMP JUMPDEST PUSH0 PUSH1 0x60 DUP3 ADD SWAP1 POP PUSH2 0x1335 PUSH0 DUP4 ADD DUP7 PUSH2 0xEB1 JUMP JUMPDEST PUSH2 0x1342 PUSH1 0x20 DUP4 ADD DUP6 PUSH2 0xEB1 JUMP JUMPDEST PUSH2 0x134F PUSH1 0x40 DUP4 ADD DUP5 PUSH2 0xF78 JUMP JUMPDEST SWAP5 SWAP4 POP POP POP POP JUMP INVALID LOG2 PUSH5 0x6970667358 0x22 SLT KECCAK256 0xF 0xEF PUSH24 0x3B23498E10BA270A942FB6E27DAB00FA1B9EA747D36CC5F8 NUMBER DATALOADN 0x931A 0xD0 PUSH5 0x736F6C6343 STOP ADDMOD 0x1E STOP CALLER "
	},
	"abi": [
		{
			"inputs": [
				{
					"internalType": "address",
					"name": "_nftAddress",
					"type": "address"
				},
				{
					"internalType": "address",
					"name": "initialOwner",
					"type": "address"
				}
			],
			"stateMutability": "nonpayable",
			"type": "constructor"
		},
		{
			"inputs": [
				{
					"internalType": "address",
					"name": "owner",
					"type": "address"
				}
			],
			"name": "OwnableInvalidOwner",
			"type": "error"
		},
		{
			"inputs": [
				{
					"internalType": "address",
					"name": "account",
					"type": "address"
				}
			],
			"name": "OwnableUnauthorizedAccount",
			"type": "error"
		},
		{
			"anonymous": false,
			"inputs": [
				{
					"indexed": true,
					"internalType": "uint256",
					"name": "tokenId",
					"type": "uint256"
				}
			],
			"name": "Delisted",
			"type": "event"
		},
		{
			"anonymous": false,
			"inputs": [
				{
					"indexed": true,
					"internalType": "uint256",
					"name": "tokenId",
					"type": "uint256"
				},
				{
					"indexed": false,
					"internalType": "address",
					"name": "seller",
					"type": "address"
				},
				{
					"indexed": false,
					"internalType": "uint256",
					"name": "price",
					"type": "uint256"
				}
			],
			"name": "Listed",
			"type": "event"
		},
		{
			"anonymous": false,
			"inputs": [
				{
					"indexed": true,
					"internalType": "address",
					"name": "previousOwner",
					"type": "address"
				},
				{
					"indexed": true,
					"internalType": "address",
					"name": "newOwner",
					"type": "address"
				}
			],
			"name": "OwnershipTransferred",
			"type": "event"
		},
		{
			"anonymous": false,
			"inputs": [
				{
					"indexed": true,
					"internalType": "uint256",
					"name": "tokenId",
					"type": "uint256"
				},
				{
					"indexed": false,
					"internalType": "address",
					"name": "buyer",
					"type": "address"
				}
			],
			"name": "SaleConfirmed",
			"type": "event"
		},
		{
			"inputs": [
				{
					"internalType": "uint256",
					"name": "tokenId",
					"type": "uint256"
				},
				{
					"internalType": "address",
					"name": "buyer",
					"type": "address"
				}
			],
			"name": "confirmSale",
			"outputs": [],
			"stateMutability": "nonpayable",
			"type": "function"
		},
		{
			"inputs": [
				{
					"internalType": "uint256",
					"name": "tokenId",
					"type": "uint256"
				}
			],
			"name": "delist",
			"outputs": [],
			"stateMutability": "nonpayable",
			"type": "function"
		},
		{
			"inputs": [
				{
					"internalType": "uint256",
					"name": "tokenId",
					"type": "uint256"
				},
				{
					"internalType": "uint256",
					"name": "price",
					"type": "uint256"
				}
			],
			"name": "list",
			"outputs": [],
			"stateMutability": "nonpayable",
			"type": "function"
		},
		{
			"inputs": [
				{
					"internalType": "uint256",
					"name": "",
					"type": "uint256"
				}
			],
			"name": "listings",
			"outputs": [
				{
					"internalType": "uint256",
					"name": "tokenId",
					"type": "uint256"
				},
				{
					"internalType": "address",
					"name": "seller",
					"type": "address"
				},
				{
					"internalType": "uint256",
					"name": "price",
					"type": "uint256"
				},
				{
					"internalType": "bool",
					"name": "active",
					"type": "bool"
				}
			],
			"stateMutability": "view",
			"type": "function"
		},
		{
			"inputs": [],
			"name": "nftContract",
			"outputs": [
				{
					"internalType": "contract ArtifactNFT",
					"name": "",
					"type": "address"
				}
			],
			"stateMutability": "view",
			"type": "function"
		},
		{
			"inputs": [],
			"name": "owner",
			"outputs": [
				{
					"internalType": "address",
					"name": "",
					"type": "address"
				}
			],
			"stateMutability": "view",
			"type": "function"
		},
		{
			"inputs": [],
			"name": "renounceOwnership",
			"outputs": [],
			"stateMutability": "nonpayable",
			"type": "function"
		},
		{
			"inputs": [
				{
					"internalType": "address",
					"name": "newOwner",
					"type": "address"
				}
			],
			"name": "transferOwnership",
			"outputs": [],
			"stateMutability": "nonpayable",
			"type": "function"
		}
	],
	"storageLayout": {
		"storage": [
			{
				"astId": 8,
				"contract": "contracts/Marketplace.sol:Marketplace",
				"label": "_owner",
				"offset": 0,
				"slot": "0",
				"type": "t_address"
			},
			{
				"astId": 6806,
				"contract": "contracts/Marketplace.sol:Marketplace",
				"label": "nftContract",
				"offset": 0,
				"slot": "1",
				"type": "t_contract(ArtifactNFT)6796"
			},
			{
				"astId": 6820,
				"contract": "contracts/Marketplace.sol:Marketplace",
				"label": "listings",
				"offset": 0,
				"slot": "2",
				"type": "t_mapping(t_uint256,t_struct(Listing)6815_storage)"
			}
		],
		"types": {
			"t_address": {
				"encoding": "inplace",
				"label": "address",
				"numberOfBytes": "20"
			},
			"t_bool": {
				"encoding": "inplace",
				"label": "bool",
				"numberOfBytes": "1"
			},
			"t_contract(ArtifactNFT)6796": {
				"encoding": "inplace",
				"label": "contract ArtifactNFT",
				"numberOfBytes": "20"
			},
			"t_mapping(t_uint256,t_struct(Listing)6815_storage)": {
				"encoding": "mapping",
				"key": "t_uint256",
				"label": "mapping(uint256 => struct Marketplace.Listing)",
				"numberOfBytes": "32",
				"value": "t_struct(Listing)6815_storage"
			},
			"t_struct(Listing)6815_storage": {
				"encoding": "inplace",
				"label": "struct Marketplace.Listing",
				"members": [
					{
						"astId": 6808,
						"contract": "contracts/Marketplace.sol:Marketplace",
						"label": "tokenId",
						"offset": 0,
						"slot": "0",
						"type": "t_uint256"
					},
					{
						"astId": 6810,
						"contract": "contracts/Marketplace.sol:Marketplace",
						"label": "seller",
						"offset": 0,
						"slot": "1",
						"type": "t_address"
					},
					{
						"astId": 6812,
						"contract": "contracts/Marketplace.sol:Marketplace",
						"label": "price",
						"offset": 0,
						"slot": "2",
						"type": "t_uint256"
					},
					{
						"astId": 6814,
						"contract": "contracts/Marketplace.sol:Marketplace",
						"label": "active",
						"offset": 0,
						"slot": "3",
						"type": "t_bool"
					}
				],
				"numberOfBytes": "128"
			},
			"t_uint256": {
				"encoding": "inplace",
				"label": "uint256",
				"numberOfBytes": "32"
			}
		}
	},
	"web3Deploy": "var _nftAddress = /* var of type address here */ ;\nvar initialOwner = /* var of type address here */ ;\nvar marketplaceContract = new web3.eth.Contract([{\"inputs\":[{\"internalType\":\"address\",\"name\":\"_nftAddress\",\"type\":\"address\"},{\"internalType\":\"address\",\"name\":\"initialOwner\",\"type\":\"address\"}],\"stateMutability\":\"nonpayable\",\"type\":\"constructor\"},{\"inputs\":[{\"internalType\":\"address\",\"name\":\"owner\",\"type\":\"address\"}],\"name\":\"OwnableInvalidOwner\",\"type\":\"error\"},{\"inputs\":[{\"internalType\":\"address\",\"name\":\"account\",\"type\":\"address\"}],\"name\":\"OwnableUnauthorizedAccount\",\"type\":\"error\"},{\"anonymous\":false,\"inputs\":[{\"indexed\":true,\"internalType\":\"uint256\",\"name\":\"tokenId\",\"type\":\"uint256\"}],\"name\":\"Delisted\",\"type\":\"event\"},{\"anonymous\":false,\"inputs\":[{\"indexed\":true,\"internalType\":\"uint256\",\"name\":\"tokenId\",\"type\":\"uint256\"},{\"indexed\":false,\"internalType\":\"address\",\"name\":\"seller\",\"type\":\"address\"},{\"indexed\":false,\"internalType\":\"uint256\",\"name\":\"price\",\"type\":\"uint256\"}],\"name\":\"Listed\",\"type\":\"event\"},{\"anonymous\":false,\"inputs\":[{\"indexed\":true,\"internalType\":\"address\",\"name\":\"previousOwner\",\"type\":\"address\"},{\"indexed\":true,\"internalType\":\"address\",\"name\":\"newOwner\",\"type\":\"address\"}],\"name\":\"OwnershipTransferred\",\"type\":\"event\"},{\"anonymous\":false,\"inputs\":[{\"indexed\":true,\"internalType\":\"uint256\",\"name\":\"tokenId\",\"type\":\"uint256\"},{\"indexed\":false,\"internalType\":\"address\",\"name\":\"buyer\",\"type\":\"address\"}],\"name\":\"SaleConfirmed\",\"type\":\"event\"},{\"inputs\":[{\"internalType\":\"uint256\",\"name\":\"tokenId\",\"type\":\"uint256\"},{\"internalType\":\"address\",\"name\":\"buyer\",\"type\":\"address\"}],\"name\":\"confirmSale\",\"outputs\":[],\"stateMutability\":\"nonpayable\",\"type\":\"function\"},{\"inputs\":[{\"internalType\":\"uint256\",\"name\":\"tokenId\",\"type\":\"uint256\"}],\"name\":\"delist\",\"outputs\":[],\"stateMutability\":\"nonpayable\",\"type\":\"function\"},{\"inputs\":[{\"internalType\":\"uint256\",\"name\":\"tokenId\",\"type\":\"uint256\"},{\"internalType\":\"uint256\",\"name\":\"price\",\"type\":\"uint256\"}],\"name\":\"list\",\"outputs\":[],\"stateMutability\":\"nonpayable\",\"type\":\"function\"},{\"inputs\":[{\"internalType\":\"uint256\",\"name\":\"\",\"type\":\"uint256\"}],\"name\":\"listings\",\"outputs\":[{\"internalType\":\"uint256\",\"name\":\"tokenId\",\"type\":\"uint256\"},{\"internalType\":\"address\",\"name\":\"seller\",\"type\":\"address\"},{\"internalType\":\"uint256\",\"name\":\"price\",\"type\":\"uint256\"},{\"internalType\":\"bool\",\"name\":\"active\",\"type\":\"bool\"}],\"stateMutability\":\"view\",\"type\":\"function\"},{\"inputs\":[],\"name\":\"nftContract\",\"outputs\":[{\"internalType\":\"contract ArtifactNFT\",\"name\":\"\",\"type\":\"address\"}],\"stateMutability\":\"view\",\"type\":\"function\"},{\"inputs\":[],\"name\":\"owner\",\"outputs\":[{\"internalType\":\"address\",\"name\":\"\",\"type\":\"address\"}],\"stateMutability\":\"view\",\"type\":\"function\"},{\"inputs\":[],\"name\":\"renounceOwnership\",\"outputs\":[],\"stateMutability\":\"nonpayable\",\"type\":\"function\"},{\"inputs\":[{\"internalType\":\"address\",\"name\":\"newOwner\",\"type\":\"address\"}],\"name\":\"transferOwnership\",\"outputs\":[],\"stateMutability\":\"nonpayable\",\"type\":\"function\"}]);\nvar marketplace = marketplaceContract.deploy({\n     data: '0x608060405234801561000f575f5ffd5b5060405161161838038061161883398181016040528101906100319190610218565b805f73ffffffffffffffffffffffffffffffffffffffff168173ffffffffffffffffffffffffffffffffffffffff16036100a2575f6040517f1e4fbdf70000000000000000000000000000000000000000000000000000000081526004016100999190610265565b60405180910390fd5b6100b1816100f960201b60201c565b508160015f6101000a81548173ffffffffffffffffffffffffffffffffffffffff021916908373ffffffffffffffffffffffffffffffffffffffff160217905550505061027e565b5f5f5f9054906101000a900473ffffffffffffffffffffffffffffffffffffffff169050815f5f6101000a81548173ffffffffffffffffffffffffffffffffffffffff021916908373ffffffffffffffffffffffffffffffffffffffff1602179055508173ffffffffffffffffffffffffffffffffffffffff168173ffffffffffffffffffffffffffffffffffffffff167f8be0079c531659141344cd1fd0a4f28419497f9722a3daafe3b4186f6b6457e060405160405180910390a35050565b5f5ffd5b5f73ffffffffffffffffffffffffffffffffffffffff82169050919050565b5f6101e7826101be565b9050919050565b6101f7816101dd565b8114610201575f5ffd5b50565b5f81519050610212816101ee565b92915050565b5f5f6040838503121561022e5761022d6101ba565b5b5f61023b85828601610204565b925050602061024c85828601610204565b9150509250929050565b61025f816101dd565b82525050565b5f6020820190506102785f830184610256565b92915050565b61138d8061028b5f395ff3fe608060405234801561000f575f5ffd5b5060043610610086575f3560e01c8063964bc33f11610059578063964bc33f146100ea578063d56d229d14610106578063de74e57b14610124578063f2fde38b1461015757610086565b806350fd73671461008a578063715018a6146100a657806378ead8b5146100b05780638da5cb5b146100cc575b5f5ffd5b6100a4600480360381019061009f9190610ddb565b610173565b005b6100ae610642565b005b6100ca60048036038101906100c59190610e73565b610655565b005b6100d461090f565b6040516100e19190610ec0565b60405180910390f35b61010460048036038101906100ff9190610ed9565b610936565b005b61010e610b55565b60405161011b9190610f5f565b60405180910390f35b61013e60048036038101906101399190610ed9565b610b7a565b60405161014e9493929190610fa1565b60405180910390f35b610171600480360381019061016c9190610fe4565b610bd1565b005b5f60015f9054906101000a900473ffffffffffffffffffffffffffffffffffffffff1673ffffffffffffffffffffffffffffffffffffffff16636352211e846040518263ffffffff1660e01b81526004016101ce919061100f565b602060405180830381865afa1580156101e9573d5f5f3e3d5ffd5b505050506040513d601f19601f8201168201806040525081019061020d919061103c565b90508073ffffffffffffffffffffffffffffffffffffffff163373ffffffffffffffffffffffffffffffffffffffff16148061027b575061024c61090f565b73ffffffffffffffffffffffffffffffffffffffff163373ffffffffffffffffffffffffffffffffffffffff16145b6102ba576040517f08c379a00000000000000000000000000000000000000000000000000000000081526004016102b1906110c1565b60405180910390fd5b6102c261090f565b73ffffffffffffffffffffffffffffffffffffffff163373ffffffffffffffffffffffffffffffffffffffff1614801561032f57506102ff61090f565b73ffffffffffffffffffffffffffffffffffffffff168173ffffffffffffffffffffffffffffffffffffffff1614155b156104dd573073ffffffffffffffffffffffffffffffffffffffff1660015f9054906101000a900473ffffffffffffffffffffffffffffffffffffffff1673ffffffffffffffffffffffffffffffffffffffff1663081812fc856040518263ffffffff1660e01b81526004016103a5919061100f565b602060405180830381865afa1580156103c0573d5f5f3e3d5ffd5b505050506040513d601f19601f820116820180604052508101906103e4919061103c565b73ffffffffffffffffffffffffffffffffffffffff16148061049d575060015f9054906101000a900473ffffffffffffffffffffffffffffffffffffffff1673ffffffffffffffffffffffffffffffffffffffff1663e985e9c582306040518363ffffffff1660e01b815260040161045d9291906110df565b602060405180830381865afa158015610478573d5f5f3e3d5ffd5b505050506040513d601f19601f8201168201806040525081019061049c9190611130565b5b6104dc576040517f08c379a00000000000000000000000000000000000000000000000000000000081526004016104d3906111a5565b60405180910390fd5b5b60025f8481526020019081526020015f206003015f9054906101000a900460ff161561053e576040517f08c379a00000000000000000000000000000000000000000000000000000000081526004016105359061120d565b60405180910390fd5b60405180608001604052808481526020018273ffffffffffffffffffffffffffffffffffffffff1681526020018381526020016001151581525060025f8581526020019081526020015f205f820151815f01556020820151816001015f6101000a81548173ffffffffffffffffffffffffffffffffffffffff021916908373ffffffffffffffffffffffffffffffffffffffff160217905550604082015181600201556060820151816003015f6101000a81548160ff021916908315150217905550905050827f50955776c5778c3b7d968d86d8c51fb6b29a7a74c20866b533268e209fc08343828460405161063592919061122b565b60405180910390a2505050565b61064a610c55565b6106535f610cdc565b565b5f60025f8481526020019081526020015f206040518060800160405290815f8201548152602001600182015f9054906101000a900473ffffffffffffffffffffffffffffffffffffffff1673ffffffffffffffffffffffffffffffffffffffff1673ffffffffffffffffffffffffffffffffffffffff16815260200160028201548152602001600382015f9054906101000a900460ff1615151515815250509050806060015161073a576040517f08c379a00000000000000000000000000000000000000000000000000000000081526004016107319061129c565b60405180910390fd5b806020015173ffffffffffffffffffffffffffffffffffffffff163373ffffffffffffffffffffffffffffffffffffffff1614806107aa575061077b61090f565b73ffffffffffffffffffffffffffffffffffffffff163373ffffffffffffffffffffffffffffffffffffffff16145b6107e9576040517f08c379a00000000000000000000000000000000000000000000000000000000081526004016107e090611304565b60405180910390fd5b60025f8481526020019081526020015f205f5f82015f9055600182015f6101000a81549073ffffffffffffffffffffffffffffffffffffffff0219169055600282015f9055600382015f6101000a81549060ff0219169055505060015f9054906101000a900473ffffffffffffffffffffffffffffffffffffffff1673ffffffffffffffffffffffffffffffffffffffff166342842e0e826020015184866040518463ffffffff1660e01b81526004016108a593929190611322565b5f604051808303815f87803b1580156108bc575f5ffd5b505af11580156108ce573d5f5f3e3d5ffd5b50505050827f61ac2c63e95d648867e788d81a1c73e60d790021130bd30ff89e2214373b5017836040516109029190610ec0565b60405180910390a2505050565b5f5f5f9054906101000a900473ffffffffffffffffffffffffffffffffffffffff16905090565b5f60025f8381526020019081526020015f206040518060800160405290815f8201548152602001600182015f9054906101000a900473ffffffffffffffffffffffffffffffffffffffff1673ffffffffffffffffffffffffffffffffffffffff1673ffffffffffffffffffffffffffffffffffffffff16815260200160028201548152602001600382015f9054906101000a900460ff16151515158152505090508060600151610a1b576040517f08c379a0000000000000000000000000000000000000000000000000000000008152600401610a129061129c565b60405180910390fd5b806020015173ffffffffffffffffffffffffffffffffffffffff163373ffffffffffffffffffffffffffffffffffffffff161480610a8b5750610a5c61090f565b73ffffffffffffffffffffffffffffffffffffffff163373ffffffffffffffffffffffffffffffffffffffff16145b610aca576040517f08c379a0000000000000000000000000000000000000000000000000000000008152600401610ac190611304565b60405180910390fd5b60025f8381526020019081526020015f205f5f82015f9055600182015f6101000a81549073ffffffffffffffffffffffffffffffffffffffff0219169055600282015f9055600382015f6101000a81549060ff02191690555050817fc40fdc946efe80191c467f60727c4abc08254a056035d467a4516a86005ab76360405160405180910390a25050565b60015f9054906101000a900473ffffffffffffffffffffffffffffffffffffffff1681565b6002602052805f5260405f205f91509050805f015490806001015f9054906101000a900473ffffffffffffffffffffffffffffffffffffffff1690806002015490806003015f9054906101000a900460ff16905084565b610bd9610c55565b5f73ffffffffffffffffffffffffffffffffffffffff168173ffffffffffffffffffffffffffffffffffffffff1603610c49575f6040517f1e4fbdf7000000000000000000000000000000000000000000000000000000008152600401610c409190610ec0565b60405180910390fd5b610c5281610cdc565b50565b610c5d610d9d565b73ffffffffffffffffffffffffffffffffffffffff16610c7b61090f565b73ffffffffffffffffffffffffffffffffffffffff1614610cda57610c9e610d9d565b6040517f118cdaa7000000000000000000000000000000000000000000000000000000008152600401610cd19190610ec0565b60405180910390fd5b565b5f5f5f9054906101000a900473ffffffffffffffffffffffffffffffffffffffff169050815f5f6101000a81548173ffffffffffffffffffffffffffffffffffffffff021916908373ffffffffffffffffffffffffffffffffffffffff1602179055508173ffffffffffffffffffffffffffffffffffffffff168173ffffffffffffffffffffffffffffffffffffffff167f8be0079c531659141344cd1fd0a4f28419497f9722a3daafe3b4186f6b6457e060405160405180910390a35050565b5f33905090565b5f5ffd5b5f819050919050565b610dba81610da8565b8114610dc4575f5ffd5b50565b5f81359050610dd581610db1565b92915050565b5f5f60408385031215610df157610df0610da4565b5b5f610dfe85828601610dc7565b9250506020610e0f85828601610dc7565b9150509250929050565b5f73ffffffffffffffffffffffffffffffffffffffff82169050919050565b5f610e4282610e19565b9050919050565b610e5281610e38565b8114610e5c575f5ffd5b50565b5f81359050610e6d81610e49565b92915050565b5f5f60408385031215610e8957610e88610da4565b5b5f610e9685828601610dc7565b9250506020610ea785828601610e5f565b9150509250929050565b610eba81610e38565b82525050565b5f602082019050610ed35f830184610eb1565b92915050565b5f60208284031215610eee57610eed610da4565b5b5f610efb84828501610dc7565b91505092915050565b5f819050919050565b5f610f27610f22610f1d84610e19565b610f04565b610e19565b9050919050565b5f610f3882610f0d565b9050919050565b5f610f4982610f2e565b9050919050565b610f5981610f3f565b82525050565b5f602082019050610f725f830184610f50565b92915050565b610f8181610da8565b82525050565b5f8115159050919050565b610f9b81610f87565b82525050565b5f608082019050610fb45f830187610f78565b610fc16020830186610eb1565b610fce6040830185610f78565b610fdb6060830184610f92565b95945050505050565b5f60208284031215610ff957610ff8610da4565b5b5f61100684828501610e5f565b91505092915050565b5f6020820190506110225f830184610f78565b92915050565b5f8151905061103681610e49565b92915050565b5f6020828403121561105157611050610da4565b5b5f61105e84828501611028565b91505092915050565b5f82825260208201905092915050565b7f4e6f74206f776e6572206f72206d61726b6574706c6163652061646d696e00005f82015250565b5f6110ab601e83611067565b91506110b682611077565b602082019050919050565b5f6020820190508181035f8301526110d88161109f565b9050919050565b5f6040820190506110f25f830185610eb1565b6110ff6020830184610eb1565b9392505050565b61110f81610f87565b8114611119575f5ffd5b50565b5f8151905061112a81611106565b92915050565b5f6020828403121561114557611144610da4565b5b5f6111528482850161111c565b91505092915050565b7f4e4654206e6f7420617070726f76656420666f72206d61726b6574706c6163655f82015250565b5f61118f602083611067565b915061119a8261115b565b602082019050919050565b5f6020820190508181035f8301526111bc81611183565b9050919050565b7f416c7265616479206c69737465640000000000000000000000000000000000005f82015250565b5f6111f7600e83611067565b9150611202826111c3565b602082019050919050565b5f6020820190508181035f830152611224816111eb565b9050919050565b5f60408201905061123e5f830185610eb1565b61124b6020830184610f78565b9392505050565b7f4e6f74206c6973746564000000000000000000000000000000000000000000005f82015250565b5f611286600a83611067565b915061129182611252565b602082019050919050565b5f6020820190508181035f8301526112b38161127a565b9050919050565b7f4e6f742073656c6c6572206f72206d61726b6574706c6163652061646d696e005f82015250565b5f6112ee601f83611067565b91506112f9826112ba565b602082019050919050565b5f6020820190508181035f83015261131b816112e2565b9050919050565b5f6060820190506113355f830186610eb1565b6113426020830185610eb1565b61134f6040830184610f78565b94935050505056fea26469706673582212200fef773b23498e10ba270a942fb6e27dab00fa1b9ea747d36cc5f843d1931ad064736f6c634300081e0033', \n     arguments: [\n          _nftAddress,\n          initialOwner,\n     ]\n}).send({\n     from: web3.eth.accounts[0], \n     gas: '4700000'\n   }, function (e, contract){\n    console.log(e, contract);\n    if (typeof contract.address !== 'undefined') {\n         console.log('Contract mined! address: ' + contract.address + ' transactionHash: ' + contract.transactionHash);\n    }\n })",
	"functionHashes": {
		"78ead8b5": "confirmSale(uint256,address)",
		"964bc33f": "delist(uint256)",
		"50fd7367": "list(uint256,uint256)",
		"de74e57b": "listings(uint256)",
		"d56d229d": "nftContract()",
		"8da5cb5b": "owner()",
		"715018a6": "renounceOwnership()",
		"f2fde38b": "transferOwnership(address)"
	},
	"gasEstimates": {
		"Creation": {
			"codeDepositCost": "1001000",
			"executionCost": "infinite",
			"totalCost": "infinite"
		},
		"External": {
			"confirmSale(uint256,address)": "infinite",
			"delist(uint256)": "71143",
			"list(uint256,uint256)": "infinite",
			"listings(uint256)": "infinite",
			"nftContract()": "infinite",
			"owner()": "2581",
			"renounceOwnership()": "infinite",
			"transferOwnership(address)": "infinite"
		}
	},
	"devdoc": {
		"details": "Marketplace allows NFTs to be listed for sale. The Marketplace owner can list NFTs on behalf of owners if the NFT owner has approved the Marketplace.",
		"errors": {
			"OwnableInvalidOwner(address)": [
				{
					"details": "The owner is not a valid owner account. (eg. `address(0)`)"
				}
			],
			"OwnableUnauthorizedAccount(address)": [
				{
					"details": "The caller account is not authorized to perform an operation."
				}
			]
		},
		"kind": "dev",
		"methods": {
			"list(uint256,uint256)": {
				"details": "List NFT for sale. Can be called by the NFT owner or the Marketplace owner on behalf of an approved owner.",
				"params": {
					"price": "Listing price",
					"tokenId": "NFT tokenId"
				}
			},
			"owner()": {
				"details": "Returns the address of the current owner."
			},
			"renounceOwnership()": {
				"details": "Leaves the contract without owner. It will not be possible to call `onlyOwner` functions. Can only be called by the current owner. NOTE: Renouncing ownership will leave the contract without an owner, thereby disabling any functionality that is only available to the owner."
			},
			"transferOwnership(address)": {
				"details": "Transfers ownership of the contract to a new account (`newOwner`). Can only be called by the current owner."
			}
		},
		"title": "Marketplace",
		"version": 1
	},
	"userdoc": {
		"kind": "user",
		"methods": {},
		"version": 1
	},
	"Runtime Bytecode": {
		"immutableReferences": {},
		"linkReferences": {},
		"object": "608060405234801561000f575f5ffd5b5060043610610086575f3560e01c8063964bc33f11610059578063964bc33f146100ea578063d56d229d14610106578063de74e57b14610124578063f2fde38b1461015757610086565b806350fd73671461008a578063715018a6146100a657806378ead8b5146100b05780638da5cb5b146100cc575b5f5ffd5b6100a4600480360381019061009f9190610ddb565b610173565b005b6100ae610642565b005b6100ca60048036038101906100c59190610e73565b610655565b005b6100d461090f565b6040516100e19190610ec0565b60405180910390f35b61010460048036038101906100ff9190610ed9565b610936565b005b61010e610b55565b60405161011b9190610f5f565b60405180910390f35b61013e60048036038101906101399190610ed9565b610b7a565b60405161014e9493929190610fa1565b60405180910390f35b610171600480360381019061016c9190610fe4565b610bd1565b005b5f60015f9054906101000a900473ffffffffffffffffffffffffffffffffffffffff1673ffffffffffffffffffffffffffffffffffffffff16636352211e846040518263ffffffff1660e01b81526004016101ce919061100f565b602060405180830381865afa1580156101e9573d5f5f3e3d5ffd5b505050506040513d601f19601f8201168201806040525081019061020d919061103c565b90508073ffffffffffffffffffffffffffffffffffffffff163373ffffffffffffffffffffffffffffffffffffffff16148061027b575061024c61090f565b73ffffffffffffffffffffffffffffffffffffffff163373ffffffffffffffffffffffffffffffffffffffff16145b6102ba576040517f08c379a00000000000000000000000000000000000000000000000000000000081526004016102b1906110c1565b60405180910390fd5b6102c261090f565b73ffffffffffffffffffffffffffffffffffffffff163373ffffffffffffffffffffffffffffffffffffffff1614801561032f57506102ff61090f565b73ffffffffffffffffffffffffffffffffffffffff168173ffffffffffffffffffffffffffffffffffffffff1614155b156104dd573073ffffffffffffffffffffffffffffffffffffffff1660015f9054906101000a900473ffffffffffffffffffffffffffffffffffffffff1673ffffffffffffffffffffffffffffffffffffffff1663081812fc856040518263ffffffff1660e01b81526004016103a5919061100f565b602060405180830381865afa1580156103c0573d5f5f3e3d5ffd5b505050506040513d601f19601f820116820180604052508101906103e4919061103c565b73ffffffffffffffffffffffffffffffffffffffff16148061049d575060015f9054906101000a900473ffffffffffffffffffffffffffffffffffffffff1673ffffffffffffffffffffffffffffffffffffffff1663e985e9c582306040518363ffffffff1660e01b815260040161045d9291906110df565b602060405180830381865afa158015610478573d5f5f3e3d5ffd5b505050506040513d601f19601f8201168201806040525081019061049c9190611130565b5b6104dc576040517f08c379a00000000000000000000000000000000000000000000000000000000081526004016104d3906111a5565b60405180910390fd5b5b60025f8481526020019081526020015f206003015f9054906101000a900460ff161561053e576040517f08c379a00000000000000000000000000000000000000000000000000000000081526004016105359061120d565b60405180910390fd5b60405180608001604052808481526020018273ffffffffffffffffffffffffffffffffffffffff1681526020018381526020016001151581525060025f8581526020019081526020015f205f820151815f01556020820151816001015f6101000a81548173ffffffffffffffffffffffffffffffffffffffff021916908373ffffffffffffffffffffffffffffffffffffffff160217905550604082015181600201556060820151816003015f6101000a81548160ff021916908315150217905550905050827f50955776c5778c3b7d968d86d8c51fb6b29a7a74c20866b533268e209fc08343828460405161063592919061122b565b60405180910390a2505050565b61064a610c55565b6106535f610cdc565b565b5f60025f8481526020019081526020015f206040518060800160405290815f8201548152602001600182015f9054906101000a900473ffffffffffffffffffffffffffffffffffffffff1673ffffffffffffffffffffffffffffffffffffffff1673ffffffffffffffffffffffffffffffffffffffff16815260200160028201548152602001600382015f9054906101000a900460ff1615151515815250509050806060015161073a576040517f08c379a00000000000000000000000000000000000000000000000000000000081526004016107319061129c565b60405180910390fd5b806020015173ffffffffffffffffffffffffffffffffffffffff163373ffffffffffffffffffffffffffffffffffffffff1614806107aa575061077b61090f565b73ffffffffffffffffffffffffffffffffffffffff163373ffffffffffffffffffffffffffffffffffffffff16145b6107e9576040517f08c379a00000000000000000000000000000000000000000000000000000000081526004016107e090611304565b60405180910390fd5b60025f8481526020019081526020015f205f5f82015f9055600182015f6101000a81549073ffffffffffffffffffffffffffffffffffffffff0219169055600282015f9055600382015f6101000a81549060ff0219169055505060015f9054906101000a900473ffffffffffffffffffffffffffffffffffffffff1673ffffffffffffffffffffffffffffffffffffffff166342842e0e826020015184866040518463ffffffff1660e01b81526004016108a593929190611322565b5f604051808303815f87803b1580156108bc575f5ffd5b505af11580156108ce573d5f5f3e3d5ffd5b50505050827f61ac2c63e95d648867e788d81a1c73e60d790021130bd30ff89e2214373b5017836040516109029190610ec0565b60405180910390a2505050565b5f5f5f9054906101000a900473ffffffffffffffffffffffffffffffffffffffff16905090565b5f60025f8381526020019081526020015f206040518060800160405290815f8201548152602001600182015f9054906101000a900473ffffffffffffffffffffffffffffffffffffffff1673ffffffffffffffffffffffffffffffffffffffff1673ffffffffffffffffffffffffffffffffffffffff16815260200160028201548152602001600382015f9054906101000a900460ff16151515158152505090508060600151610a1b576040517f08c379a0000000000000000000000000000000000000000000000000000000008152600401610a129061129c565b60405180910390fd5b806020015173ffffffffffffffffffffffffffffffffffffffff163373ffffffffffffffffffffffffffffffffffffffff161480610a8b5750610a5c61090f565b73ffffffffffffffffffffffffffffffffffffffff163373ffffffffffffffffffffffffffffffffffffffff16145b610aca576040517f08c379a0000000000000000000000000000000000000000000000000000000008152600401610ac190611304565b60405180910390fd5b60025f8381526020019081526020015f205f5f82015f9055600182015f6101000a81549073ffffffffffffffffffffffffffffffffffffffff0219169055600282015f9055600382015f6101000a81549060ff02191690555050817fc40fdc946efe80191c467f60727c4abc08254a056035d467a4516a86005ab76360405160405180910390a25050565b60015f9054906101000a900473ffffffffffffffffffffffffffffffffffffffff1681565b6002602052805f5260405f205f91509050805f015490806001015f9054906101000a900473ffffffffffffffffffffffffffffffffffffffff1690806002015490806003015f9054906101000a900460ff16905084565b610bd9610c55565b5f73ffffffffffffffffffffffffffffffffffffffff168173ffffffffffffffffffffffffffffffffffffffff1603610c49575f6040517f1e4fbdf7000000000000000000000000000000000000000000000000000000008152600401610c409190610ec0565b60405180910390fd5b610c5281610cdc565b50565b610c5d610d9d565b73ffffffffffffffffffffffffffffffffffffffff16610c7b61090f565b73ffffffffffffffffffffffffffffffffffffffff1614610cda57610c9e610d9d565b6040517f118cdaa7000000000000000000000000000000000000000000000000000000008152600401610cd19190610ec0565b60405180910390fd5b565b5f5f5f9054906101000a900473ffffffffffffffffffffffffffffffffffffffff169050815f5f6101000a81548173ffffffffffffffffffffffffffffffffffffffff021916908373ffffffffffffffffffffffffffffffffffffffff1602179055508173ffffffffffffffffffffffffffffffffffffffff168173ffffffffffffffffffffffffffffffffffffffff167f8be0079c531659141344cd1fd0a4f28419497f9722a3daafe3b4186f6b6457e060405160405180910390a35050565b5f33905090565b5f5ffd5b5f819050919050565b610dba81610da8565b8114610dc4575f5ffd5b50565b5f81359050610dd581610db1565b92915050565b5f5f60408385031215610df157610df0610da4565b5b5f610dfe85828601610dc7565b9250506020610e0f85828601610dc7565b9150509250929050565b5f73ffffffffffffffffffffffffffffffffffffffff82169050919050565b5f610e4282610e19565b9050919050565b610e5281610e38565b8114610e5c575f5ffd5b50565b5f81359050610e6d81610e49565b92915050565b5f5f60408385031215610e8957610e88610da4565b5b5f610e9685828601610dc7565b9250506020610ea785828601610e5f565b9150509250929050565b610eba81610e38565b82525050565b5f602082019050610ed35f830184610eb1565b92915050565b5f60208284031215610eee57610eed610da4565b5b5f610efb84828501610dc7565b91505092915050565b5f819050919050565b5f610f27610f22610f1d84610e19565b610f04565b610e19565b9050919050565b5f610f3882610f0d565b9050919050565b5f610f4982610f2e565b9050919050565b610f5981610f3f565b82525050565b5f602082019050610f725f830184610f50565b92915050565b610f8181610da8565b82525050565b5f8115159050919050565b610f9b81610f87565b82525050565b5f608082019050610fb45f830187610f78565b610fc16020830186610eb1565b610fce6040830185610f78565b610fdb6060830184610f92565b95945050505050565b5f60208284031215610ff957610ff8610da4565b5b5f61100684828501610e5f565b91505092915050565b5f6020820190506110225f830184610f78565b92915050565b5f8151905061103681610e49565b92915050565b5f6020828403121561105157611050610da4565b5b5f61105e84828501611028565b91505092915050565b5f82825260208201905092915050565b7f4e6f74206f776e6572206f72206d61726b6574706c6163652061646d696e00005f82015250565b5f6110ab601e83611067565b91506110b682611077565b602082019050919050565b5f6020820190508181035f8301526110d88161109f565b9050919050565b5f6040820190506110f25f830185610eb1565b6110ff6020830184610eb1565b9392505050565b61110f81610f87565b8114611119575f5ffd5b50565b5f8151905061112a81611106565b92915050565b5f6020828403121561114557611144610da4565b5b5f6111528482850161111c565b91505092915050565b7f4e4654206e6f7420617070726f76656420666f72206d61726b6574706c6163655f82015250565b5f61118f602083611067565b915061119a8261115b565b602082019050919050565b5f6020820190508181035f8301526111bc81611183565b9050919050565b7f416c7265616479206c69737465640000000000000000000000000000000000005f82015250565b5f6111f7600e83611067565b9150611202826111c3565b602082019050919050565b5f6020820190508181035f830152611224816111eb565b9050919050565b5f60408201905061123e5f830185610eb1565b61124b6020830184610f78565b9392505050565b7f4e6f74206c6973746564000000000000000000000000000000000000000000005f82015250565b5f611286600a83611067565b915061129182611252565b602082019050919050565b5f6020820190508181035f8301526112b38161127a565b9050919050565b7f4e6f742073656c6c6572206f72206d61726b6574706c6163652061646d696e005f82015250565b5f6112ee601f83611067565b91506112f9826112ba565b602082019050919050565b5f6020820190508181035f83015261131b816112e2565b9050919050565b5f6060820190506113355f830186610eb1565b6113426020830185610eb1565b61134f6040830184610f78565b94935050505056fea26469706673582212200fef773b23498e10ba270a942fb6e27dab00fa1b9ea747d36cc5f843d1931ad064736f6c634300081e0033",
		"opcodes": "PUSH1 0x80 PUSH1 0x40 MSTORE CALLVALUE DUP1 ISZERO PUSH2 0xF JUMPI PUSH0 PUSH0 REVERT JUMPDEST POP PUSH1 0x4 CALLDATASIZE LT PUSH2 0x86 JUMPI PUSH0 CALLDATALOAD PUSH1 0xE0 SHR DUP1 PUSH4 0x964BC33F GT PUSH2 0x59 JUMPI DUP1 PUSH4 0x964BC33F EQ PUSH2 0xEA JUMPI DUP1 PUSH4 0xD56D229D EQ PUSH2 0x106 JUMPI DUP1 PUSH4 0xDE74E57B EQ PUSH2 0x124 JUMPI DUP1 PUSH4 0xF2FDE38B EQ PUSH2 0x157 JUMPI PUSH2 0x86 JUMP JUMPDEST DUP1 PUSH4 0x50FD7367 EQ PUSH2 0x8A JUMPI DUP1 PUSH4 0x715018A6 EQ PUSH2 0xA6 JUMPI DUP1 PUSH4 0x78EAD8B5 EQ PUSH2 0xB0 JUMPI DUP1 PUSH4 0x8DA5CB5B EQ PUSH2 0xCC JUMPI JUMPDEST PUSH0 PUSH0 REVERT JUMPDEST PUSH2 0xA4 PUSH1 0x4 DUP1 CALLDATASIZE SUB DUP2 ADD SWAP1 PUSH2 0x9F SWAP2 SWAP1 PUSH2 0xDDB JUMP JUMPDEST PUSH2 0x173 JUMP JUMPDEST STOP JUMPDEST PUSH2 0xAE PUSH2 0x642 JUMP JUMPDEST STOP JUMPDEST PUSH2 0xCA PUSH1 0x4 DUP1 CALLDATASIZE SUB DUP2 ADD SWAP1 PUSH2 0xC5 SWAP2 SWAP1 PUSH2 0xE73 JUMP JUMPDEST PUSH2 0x655 JUMP JUMPDEST STOP JUMPDEST PUSH2 0xD4 PUSH2 0x90F JUMP JUMPDEST PUSH1 0x40 MLOAD PUSH2 0xE1 SWAP2 SWAP1 PUSH2 0xEC0 JUMP JUMPDEST PUSH1 0x40 MLOAD DUP1 SWAP2 SUB SWAP1 RETURN JUMPDEST PUSH2 0x104 PUSH1 0x4 DUP1 CALLDATASIZE SUB DUP2 ADD SWAP1 PUSH2 0xFF SWAP2 SWAP1 PUSH2 0xED9 JUMP JUMPDEST PUSH2 0x936 JUMP JUMPDEST STOP JUMPDEST PUSH2 0x10E PUSH2 0xB55 JUMP JUMPDEST PUSH1 0x40 MLOAD PUSH2 0x11B SWAP2 SWAP1 PUSH2 0xF5F JUMP JUMPDEST PUSH1 0x40 MLOAD DUP1 SWAP2 SUB SWAP1 RETURN JUMPDEST PUSH2 0x13E PUSH1 0x4 DUP1 CALLDATASIZE SUB DUP2 ADD SWAP1 PUSH2 0x139 SWAP2 SWAP1 PUSH2 0xED9 JUMP JUMPDEST PUSH2 0xB7A JUMP JUMPDEST PUSH1 0x40 MLOAD PUSH2 0x14E SWAP5 SWAP4 SWAP3 SWAP2 SWAP1 PUSH2 0xFA1 JUMP JUMPDEST PUSH1 0x40 MLOAD DUP1 SWAP2 SUB SWAP1 RETURN JUMPDEST PUSH2 0x171 PUSH1 0x4 DUP1 CALLDATASIZE SUB DUP2 ADD SWAP1 PUSH2 0x16C SWAP2 SWAP1 PUSH2 0xFE4 JUMP JUMPDEST PUSH2 0xBD1 JUMP JUMPDEST STOP JUMPDEST PUSH0 PUSH1 0x1 PUSH0 SWAP1 SLOAD SWAP1 PUSH2 0x100 EXP SWAP1 DIV PUSH20 0xFFFFFFFFFFFFFFFFFFFFFFFFFFFFFFFFFFFFFFFF AND PUSH20 0xFFFFFFFFFFFFFFFFFFFFFFFFFFFFFFFFFFFFFFFF AND PUSH4 0x6352211E DUP5 PUSH1 0x40 MLOAD DUP3 PUSH4 0xFFFFFFFF AND PUSH1 0xE0 SHL DUP2 MSTORE PUSH1 0x4 ADD PUSH2 0x1CE SWAP2 SWAP1 PUSH2 0x100F JUMP JUMPDEST PUSH1 0x20 PUSH1 0x40 MLOAD DUP1 DUP4 SUB DUP2 DUP7 GAS STATICCALL ISZERO DUP1 ISZERO PUSH2 0x1E9 JUMPI RETURNDATASIZE PUSH0 PUSH0 RETURNDATACOPY RETURNDATASIZE PUSH0 REVERT JUMPDEST POP POP POP POP PUSH1 0x40 MLOAD RETURNDATASIZE PUSH1 0x1F NOT PUSH1 0x1F DUP3 ADD AND DUP3 ADD DUP1 PUSH1 0x40 MSTORE POP DUP2 ADD SWAP1 PUSH2 0x20D SWAP2 SWAP1 PUSH2 0x103C JUMP JUMPDEST SWAP1 POP DUP1 PUSH20 0xFFFFFFFFFFFFFFFFFFFFFFFFFFFFFFFFFFFFFFFF AND CALLER PUSH20 0xFFFFFFFFFFFFFFFFFFFFFFFFFFFFFFFFFFFFFFFF AND EQ DUP1 PUSH2 0x27B JUMPI POP PUSH2 0x24C PUSH2 0x90F JUMP JUMPDEST PUSH20 0xFFFFFFFFFFFFFFFFFFFFFFFFFFFFFFFFFFFFFFFF AND CALLER PUSH20 0xFFFFFFFFFFFFFFFFFFFFFFFFFFFFFFFFFFFFFFFF AND EQ JUMPDEST PUSH2 0x2BA JUMPI PUSH1 0x40 MLOAD PUSH32 0x8C379A000000000000000000000000000000000000000000000000000000000 DUP2 MSTORE PUSH1 0x4 ADD PUSH2 0x2B1 SWAP1 PUSH2 0x10C1 JUMP JUMPDEST PUSH1 0x40 MLOAD DUP1 SWAP2 SUB SWAP1 REVERT JUMPDEST PUSH2 0x2C2 PUSH2 0x90F JUMP JUMPDEST PUSH20 0xFFFFFFFFFFFFFFFFFFFFFFFFFFFFFFFFFFFFFFFF AND CALLER PUSH20 0xFFFFFFFFFFFFFFFFFFFFFFFFFFFFFFFFFFFFFFFF AND EQ DUP1 ISZERO PUSH2 0x32F JUMPI POP PUSH2 0x2FF PUSH2 0x90F JUMP JUMPDEST PUSH20 0xFFFFFFFFFFFFFFFFFFFFFFFFFFFFFFFFFFFFFFFF AND DUP2 PUSH20 0xFFFFFFFFFFFFFFFFFFFFFFFFFFFFFFFFFFFFFFFF AND EQ ISZERO JUMPDEST ISZERO PUSH2 0x4DD JUMPI ADDRESS PUSH20 0xFFFFFFFFFFFFFFFFFFFFFFFFFFFFFFFFFFFFFFFF AND PUSH1 0x1 PUSH0 SWAP1 SLOAD SWAP1 PUSH2 0x100 EXP SWAP1 DIV PUSH20 0xFFFFFFFFFFFFFFFFFFFFFFFFFFFFFFFFFFFFFFFF AND PUSH20 0xFFFFFFFFFFFFFFFFFFFFFFFFFFFFFFFFFFFFFFFF AND PUSH4 0x81812FC DUP6 PUSH1 0x40 MLOAD DUP3 PUSH4 0xFFFFFFFF AND PUSH1 0xE0 SHL DUP2 MSTORE PUSH1 0x4 ADD PUSH2 0x3A5 SWAP2 SWAP1 PUSH2 0x100F JUMP JUMPDEST PUSH1 0x20 PUSH1 0x40 MLOAD DUP1 DUP4 SUB DUP2 DUP7 GAS STATICCALL ISZERO DUP1 ISZERO PUSH2 0x3C0 JUMPI RETURNDATASIZE PUSH0 PUSH0 RETURNDATACOPY RETURNDATASIZE PUSH0 REVERT JUMPDEST POP POP POP POP PUSH1 0x40 MLOAD RETURNDATASIZE PUSH1 0x1F NOT PUSH1 0x1F DUP3 ADD AND DUP3 ADD DUP1 PUSH1 0x40 MSTORE POP DUP2 ADD SWAP1 PUSH2 0x3E4 SWAP2 SWAP1 PUSH2 0x103C JUMP JUMPDEST PUSH20 0xFFFFFFFFFFFFFFFFFFFFFFFFFFFFFFFFFFFFFFFF AND EQ DUP1 PUSH2 0x49D JUMPI POP PUSH1 0x1 PUSH0 SWAP1 SLOAD SWAP1 PUSH2 0x100 EXP SWAP1 DIV PUSH20 0xFFFFFFFFFFFFFFFFFFFFFFFFFFFFFFFFFFFFFFFF AND PUSH20 0xFFFFFFFFFFFFFFFFFFFFFFFFFFFFFFFFFFFFFFFF AND PUSH4 0xE985E9C5 DUP3 ADDRESS PUSH1 0x40 MLOAD DUP4 PUSH4 0xFFFFFFFF AND PUSH1 0xE0 SHL DUP2 MSTORE PUSH1 0x4 ADD PUSH2 0x45D SWAP3 SWAP2 SWAP1 PUSH2 0x10DF JUMP JUMPDEST PUSH1 0x20 PUSH1 0x40 MLOAD DUP1 DUP4 SUB DUP2 DUP7 GAS STATICCALL ISZERO DUP1 ISZERO PUSH2 0x478 JUMPI RETURNDATASIZE PUSH0 PUSH0 RETURNDATACOPY RETURNDATASIZE PUSH0 REVERT JUMPDEST POP POP POP POP PUSH1 0x40 MLOAD RETURNDATASIZE PUSH1 0x1F NOT PUSH1 0x1F DUP3 ADD AND DUP3 ADD DUP1 PUSH1 0x40 MSTORE POP DUP2 ADD SWAP1 PUSH2 0x49C SWAP2 SWAP1 PUSH2 0x1130 JUMP JUMPDEST JUMPDEST PUSH2 0x4DC JUMPI PUSH1 0x40 MLOAD PUSH32 0x8C379A000000000000000000000000000000000000000000000000000000000 DUP2 MSTORE PUSH1 0x4 ADD PUSH2 0x4D3 SWAP1 PUSH2 0x11A5 JUMP JUMPDEST PUSH1 0x40 MLOAD DUP1 SWAP2 SUB SWAP1 REVERT JUMPDEST JUMPDEST PUSH1 0x2 PUSH0 DUP5 DUP2 MSTORE PUSH1 0x20 ADD SWAP1 DUP2 MSTORE PUSH1 0x20 ADD PUSH0 KECCAK256 PUSH1 0x3 ADD PUSH0 SWAP1 SLOAD SWAP1 PUSH2 0x100 EXP SWAP1 DIV PUSH1 0xFF AND ISZERO PUSH2 0x53E JUMPI PUSH1 0x40 MLOAD PUSH32 0x8C379A000000000000000000000000000000000000000000000000000000000 DUP2 MSTORE PUSH1 0x4 ADD PUSH2 0x535 SWAP1 PUSH2 0x120D JUMP JUMPDEST PUSH1 0x40 MLOAD DUP1 SWAP2 SUB SWAP1 REVERT JUMPDEST PUSH1 0x40 MLOAD DUP1 PUSH1 0x80 ADD PUSH1 0x40 MSTORE DUP1 DUP5 DUP2 MSTORE PUSH1 0x20 ADD DUP3 PUSH20 0xFFFFFFFFFFFFFFFFFFFFFFFFFFFFFFFFFFFFFFFF AND DUP2 MSTORE PUSH1 0x20 ADD DUP4 DUP2 MSTORE PUSH1 0x20 ADD PUSH1 0x1 ISZERO ISZERO DUP2 MSTORE POP PUSH1 0x2 PUSH0 DUP6 DUP2 MSTORE PUSH1 0x20 ADD SWAP1 DUP2 MSTORE PUSH1 0x20 ADD PUSH0 KECCAK256 PUSH0 DUP3 ADD MLOAD DUP2 PUSH0 ADD SSTORE PUSH1 0x20 DUP3 ADD MLOAD DUP2 PUSH1 0x1 ADD PUSH0 PUSH2 0x100 EXP DUP2 SLOAD DUP2 PUSH20 0xFFFFFFFFFFFFFFFFFFFFFFFFFFFFFFFFFFFFFFFF MUL NOT AND SWAP1 DUP4 PUSH20 0xFFFFFFFFFFFFFFFFFFFFFFFFFFFFFFFFFFFFFFFF AND MUL OR SWAP1 SSTORE POP PUSH1 0x40 DUP3 ADD MLOAD DUP2 PUSH1 0x2 ADD SSTORE PUSH1 0x60 DUP3 ADD MLOAD DUP2 PUSH1 0x3 ADD PUSH0 PUSH2 0x100 EXP DUP2 SLOAD DUP2 PUSH1 0xFF MUL NOT AND SWAP1 DUP4 ISZERO ISZERO MUL OR SWAP1 SSTORE POP SWAP1 POP POP DUP3 PUSH32 0x50955776C5778C3B7D968D86D8C51FB6B29A7A74C20866B533268E209FC08343 DUP3 DUP5 PUSH1 0x40 MLOAD PUSH2 0x635 SWAP3 SWAP2 SWAP1 PUSH2 0x122B JUMP JUMPDEST PUSH1 0x40 MLOAD DUP1 SWAP2 SUB SWAP1 LOG2 POP POP POP JUMP JUMPDEST PUSH2 0x64A PUSH2 0xC55 JUMP JUMPDEST PUSH2 0x653 PUSH0 PUSH2 0xCDC JUMP JUMPDEST JUMP JUMPDEST PUSH0 PUSH1 0x2 PUSH0 DUP5 DUP2 MSTORE PUSH1 0x20 ADD SWAP1 DUP2 MSTORE PUSH1 0x20 ADD PUSH0 KECCAK256 PUSH1 0x40 MLOAD DUP1 PUSH1 0x80 ADD PUSH1 0x40 MSTORE SWAP1 DUP2 PUSH0 DUP3 ADD SLOAD DUP2 MSTORE PUSH1 0x20 ADD PUSH1 0x1 DUP3 ADD PUSH0 SWAP1 SLOAD SWAP1 PUSH2 0x100 EXP SWAP1 DIV PUSH20 0xFFFFFFFFFFFFFFFFFFFFFFFFFFFFFFFFFFFFFFFF AND PUSH20 0xFFFFFFFFFFFFFFFFFFFFFFFFFFFFFFFFFFFFFFFF AND PUSH20 0xFFFFFFFFFFFFFFFFFFFFFFFFFFFFFFFFFFFFFFFF AND DUP2 MSTORE PUSH1 0x20 ADD PUSH1 0x2 DUP3 ADD SLOAD DUP2 MSTORE PUSH1 0x20 ADD PUSH1 0x3 DUP3 ADD PUSH0 SWAP1 SLOAD SWAP1 PUSH2 0x100 EXP SWAP1 DIV PUSH1 0xFF AND ISZERO ISZERO ISZERO ISZERO DUP2 MSTORE POP POP SWAP1 POP DUP1 PUSH1 0x60 ADD MLOAD PUSH2 0x73A JUMPI PUSH1 0x40 MLOAD PUSH32 0x8C379A000000000000000000000000000000000000000000000000000000000 DUP2 MSTORE PUSH1 0x4 ADD PUSH2 0x731 SWAP1 PUSH2 0x129C JUMP JUMPDEST PUSH1 0x40 MLOAD DUP1 SWAP2 SUB SWAP1 REVERT JUMPDEST DUP1 PUSH1 0x20 ADD MLOAD PUSH20 0xFFFFFFFFFFFFFFFFFFFFFFFFFFFFFFFFFFFFFFFF AND CALLER PUSH20 0xFFFFFFFFFFFFFFFFFFFFFFFFFFFFFFFFFFFFFFFF AND EQ DUP1 PUSH2 0x7AA JUMPI POP PUSH2 0x77B PUSH2 0x90F JUMP JUMPDEST PUSH20 0xFFFFFFFFFFFFFFFFFFFFFFFFFFFFFFFFFFFFFFFF AND CALLER PUSH20 0xFFFFFFFFFFFFFFFFFFFFFFFFFFFFFFFFFFFFFFFF AND EQ JUMPDEST PUSH2 0x7E9 JUMPI PUSH1 0x40 MLOAD PUSH32 0x8C379A000000000000000000000000000000000000000000000000000000000 DUP2 MSTORE PUSH1 0x4 ADD PUSH2 0x7E0 SWAP1 PUSH2 0x1304 JUMP JUMPDEST PUSH1 0x40 MLOAD DUP1 SWAP2 SUB SWAP1 REVERT JUMPDEST PUSH1 0x2 PUSH0 DUP5 DUP2 MSTORE PUSH1 0x20 ADD SWAP1 DUP2 MSTORE PUSH1 0x20 ADD PUSH0 KECCAK256 PUSH0 PUSH0 DUP3 ADD PUSH0 SWAP1 SSTORE PUSH1 0x1 DUP3 ADD PUSH0 PUSH2 0x100 EXP DUP2 SLOAD SWAP1 PUSH20 0xFFFFFFFFFFFFFFFFFFFFFFFFFFFFFFFFFFFFFFFF MUL NOT AND SWAP1 SSTORE PUSH1 0x2 DUP3 ADD PUSH0 SWAP1 SSTORE PUSH1 0x3 DUP3 ADD PUSH0 PUSH2 0x100 EXP DUP2 SLOAD SWAP1 PUSH1 0xFF MUL NOT AND SWAP1 SSTORE POP POP PUSH1 0x1 PUSH0 SWAP1 SLOAD SWAP1 PUSH2 0x100 EXP SWAP1 DIV PUSH20 0xFFFFFFFFFFFFFFFFFFFFFFFFFFFFFFFFFFFFFFFF AND PUSH20 0xFFFFFFFFFFFFFFFFFFFFFFFFFFFFFFFFFFFFFFFF AND PUSH4 0x42842E0E DUP3 PUSH1 0x20 ADD MLOAD DUP5 DUP7 PUSH1 0x40 MLOAD DUP5 PUSH4 0xFFFFFFFF AND PUSH1 0xE0 SHL DUP2 MSTORE PUSH1 0x4 ADD PUSH2 0x8A5 SWAP4 SWAP3 SWAP2 SWAP1 PUSH2 0x1322 JUMP JUMPDEST PUSH0 PUSH1 0x40 MLOAD DUP1 DUP4 SUB DUP2 PUSH0 DUP8 DUP1 EXTCODESIZE ISZERO DUP1 ISZERO PUSH2 0x8BC JUMPI PUSH0 PUSH0 REVERT JUMPDEST POP GAS CALL ISZERO DUP1 ISZERO PUSH2 0x8CE JUMPI RETURNDATASIZE PUSH0 PUSH0 RETURNDATACOPY RETURNDATASIZE PUSH0 REVERT JUMPDEST POP POP POP POP DUP3 PUSH32 0x61AC2C63E95D648867E788D81A1C73E60D790021130BD30FF89E2214373B5017 DUP4 PUSH1 0x40 MLOAD PUSH2 0x902 SWAP2 SWAP1 PUSH2 0xEC0 JUMP JUMPDEST PUSH1 0x40 MLOAD DUP1 SWAP2 SUB SWAP1 LOG2 POP POP POP JUMP JUMPDEST PUSH0 PUSH0 PUSH0 SWAP1 SLOAD SWAP1 PUSH2 0x100 EXP SWAP1 DIV PUSH20 0xFFFFFFFFFFFFFFFFFFFFFFFFFFFFFFFFFFFFFFFF AND SWAP1 POP SWAP1 JUMP JUMPDEST PUSH0 PUSH1 0x2 PUSH0 DUP4 DUP2 MSTORE PUSH1 0x20 ADD SWAP1 DUP2 MSTORE PUSH1 0x20 ADD PUSH0 KECCAK256 PUSH1 0x40 MLOAD DUP1 PUSH1 0x80 ADD PUSH1 0x40 MSTORE SWAP1 DUP2 PUSH0 DUP3 ADD SLOAD DUP2 MSTORE PUSH1 0x20 ADD PUSH1 0x1 DUP3 ADD PUSH0 SWAP1 SLOAD SWAP1 PUSH2 0x100 EXP SWAP1 DIV PUSH20 0xFFFFFFFFFFFFFFFFFFFFFFFFFFFFFFFFFFFFFFFF AND PUSH20 0xFFFFFFFFFFFFFFFFFFFFFFFFFFFFFFFFFFFFFFFF AND PUSH20 0xFFFFFFFFFFFFFFFFFFFFFFFFFFFFFFFFFFFFFFFF AND DUP2 MSTORE PUSH1 0x20 ADD PUSH1 0x2 DUP3 ADD SLOAD DUP2 MSTORE PUSH1 0x20 ADD PUSH1 0x3 DUP3 ADD PUSH0 SWAP1 SLOAD SWAP1 PUSH2 0x100 EXP SWAP1 DIV PUSH1 0xFF AND ISZERO ISZERO ISZERO ISZERO DUP2 MSTORE POP POP SWAP1 POP DUP1 PUSH1 0x60 ADD MLOAD PUSH2 0xA1B JUMPI PUSH1 0x40 MLOAD PUSH32 0x8C379A000000000000000000000000000000000000000000000000000000000 DUP2 MSTORE PUSH1 0x4 ADD PUSH2 0xA12 SWAP1 PUSH2 0x129C JUMP JUMPDEST PUSH1 0x40 MLOAD DUP1 SWAP2 SUB SWAP1 REVERT JUMPDEST DUP1 PUSH1 0x20 ADD MLOAD PUSH20 0xFFFFFFFFFFFFFFFFFFFFFFFFFFFFFFFFFFFFFFFF AND CALLER PUSH20 0xFFFFFFFFFFFFFFFFFFFFFFFFFFFFFFFFFFFFFFFF AND EQ DUP1 PUSH2 0xA8B JUMPI POP PUSH2 0xA5C PUSH2 0x90F JUMP JUMPDEST PUSH20 0xFFFFFFFFFFFFFFFFFFFFFFFFFFFFFFFFFFFFFFFF AND CALLER PUSH20 0xFFFFFFFFFFFFFFFFFFFFFFFFFFFFFFFFFFFFFFFF AND EQ JUMPDEST PUSH2 0xACA JUMPI PUSH1 0x40 MLOAD PUSH32 0x8C379A000000000000000000000000000000000000000000000000000000000 DUP2 MSTORE PUSH1 0x4 ADD PUSH2 0xAC1 SWAP1 PUSH2 0x1304 JUMP JUMPDEST PUSH1 0x40 MLOAD DUP1 SWAP2 SUB SWAP1 REVERT JUMPDEST PUSH1 0x2 PUSH0 DUP4 DUP2 MSTORE PUSH1 0x20 ADD SWAP1 DUP2 MSTORE PUSH1 0x20 ADD PUSH0 KECCAK256 PUSH0 PUSH0 DUP3 ADD PUSH0 SWAP1 SSTORE PUSH1 0x1 DUP3 ADD PUSH0 PUSH2 0x100 EXP DUP2 SLOAD SWAP1 PUSH20 0xFFFFFFFFFFFFFFFFFFFFFFFFFFFFFFFFFFFFFFFF MUL NOT AND SWAP1 SSTORE PUSH1 0x2 DUP3 ADD PUSH0 SWAP1 SSTORE PUSH1 0x3 DUP3 ADD PUSH0 PUSH2 0x100 EXP DUP2 SLOAD SWAP1 PUSH1 0xFF MUL NOT AND SWAP1 SSTORE POP POP DUP2 PUSH32 0xC40FDC946EFE80191C467F60727C4ABC08254A056035D467A4516A86005AB763 PUSH1 0x40 MLOAD PUSH1 0x40 MLOAD DUP1 SWAP2 SUB SWAP1 LOG2 POP POP JUMP JUMPDEST PUSH1 0x1 PUSH0 SWAP1 SLOAD SWAP1 PUSH2 0x100 EXP SWAP1 DIV PUSH20 0xFFFFFFFFFFFFFFFFFFFFFFFFFFFFFFFFFFFFFFFF AND DUP2 JUMP JUMPDEST PUSH1 0x2 PUSH1 0x20 MSTORE DUP1 PUSH0 MSTORE PUSH1 0x40 PUSH0 KECCAK256 PUSH0 SWAP2 POP SWAP1 POP DUP1 PUSH0 ADD SLOAD SWAP1 DUP1 PUSH1 0x1 ADD PUSH0 SWAP1 SLOAD SWAP1 PUSH2 0x100 EXP SWAP1 DIV PUSH20 0xFFFFFFFFFFFFFFFFFFFFFFFFFFFFFFFFFFFFFFFF AND SWAP1 DUP1 PUSH1 0x2 ADD SLOAD SWAP1 DUP1 PUSH1 0x3 ADD PUSH0 SWAP1 SLOAD SWAP1 PUSH2 0x100 EXP SWAP1 DIV PUSH1 0xFF AND SWAP1 POP DUP5 JUMP JUMPDEST PUSH2 0xBD9 PUSH2 0xC55 JUMP JUMPDEST PUSH0 PUSH20 0xFFFFFFFFFFFFFFFFFFFFFFFFFFFFFFFFFFFFFFFF AND DUP2 PUSH20 0xFFFFFFFFFFFFFFFFFFFFFFFFFFFFFFFFFFFFFFFF AND SUB PUSH2 0xC49 JUMPI PUSH0 PUSH1 0x40 MLOAD PUSH32 0x1E4FBDF700000000000000000000000000000000000000000000000000000000 DUP2 MSTORE PUSH1 0x4 ADD PUSH2 0xC40 SWAP2 SWAP1 PUSH2 0xEC0 JUMP JUMPDEST PUSH1 0x40 MLOAD DUP1 SWAP2 SUB SWAP1 REVERT JUMPDEST PUSH2 0xC52 DUP2 PUSH2 0xCDC JUMP JUMPDEST POP JUMP JUMPDEST PUSH2 0xC5D PUSH2 0xD9D JUMP JUMPDEST PUSH20 0xFFFFFFFFFFFFFFFFFFFFFFFFFFFFFFFFFFFFFFFF AND PUSH2 0xC7B PUSH2 0x90F JUMP JUMPDEST PUSH20 0xFFFFFFFFFFFFFFFFFFFFFFFFFFFFFFFFFFFFFFFF AND EQ PUSH2 0xCDA JUMPI PUSH2 0xC9E PUSH2 0xD9D JUMP JUMPDEST PUSH1 0x40 MLOAD PUSH32 0x118CDAA700000000000000000000000000000000000000000000000000000000 DUP2 MSTORE PUSH1 0x4 ADD PUSH2 0xCD1 SWAP2 SWAP1 PUSH2 0xEC0 JUMP JUMPDEST PUSH1 0x40 MLOAD DUP1 SWAP2 SUB SWAP1 REVERT JUMPDEST JUMP JUMPDEST PUSH0 PUSH0 PUSH0 SWAP1 SLOAD SWAP1 PUSH2 0x100 EXP SWAP1 DIV PUSH20 0xFFFFFFFFFFFFFFFFFFFFFFFFFFFFFFFFFFFFFFFF AND SWAP1 POP DUP2 PUSH0 PUSH0 PUSH2 0x100 EXP DUP2 SLOAD DUP2 PUSH20 0xFFFFFFFFFFFFFFFFFFFFFFFFFFFFFFFFFFFFFFFF MUL NOT AND SWAP1 DUP4 PUSH20 0xFFFFFFFFFFFFFFFFFFFFFFFFFFFFFFFFFFFFFFFF AND MUL OR SWAP1 SSTORE POP DUP2 PUSH20 0xFFFFFFFFFFFFFFFFFFFFFFFFFFFFFFFFFFFFFFFF AND DUP2 PUSH20 0xFFFFFFFFFFFFFFFFFFFFFFFFFFFFFFFFFFFFFFFF AND PUSH32 0x8BE0079C531659141344CD1FD0A4F28419497F9722A3DAAFE3B4186F6B6457E0 PUSH1 0x40 MLOAD PUSH1 0x40 MLOAD DUP1 SWAP2 SUB SWAP1 LOG3 POP POP JUMP JUMPDEST PUSH0 CALLER SWAP1 POP SWAP1 JUMP JUMPDEST PUSH0 PUSH0 REVERT JUMPDEST PUSH0 DUP2 SWAP1 POP SWAP2 SWAP1 POP JUMP JUMPDEST PUSH2 0xDBA DUP2 PUSH2 0xDA8 JUMP JUMPDEST DUP2 EQ PUSH2 0xDC4 JUMPI PUSH0 PUSH0 REVERT JUMPDEST POP JUMP JUMPDEST PUSH0 DUP2 CALLDATALOAD SWAP1 POP PUSH2 0xDD5 DUP2 PUSH2 0xDB1 JUMP JUMPDEST SWAP3 SWAP2 POP POP JUMP JUMPDEST PUSH0 PUSH0 PUSH1 0x40 DUP4 DUP6 SUB SLT ISZERO PUSH2 0xDF1 JUMPI PUSH2 0xDF0 PUSH2 0xDA4 JUMP JUMPDEST JUMPDEST PUSH0 PUSH2 0xDFE DUP6 DUP3 DUP7 ADD PUSH2 0xDC7 JUMP JUMPDEST SWAP3 POP POP PUSH1 0x20 PUSH2 0xE0F DUP6 DUP3 DUP7 ADD PUSH2 0xDC7 JUMP JUMPDEST SWAP2 POP POP SWAP3 POP SWAP3 SWAP1 POP JUMP JUMPDEST PUSH0 PUSH20 0xFFFFFFFFFFFFFFFFFFFFFFFFFFFFFFFFFFFFFFFF DUP3 AND SWAP1 POP SWAP2 SWAP1 POP JUMP JUMPDEST PUSH0 PUSH2 0xE42 DUP3 PUSH2 0xE19 JUMP JUMPDEST SWAP1 POP SWAP2 SWAP1 POP JUMP JUMPDEST PUSH2 0xE52 DUP2 PUSH2 0xE38 JUMP JUMPDEST DUP2 EQ PUSH2 0xE5C JUMPI PUSH0 PUSH0 REVERT JUMPDEST POP JUMP JUMPDEST PUSH0 DUP2 CALLDATALOAD SWAP1 POP PUSH2 0xE6D DUP2 PUSH2 0xE49 JUMP JUMPDEST SWAP3 SWAP2 POP POP JUMP JUMPDEST PUSH0 PUSH0 PUSH1 0x40 DUP4 DUP6 SUB SLT ISZERO PUSH2 0xE89 JUMPI PUSH2 0xE88 PUSH2 0xDA4 JUMP JUMPDEST JUMPDEST PUSH0 PUSH2 0xE96 DUP6 DUP3 DUP7 ADD PUSH2 0xDC7 JUMP JUMPDEST SWAP3 POP POP PUSH1 0x20 PUSH2 0xEA7 DUP6 DUP3 DUP7 ADD PUSH2 0xE5F JUMP JUMPDEST SWAP2 POP POP SWAP3 POP SWAP3 SWAP1 POP JUMP JUMPDEST PUSH2 0xEBA DUP2 PUSH2 0xE38 JUMP JUMPDEST DUP3 MSTORE POP POP JUMP JUMPDEST PUSH0 PUSH1 0x20 DUP3 ADD SWAP1 POP PUSH2 0xED3 PUSH0 DUP4 ADD DUP5 PUSH2 0xEB1 JUMP JUMPDEST SWAP3 SWAP2 POP POP JUMP JUMPDEST PUSH0 PUSH1 0x20 DUP3 DUP5 SUB SLT ISZERO PUSH2 0xEEE JUMPI PUSH2 0xEED PUSH2 0xDA4 JUMP JUMPDEST JUMPDEST PUSH0 PUSH2 0xEFB DUP5 DUP3 DUP6 ADD PUSH2 0xDC7 JUMP JUMPDEST SWAP2 POP POP SWAP3 SWAP2 POP POP JUMP JUMPDEST PUSH0 DUP2 SWAP1 POP SWAP2 SWAP1 POP JUMP JUMPDEST PUSH0 PUSH2 0xF27 PUSH2 0xF22 PUSH2 0xF1D DUP5 PUSH2 0xE19 JUMP JUMPDEST PUSH2 0xF04 JUMP JUMPDEST PUSH2 0xE19 JUMP JUMPDEST SWAP1 POP SWAP2 SWAP1 POP JUMP JUMPDEST PUSH0 PUSH2 0xF38 DUP3 PUSH2 0xF0D JUMP JUMPDEST SWAP1 POP SWAP2 SWAP1 POP JUMP JUMPDEST PUSH0 PUSH2 0xF49 DUP3 PUSH2 0xF2E JUMP JUMPDEST SWAP1 POP SWAP2 SWAP1 POP JUMP JUMPDEST PUSH2 0xF59 DUP2 PUSH2 0xF3F JUMP JUMPDEST DUP3 MSTORE POP POP JUMP JUMPDEST PUSH0 PUSH1 0x20 DUP3 ADD SWAP1 POP PUSH2 0xF72 PUSH0 DUP4 ADD DUP5 PUSH2 0xF50 JUMP JUMPDEST SWAP3 SWAP2 POP POP JUMP JUMPDEST PUSH2 0xF81 DUP2 PUSH2 0xDA8 JUMP JUMPDEST DUP3 MSTORE POP POP JUMP JUMPDEST PUSH0 DUP2 ISZERO ISZERO SWAP1 POP SWAP2 SWAP1 POP JUMP JUMPDEST PUSH2 0xF9B DUP2 PUSH2 0xF87 JUMP JUMPDEST DUP3 MSTORE POP POP JUMP JUMPDEST PUSH0 PUSH1 0x80 DUP3 ADD SWAP1 POP PUSH2 0xFB4 PUSH0 DUP4 ADD DUP8 PUSH2 0xF78 JUMP JUMPDEST PUSH2 0xFC1 PUSH1 0x20 DUP4 ADD DUP7 PUSH2 0xEB1 JUMP JUMPDEST PUSH2 0xFCE PUSH1 0x40 DUP4 ADD DUP6 PUSH2 0xF78 JUMP JUMPDEST PUSH2 0xFDB PUSH1 0x60 DUP4 ADD DUP5 PUSH2 0xF92 JUMP JUMPDEST SWAP6 SWAP5 POP POP POP POP POP JUMP JUMPDEST PUSH0 PUSH1 0x20 DUP3 DUP5 SUB SLT ISZERO PUSH2 0xFF9 JUMPI PUSH2 0xFF8 PUSH2 0xDA4 JUMP JUMPDEST JUMPDEST PUSH0 PUSH2 0x1006 DUP5 DUP3 DUP6 ADD PUSH2 0xE5F JUMP JUMPDEST SWAP2 POP POP SWAP3 SWAP2 POP POP JUMP JUMPDEST PUSH0 PUSH1 0x20 DUP3 ADD SWAP1 POP PUSH2 0x1022 PUSH0 DUP4 ADD DUP5 PUSH2 0xF78 JUMP JUMPDEST SWAP3 SWAP2 POP POP JUMP JUMPDEST PUSH0 DUP2 MLOAD SWAP1 POP PUSH2 0x1036 DUP2 PUSH2 0xE49 JUMP JUMPDEST SWAP3 SWAP2 POP POP JUMP JUMPDEST PUSH0 PUSH1 0x20 DUP3 DUP5 SUB SLT ISZERO PUSH2 0x1051 JUMPI PUSH2 0x1050 PUSH2 0xDA4 JUMP JUMPDEST JUMPDEST PUSH0 PUSH2 0x105E DUP5 DUP3 DUP6 ADD PUSH2 0x1028 JUMP JUMPDEST SWAP2 POP POP SWAP3 SWAP2 POP POP JUMP JUMPDEST PUSH0 DUP3 DUP3 MSTORE PUSH1 0x20 DUP3 ADD SWAP1 POP SWAP3 SWAP2 POP POP JUMP JUMPDEST PUSH32 0x4E6F74206F776E6572206F72206D61726B6574706C6163652061646D696E0000 PUSH0 DUP3 ADD MSTORE POP JUMP JUMPDEST PUSH0 PUSH2 0x10AB PUSH1 0x1E DUP4 PUSH2 0x1067 JUMP JUMPDEST SWAP2 POP PUSH2 0x10B6 DUP3 PUSH2 0x1077 JUMP JUMPDEST PUSH1 0x20 DUP3 ADD SWAP1 POP SWAP2 SWAP1 POP JUMP JUMPDEST PUSH0 PUSH1 0x20 DUP3 ADD SWAP1 POP DUP2 DUP2 SUB PUSH0 DUP4 ADD MSTORE PUSH2 0x10D8 DUP2 PUSH2 0x109F JUMP JUMPDEST SWAP1 POP SWAP2 SWAP1 POP JUMP JUMPDEST PUSH0 PUSH1 0x40 DUP3 ADD SWAP1 POP PUSH2 0x10F2 PUSH0 DUP4 ADD DUP6 PUSH2 0xEB1 JUMP JUMPDEST PUSH2 0x10FF PUSH1 0x20 DUP4 ADD DUP5 PUSH2 0xEB1 JUMP JUMPDEST SWAP4 SWAP3 POP POP POP JUMP JUMPDEST PUSH2 0x110F DUP2 PUSH2 0xF87 JUMP JUMPDEST DUP2 EQ PUSH2 0x1119 JUMPI PUSH0 PUSH0 REVERT JUMPDEST POP JUMP JUMPDEST PUSH0 DUP2 MLOAD SWAP1 POP PUSH2 0x112A DUP2 PUSH2 0x1106 JUMP JUMPDEST SWAP3 SWAP2 POP POP JUMP JUMPDEST PUSH0 PUSH1 0x20 DUP3 DUP5 SUB SLT ISZERO PUSH2 0x1145 JUMPI PUSH2 0x1144 PUSH2 0xDA4 JUMP JUMPDEST JUMPDEST PUSH0 PUSH2 0x1152 DUP5 DUP3 DUP6 ADD PUSH2 0x111C JUMP JUMPDEST SWAP2 POP POP SWAP3 SWAP2 POP POP JUMP JUMPDEST PUSH32 0x4E4654206E6F7420617070726F76656420666F72206D61726B6574706C616365 PUSH0 DUP3 ADD MSTORE POP JUMP JUMPDEST PUSH0 PUSH2 0x118F PUSH1 0x20 DUP4 PUSH2 0x1067 JUMP JUMPDEST SWAP2 POP PUSH2 0x119A DUP3 PUSH2 0x115B JUMP JUMPDEST PUSH1 0x20 DUP3 ADD SWAP1 POP SWAP2 SWAP1 POP JUMP JUMPDEST PUSH0 PUSH1 0x20 DUP3 ADD SWAP1 POP DUP2 DUP2 SUB PUSH0 DUP4 ADD MSTORE PUSH2 0x11BC DUP2 PUSH2 0x1183 JUMP JUMPDEST SWAP1 POP SWAP2 SWAP1 POP JUMP JUMPDEST PUSH32 0x416C7265616479206C6973746564000000000000000000000000000000000000 PUSH0 DUP3 ADD MSTORE POP JUMP JUMPDEST PUSH0 PUSH2 0x11F7 PUSH1 0xE DUP4 PUSH2 0x1067 JUMP JUMPDEST SWAP2 POP PUSH2 0x1202 DUP3 PUSH2 0x11C3 JUMP JUMPDEST PUSH1 0x20 DUP3 ADD SWAP1 POP SWAP2 SWAP1 POP JUMP JUMPDEST PUSH0 PUSH1 0x20 DUP3 ADD SWAP1 POP DUP2 DUP2 SUB PUSH0 DUP4 ADD MSTORE PUSH2 0x1224 DUP2 PUSH2 0x11EB JUMP JUMPDEST SWAP1 POP SWAP2 SWAP1 POP JUMP JUMPDEST PUSH0 PUSH1 0x40 DUP3 ADD SWAP1 POP PUSH2 0x123E PUSH0 DUP4 ADD DUP6 PUSH2 0xEB1 JUMP JUMPDEST PUSH2 0x124B PUSH1 0x20 DUP4 ADD DUP5 PUSH2 0xF78 JUMP JUMPDEST SWAP4 SWAP3 POP POP POP JUMP JUMPDEST PUSH32 0x4E6F74206C697374656400000000000000000000000000000000000000000000 PUSH0 DUP3 ADD MSTORE POP JUMP JUMPDEST PUSH0 PUSH2 0x1286 PUSH1 0xA DUP4 PUSH2 0x1067 JUMP JUMPDEST SWAP2 POP PUSH2 0x1291 DUP3 PUSH2 0x1252 JUMP JUMPDEST PUSH1 0x20 DUP3 ADD SWAP1 POP SWAP2 SWAP1 POP JUMP JUMPDEST PUSH0 PUSH1 0x20 DUP3 ADD SWAP1 POP DUP2 DUP2 SUB PUSH0 DUP4 ADD MSTORE PUSH2 0x12B3 DUP2 PUSH2 0x127A JUMP JUMPDEST SWAP1 POP SWAP2 SWAP1 POP JUMP JUMPDEST PUSH32 0x4E6F742073656C6C6572206F72206D61726B6574706C6163652061646D696E00 PUSH0 DUP3 ADD MSTORE POP JUMP JUMPDEST PUSH0 PUSH2 0x12EE PUSH1 0x1F DUP4 PUSH2 0x1067 JUMP JUMPDEST SWAP2 POP PUSH2 0x12F9 DUP3 PUSH2 0x12BA JUMP JUMPDEST PUSH1 0x20 DUP3 ADD SWAP1 POP SWAP2 SWAP1 POP JUMP JUMPDEST PUSH0 PUSH1 0x20 DUP3 ADD SWAP1 POP DUP2 DUP2 SUB PUSH0 DUP4 ADD MSTORE PUSH2 0x131B DUP2 PUSH2 0x12E2 JUMP JUMPDEST SWAP1 POP SWAP2 SWAP1 POP JUMP JUMPDEST PUSH0 PUSH1 0x60 DUP3 ADD SWAP1 POP PUSH2 0x1335 PUSH0 DUP4 ADD DUP7 PUSH2 0xEB1 JUMP JUMPDEST PUSH2 0x1342 PUSH1 0x20 DUP4 ADD DUP6 PUSH2 0xEB1 JUMP JUMPDEST PUSH2 0x134F PUSH1 0x40 DUP4 ADD DUP5 PUSH2 0xF78 JUMP JUMPDEST SWAP5 SWAP4 POP POP POP POP JUMP INVALID LOG2 PUSH5 0x6970667358 0x22 SLT KECCAK256 0xF 0xEF PUSH24 0x3B23498E10BA270A942FB6E27DAB00FA1B9EA747D36CC5F8 NUMBER DATALOADN 0x931A 0xD0 PUSH5 0x736F6C6343 STOP ADDMOD 0x1E STOP CALLER "
	},
	"Assembly": ".code\n  PUSH 80\t\t\tcontract Marketplace is Ownabl...\n  PUSH 40\t\t\tcontract Marketplace is Ownabl...\n  MSTORE \t\t\tcontract Marketplace is Ownabl...\n  CALLVALUE \t\t\tconstructor(address _nftAddres...\n  DUP1 \t\t\tconstructor(address _nftAddres...\n  ISZERO \t\t\tconstructor(address _nftAddres...\n  PUSH [tag] 1\t\t\tconstructor(address _nftAddres...\n  JUMPI \t\t\tconstructor(address _nftAddres...\n  PUSH 0\t\t\tconstructor(address _nftAddres...\n  PUSH 0\t\t\tconstructor(address _nftAddres...\n  REVERT \t\t\tconstructor(address _nftAddres...\ntag 1\t\t\tconstructor(address _nftAddres...\n  JUMPDEST \t\t\tconstructor(address _nftAddres...\n  POP \t\t\tconstructor(address _nftAddres...\n  PUSH 40\t\t\tconstructor(address _nftAddres...\n  MLOAD \t\t\tconstructor(address _nftAddres...\n  PUSHSIZE \t\t\tconstructor(address _nftAddres...\n  CODESIZE \t\t\tconstructor(address _nftAddres...\n  SUB \t\t\tconstructor(address _nftAddres...\n  DUP1 \t\t\tconstructor(address _nftAddres...\n  PUSHSIZE \t\t\tconstructor(address _nftAddres...\n  DUP4 \t\t\tconstructor(address _nftAddres...\n  CODECOPY \t\t\tconstructor(address _nftAddres...\n  DUP2 \t\t\tconstructor(address _nftAddres...\n  DUP2 \t\t\tconstructor(address _nftAddres...\n  ADD \t\t\tconstructor(address _nftAddres...\n  PUSH 40\t\t\tconstructor(address _nftAddres...\n  MSTORE \t\t\tconstructor(address _nftAddres...\n  DUP2 \t\t\tconstructor(address _nftAddres...\n  ADD \t\t\tconstructor(address _nftAddres...\n  SWAP1 \t\t\tconstructor(address _nftAddres...\n  PUSH [tag] 2\t\t\tconstructor(address _nftAddres...\n  SWAP2 \t\t\tconstructor(address _nftAddres...\n  SWAP1 \t\t\tconstructor(address _nftAddres...\n  PUSH [tag] 3\t\t\tconstructor(address _nftAddres...\n  JUMP \t\t\tconstructor(address _nftAddres...\ntag 2\t\t\tconstructor(address _nftAddres...\n  JUMPDEST \t\t\tconstructor(address _nftAddres...\n  DUP1 \t\t\tinitialOwner\n  PUSH 0\t\t\ts\n  PUSH FFFFFFFFFFFFFFFFFFFFFFFFFFFFFFFFFFFFFFFF\t\t\t  // Either the sender is \n  AND \t\t\t  // Either the sender is \n  DUP2 \t\t\t  // Either \n  PUSH FFFFFFFFFFFFFFFFFFFFFFFFFFFFFFFFFFFFFFFF\t\t\t  // Either the sender is \n  AND \t\t\t  // Either the sender is \n  SUB \t\t\t  // Either the sender is \n  PUSH [tag] 7\t\t\t      // Either the sender is ...\n  JUMPI \t\t\t      // Either the sender is ...\n  PUSH 0\t\t\te\n  PUSH 40\t\t\tender is the Marketplace owner...\n  MLOAD \t\t\tender is the Marketplace owner...\n  PUSH 1E4FBDF700000000000000000000000000000000000000000000000000000000\t\t\tender is the Marketplace owner...\n  DUP2 \t\t\tender is the Marketplace owner...\n  MSTORE \t\t\tender is the Marketplace owner...\n  PUSH 4\t\t\tender is the Marketplace owner...\n  ADD \t\t\tender is the Marketplace owner...\n  PUSH [tag] 8\t\t\tender is the Marketplace owner...\n  SWAP2 \t\t\tender is the Marketplace owner...\n  SWAP1 \t\t\tender is the Marketplace owner...\n  PUSH [tag] 9\t\t\tender is the Marketplace owner...\n  JUMP \t\t\tender is the Marketplace owner...\ntag 8\t\t\tender is the Marketplace owner...\n  JUMPDEST \t\t\tender is the Marketplace owner...\n  PUSH 40\t\t\tender is the Marketplace owner...\n  MLOAD \t\t\tender is the Marketplace owner...\n  DUP1 \t\t\tender is the Marketplace owner...\n  SWAP2 \t\t\tender is the Marketplace owner...\n  SUB \t\t\tender is the Marketplace owner...\n  SWAP1 \t\t\tender is the Marketplace owner...\n  REVERT \t\t\tender is the Marketplace owner...\ntag 7\t\t\t      // Either the sender is ...\n  JUMPDEST \t\t\t      // Either the sender is ...\n  PUSH [tag] 10\t\t\t           msg.sender == nftOw...\n  DUP2 \t\t\ter == nftOwn\n  PUSH [tag] 11\t\t\t           msg.sen\n  PUSH 20\t\t\t           msg.sen\n  SHL \t\t\t           msg.sen\n  PUSH 20\t\t\t           msg.sender == nftOw...\n  SHR \t\t\t           msg.sender == nftOw...\n  JUMP \t\t\t           msg.sender == nftOw...\ntag 10\t\t\t           msg.sender == nftOw...\n  JUMPDEST \t\t\t           msg.sender == nftOw...\n  POP \t\t\ttOwner = nftContract.ownerOf(t...\n  DUP2 \t\t\t_nftAddress\n  PUSH 1\t\t\tnftContract\n  PUSH 0\t\t\tnftContract\n  PUSH 100\t\t\tnftContract = ArtifactNFT(_nft...\n  EXP \t\t\tnftContract = ArtifactNFT(_nft...\n  DUP2 \t\t\tnftContract = ArtifactNFT(_nft...\n  SLOAD \t\t\tnftContract = ArtifactNFT(_nft...\n  DUP2 \t\t\tnftContract = ArtifactNFT(_nft...\n  PUSH FFFFFFFFFFFFFFFFFFFFFFFFFFFFFFFFFFFFFFFF\t\t\tnftContract = ArtifactNFT(_nft...\n  MUL \t\t\tnftContract = ArtifactNFT(_nft...\n  NOT \t\t\tnftContract = ArtifactNFT(_nft...\n  AND \t\t\tnftContract = ArtifactNFT(_nft...\n  SWAP1 \t\t\tnftContract = ArtifactNFT(_nft...\n  DUP4 \t\t\tnftContract = ArtifactNFT(_nft...\n  PUSH FFFFFFFFFFFFFFFFFFFFFFFFFFFFFFFFFFFFFFFF\t\t\tnftContract = ArtifactNFT(_nft...\n  AND \t\t\tnftContract = ArtifactNFT(_nft...\n  MUL \t\t\tnftContract = ArtifactNFT(_nft...\n  OR \t\t\tnftContract = ArtifactNFT(_nft...\n  SWAP1 \t\t\tnftContract = ArtifactNFT(_nft...\n  SSTORE \t\t\tnftContract = ArtifactNFT(_nft...\n  POP \t\t\tnftContract = ArtifactNFT(_nft...\n  POP \t\t\tconstructor(address _nftAddres...\n  POP \t\t\tconstructor(address _nftAddres...\n  PUSH [tag] 13\t\t\tcontract Marketplace is Ownabl...\n  JUMP \t\t\tcontract Marketplace is Ownabl...\ntag 11\t\t\t   nftContract.safeTransferFro...\n  JUMPDEST \t\t\t   nftContract.safeTransferFro...\n  PUSH 0\t\t\t emit SaleConfir\n  PUSH 0\t\t\t(token\n  PUSH 0\t\t\t(token\n  SWAP1 \t\t\t(token\n  SLOAD \t\t\t(token\n  SWAP1 \t\t\t(token\n  PUSH 100\t\t\t(token\n  EXP \t\t\t(token\n  SWAP1 \t\t\t(token\n  DIV \t\t\t(token\n  PUSH FFFFFFFFFFFFFFFFFFFFFFFFFFFFFFFFFFFFFFFF\t\t\t(token\n  AND \t\t\t(token\n  SWAP1 \t\t\t emit SaleConfirmed(token\n  POP \t\t\t emit SaleConfirmed(token\n  DUP2 \t\t\t\\n}\\r\\n\n  PUSH 0\t\t\t;\\r\\n   \n  PUSH 0\t\t\t;\\r\\n   \n  PUSH 100\t\t\t;\\r\\n    }\\r\\n}\\r\\n\n  EXP \t\t\t;\\r\\n    }\\r\\n}\\r\\n\n  DUP2 \t\t\t;\\r\\n    }\\r\\n}\\r\\n\n  SLOAD \t\t\t;\\r\\n    }\\r\\n}\\r\\n\n  DUP2 \t\t\t;\\r\\n    }\\r\\n}\\r\\n\n  PUSH FFFFFFFFFFFFFFFFFFFFFFFFFFFFFFFFFFFFFFFF\t\t\t;\\r\\n    }\\r\\n}\\r\\n\n  MUL \t\t\t;\\r\\n    }\\r\\n}\\r\\n\n  NOT \t\t\t;\\r\\n    }\\r\\n}\\r\\n\n  AND \t\t\t;\\r\\n    }\\r\\n}\\r\\n\n  SWAP1 \t\t\t;\\r\\n    }\\r\\n}\\r\\n\n  DUP4 \t\t\t;\\r\\n    }\\r\\n}\\r\\n\n  PUSH FFFFFFFFFFFFFFFFFFFFFFFFFFFFFFFFFFFFFFFF\t\t\t;\\r\\n    }\\r\\n}\\r\\n\n  AND \t\t\t;\\r\\n    }\\r\\n}\\r\\n\n  MUL \t\t\t;\\r\\n    }\\r\\n}\\r\\n\n  OR \t\t\t;\\r\\n    }\\r\\n}\\r\\n\n  SWAP1 \t\t\t;\\r\\n    }\\r\\n}\\r\\n\n  SSTORE \t\t\t;\\r\\n    }\\r\\n}\\r\\n\n  POP \t\t\t;\\r\\n    }\\r\\n}\\r\\n\n  DUP2 \t\t\t\n  PUSH FFFFFFFFFFFFFFFFFFFFFFFFFFFFFFFFFFFFFFFF\t\t\t\n  AND \t\t\t\n  DUP2 \t\t\t\n  PUSH FFFFFFFFFFFFFFFFFFFFFFFFFFFFFFFFFFFFFFFF\t\t\t\n  AND \t\t\t\n  PUSH 8BE0079C531659141344CD1FD0A4F28419497F9722A3DAAFE3B4186F6B6457E0\t\t\t\n  PUSH 40\t\t\t\n  MLOAD \t\t\t\n  PUSH 40\t\t\t\n  MLOAD \t\t\t\n  DUP1 \t\t\t\n  SWAP2 \t\t\t\n  SUB \t\t\t\n  SWAP1 \t\t\t\n  LOG3 \t\t\t\n  POP \t\t\t;\\r\\n        emit SaleConfirme...\n  POP \t\t\t   nftContract.safeTransferFro...\n  JUMP \t\t\t   nftContract.safeTransferFro...\ntag 16\t\t\tacts/access/Ownable.sol\";\\r\\ni...\n  JUMPDEST \t\t\tacts/access/Ownable.sol\";\\r\\ni...\n  PUSH 0\t\t\to\n  PUSH 0\t\t\ta\n  REVERT \t\t\ttplace allow\ntag 18\t\t\t.\\r\\n */\\r\\ncontract Marketpla...\n  JUMPDEST \t\t\t.\\r\\n */\\r\\ncontract Marketpla...\n  PUSH 0\t\t\tle {\\r\\n \n  PUSH FFFFFFFFFFFFFFFFFFFFFFFFFFFFFFFFFFFFFFFF\t\t\t;\\r\\n\\r\\n    struct Listing {\\...\n  DUP3 \t\t\tontra\n  AND \t\t\tnftContract;\\r\\n\\r\\n    struct...\n  SWAP1 \t\t\tNFT public nftContract;\\r\\n\\r\\...\n  POP \t\t\tNFT public nftContract;\\r\\n\\r\\...\n  SWAP2 \t\t\t.\\r\\n */\\r\\ncontract Marketpla...\n  SWAP1 \t\t\t.\\r\\n */\\r\\ncontract Marketpla...\n  POP \t\t\t.\\r\\n */\\r\\ncontract Marketpla...\n  JUMP \t\t\t.\\r\\n */\\r\\ncontract Marketpla...\ntag 19\t\t\t      address seller;\\r\\n     ...\n  JUMPDEST \t\t\t      address seller;\\r\\n     ...\n  PUSH 0\t\t\t6 price\n  PUSH [tag] 29\t\t\tool active;\\r\\n    }\\r\\n\\r\\n  \n  DUP3 \t\t\t\\r\\n\\r\\n \n  PUSH [tag] 18\t\t\tool active;\\r\\n    }\\r\\n\\r\\n  \n  JUMP \t\t\tool active;\\r\\n    }\\r\\n\\r\\n  \ntag 29\t\t\tool active;\\r\\n    }\\r\\n\\r\\n  \n  JUMPDEST \t\t\tool active;\\r\\n    }\\r\\n\\r\\n  \n  SWAP1 \t\t\t\\r\\n        bool active;\\r\\n  ...\n  POP \t\t\t\\r\\n        bool active;\\r\\n  ...\n  SWAP2 \t\t\t      address seller;\\r\\n     ...\n  SWAP1 \t\t\t      address seller;\\r\\n     ...\n  POP \t\t\t      address seller;\\r\\n     ...\n  JUMP \t\t\t      address seller;\\r\\n     ...\ntag 20\t\t\tnt256 => Listing) public listi...\n  JUMPDEST \t\t\tnt256 => Listing) public listi...\n  PUSH [tag] 31\t\t\tkenId, address seller, u\n  DUP2 \t\t\tler, \n  PUSH [tag] 19\t\t\tkenId, address seller, u\n  JUMP \t\t\tkenId, address seller, u\ntag 31\t\t\tkenId, address seller, u\n  JUMPDEST \t\t\tkenId, address seller, u\n  DUP2 \t\t\texed \n  EQ \t\t\tindexed tokenId, address selle...\n  PUSH [tag] 32\t\t\td(uint256 indexed tokenId, add...\n  JUMPI \t\t\td(uint256 indexed tokenId, add...\n  PUSH 0\t\t\t\\n\n  PUSH 0\t\t\t)\n  REVERT \t\t\t6 price);\\r\\n \ntag 32\t\t\td(uint256 indexed tokenId, add...\n  JUMPDEST \t\t\td(uint256 indexed tokenId, add...\n  POP \t\t\tnt256 => Listing) public listi...\n  JUMP \t\t\tnt256 => Listing) public listi...\ntag 21\t\t\tted(uint256 indexed tokenId);\\...\n  JUMPDEST \t\t\tted(uint256 indexed tokenId);\\...\n  PUSH 0\t\t\tnt256\n  DUP2 \t\t\tbuyer)\n  MLOAD \t\t\tdress buyer);\n  SWAP1 \t\t\tkenId, address buyer);\n  POP \t\t\tkenId, address buyer);\n  PUSH [tag] 34\t\t\tonstructor(address _nftAddress...\n  DUP2 \t\t\tess, \n  PUSH [tag] 20\t\t\tonstructor(address _nftAddress...\n  JUMP \t\t\tonstructor(address _nftAddress...\ntag 34\t\t\tonstructor(address _nftAddress...\n  JUMPDEST \t\t\tonstructor(address _nftAddress...\n  SWAP3 \t\t\tted(uint256 indexed tokenId);\\...\n  SWAP2 \t\t\tted(uint256 indexed tokenId);\\...\n  POP \t\t\tted(uint256 indexed tokenId);\\...\n  POP \t\t\tted(uint256 indexed tokenId);\\...\n  JUMP \t\t\tted(uint256 indexed tokenId);\\...\ntag 3\t\t\talOwner) Ownable(initialOwner)...\n  JUMPDEST \t\t\talOwner) Ownable(initialOwner)...\n  PUSH 0\t\t\t);\\r\\n  \n  PUSH 0\t\t\t}\\r\\n\\r\\n \n  PUSH 40\t\t\tbe\n  DUP4 \t\t\tr sale. C\n  DUP6 \t\t\tst NFT \n  SUB \t\t\tv List NFT for sale. Ca\n  SLT \t\t\t @dev List NFT for sale. Can b...\n  ISZERO \t\t\t  * @dev List NFT for sale. Ca...\n  PUSH [tag] 36\t\t\t  * @dev List NFT for sale. Ca...\n  JUMPI \t\t\t  * @dev List NFT for sale. Ca...\n  PUSH [tag] 37\t\t\tled by the NFT owner or the Ma...\n  PUSH [tag] 16\t\t\tled by the NFT owner or the Ma...\n  JUMP \t\t\tled by the NFT owner or the Ma...\ntag 37\t\t\tled by the NFT owner or the Ma...\n  JUMPDEST \t\t\tled by the NFT owner or the Ma...\ntag 36\t\t\t  * @dev List NFT for sale. Ca...\n  JUMPDEST \t\t\t  * @dev List NFT for sale. Ca...\n  PUSH 0\t\t\t \n  PUSH [tag] 38\t\t\tce\\r\\n     */\\r\\n    function ...\n  DUP6 \t\t\tprice) \n  DUP3 \t\t\t uint2\n  DUP7 \t\t\t56 tokenI\n  ADD \t\t\tint256 tokenId, uint25\n  PUSH [tag] 21\t\t\tce\\r\\n     */\\r\\n    function ...\n  JUMP \t\t\tce\\r\\n     */\\r\\n    function ...\ntag 38\t\t\tce\\r\\n     */\\r\\n    function ...\n  JUMPDEST \t\t\tce\\r\\n     */\\r\\n    function ...\n  SWAP3 \t\t\tisting price\\r\\n     */\\r\\n   ...\n  POP \t\t\tisting price\\r\\n     */\\r\\n   ...\n  POP \t\t\tm tokenId NFT tokenId\\r\\n     ...\n  PUSH 20\t\t\t.o\n  PUSH [tag] 39\t\t\t    // Either the sender is th...\n  DUP6 \t\t\t is the\n  DUP3 \t\t\the sen\n  DUP7 \t\t\towner, OR\n  ADD \t\t\tNFT owner, OR the send\n  PUSH [tag] 21\t\t\t    // Either the sender is th...\n  JUMP \t\t\t    // Either the sender is th...\ntag 39\t\t\t    // Either the sender is th...\n  JUMPDEST \t\t\t    // Either the sender is th...\n  SWAP2 \t\t\t);\\r\\n\\r\\n        // Either th...\n  POP \t\t\t);\\r\\n\\r\\n        // Either th...\n  POP \t\t\tddress nftOwner = nftContract....\n  SWAP3 \t\t\talOwner) Ownable(initialOwner)...\n  POP \t\t\talOwner) Ownable(initialOwner)...\n  SWAP3 \t\t\talOwner) Ownable(initialOwner)...\n  SWAP1 \t\t\talOwner) Ownable(initialOwner)...\n  POP \t\t\talOwner) Ownable(initialOwner)...\n  JUMP \t\t\talOwner) Ownable(initialOwner)...\ntag 22\t\t\t    require(\\r\\n            ms...\n  JUMPDEST \t\t\t    require(\\r\\n            ms...\n  PUSH [tag] 41\t\t\t \"Not owner or marketpla\n  DUP2 \t\t\tketpl\n  PUSH [tag] 19\t\t\t \"Not owner or marketpla\n  JUMP \t\t\t \"Not owner or marketpla\ntag 41\t\t\t \"Not owner or marketpla\n  JUMPDEST \t\t\t \"Not owner or marketpla\n  DUP3 \t\t\t   \n  MSTORE \t\t\t\\n            \"Not owner or ma...\n  POP \t\t\t    require(\\r\\n            ms...\n  POP \t\t\t    require(\\r\\n            ms...\n  JUMP \t\t\t    require(\\r\\n            ms...\ntag 9\t\t\t      );\\r\\n\\r\\n        // If ...\n  JUMPDEST \t\t\t      );\\r\\n\\r\\n        // If ...\n  PUSH 0\t\t\tetpl\n  PUSH 20\t\t\ter\n  DUP3 \t\t\tnder == o\n  ADD \t\t\tg.sender == owner(\n  SWAP1 \t\t\t  if (msg.sender == owner(\n  POP \t\t\t  if (msg.sender == owner(\n  PUSH [tag] 43\t\t\tner != owner()) {\\r\\n         ...\n  PUSH 0\t\t\t.\n  DUP4 \t\t\tnftContra\n  ADD \t\t\t    nftContract.g\n  DUP5 \t\t\t      \n  PUSH [tag] 22\t\t\tner != owner()) {\\r\\n         ...\n  JUMP \t\t\tner != owner()) {\\r\\n         ...\ntag 43\t\t\tner != owner()) {\\r\\n         ...\n  JUMPDEST \t\t\tner != owner()) {\\r\\n         ...\n  SWAP3 \t\t\t      );\\r\\n\\r\\n        // If ...\n  SWAP2 \t\t\t      );\\r\\n\\r\\n        // If ...\n  POP \t\t\t      );\\r\\n\\r\\n        // If ...\n  POP \t\t\t      );\\r\\n\\r\\n        // If ...\n  JUMP \t\t\t      );\\r\\n\\r\\n        // If ...\ntag 13\t\t\tcontract Marketplace is Ownabl...\n  JUMPDEST \t\t\tcontract Marketplace is Ownabl...\n  PUSH #[$] 0000000000000000000000000000000000000000000000000000000000000000\t\t\tcontract Marketplace is Ownabl...\n  DUP1 \t\t\tcontract Marketplace is Ownabl...\n  PUSH [$] 0000000000000000000000000000000000000000000000000000000000000000\t\t\tcontract Marketplace is Ownabl...\n  PUSH 0\t\t\tcontract Marketplace is Ownabl...\n  CODECOPY \t\t\tcontract Marketplace is Ownabl...\n  PUSH 0\t\t\tcontract Marketplace is Ownabl...\n  RETURN \t\t\tcontract Marketplace is Ownabl...\n.data\n  0:\n    .code\n      PUSH 80\t\t\tcontract Marketplace is Ownabl...\n      PUSH 40\t\t\tcontract Marketplace is Ownabl...\n      MSTORE \t\t\tcontract Marketplace is Ownabl...\n      CALLVALUE \t\t\tcontract Marketplace is Ownabl...\n      DUP1 \t\t\tcontract Marketplace is Ownabl...\n      ISZERO \t\t\tcontract Marketplace is Ownabl...\n      PUSH [tag] 1\t\t\tcontract Marketplace is Ownabl...\n      JUMPI \t\t\tcontract Marketplace is Ownabl...\n      PUSH 0\t\t\tcontract Marketplace is Ownabl...\n      PUSH 0\t\t\tcontract Marketplace is Ownabl...\n      REVERT \t\t\tcontract Marketplace is Ownabl...\n    tag 1\t\t\tcontract Marketplace is Ownabl...\n      JUMPDEST \t\t\tcontract Marketplace is Ownabl...\n      POP \t\t\tcontract Marketplace is Ownabl...\n      PUSH 4\t\t\tcontract Marketplace is Ownabl...\n      CALLDATASIZE \t\t\tcontract Marketplace is Ownabl...\n      LT \t\t\tcontract Marketplace is Ownabl...\n      PUSH [tag] 2\t\t\tcontract Marketplace is Ownabl...\n      JUMPI \t\t\tcontract Marketplace is Ownabl...\n      PUSH 0\t\t\tcontract Marketplace is Ownabl...\n      CALLDATALOAD \t\t\tcontract Marketplace is Ownabl...\n      PUSH E0\t\t\tcontract Marketplace is Ownabl...\n      SHR \t\t\tcontract Marketplace is Ownabl...\n      DUP1 \t\t\tcontract Marketplace is Ownabl...\n      PUSH 964BC33F\t\t\tcontract Marketplace is Ownabl...\n      GT \t\t\tcontract Marketplace is Ownabl...\n      PUSH [tag] 11\t\t\tcontract Marketplace is Ownabl...\n      JUMPI \t\t\tcontract Marketplace is Ownabl...\n      DUP1 \t\t\tcontract Marketplace is Ownabl...\n      PUSH 964BC33F\t\t\tcontract Marketplace is Ownabl...\n      EQ \t\t\tcontract Marketplace is Ownabl...\n      PUSH [tag] 7\t\t\tcontract Marketplace is Ownabl...\n      JUMPI \t\t\tcontract Marketplace is Ownabl...\n      DUP1 \t\t\tcontract Marketplace is Ownabl...\n      PUSH D56D229D\t\t\tcontract Marketplace is Ownabl...\n      EQ \t\t\tcontract Marketplace is Ownabl...\n      PUSH [tag] 8\t\t\tcontract Marketplace is Ownabl...\n      JUMPI \t\t\tcontract Marketplace is Ownabl...\n      DUP1 \t\t\tcontract Marketplace is Ownabl...\n      PUSH DE74E57B\t\t\tcontract Marketplace is Ownabl...\n      EQ \t\t\tcontract Marketplace is Ownabl...\n      PUSH [tag] 9\t\t\tcontract Marketplace is Ownabl...\n      JUMPI \t\t\tcontract Marketplace is Ownabl...\n      DUP1 \t\t\tcontract Marketplace is Ownabl...\n      PUSH F2FDE38B\t\t\tcontract Marketplace is Ownabl...\n      EQ \t\t\tcontract Marketplace is Ownabl...\n      PUSH [tag] 10\t\t\tcontract Marketplace is Ownabl...\n      JUMPI \t\t\tcontract Marketplace is Ownabl...\n      PUSH [tag] 2\t\t\tcontract Marketplace is Ownabl...\n      JUMP \t\t\tcontract Marketplace is Ownabl...\n    tag 11\t\t\tcontract Marketplace is Ownabl...\n      JUMPDEST \t\t\tcontract Marketplace is Ownabl...\n      DUP1 \t\t\tcontract Marketplace is Ownabl...\n      PUSH 50FD7367\t\t\tcontract Marketplace is Ownabl...\n      EQ \t\t\tcontract Marketplace is Ownabl...\n      PUSH [tag] 3\t\t\tcontract Marketplace is Ownabl...\n      JUMPI \t\t\tcontract Marketplace is Ownabl...\n      DUP1 \t\t\tcontract Marketplace is Ownabl...\n      PUSH 715018A6\t\t\tcontract Marketplace is Ownabl...\n      EQ \t\t\tcontract Marketplace is Ownabl...\n      PUSH [tag] 4\t\t\tcontract Marketplace is Ownabl...\n      JUMPI \t\t\tcontract Marketplace is Ownabl...\n      DUP1 \t\t\tcontract Marketplace is Ownabl...\n      PUSH 78EAD8B5\t\t\tcontract Marketplace is Ownabl...\n      EQ \t\t\tcontract Marketplace is Ownabl...\n      PUSH [tag] 5\t\t\tcontract Marketplace is Ownabl...\n      JUMPI \t\t\tcontract Marketplace is Ownabl...\n      DUP1 \t\t\tcontract Marketplace is Ownabl...\n      PUSH 8DA5CB5B\t\t\tcontract Marketplace is Ownabl...\n      EQ \t\t\tcontract Marketplace is Ownabl...\n      PUSH [tag] 6\t\t\tcontract Marketplace is Ownabl...\n      JUMPI \t\t\tcontract Marketplace is Ownabl...\n    tag 2\t\t\tcontract Marketplace is Ownabl...\n      JUMPDEST \t\t\tcontract Marketplace is Ownabl...\n      PUSH 0\t\t\tcontract Marketplace is Ownabl...\n      PUSH 0\t\t\tcontract Marketplace is Ownabl...\n      REVERT \t\t\tcontract Marketplace is Ownabl...\n    tag 3\t\t\tfunction list(uint256 tokenId,...\n      JUMPDEST \t\t\tfunction list(uint256 tokenId,...\n      PUSH [tag] 12\t\t\tfunction list(uint256 tokenId,...\n      PUSH 4\t\t\tfunction list(uint256 tokenId,...\n      DUP1 \t\t\tfunction list(uint256 tokenId,...\n      CALLDATASIZE \t\t\tfunction list(uint256 tokenId,...\n      SUB \t\t\tfunction list(uint256 tokenId,...\n      DUP2 \t\t\tfunction list(uint256 tokenId,...\n      ADD \t\t\tfunction list(uint256 tokenId,...\n      SWAP1 \t\t\tfunction list(uint256 tokenId,...\n      PUSH [tag] 13\t\t\tfunction list(uint256 tokenId,...\n      SWAP2 \t\t\tfunction list(uint256 tokenId,...\n      SWAP1 \t\t\tfunction list(uint256 tokenId,...\n      PUSH [tag] 14\t\t\tfunction list(uint256 tokenId,...\n      JUMP \t\t\tfunction list(uint256 tokenId,...\n    tag 13\t\t\tfunction list(uint256 tokenId,...\n      JUMPDEST \t\t\tfunction list(uint256 tokenId,...\n      PUSH [tag] 15\t\t\tfunction list(uint256 tokenId,...\n      JUMP \t\t\tfunction list(uint256 tokenId,...\n    tag 12\t\t\tfunction list(uint256 tokenId,...\n      JUMPDEST \t\t\tfunction list(uint256 tokenId,...\n      STOP \t\t\tfunction list(uint256 tokenId,...\n    tag 4\t\t\tquire(listing.active, \"Not lis...\n      JUMPDEST \t\t\tquire(listing.active, \"Not lis...\n      PUSH [tag] 16\t\t\tquire(listing.active, \"Not lis...\n      PUSH [tag] 17\t\t\tquire(listing.active, \"Not lis...\n      JUMP \t\t\tquire(listing.active, \"Not lis...\n    tag 16\t\t\tquire(listing.active, \"Not lis...\n      JUMPDEST \t\t\tquire(listing.active, \"Not lis...\n      STOP \t\t\tquire(listing.active, \"Not lis...\n    tag 5\t\t\tfunction confirmSale(uint256 t...\n      JUMPDEST \t\t\tfunction confirmSale(uint256 t...\n      PUSH [tag] 18\t\t\tfunction confirmSale(uint256 t...\n      PUSH 4\t\t\tfunction confirmSale(uint256 t...\n      DUP1 \t\t\tfunction confirmSale(uint256 t...\n      CALLDATASIZE \t\t\tfunction confirmSale(uint256 t...\n      SUB \t\t\tfunction confirmSale(uint256 t...\n      DUP2 \t\t\tfunction confirmSale(uint256 t...\n      ADD \t\t\tfunction confirmSale(uint256 t...\n      SWAP1 \t\t\tfunction confirmSale(uint256 t...\n      PUSH [tag] 19\t\t\tfunction confirmSale(uint256 t...\n      SWAP2 \t\t\tfunction confirmSale(uint256 t...\n      SWAP1 \t\t\tfunction confirmSale(uint256 t...\n      PUSH [tag] 20\t\t\tfunction confirmSale(uint256 t...\n      JUMP \t\t\tfunction confirmSale(uint256 t...\n    tag 19\t\t\tfunction confirmSale(uint256 t...\n      JUMPDEST \t\t\tfunction confirmSale(uint256 t...\n      PUSH [tag] 21\t\t\tfunction confirmSale(uint256 t...\n      JUMP \t\t\tfunction confirmSale(uint256 t...\n    tag 18\t\t\tfunction confirmSale(uint256 t...\n      JUMPDEST \t\t\tfunction confirmSale(uint256 t...\n      STOP \t\t\tfunction confirmSale(uint256 t...\n    tag 6\t\t\t()) {\\r\\n            require(\\...\n      JUMPDEST \t\t\t()) {\\r\\n            require(\\...\n      PUSH [tag] 22\t\t\t()) {\\r\\n            require(\\...\n      PUSH [tag] 23\t\t\t()) {\\r\\n            require(\\...\n      JUMP \t\t\t()) {\\r\\n            require(\\...\n    tag 22\t\t\t()) {\\r\\n            require(\\...\n      JUMPDEST \t\t\t()) {\\r\\n            require(\\...\n      PUSH 40\t\t\t()) {\\r\\n            require(\\...\n      MLOAD \t\t\t()) {\\r\\n            require(\\...\n      PUSH [tag] 24\t\t\t()) {\\r\\n            require(\\...\n      SWAP2 \t\t\t()) {\\r\\n            require(\\...\n      SWAP1 \t\t\t()) {\\r\\n            require(\\...\n      PUSH [tag] 25\t\t\t()) {\\r\\n            require(\\...\n      JUMP \t\t\t()) {\\r\\n            require(\\...\n    tag 24\t\t\t()) {\\r\\n            require(\\...\n      JUMPDEST \t\t\t()) {\\r\\n            require(\\...\n      PUSH 40\t\t\t()) {\\r\\n            require(\\...\n      MLOAD \t\t\t()) {\\r\\n            require(\\...\n      DUP1 \t\t\t()) {\\r\\n            require(\\...\n      SWAP2 \t\t\t()) {\\r\\n            require(\\...\n      SUB \t\t\t()) {\\r\\n            require(\\...\n      SWAP1 \t\t\t()) {\\r\\n            require(\\...\n      RETURN \t\t\t()) {\\r\\n            require(\\...\n    tag 7\t\t\tfunction delist(uint256 tokenI...\n      JUMPDEST \t\t\tfunction delist(uint256 tokenI...\n      PUSH [tag] 26\t\t\tfunction delist(uint256 tokenI...\n      PUSH 4\t\t\tfunction delist(uint256 tokenI...\n      DUP1 \t\t\tfunction delist(uint256 tokenI...\n      CALLDATASIZE \t\t\tfunction delist(uint256 tokenI...\n      SUB \t\t\tfunction delist(uint256 tokenI...\n      DUP2 \t\t\tfunction delist(uint256 tokenI...\n      ADD \t\t\tfunction delist(uint256 tokenI...\n      SWAP1 \t\t\tfunction delist(uint256 tokenI...\n      PUSH [tag] 27\t\t\tfunction delist(uint256 tokenI...\n      SWAP2 \t\t\tfunction delist(uint256 tokenI...\n      SWAP1 \t\t\tfunction delist(uint256 tokenI...\n      PUSH [tag] 28\t\t\tfunction delist(uint256 tokenI...\n      JUMP \t\t\tfunction delist(uint256 tokenI...\n    tag 27\t\t\tfunction delist(uint256 tokenI...\n      JUMPDEST \t\t\tfunction delist(uint256 tokenI...\n      PUSH [tag] 29\t\t\tfunction delist(uint256 tokenI...\n      JUMP \t\t\tfunction delist(uint256 tokenI...\n    tag 26\t\t\tfunction delist(uint256 tokenI...\n      JUMPDEST \t\t\tfunction delist(uint256 tokenI...\n      STOP \t\t\tfunction delist(uint256 tokenI...\n    tag 8\t\t\tArtifactNFT public nftContract\n      JUMPDEST \t\t\tArtifactNFT public nftContract\n      PUSH [tag] 30\t\t\tArtifactNFT public nftContract\n      PUSH [tag] 31\t\t\tArtifactNFT public nftContract\n      JUMP \t\t\tArtifactNFT public nftContract\n    tag 30\t\t\tArtifactNFT public nftContract\n      JUMPDEST \t\t\tArtifactNFT public nftContract\n      PUSH 40\t\t\tArtifactNFT public nftContract\n      MLOAD \t\t\tArtifactNFT public nftContract\n      PUSH [tag] 32\t\t\tArtifactNFT public nftContract\n      SWAP2 \t\t\tArtifactNFT public nftContract\n      SWAP1 \t\t\tArtifactNFT public nftContract\n      PUSH [tag] 33\t\t\tArtifactNFT public nftContract\n      JUMP \t\t\tArtifactNFT public nftContract\n    tag 32\t\t\tArtifactNFT public nftContract\n      JUMPDEST \t\t\tArtifactNFT public nftContract\n      PUSH 40\t\t\tArtifactNFT public nftContract\n      MLOAD \t\t\tArtifactNFT public nftContract\n      DUP1 \t\t\tArtifactNFT public nftContract\n      SWAP2 \t\t\tArtifactNFT public nftContract\n      SUB \t\t\tArtifactNFT public nftContract\n      SWAP1 \t\t\tArtifactNFT public nftContract\n      RETURN \t\t\tArtifactNFT public nftContract\n    tag 9\t\t\tmapping(uint256 => Listing) pu...\n      JUMPDEST \t\t\tmapping(uint256 => Listing) pu...\n      PUSH [tag] 34\t\t\tmapping(uint256 => Listing) pu...\n      PUSH 4\t\t\tmapping(uint256 => Listing) pu...\n      DUP1 \t\t\tmapping(uint256 => Listing) pu...\n      CALLDATASIZE \t\t\tmapping(uint256 => Listing) pu...\n      SUB \t\t\tmapping(uint256 => Listing) pu...\n      DUP2 \t\t\tmapping(uint256 => Listing) pu...\n      ADD \t\t\tmapping(uint256 => Listing) pu...\n      SWAP1 \t\t\tmapping(uint256 => Listing) pu...\n      PUSH [tag] 35\t\t\tmapping(uint256 => Listing) pu...\n      SWAP2 \t\t\tmapping(uint256 => Listing) pu...\n      SWAP1 \t\t\tmapping(uint256 => Listing) pu...\n      PUSH [tag] 28\t\t\tmapping(uint256 => Listing) pu...\n      JUMP \t\t\tmapping(uint256 => Listing) pu...\n    tag 35\t\t\tmapping(uint256 => Listing) pu...\n      JUMPDEST \t\t\tmapping(uint256 => Listing) pu...\n      PUSH [tag] 36\t\t\tmapping(uint256 => Listing) pu...\n      JUMP \t\t\tmapping(uint256 => Listing) pu...\n    tag 34\t\t\tmapping(uint256 => Listing) pu...\n      JUMPDEST \t\t\tmapping(uint256 => Listing) pu...\n      PUSH 40\t\t\tmapping(uint256 => Listing) pu...\n      MLOAD \t\t\tmapping(uint256 => Listing) pu...\n      PUSH [tag] 37\t\t\tmapping(uint256 => Listing) pu...\n      SWAP5 \t\t\tmapping(uint256 => Listing) pu...\n      SWAP4 \t\t\tmapping(uint256 => Listing) pu...\n      SWAP3 \t\t\tmapping(uint256 => Listing) pu...\n      SWAP2 \t\t\tmapping(uint256 => Listing) pu...\n      SWAP1 \t\t\tmapping(uint256 => Listing) pu...\n      PUSH [tag] 38\t\t\tmapping(uint256 => Listing) pu...\n      JUMP \t\t\tmapping(uint256 => Listing) pu...\n    tag 37\t\t\tmapping(uint256 => Listing) pu...\n      JUMPDEST \t\t\tmapping(uint256 => Listing) pu...\n      PUSH 40\t\t\tmapping(uint256 => Listing) pu...\n      MLOAD \t\t\tmapping(uint256 => Listing) pu...\n      DUP1 \t\t\tmapping(uint256 => Listing) pu...\n      SWAP2 \t\t\tmapping(uint256 => Listing) pu...\n      SUB \t\t\tmapping(uint256 => Listing) pu...\n      SWAP1 \t\t\tmapping(uint256 => Listing) pu...\n      RETURN \t\t\tmapping(uint256 => Listing) pu...\n    tag 10\t\t\t;\\r\\n    }\\r\\n\\r\\n    function...\n      JUMPDEST \t\t\t;\\r\\n    }\\r\\n\\r\\n    function...\n      PUSH [tag] 39\t\t\t;\\r\\n    }\\r\\n\\r\\n    function...\n      PUSH 4\t\t\t;\\r\\n    }\\r\\n\\r\\n    function...\n      DUP1 \t\t\t;\\r\\n    }\\r\\n\\r\\n    function...\n      CALLDATASIZE \t\t\t;\\r\\n    }\\r\\n\\r\\n    function...\n      SUB \t\t\t;\\r\\n    }\\r\\n\\r\\n    function...\n      DUP2 \t\t\t;\\r\\n    }\\r\\n\\r\\n    function...\n      ADD \t\t\t;\\r\\n    }\\r\\n\\r\\n    function...\n      SWAP1 \t\t\t;\\r\\n    }\\r\\n\\r\\n    function...\n      PUSH [tag] 40\t\t\t;\\r\\n    }\\r\\n\\r\\n    function...\n      SWAP2 \t\t\t;\\r\\n    }\\r\\n\\r\\n    function...\n      SWAP1 \t\t\t;\\r\\n    }\\r\\n\\r\\n    function...\n      PUSH [tag] 41\t\t\t;\\r\\n    }\\r\\n\\r\\n    function...\n      JUMP \t\t\t;\\r\\n    }\\r\\n\\r\\n    function...\n    tag 40\t\t\t;\\r\\n    }\\r\\n\\r\\n    function...\n      JUMPDEST \t\t\t;\\r\\n    }\\r\\n\\r\\n    function...\n      PUSH [tag] 42\t\t\t;\\r\\n    }\\r\\n\\r\\n    function...\n      JUMP \t\t\t;\\r\\n    }\\r\\n\\r\\n    function...\n    tag 39\t\t\t;\\r\\n    }\\r\\n\\r\\n    function...\n      JUMPDEST \t\t\t;\\r\\n    }\\r\\n\\r\\n    function...\n      STOP \t\t\t;\\r\\n    }\\r\\n\\r\\n    function...\n    tag 15\t\t\tfunction list(uint256 tokenId,...\n      JUMPDEST \t\t\tfunction list(uint256 tokenId,...\n      PUSH 0\t\t\taddress nftOwner\n      PUSH 1\t\t\tnftContract\n      PUSH 0\t\t\tnftContract\n      SWAP1 \t\t\tnftContract\n      SLOAD \t\t\tnftContract\n      SWAP1 \t\t\tnftContract\n      PUSH 100\t\t\tnftContract\n      EXP \t\t\tnftContract\n      SWAP1 \t\t\tnftContract\n      DIV \t\t\tnftContract\n      PUSH FFFFFFFFFFFFFFFFFFFFFFFFFFFFFFFFFFFFFFFF\t\t\tnftContract\n      AND \t\t\tnftContract\n      PUSH FFFFFFFFFFFFFFFFFFFFFFFFFFFFFFFFFFFFFFFF\t\t\tnftContract.ownerOf\n      AND \t\t\tnftContract.ownerOf\n      PUSH 6352211E\t\t\tnftContract.ownerOf\n      DUP5 \t\t\ttokenId\n      PUSH 40\t\t\tnftContract.ownerOf(tokenId)\n      MLOAD \t\t\tnftContract.ownerOf(tokenId)\n      DUP3 \t\t\tnftContract.ownerOf(tokenId)\n      PUSH FFFFFFFF\t\t\tnftContract.ownerOf(tokenId)\n      AND \t\t\tnftContract.ownerOf(tokenId)\n      PUSH E0\t\t\tnftContract.ownerOf(tokenId)\n      SHL \t\t\tnftContract.ownerOf(tokenId)\n      DUP2 \t\t\tnftContract.ownerOf(tokenId)\n      MSTORE \t\t\tnftContract.ownerOf(tokenId)\n      PUSH 4\t\t\tnftContract.ownerOf(tokenId)\n      ADD \t\t\tnftContract.ownerOf(tokenId)\n      PUSH [tag] 44\t\t\tnftContract.ownerOf(tokenId)\n      SWAP2 \t\t\tnftContract.ownerOf(tokenId)\n      SWAP1 \t\t\tnftContract.ownerOf(tokenId)\n      PUSH [tag] 45\t\t\tnftContract.ownerOf(tokenId)\n      JUMP \t\t\tnftContract.ownerOf(tokenId)\n    tag 44\t\t\tnftContract.ownerOf(tokenId)\n      JUMPDEST \t\t\tnftContract.ownerOf(tokenId)\n      PUSH 20\t\t\tnftContract.ownerOf(tokenId)\n      PUSH 40\t\t\tnftContract.ownerOf(tokenId)\n      MLOAD \t\t\tnftContract.ownerOf(tokenId)\n      DUP1 \t\t\tnftContract.ownerOf(tokenId)\n      DUP4 \t\t\tnftContract.ownerOf(tokenId)\n      SUB \t\t\tnftContract.ownerOf(tokenId)\n      DUP2 \t\t\tnftContract.ownerOf(tokenId)\n      DUP7 \t\t\tnftContract.ownerOf(tokenId)\n      GAS \t\t\tnftContract.ownerOf(tokenId)\n      STATICCALL \t\t\tnftContract.ownerOf(tokenId)\n      ISZERO \t\t\tnftContract.ownerOf(tokenId)\n      DUP1 \t\t\tnftContract.ownerOf(tokenId)\n      ISZERO \t\t\tnftContract.ownerOf(tokenId)\n      PUSH [tag] 47\t\t\tnftContract.ownerOf(tokenId)\n      JUMPI \t\t\tnftContract.ownerOf(tokenId)\n      RETURNDATASIZE \t\t\tnftContract.ownerOf(tokenId)\n      PUSH 0\t\t\tnftContract.ownerOf(tokenId)\n      PUSH 0\t\t\tnftContract.ownerOf(tokenId)\n      RETURNDATACOPY \t\t\tnftContract.ownerOf(tokenId)\n      RETURNDATASIZE \t\t\tnftContract.ownerOf(tokenId)\n      PUSH 0\t\t\tnftContract.ownerOf(tokenId)\n      REVERT \t\t\tnftContract.ownerOf(tokenId)\n    tag 47\t\t\tnftContract.ownerOf(tokenId)\n      JUMPDEST \t\t\tnftContract.ownerOf(tokenId)\n      POP \t\t\tnftContract.ownerOf(tokenId)\n      POP \t\t\tnftContract.ownerOf(tokenId)\n      POP \t\t\tnftContract.ownerOf(tokenId)\n      POP \t\t\tnftContract.ownerOf(tokenId)\n      PUSH 40\t\t\tnftContract.ownerOf(tokenId)\n      MLOAD \t\t\tnftContract.ownerOf(tokenId)\n      RETURNDATASIZE \t\t\tnftContract.ownerOf(tokenId)\n      PUSH 1F\t\t\tnftContract.ownerOf(tokenId)\n      NOT \t\t\tnftContract.ownerOf(tokenId)\n      PUSH 1F\t\t\tnftContract.ownerOf(tokenId)\n      DUP3 \t\t\tnftContract.ownerOf(tokenId)\n      ADD \t\t\tnftContract.ownerOf(tokenId)\n      AND \t\t\tnftContract.ownerOf(tokenId)\n      DUP3 \t\t\tnftContract.ownerOf(tokenId)\n      ADD \t\t\tnftContract.ownerOf(tokenId)\n      DUP1 \t\t\tnftContract.ownerOf(tokenId)\n      PUSH 40\t\t\tnftContract.ownerOf(tokenId)\n      MSTORE \t\t\tnftContract.ownerOf(tokenId)\n      POP \t\t\tnftContract.ownerOf(tokenId)\n      DUP2 \t\t\tnftContract.ownerOf(tokenId)\n      ADD \t\t\tnftContract.ownerOf(tokenId)\n      SWAP1 \t\t\tnftContract.ownerOf(tokenId)\n      PUSH [tag] 48\t\t\tnftContract.ownerOf(tokenId)\n      SWAP2 \t\t\tnftContract.ownerOf(tokenId)\n      SWAP1 \t\t\tnftContract.ownerOf(tokenId)\n      PUSH [tag] 49\t\t\tnftContract.ownerOf(tokenId)\n      JUMP \t\t\tnftContract.ownerOf(tokenId)\n    tag 48\t\t\tnftContract.ownerOf(tokenId)\n      JUMPDEST \t\t\tnftContract.ownerOf(tokenId)\n      SWAP1 \t\t\taddress nftOwner = nftContract...\n      POP \t\t\taddress nftOwner = nftContract...\n      DUP1 \t\t\tnftOwner\n      PUSH FFFFFFFFFFFFFFFFFFFFFFFFFFFFFFFFFFFFFFFF\t\t\tmsg.sender == nftOwner\n      AND \t\t\tmsg.sender == nftOwner\n      CALLER \t\t\tmsg.sender\n      PUSH FFFFFFFFFFFFFFFFFFFFFFFFFFFFFFFFFFFFFFFF\t\t\tmsg.sender == nftOwner\n      AND \t\t\tmsg.sender == nftOwner\n      EQ \t\t\tmsg.sender == nftOwner\n      DUP1 \t\t\tmsg.sender == nftOwner || msg....\n      PUSH [tag] 50\t\t\tmsg.sender == nftOwner || msg....\n      JUMPI \t\t\tmsg.sender == nftOwner || msg....\n      POP \t\t\tmsg.sender == nftOwner || msg....\n      PUSH [tag] 51\t\t\towner()\n      PUSH [tag] 23\t\t\towner\n      JUMP \t\t\towner()\n    tag 51\t\t\towner()\n      JUMPDEST \t\t\towner()\n      PUSH FFFFFFFFFFFFFFFFFFFFFFFFFFFFFFFFFFFFFFFF\t\t\tmsg.sender == owner()\n      AND \t\t\tmsg.sender == owner()\n      CALLER \t\t\tmsg.sender\n      PUSH FFFFFFFFFFFFFFFFFFFFFFFFFFFFFFFFFFFFFFFF\t\t\tmsg.sender == owner()\n      AND \t\t\tmsg.sender == owner()\n      EQ \t\t\tmsg.sender == owner()\n    tag 50\t\t\tmsg.sender == nftOwner || msg....\n      JUMPDEST \t\t\tmsg.sender == nftOwner || msg....\n      PUSH [tag] 52\t\t\trequire(\\r\\n            msg.se...\n      JUMPI \t\t\trequire(\\r\\n            msg.se...\n      PUSH 40\t\t\trequire(\\r\\n            msg.se...\n      MLOAD \t\t\trequire(\\r\\n            msg.se...\n      PUSH 8C379A000000000000000000000000000000000000000000000000000000000\t\t\trequire(\\r\\n            msg.se...\n      DUP2 \t\t\trequire(\\r\\n            msg.se...\n      MSTORE \t\t\trequire(\\r\\n            msg.se...\n      PUSH 4\t\t\trequire(\\r\\n            msg.se...\n      ADD \t\t\trequire(\\r\\n            msg.se...\n      PUSH [tag] 53\t\t\trequire(\\r\\n            msg.se...\n      SWAP1 \t\t\trequire(\\r\\n            msg.se...\n      PUSH [tag] 54\t\t\trequire(\\r\\n            msg.se...\n      JUMP \t\t\trequire(\\r\\n            msg.se...\n    tag 53\t\t\trequire(\\r\\n            msg.se...\n      JUMPDEST \t\t\trequire(\\r\\n            msg.se...\n      PUSH 40\t\t\trequire(\\r\\n            msg.se...\n      MLOAD \t\t\trequire(\\r\\n            msg.se...\n      DUP1 \t\t\trequire(\\r\\n            msg.se...\n      SWAP2 \t\t\trequire(\\r\\n            msg.se...\n      SUB \t\t\trequire(\\r\\n            msg.se...\n      SWAP1 \t\t\trequire(\\r\\n            msg.se...\n      REVERT \t\t\trequire(\\r\\n            msg.se...\n    tag 52\t\t\trequire(\\r\\n            msg.se...\n      JUMPDEST \t\t\trequire(\\r\\n            msg.se...\n      PUSH [tag] 55\t\t\towner()\n      PUSH [tag] 23\t\t\towner\n      JUMP \t\t\towner()\n    tag 55\t\t\towner()\n      JUMPDEST \t\t\towner()\n      PUSH FFFFFFFFFFFFFFFFFFFFFFFFFFFFFFFFFFFFFFFF\t\t\tmsg.sender == owner()\n      AND \t\t\tmsg.sender == owner()\n      CALLER \t\t\tmsg.sender\n      PUSH FFFFFFFFFFFFFFFFFFFFFFFFFFFFFFFFFFFFFFFF\t\t\tmsg.sender == owner()\n      AND \t\t\tmsg.sender == owner()\n      EQ \t\t\tmsg.sender == owner()\n      DUP1 \t\t\tmsg.sender == owner() && nftOw...\n      ISZERO \t\t\tmsg.sender == owner() && nftOw...\n      PUSH [tag] 56\t\t\tmsg.sender == owner() && nftOw...\n      JUMPI \t\t\tmsg.sender == owner() && nftOw...\n      POP \t\t\tmsg.sender == owner() && nftOw...\n      PUSH [tag] 57\t\t\towner()\n      PUSH [tag] 23\t\t\towner\n      JUMP \t\t\towner()\n    tag 57\t\t\towner()\n      JUMPDEST \t\t\towner()\n      PUSH FFFFFFFFFFFFFFFFFFFFFFFFFFFFFFFFFFFFFFFF\t\t\tnftOwner != owner()\n      AND \t\t\tnftOwner != owner()\n      DUP2 \t\t\tnftOwner\n      PUSH FFFFFFFFFFFFFFFFFFFFFFFFFFFFFFFFFFFFFFFF\t\t\tnftOwner != owner()\n      AND \t\t\tnftOwner != owner()\n      EQ \t\t\tnftOwner != owner()\n      ISZERO \t\t\tnftOwner != owner()\n    tag 56\t\t\tmsg.sender == owner() && nftOw...\n      JUMPDEST \t\t\tmsg.sender == owner() && nftOw...\n      ISZERO \t\t\tif (msg.sender == owner() && n...\n      PUSH [tag] 58\t\t\tif (msg.sender == owner() && n...\n      JUMPI \t\t\tif (msg.sender == owner() && n...\n      ADDRESS \t\t\tthis\n      PUSH FFFFFFFFFFFFFFFFFFFFFFFFFFFFFFFFFFFFFFFF\t\t\tnftContract.getApproved(tokenI...\n      AND \t\t\tnftContract.getApproved(tokenI...\n      PUSH 1\t\t\tnftContract\n      PUSH 0\t\t\tnftContract\n      SWAP1 \t\t\tnftContract\n      SLOAD \t\t\tnftContract\n      SWAP1 \t\t\tnftContract\n      PUSH 100\t\t\tnftContract\n      EXP \t\t\tnftContract\n      SWAP1 \t\t\tnftContract\n      DIV \t\t\tnftContract\n      PUSH FFFFFFFFFFFFFFFFFFFFFFFFFFFFFFFFFFFFFFFF\t\t\tnftContract\n      AND \t\t\tnftContract\n      PUSH FFFFFFFFFFFFFFFFFFFFFFFFFFFFFFFFFFFFFFFF\t\t\tnftContract.getApproved\n      AND \t\t\tnftContract.getApproved\n      PUSH 81812FC\t\t\tnftContract.getApproved\n      DUP6 \t\t\ttokenId\n      PUSH 40\t\t\tnftContract.getApproved(tokenI...\n      MLOAD \t\t\tnftContract.getApproved(tokenI...\n      DUP3 \t\t\tnftContract.getApproved(tokenI...\n      PUSH FFFFFFFF\t\t\tnftContract.getApproved(tokenI...\n      AND \t\t\tnftContract.getApproved(tokenI...\n      PUSH E0\t\t\tnftContract.getApproved(tokenI...\n      SHL \t\t\tnftContract.getApproved(tokenI...\n      DUP2 \t\t\tnftContract.getApproved(tokenI...\n      MSTORE \t\t\tnftContract.getApproved(tokenI...\n      PUSH 4\t\t\tnftContract.getApproved(tokenI...\n      ADD \t\t\tnftContract.getApproved(tokenI...\n      PUSH [tag] 59\t\t\tnftContract.getApproved(tokenI...\n      SWAP2 \t\t\tnftContract.getApproved(tokenI...\n      SWAP1 \t\t\tnftContract.getApproved(tokenI...\n      PUSH [tag] 45\t\t\tnftContract.getApproved(tokenI...\n      JUMP \t\t\tnftContract.getApproved(tokenI...\n    tag 59\t\t\tnftContract.getApproved(tokenI...\n      JUMPDEST \t\t\tnftContract.getApproved(tokenI...\n      PUSH 20\t\t\tnftContract.getApproved(tokenI...\n      PUSH 40\t\t\tnftContract.getApproved(tokenI...\n      MLOAD \t\t\tnftContract.getApproved(tokenI...\n      DUP1 \t\t\tnftContract.getApproved(tokenI...\n      DUP4 \t\t\tnftContract.getApproved(tokenI...\n      SUB \t\t\tnftContract.getApproved(tokenI...\n      DUP2 \t\t\tnftContract.getApproved(tokenI...\n      DUP7 \t\t\tnftContract.getApproved(tokenI...\n      GAS \t\t\tnftContract.getApproved(tokenI...\n      STATICCALL \t\t\tnftContract.getApproved(tokenI...\n      ISZERO \t\t\tnftContract.getApproved(tokenI...\n      DUP1 \t\t\tnftContract.getApproved(tokenI...\n      ISZERO \t\t\tnftContract.getApproved(tokenI...\n      PUSH [tag] 61\t\t\tnftContract.getApproved(tokenI...\n      JUMPI \t\t\tnftContract.getApproved(tokenI...\n      RETURNDATASIZE \t\t\tnftContract.getApproved(tokenI...\n      PUSH 0\t\t\tnftContract.getApproved(tokenI...\n      PUSH 0\t\t\tnftContract.getApproved(tokenI...\n      RETURNDATACOPY \t\t\tnftContract.getApproved(tokenI...\n      RETURNDATASIZE \t\t\tnftContract.getApproved(tokenI...\n      PUSH 0\t\t\tnftContract.getApproved(tokenI...\n      REVERT \t\t\tnftContract.getApproved(tokenI...\n    tag 61\t\t\tnftContract.getApproved(tokenI...\n      JUMPDEST \t\t\tnftContract.getApproved(tokenI...\n      POP \t\t\tnftContract.getApproved(tokenI...\n      POP \t\t\tnftContract.getApproved(tokenI...\n      POP \t\t\tnftContract.getApproved(tokenI...\n      POP \t\t\tnftContract.getApproved(tokenI...\n      PUSH 40\t\t\tnftContract.getApproved(tokenI...\n      MLOAD \t\t\tnftContract.getApproved(tokenI...\n      RETURNDATASIZE \t\t\tnftContract.getApproved(tokenI...\n      PUSH 1F\t\t\tnftContract.getApproved(tokenI...\n      NOT \t\t\tnftContract.getApproved(tokenI...\n      PUSH 1F\t\t\tnftContract.getApproved(tokenI...\n      DUP3 \t\t\tnftContract.getApproved(tokenI...\n      ADD \t\t\tnftContract.getApproved(tokenI...\n      AND \t\t\tnftContract.getApproved(tokenI...\n      DUP3 \t\t\tnftContract.getApproved(tokenI...\n      ADD \t\t\tnftContract.getApproved(tokenI...\n      DUP1 \t\t\tnftContract.getApproved(tokenI...\n      PUSH 40\t\t\tnftContract.getApproved(tokenI...\n      MSTORE \t\t\tnftContract.getApproved(tokenI...\n      POP \t\t\tnftContract.getApproved(tokenI...\n      DUP2 \t\t\tnftContract.getApproved(tokenI...\n      ADD \t\t\tnftContract.getApproved(tokenI...\n      SWAP1 \t\t\tnftContract.getApproved(tokenI...\n      PUSH [tag] 62\t\t\tnftContract.getApproved(tokenI...\n      SWAP2 \t\t\tnftContract.getApproved(tokenI...\n      SWAP1 \t\t\tnftContract.getApproved(tokenI...\n      PUSH [tag] 49\t\t\tnftContract.getApproved(tokenI...\n      JUMP \t\t\tnftContract.getApproved(tokenI...\n    tag 62\t\t\tnftContract.getApproved(tokenI...\n      JUMPDEST \t\t\tnftContract.getApproved(tokenI...\n      PUSH FFFFFFFFFFFFFFFFFFFFFFFFFFFFFFFFFFFFFFFF\t\t\tnftContract.getApproved(tokenI...\n      AND \t\t\tnftContract.getApproved(tokenI...\n      EQ \t\t\tnftContract.getApproved(tokenI...\n      DUP1 \t\t\tnftContract.getApproved(tokenI...\n      PUSH [tag] 63\t\t\tnftContract.getApproved(tokenI...\n      JUMPI \t\t\tnftContract.getApproved(tokenI...\n      POP \t\t\tnftContract.getApproved(tokenI...\n      PUSH 1\t\t\tnftContract\n      PUSH 0\t\t\tnftContract\n      SWAP1 \t\t\tnftContract\n      SLOAD \t\t\tnftContract\n      SWAP1 \t\t\tnftContract\n      PUSH 100\t\t\tnftContract\n      EXP \t\t\tnftContract\n      SWAP1 \t\t\tnftContract\n      DIV \t\t\tnftContract\n      PUSH FFFFFFFFFFFFFFFFFFFFFFFFFFFFFFFFFFFFFFFF\t\t\tnftContract\n      AND \t\t\tnftContract\n      PUSH FFFFFFFFFFFFFFFFFFFFFFFFFFFFFFFFFFFFFFFF\t\t\tnftContract.isApprovedForAll\n      AND \t\t\tnftContract.isApprovedForAll\n      PUSH E985E9C5\t\t\tnftContract.isApprovedForAll\n      DUP3 \t\t\tnftOwner\n      ADDRESS \t\t\tthis\n      PUSH 40\t\t\tnftContract.isApprovedForAll(n...\n      MLOAD \t\t\tnftContract.isApprovedForAll(n...\n      DUP4 \t\t\tnftContract.isApprovedForAll(n...\n      PUSH FFFFFFFF\t\t\tnftContract.isApprovedForAll(n...\n      AND \t\t\tnftContract.isApprovedForAll(n...\n      PUSH E0\t\t\tnftContract.isApprovedForAll(n...\n      SHL \t\t\tnftContract.isApprovedForAll(n...\n      DUP2 \t\t\tnftContract.isApprovedForAll(n...\n      MSTORE \t\t\tnftContract.isApprovedForAll(n...\n      PUSH 4\t\t\tnftContract.isApprovedForAll(n...\n      ADD \t\t\tnftContract.isApprovedForAll(n...\n      PUSH [tag] 64\t\t\tnftContract.isApprovedForAll(n...\n      SWAP3 \t\t\tnftContract.isApprovedForAll(n...\n      SWAP2 \t\t\tnftContract.isApprovedForAll(n...\n      SWAP1 \t\t\tnftContract.isApprovedForAll(n...\n      PUSH [tag] 65\t\t\tnftContract.isApprovedForAll(n...\n      JUMP \t\t\tnftContract.isApprovedForAll(n...\n    tag 64\t\t\tnftContract.isApprovedForAll(n...\n      JUMPDEST \t\t\tnftContract.isApprovedForAll(n...\n      PUSH 20\t\t\tnftContract.isApprovedForAll(n...\n      PUSH 40\t\t\tnftContract.isApprovedForAll(n...\n      MLOAD \t\t\tnftContract.isApprovedForAll(n...\n      DUP1 \t\t\tnftContract.isApprovedForAll(n...\n      DUP4 \t\t\tnftContract.isApprovedForAll(n...\n      SUB \t\t\tnftContract.isApprovedForAll(n...\n      DUP2 \t\t\tnftContract.isApprovedForAll(n...\n      DUP7 \t\t\tnftContract.isApprovedForAll(n...\n      GAS \t\t\tnftContract.isApprovedForAll(n...\n      STATICCALL \t\t\tnftContract.isApprovedForAll(n...\n      ISZERO \t\t\tnftContract.isApprovedForAll(n...\n      DUP1 \t\t\tnftContract.isApprovedForAll(n...\n      ISZERO \t\t\tnftContract.isApprovedForAll(n...\n      PUSH [tag] 67\t\t\tnftContract.isApprovedForAll(n...\n      JUMPI \t\t\tnftContract.isApprovedForAll(n...\n      RETURNDATASIZE \t\t\tnftContract.isApprovedForAll(n...\n      PUSH 0\t\t\tnftContract.isApprovedForAll(n...\n      PUSH 0\t\t\tnftContract.isApprovedForAll(n...\n      RETURNDATACOPY \t\t\tnftContract.isApprovedForAll(n...\n      RETURNDATASIZE \t\t\tnftContract.isApprovedForAll(n...\n      PUSH 0\t\t\tnftContract.isApprovedForAll(n...\n      REVERT \t\t\tnftContract.isApprovedForAll(n...\n    tag 67\t\t\tnftContract.isApprovedForAll(n...\n      JUMPDEST \t\t\tnftContract.isApprovedForAll(n...\n      POP \t\t\tnftContract.isApprovedForAll(n...\n      POP \t\t\tnftContract.isApprovedForAll(n...\n      POP \t\t\tnftContract.isApprovedForAll(n...\n      POP \t\t\tnftContract.isApprovedForAll(n...\n      PUSH 40\t\t\tnftContract.isApprovedForAll(n...\n      MLOAD \t\t\tnftContract.isApprovedForAll(n...\n      RETURNDATASIZE \t\t\tnftContract.isApprovedForAll(n...\n      PUSH 1F\t\t\tnftContract.isApprovedForAll(n...\n      NOT \t\t\tnftContract.isApprovedForAll(n...\n      PUSH 1F\t\t\tnftContract.isApprovedForAll(n...\n      DUP3 \t\t\tnftContract.isApprovedForAll(n...\n      ADD \t\t\tnftContract.isApprovedForAll(n...\n      AND \t\t\tnftContract.isApprovedForAll(n...\n      DUP3 \t\t\tnftContract.isApprovedForAll(n...\n      ADD \t\t\tnftContract.isApprovedForAll(n...\n      DUP1 \t\t\tnftContract.isApprovedForAll(n...\n      PUSH 40\t\t\tnftContract.isApprovedForAll(n...\n      MSTORE \t\t\tnftContract.isApprovedForAll(n...\n      POP \t\t\tnftContract.isApprovedForAll(n...\n      DUP2 \t\t\tnftContract.isApprovedForAll(n...\n      ADD \t\t\tnftContract.isApprovedForAll(n...\n      SWAP1 \t\t\tnftContract.isApprovedForAll(n...\n      PUSH [tag] 68\t\t\tnftContract.isApprovedForAll(n...\n      SWAP2 \t\t\tnftContract.isApprovedForAll(n...\n      SWAP1 \t\t\tnftContract.isApprovedForAll(n...\n      PUSH [tag] 69\t\t\tnftContract.isApprovedForAll(n...\n      JUMP \t\t\tnftContract.isApprovedForAll(n...\n    tag 68\t\t\tnftContract.isApprovedForAll(n...\n      JUMPDEST \t\t\tnftContract.isApprovedForAll(n...\n    tag 63\t\t\tnftContract.getApproved(tokenI...\n      JUMPDEST \t\t\tnftContract.getApproved(tokenI...\n      PUSH [tag] 70\t\t\trequire(\\r\\n                nf...\n      JUMPI \t\t\trequire(\\r\\n                nf...\n      PUSH 40\t\t\trequire(\\r\\n                nf...\n      MLOAD \t\t\trequire(\\r\\n                nf...\n      PUSH 8C379A000000000000000000000000000000000000000000000000000000000\t\t\trequire(\\r\\n                nf...\n      DUP2 \t\t\trequire(\\r\\n                nf...\n      MSTORE \t\t\trequire(\\r\\n                nf...\n      PUSH 4\t\t\trequire(\\r\\n                nf...\n      ADD \t\t\trequire(\\r\\n                nf...\n      PUSH [tag] 71\t\t\trequire(\\r\\n                nf...\n      SWAP1 \t\t\trequire(\\r\\n                nf...\n      PUSH [tag] 72\t\t\trequire(\\r\\n                nf...\n      JUMP \t\t\trequire(\\r\\n                nf...\n    tag 71\t\t\trequire(\\r\\n                nf...\n      JUMPDEST \t\t\trequire(\\r\\n                nf...\n      PUSH 40\t\t\trequire(\\r\\n                nf...\n      MLOAD \t\t\trequire(\\r\\n                nf...\n      DUP1 \t\t\trequire(\\r\\n                nf...\n      SWAP2 \t\t\trequire(\\r\\n                nf...\n      SUB \t\t\trequire(\\r\\n                nf...\n      SWAP1 \t\t\trequire(\\r\\n                nf...\n      REVERT \t\t\trequire(\\r\\n                nf...\n    tag 70\t\t\trequire(\\r\\n                nf...\n      JUMPDEST \t\t\trequire(\\r\\n                nf...\n    tag 58\t\t\tif (msg.sender == owner() && n...\n      JUMPDEST \t\t\tif (msg.sender == owner() && n...\n      PUSH 2\t\t\tlistings\n      PUSH 0\t\t\tlistings[tokenId]\n      DUP5 \t\t\ttokenId\n      DUP2 \t\t\tlistings[tokenId]\n      MSTORE \t\t\tlistings[tokenId]\n      PUSH 20\t\t\tlistings[tokenId]\n      ADD \t\t\tlistings[tokenId]\n      SWAP1 \t\t\tlistings[tokenId]\n      DUP2 \t\t\tlistings[tokenId]\n      MSTORE \t\t\tlistings[tokenId]\n      PUSH 20\t\t\tlistings[tokenId]\n      ADD \t\t\tlistings[tokenId]\n      PUSH 0\t\t\tlistings[tokenId]\n      KECCAK256 \t\t\tlistings[tokenId]\n      PUSH 3\t\t\tlistings[tokenId].active\n      ADD \t\t\tlistings[tokenId].active\n      PUSH 0\t\t\tlistings[tokenId].active\n      SWAP1 \t\t\tlistings[tokenId].active\n      SLOAD \t\t\tlistings[tokenId].active\n      SWAP1 \t\t\tlistings[tokenId].active\n      PUSH 100\t\t\tlistings[tokenId].active\n      EXP \t\t\tlistings[tokenId].active\n      SWAP1 \t\t\tlistings[tokenId].active\n      DIV \t\t\tlistings[tokenId].active\n      PUSH FF\t\t\tlistings[tokenId].active\n      AND \t\t\tlistings[tokenId].active\n      ISZERO \t\t\t!listings[tokenId].active\n      PUSH [tag] 73\t\t\trequire(!listings[tokenId].act...\n      JUMPI \t\t\trequire(!listings[tokenId].act...\n      PUSH 40\t\t\trequire(!listings[tokenId].act...\n      MLOAD \t\t\trequire(!listings[tokenId].act...\n      PUSH 8C379A000000000000000000000000000000000000000000000000000000000\t\t\trequire(!listings[tokenId].act...\n      DUP2 \t\t\trequire(!listings[tokenId].act...\n      MSTORE \t\t\trequire(!listings[tokenId].act...\n      PUSH 4\t\t\trequire(!listings[tokenId].act...\n      ADD \t\t\trequire(!listings[tokenId].act...\n      PUSH [tag] 74\t\t\trequire(!listings[tokenId].act...\n      SWAP1 \t\t\trequire(!listings[tokenId].act...\n      PUSH [tag] 75\t\t\trequire(!listings[tokenId].act...\n      JUMP \t\t\trequire(!listings[tokenId].act...\n    tag 74\t\t\trequire(!listings[tokenId].act...\n      JUMPDEST \t\t\trequire(!listings[tokenId].act...\n      PUSH 40\t\t\trequire(!listings[tokenId].act...\n      MLOAD \t\t\trequire(!listings[tokenId].act...\n      DUP1 \t\t\trequire(!listings[tokenId].act...\n      SWAP2 \t\t\trequire(!listings[tokenId].act...\n      SUB \t\t\trequire(!listings[tokenId].act...\n      SWAP1 \t\t\trequire(!listings[tokenId].act...\n      REVERT \t\t\trequire(!listings[tokenId].act...\n    tag 73\t\t\trequire(!listings[tokenId].act...\n      JUMPDEST \t\t\trequire(!listings[tokenId].act...\n      PUSH 40\t\t\tListing({\\r\\n            token...\n      MLOAD \t\t\tListing({\\r\\n            token...\n      DUP1 \t\t\tListing({\\r\\n            token...\n      PUSH 80\t\t\tListing({\\r\\n            token...\n      ADD \t\t\tListing({\\r\\n            token...\n      PUSH 40\t\t\tListing({\\r\\n            token...\n      MSTORE \t\t\tListing({\\r\\n            token...\n      DUP1 \t\t\tListing({\\r\\n            token...\n      DUP5 \t\t\ttokenId\n      DUP2 \t\t\tListing({\\r\\n            token...\n      MSTORE \t\t\tListing({\\r\\n            token...\n      PUSH 20\t\t\tListing({\\r\\n            token...\n      ADD \t\t\tListing({\\r\\n            token...\n      DUP3 \t\t\tnftOwner\n      PUSH FFFFFFFFFFFFFFFFFFFFFFFFFFFFFFFFFFFFFFFF\t\t\tListing({\\r\\n            token...\n      AND \t\t\tListing({\\r\\n            token...\n      DUP2 \t\t\tListing({\\r\\n            token...\n      MSTORE \t\t\tListing({\\r\\n            token...\n      PUSH 20\t\t\tListing({\\r\\n            token...\n      ADD \t\t\tListing({\\r\\n            token...\n      DUP4 \t\t\tprice\n      DUP2 \t\t\tListing({\\r\\n            token...\n      MSTORE \t\t\tListing({\\r\\n            token...\n      PUSH 20\t\t\tListing({\\r\\n            token...\n      ADD \t\t\tListing({\\r\\n            token...\n      PUSH 1\t\t\ttrue\n      ISZERO \t\t\tListing({\\r\\n            token...\n      ISZERO \t\t\tListing({\\r\\n            token...\n      DUP2 \t\t\tListing({\\r\\n            token...\n      MSTORE \t\t\tListing({\\r\\n            token...\n      POP \t\t\tListing({\\r\\n            token...\n      PUSH 2\t\t\tlistings\n      PUSH 0\t\t\tlistings[tokenId]\n      DUP6 \t\t\ttokenId\n      DUP2 \t\t\tlistings[tokenId]\n      MSTORE \t\t\tlistings[tokenId]\n      PUSH 20\t\t\tlistings[tokenId]\n      ADD \t\t\tlistings[tokenId]\n      SWAP1 \t\t\tlistings[tokenId]\n      DUP2 \t\t\tlistings[tokenId]\n      MSTORE \t\t\tlistings[tokenId]\n      PUSH 20\t\t\tlistings[tokenId]\n      ADD \t\t\tlistings[tokenId]\n      PUSH 0\t\t\tlistings[tokenId]\n      KECCAK256 \t\t\tlistings[tokenId]\n      PUSH 0\t\t\tlistings[tokenId] = Listing({\\...\n      DUP3 \t\t\tlistings[tokenId] = Listing({\\...\n      ADD \t\t\tlistings[tokenId] = Listing({\\...\n      MLOAD \t\t\tlistings[tokenId] = Listing({\\...\n      DUP2 \t\t\tlistings[tokenId] = Listing({\\...\n      PUSH 0\t\t\tlistings[tokenId] = Listing({\\...\n      ADD \t\t\tlistings[tokenId] = Listing({\\...\n      SSTORE \t\t\tlistings[tokenId] = Listing({\\...\n      PUSH 20\t\t\tlistings[tokenId] = Listing({\\...\n      DUP3 \t\t\tlistings[tokenId] = Listing({\\...\n      ADD \t\t\tlistings[tokenId] = Listing({\\...\n      MLOAD \t\t\tlistings[tokenId] = Listing({\\...\n      DUP2 \t\t\tlistings[tokenId] = Listing({\\...\n      PUSH 1\t\t\tlistings[tokenId] = Listing({\\...\n      ADD \t\t\tlistings[tokenId] = Listing({\\...\n      PUSH 0\t\t\tlistings[tokenId] = Listing({\\...\n      PUSH 100\t\t\tlistings[tokenId] = Listing({\\...\n      EXP \t\t\tlistings[tokenId] = Listing({\\...\n      DUP2 \t\t\tlistings[tokenId] = Listing({\\...\n      SLOAD \t\t\tlistings[tokenId] = Listing({\\...\n      DUP2 \t\t\tlistings[tokenId] = Listing({\\...\n      PUSH FFFFFFFFFFFFFFFFFFFFFFFFFFFFFFFFFFFFFFFF\t\t\tlistings[tokenId] = Listing({\\...\n      MUL \t\t\tlistings[tokenId] = Listing({\\...\n      NOT \t\t\tlistings[tokenId] = Listing({\\...\n      AND \t\t\tlistings[tokenId] = Listing({\\...\n      SWAP1 \t\t\tlistings[tokenId] = Listing({\\...\n      DUP4 \t\t\tlistings[tokenId] = Listing({\\...\n      PUSH FFFFFFFFFFFFFFFFFFFFFFFFFFFFFFFFFFFFFFFF\t\t\tlistings[tokenId] = Listing({\\...\n      AND \t\t\tlistings[tokenId] = Listing({\\...\n      MUL \t\t\tlistings[tokenId] = Listing({\\...\n      OR \t\t\tlistings[tokenId] = Listing({\\...\n      SWAP1 \t\t\tlistings[tokenId] = Listing({\\...\n      SSTORE \t\t\tlistings[tokenId] = Listing({\\...\n      POP \t\t\tlistings[tokenId] = Listing({\\...\n      PUSH 40\t\t\tlistings[tokenId] = Listing({\\...\n      DUP3 \t\t\tlistings[tokenId] = Listing({\\...\n      ADD \t\t\tlistings[tokenId] = Listing({\\...\n      MLOAD \t\t\tlistings[tokenId] = Listing({\\...\n      DUP2 \t\t\tlistings[tokenId] = Listing({\\...\n      PUSH 2\t\t\tlistings[tokenId] = Listing({\\...\n      ADD \t\t\tlistings[tokenId] = Listing({\\...\n      SSTORE \t\t\tlistings[tokenId] = Listing({\\...\n      PUSH 60\t\t\tlistings[tokenId] = Listing({\\...\n      DUP3 \t\t\tlistings[tokenId] = Listing({\\...\n      ADD \t\t\tlistings[tokenId] = Listing({\\...\n      MLOAD \t\t\tlistings[tokenId] = Listing({\\...\n      DUP2 \t\t\tlistings[tokenId] = Listing({\\...\n      PUSH 3\t\t\tlistings[tokenId] = Listing({\\...\n      ADD \t\t\tlistings[tokenId] = Listing({\\...\n      PUSH 0\t\t\tlistings[tokenId] = Listing({\\...\n      PUSH 100\t\t\tlistings[tokenId] = Listing({\\...\n      EXP \t\t\tlistings[tokenId] = Listing({\\...\n      DUP2 \t\t\tlistings[tokenId] = Listing({\\...\n      SLOAD \t\t\tlistings[tokenId] = Listing({\\...\n      DUP2 \t\t\tlistings[tokenId] = Listing({\\...\n      PUSH FF\t\t\tlistings[tokenId] = Listing({\\...\n      MUL \t\t\tlistings[tokenId] = Listing({\\...\n      NOT \t\t\tlistings[tokenId] = Listing({\\...\n      AND \t\t\tlistings[tokenId] = Listing({\\...\n      SWAP1 \t\t\tlistings[tokenId] = Listing({\\...\n      DUP4 \t\t\tlistings[tokenId] = Listing({\\...\n      ISZERO \t\t\tlistings[tokenId] = Listing({\\...\n      ISZERO \t\t\tlistings[tokenId] = Listing({\\...\n      MUL \t\t\tlistings[tokenId] = Listing({\\...\n      OR \t\t\tlistings[tokenId] = Listing({\\...\n      SWAP1 \t\t\tlistings[tokenId] = Listing({\\...\n      SSTORE \t\t\tlistings[tokenId] = Listing({\\...\n      POP \t\t\tlistings[tokenId] = Listing({\\...\n      SWAP1 \t\t\tlistings[tokenId] = Listing({\\...\n      POP \t\t\tlistings[tokenId] = Listing({\\...\n      POP \t\t\tlistings[tokenId] = Listing({\\...\n      DUP3 \t\t\ttokenId\n      PUSH 50955776C5778C3B7D968D86D8C51FB6B29A7A74C20866B533268E209FC08343\t\t\tListed(tokenId, nftOwner, pric...\n      DUP3 \t\t\tnftOwner\n      DUP5 \t\t\tprice\n      PUSH 40\t\t\tListed(tokenId, nftOwner, pric...\n      MLOAD \t\t\tListed(tokenId, nftOwner, pric...\n      PUSH [tag] 76\t\t\tListed(tokenId, nftOwner, pric...\n      SWAP3 \t\t\tListed(tokenId, nftOwner, pric...\n      SWAP2 \t\t\tListed(tokenId, nftOwner, pric...\n      SWAP1 \t\t\tListed(tokenId, nftOwner, pric...\n      PUSH [tag] 77\t\t\tListed(tokenId, nftOwner, pric...\n      JUMP \t\t\tListed(tokenId, nftOwner, pric...\n    tag 76\t\t\tListed(tokenId, nftOwner, pric...\n      JUMPDEST \t\t\tListed(tokenId, nftOwner, pric...\n      PUSH 40\t\t\tListed(tokenId, nftOwner, pric...\n      MLOAD \t\t\tListed(tokenId, nftOwner, pric...\n      DUP1 \t\t\tListed(tokenId, nftOwner, pric...\n      SWAP2 \t\t\tListed(tokenId, nftOwner, pric...\n      SUB \t\t\tListed(tokenId, nftOwner, pric...\n      SWAP1 \t\t\tListed(tokenId, nftOwner, pric...\n      LOG2 \t\t\tListed(tokenId, nftOwner, pric...\n      POP \t\t\t{\\r\\n        address nftOwner ...\n      POP \t\t\tfunction list(uint256 tokenId,...\n      POP \t\t\tfunction list(uint256 tokenId,...\n      JUMP \t\t\tfunction list(uint256 tokenId,...\n    tag 17\t\t\tquire(listing.active, \"Not lis...\n      JUMPDEST \t\t\tquire(listing.active, \"Not lis...\n      PUSH [tag] 79\t\t\twner, ensure \n      PUSH [tag] 80\t\t\twner, ensur\n      JUMP \t\t\twner, ensure \n    tag 79\t\t\twner, ensure \n      JUMPDEST \t\t\twner, ensure \n      PUSH [tag] 82\t\t\t    msg.sender == listing.sell\n      PUSH 0\t\t\te\n      PUSH [tag] 83\t\t\t    msg.sender == \n      JUMP \t\t\t    msg.sender == listing.sell\n    tag 82\t\t\t    msg.sender == listing.sell\n      JUMPDEST \t\t\t    msg.sender == listing.sell\n      JUMP \t\t\tquire(listing.active, \"Not lis...\n    tag 21\t\t\tfunction confirmSale(uint256 t...\n      JUMPDEST \t\t\tfunction confirmSale(uint256 t...\n      PUSH 0\t\t\tListing memory listing\n      PUSH 2\t\t\tlistings\n      PUSH 0\t\t\tlistings[tokenId]\n      DUP5 \t\t\ttokenId\n      DUP2 \t\t\tlistings[tokenId]\n      MSTORE \t\t\tlistings[tokenId]\n      PUSH 20\t\t\tlistings[tokenId]\n      ADD \t\t\tlistings[tokenId]\n      SWAP1 \t\t\tlistings[tokenId]\n      DUP2 \t\t\tlistings[tokenId]\n      MSTORE \t\t\tlistings[tokenId]\n      PUSH 20\t\t\tlistings[tokenId]\n      ADD \t\t\tlistings[tokenId]\n      PUSH 0\t\t\tlistings[tokenId]\n      KECCAK256 \t\t\tlistings[tokenId]\n      PUSH 40\t\t\tListing memory listing = listi...\n      MLOAD \t\t\tListing memory listing = listi...\n      DUP1 \t\t\tListing memory listing = listi...\n      PUSH 80\t\t\tListing memory listing = listi...\n      ADD \t\t\tListing memory listing = listi...\n      PUSH 40\t\t\tListing memory listing = listi...\n      MSTORE \t\t\tListing memory listing = listi...\n      SWAP1 \t\t\tListing memory listing = listi...\n      DUP2 \t\t\tListing memory listing = listi...\n      PUSH 0\t\t\tListing memory listing = listi...\n      DUP3 \t\t\tListing memory listing = listi...\n      ADD \t\t\tListing memory listing = listi...\n      SLOAD \t\t\tListing memory listing = listi...\n      DUP2 \t\t\tListing memory listing = listi...\n      MSTORE \t\t\tListing memory listing = listi...\n      PUSH 20\t\t\tListing memory listing = listi...\n      ADD \t\t\tListing memory listing = listi...\n      PUSH 1\t\t\tListing memory listing = listi...\n      DUP3 \t\t\tListing memory listing = listi...\n      ADD \t\t\tListing memory listing = listi...\n      PUSH 0\t\t\tListing memory listing = listi...\n      SWAP1 \t\t\tListing memory listing = listi...\n      SLOAD \t\t\tListing memory listing = listi...\n      SWAP1 \t\t\tListing memory listing = listi...\n      PUSH 100\t\t\tListing memory listing = listi...\n      EXP \t\t\tListing memory listing = listi...\n      SWAP1 \t\t\tListing memory listing = listi...\n      DIV \t\t\tListing memory listing = listi...\n      PUSH FFFFFFFFFFFFFFFFFFFFFFFFFFFFFFFFFFFFFFFF\t\t\tListing memory listing = listi...\n      AND \t\t\tListing memory listing = listi...\n      PUSH FFFFFFFFFFFFFFFFFFFFFFFFFFFFFFFFFFFFFFFF\t\t\tListing memory listing = listi...\n      AND \t\t\tListing memory listing = listi...\n      PUSH FFFFFFFFFFFFFFFFFFFFFFFFFFFFFFFFFFFFFFFF\t\t\tListing memory listing = listi...\n      AND \t\t\tListing memory listing = listi...\n      DUP2 \t\t\tListing memory listing = listi...\n      MSTORE \t\t\tListing memory listing = listi...\n      PUSH 20\t\t\tListing memory listing = listi...\n      ADD \t\t\tListing memory listing = listi...\n      PUSH 2\t\t\tListing memory listing = listi...\n      DUP3 \t\t\tListing memory listing = listi...\n      ADD \t\t\tListing memory listing = listi...\n      SLOAD \t\t\tListing memory listing = listi...\n      DUP2 \t\t\tListing memory listing = listi...\n      MSTORE \t\t\tListing memory listing = listi...\n      PUSH 20\t\t\tListing memory listing = listi...\n      ADD \t\t\tListing memory listing = listi...\n      PUSH 3\t\t\tListing memory listing = listi...\n      DUP3 \t\t\tListing memory listing = listi...\n      ADD \t\t\tListing memory listing = listi...\n      PUSH 0\t\t\tListing memory listing = listi...\n      SWAP1 \t\t\tListing memory listing = listi...\n      SLOAD \t\t\tListing memory listing = listi...\n      SWAP1 \t\t\tListing memory listing = listi...\n      PUSH 100\t\t\tListing memory listing = listi...\n      EXP \t\t\tListing memory listing = listi...\n      SWAP1 \t\t\tListing memory listing = listi...\n      DIV \t\t\tListing memory listing = listi...\n      PUSH FF\t\t\tListing memory listing = listi...\n      AND \t\t\tListing memory listing = listi...\n      ISZERO \t\t\tListing memory listing = listi...\n      ISZERO \t\t\tListing memory listing = listi...\n      ISZERO \t\t\tListing memory listing = listi...\n      ISZERO \t\t\tListing memory listing = listi...\n      DUP2 \t\t\tListing memory listing = listi...\n      MSTORE \t\t\tListing memory listing = listi...\n      POP \t\t\tListing memory listing = listi...\n      POP \t\t\tListing memory listing = listi...\n      SWAP1 \t\t\tListing memory listing = listi...\n      POP \t\t\tListing memory listing = listi...\n      DUP1 \t\t\tlisting\n      PUSH 60\t\t\tlisting.active\n      ADD \t\t\tlisting.active\n      MLOAD \t\t\tlisting.active\n      PUSH [tag] 85\t\t\trequire(listing.active, \"Not l...\n      JUMPI \t\t\trequire(listing.active, \"Not l...\n      PUSH 40\t\t\trequire(listing.active, \"Not l...\n      MLOAD \t\t\trequire(listing.active, \"Not l...\n      PUSH 8C379A000000000000000000000000000000000000000000000000000000000\t\t\trequire(listing.active, \"Not l...\n      DUP2 \t\t\trequire(listing.active, \"Not l...\n      MSTORE \t\t\trequire(listing.active, \"Not l...\n      PUSH 4\t\t\trequire(listing.active, \"Not l...\n      ADD \t\t\trequire(listing.active, \"Not l...\n      PUSH [tag] 86\t\t\trequire(listing.active, \"Not l...\n      SWAP1 \t\t\trequire(listing.active, \"Not l...\n      PUSH [tag] 87\t\t\trequire(listing.active, \"Not l...\n      JUMP \t\t\trequire(listing.active, \"Not l...\n    tag 86\t\t\trequire(listing.active, \"Not l...\n      JUMPDEST \t\t\trequire(listing.active, \"Not l...\n      PUSH 40\t\t\trequire(listing.active, \"Not l...\n      MLOAD \t\t\trequire(listing.active, \"Not l...\n      DUP1 \t\t\trequire(listing.active, \"Not l...\n      SWAP2 \t\t\trequire(listing.active, \"Not l...\n      SUB \t\t\trequire(listing.active, \"Not l...\n      SWAP1 \t\t\trequire(listing.active, \"Not l...\n      REVERT \t\t\trequire(listing.active, \"Not l...\n    tag 85\t\t\trequire(listing.active, \"Not l...\n      JUMPDEST \t\t\trequire(listing.active, \"Not l...\n      DUP1 \t\t\tlisting\n      PUSH 20\t\t\tlisting.seller\n      ADD \t\t\tlisting.seller\n      MLOAD \t\t\tlisting.seller\n      PUSH FFFFFFFFFFFFFFFFFFFFFFFFFFFFFFFFFFFFFFFF\t\t\tmsg.sender == listing.seller\n      AND \t\t\tmsg.sender == listing.seller\n      CALLER \t\t\tmsg.sender\n      PUSH FFFFFFFFFFFFFFFFFFFFFFFFFFFFFFFFFFFFFFFF\t\t\tmsg.sender == listing.seller\n      AND \t\t\tmsg.sender == listing.seller\n      EQ \t\t\tmsg.sender == listing.seller\n      DUP1 \t\t\tmsg.sender == listing.seller |...\n      PUSH [tag] 88\t\t\tmsg.sender == listing.seller |...\n      JUMPI \t\t\tmsg.sender == listing.seller |...\n      POP \t\t\tmsg.sender == listing.seller |...\n      PUSH [tag] 89\t\t\towner()\n      PUSH [tag] 23\t\t\towner\n      JUMP \t\t\towner()\n    tag 89\t\t\towner()\n      JUMPDEST \t\t\towner()\n      PUSH FFFFFFFFFFFFFFFFFFFFFFFFFFFFFFFFFFFFFFFF\t\t\tmsg.sender == owner()\n      AND \t\t\tmsg.sender == owner()\n      CALLER \t\t\tmsg.sender\n      PUSH FFFFFFFFFFFFFFFFFFFFFFFFFFFFFFFFFFFFFFFF\t\t\tmsg.sender == owner()\n      AND \t\t\tmsg.sender == owner()\n      EQ \t\t\tmsg.sender == owner()\n    tag 88\t\t\tmsg.sender == listing.seller |...\n      JUMPDEST \t\t\tmsg.sender == listing.seller |...\n      PUSH [tag] 90\t\t\trequire(\\r\\n            msg.se...\n      JUMPI \t\t\trequire(\\r\\n            msg.se...\n      PUSH 40\t\t\trequire(\\r\\n            msg.se...\n      MLOAD \t\t\trequire(\\r\\n            msg.se...\n      PUSH 8C379A000000000000000000000000000000000000000000000000000000000\t\t\trequire(\\r\\n            msg.se...\n      DUP2 \t\t\trequire(\\r\\n            msg.se...\n      MSTORE \t\t\trequire(\\r\\n            msg.se...\n      PUSH 4\t\t\trequire(\\r\\n            msg.se...\n      ADD \t\t\trequire(\\r\\n            msg.se...\n      PUSH [tag] 91\t\t\trequire(\\r\\n            msg.se...\n      SWAP1 \t\t\trequire(\\r\\n            msg.se...\n      PUSH [tag] 92\t\t\trequire(\\r\\n            msg.se...\n      JUMP \t\t\trequire(\\r\\n            msg.se...\n    tag 91\t\t\trequire(\\r\\n            msg.se...\n      JUMPDEST \t\t\trequire(\\r\\n            msg.se...\n      PUSH 40\t\t\trequire(\\r\\n            msg.se...\n      MLOAD \t\t\trequire(\\r\\n            msg.se...\n      DUP1 \t\t\trequire(\\r\\n            msg.se...\n      SWAP2 \t\t\trequire(\\r\\n            msg.se...\n      SUB \t\t\trequire(\\r\\n            msg.se...\n      SWAP1 \t\t\trequire(\\r\\n            msg.se...\n      REVERT \t\t\trequire(\\r\\n            msg.se...\n    tag 90\t\t\trequire(\\r\\n            msg.se...\n      JUMPDEST \t\t\trequire(\\r\\n            msg.se...\n      PUSH 2\t\t\tlistings\n      PUSH 0\t\t\tlistings[tokenId]\n      DUP5 \t\t\ttokenId\n      DUP2 \t\t\tlistings[tokenId]\n      MSTORE \t\t\tlistings[tokenId]\n      PUSH 20\t\t\tlistings[tokenId]\n      ADD \t\t\tlistings[tokenId]\n      SWAP1 \t\t\tlistings[tokenId]\n      DUP2 \t\t\tlistings[tokenId]\n      MSTORE \t\t\tlistings[tokenId]\n      PUSH 20\t\t\tlistings[tokenId]\n      ADD \t\t\tlistings[tokenId]\n      PUSH 0\t\t\tlistings[tokenId]\n      KECCAK256 \t\t\tlistings[tokenId]\n      PUSH 0\t\t\tlistings[tokenId]\n      PUSH 0\t\t\tdelete listings[tokenId]\n      DUP3 \t\t\tdelete listings[tokenId]\n      ADD \t\t\tdelete listings[tokenId]\n      PUSH 0\t\t\tdelete listings[tokenId]\n      SWAP1 \t\t\tdelete listings[tokenId]\n      SSTORE \t\t\tdelete listings[tokenId]\n      PUSH 1\t\t\tdelete listings[tokenId]\n      DUP3 \t\t\tdelete listings[tokenId]\n      ADD \t\t\tdelete listings[tokenId]\n      PUSH 0\t\t\tdelete listings[tokenId]\n      PUSH 100\t\t\tdelete listings[tokenId]\n      EXP \t\t\tdelete listings[tokenId]\n      DUP2 \t\t\tdelete listings[tokenId]\n      SLOAD \t\t\tdelete listings[tokenId]\n      SWAP1 \t\t\tdelete listings[tokenId]\n      PUSH FFFFFFFFFFFFFFFFFFFFFFFFFFFFFFFFFFFFFFFF\t\t\tdelete listings[tokenId]\n      MUL \t\t\tdelete listings[tokenId]\n      NOT \t\t\tdelete listings[tokenId]\n      AND \t\t\tdelete listings[tokenId]\n      SWAP1 \t\t\tdelete listings[tokenId]\n      SSTORE \t\t\tdelete listings[tokenId]\n      PUSH 2\t\t\tdelete listings[tokenId]\n      DUP3 \t\t\tdelete listings[tokenId]\n      ADD \t\t\tdelete listings[tokenId]\n      PUSH 0\t\t\tdelete listings[tokenId]\n      SWAP1 \t\t\tdelete listings[tokenId]\n      SSTORE \t\t\tdelete listings[tokenId]\n      PUSH 3\t\t\tdelete listings[tokenId]\n      DUP3 \t\t\tdelete listings[tokenId]\n      ADD \t\t\tdelete listings[tokenId]\n      PUSH 0\t\t\tdelete listings[tokenId]\n      PUSH 100\t\t\tdelete listings[tokenId]\n      EXP \t\t\tdelete listings[tokenId]\n      DUP2 \t\t\tdelete listings[tokenId]\n      SLOAD \t\t\tdelete listings[tokenId]\n      SWAP1 \t\t\tdelete listings[tokenId]\n      PUSH FF\t\t\tdelete listings[tokenId]\n      MUL \t\t\tdelete listings[tokenId]\n      NOT \t\t\tdelete listings[tokenId]\n      AND \t\t\tdelete listings[tokenId]\n      SWAP1 \t\t\tdelete listings[tokenId]\n      SSTORE \t\t\tdelete listings[tokenId]\n      POP \t\t\tdelete listings[tokenId]\n      POP \t\t\tdelete listings[tokenId]\n      PUSH 1\t\t\tnftContract\n      PUSH 0\t\t\tnftContract\n      SWAP1 \t\t\tnftContract\n      SLOAD \t\t\tnftContract\n      SWAP1 \t\t\tnftContract\n      PUSH 100\t\t\tnftContract\n      EXP \t\t\tnftContract\n      SWAP1 \t\t\tnftContract\n      DIV \t\t\tnftContract\n      PUSH FFFFFFFFFFFFFFFFFFFFFFFFFFFFFFFFFFFFFFFF\t\t\tnftContract\n      AND \t\t\tnftContract\n      PUSH FFFFFFFFFFFFFFFFFFFFFFFFFFFFFFFFFFFFFFFF\t\t\tnftContract.safeTransferFrom\n      AND \t\t\tnftContract.safeTransferFrom\n      PUSH 42842E0E\t\t\tnftContract.safeTransferFrom\n      DUP3 \t\t\tlisting\n      PUSH 20\t\t\tlisting.seller\n      ADD \t\t\tlisting.seller\n      MLOAD \t\t\tlisting.seller\n      DUP5 \t\t\tbuyer\n      DUP7 \t\t\ttokenId\n      PUSH 40\t\t\tnftContract.safeTransferFrom(l...\n      MLOAD \t\t\tnftContract.safeTransferFrom(l...\n      DUP5 \t\t\tnftContract.safeTransferFrom(l...\n      PUSH FFFFFFFF\t\t\tnftContract.safeTransferFrom(l...\n      AND \t\t\tnftContract.safeTransferFrom(l...\n      PUSH E0\t\t\tnftContract.safeTransferFrom(l...\n      SHL \t\t\tnftContract.safeTransferFrom(l...\n      DUP2 \t\t\tnftContract.safeTransferFrom(l...\n      MSTORE \t\t\tnftContract.safeTransferFrom(l...\n      PUSH 4\t\t\tnftContract.safeTransferFrom(l...\n      ADD \t\t\tnftContract.safeTransferFrom(l...\n      PUSH [tag] 93\t\t\tnftContract.safeTransferFrom(l...\n      SWAP4 \t\t\tnftContract.safeTransferFrom(l...\n      SWAP3 \t\t\tnftContract.safeTransferFrom(l...\n      SWAP2 \t\t\tnftContract.safeTransferFrom(l...\n      SWAP1 \t\t\tnftContract.safeTransferFrom(l...\n      PUSH [tag] 94\t\t\tnftContract.safeTransferFrom(l...\n      JUMP \t\t\tnftContract.safeTransferFrom(l...\n    tag 93\t\t\tnftContract.safeTransferFrom(l...\n      JUMPDEST \t\t\tnftContract.safeTransferFrom(l...\n      PUSH 0\t\t\tnftContract.safeTransferFrom(l...\n      PUSH 40\t\t\tnftContract.safeTransferFrom(l...\n      MLOAD \t\t\tnftContract.safeTransferFrom(l...\n      DUP1 \t\t\tnftContract.safeTransferFrom(l...\n      DUP4 \t\t\tnftContract.safeTransferFrom(l...\n      SUB \t\t\tnftContract.safeTransferFrom(l...\n      DUP2 \t\t\tnftContract.safeTransferFrom(l...\n      PUSH 0\t\t\tnftContract.safeTransferFrom(l...\n      DUP8 \t\t\tnftContract.safeTransferFrom(l...\n      DUP1 \t\t\tnftContract.safeTransferFrom(l...\n      EXTCODESIZE \t\t\tnftContract.safeTransferFrom(l...\n      ISZERO \t\t\tnftContract.safeTransferFrom(l...\n      DUP1 \t\t\tnftContract.safeTransferFrom(l...\n      ISZERO \t\t\tnftContract.safeTransferFrom(l...\n      PUSH [tag] 95\t\t\tnftContract.safeTransferFrom(l...\n      JUMPI \t\t\tnftContract.safeTransferFrom(l...\n      PUSH 0\t\t\tnftContract.safeTransferFrom(l...\n      PUSH 0\t\t\tnftContract.safeTransferFrom(l...\n      REVERT \t\t\tnftContract.safeTransferFrom(l...\n    tag 95\t\t\tnftContract.safeTransferFrom(l...\n      JUMPDEST \t\t\tnftContract.safeTransferFrom(l...\n      POP \t\t\tnftContract.safeTransferFrom(l...\n      GAS \t\t\tnftContract.safeTransferFrom(l...\n      CALL \t\t\tnftContract.safeTransferFrom(l...\n      ISZERO \t\t\tnftContract.safeTransferFrom(l...\n      DUP1 \t\t\tnftContract.safeTransferFrom(l...\n      ISZERO \t\t\tnftContract.safeTransferFrom(l...\n      PUSH [tag] 97\t\t\tnftContract.safeTransferFrom(l...\n      JUMPI \t\t\tnftContract.safeTransferFrom(l...\n      RETURNDATASIZE \t\t\tnftContract.safeTransferFrom(l...\n      PUSH 0\t\t\tnftContract.safeTransferFrom(l...\n      PUSH 0\t\t\tnftContract.safeTransferFrom(l...\n      RETURNDATACOPY \t\t\tnftContract.safeTransferFrom(l...\n      RETURNDATASIZE \t\t\tnftContract.safeTransferFrom(l...\n      PUSH 0\t\t\tnftContract.safeTransferFrom(l...\n      REVERT \t\t\tnftContract.safeTransferFrom(l...\n    tag 97\t\t\tnftContract.safeTransferFrom(l...\n      JUMPDEST \t\t\tnftContract.safeTransferFrom(l...\n      POP \t\t\tnftContract.safeTransferFrom(l...\n      POP \t\t\tnftContract.safeTransferFrom(l...\n      POP \t\t\tnftContract.safeTransferFrom(l...\n      POP \t\t\tnftContract.safeTransferFrom(l...\n      DUP3 \t\t\ttokenId\n      PUSH 61AC2C63E95D648867E788D81A1C73E60D790021130BD30FF89E2214373B5017\t\t\tSaleConfirmed(tokenId, buyer)\n      DUP4 \t\t\tbuyer\n      PUSH 40\t\t\tSaleConfirmed(tokenId, buyer)\n      MLOAD \t\t\tSaleConfirmed(tokenId, buyer)\n      PUSH [tag] 98\t\t\tSaleConfirmed(tokenId, buyer)\n      SWAP2 \t\t\tSaleConfirmed(tokenId, buyer)\n      SWAP1 \t\t\tSaleConfirmed(tokenId, buyer)\n      PUSH [tag] 25\t\t\tSaleConfirmed(tokenId, buyer)\n      JUMP \t\t\tSaleConfirmed(tokenId, buyer)\n    tag 98\t\t\tSaleConfirmed(tokenId, buyer)\n      JUMPDEST \t\t\tSaleConfirmed(tokenId, buyer)\n      PUSH 40\t\t\tSaleConfirmed(tokenId, buyer)\n      MLOAD \t\t\tSaleConfirmed(tokenId, buyer)\n      DUP1 \t\t\tSaleConfirmed(tokenId, buyer)\n      SWAP2 \t\t\tSaleConfirmed(tokenId, buyer)\n      SUB \t\t\tSaleConfirmed(tokenId, buyer)\n      SWAP1 \t\t\tSaleConfirmed(tokenId, buyer)\n      LOG2 \t\t\tSaleConfirmed(tokenId, buyer)\n      POP \t\t\t{\\r\\n        Listing memory li...\n      POP \t\t\tfunction confirmSale(uint256 t...\n      POP \t\t\tfunction confirmSale(uint256 t...\n      JUMP \t\t\tfunction confirmSale(uint256 t...\n    tag 23\t\t\t()) {\\r\\n            require(\\...\n      JUMPDEST \t\t\t()) {\\r\\n            require(\\...\n      PUSH 0\t\t\tftContr\n      PUSH 0\t\t\tenId) \n      PUSH 0\t\t\tenId) \n      SWAP1 \t\t\tenId) \n      SLOAD \t\t\tenId) \n      SWAP1 \t\t\tenId) \n      PUSH 100\t\t\tenId) \n      EXP \t\t\tenId) \n      SWAP1 \t\t\tenId) \n      DIV \t\t\tenId) \n      PUSH FFFFFFFFFFFFFFFFFFFFFFFFFFFFFFFFFFFFFFFF\t\t\tenId) \n      AND \t\t\tenId) \n      SWAP1 \t\t\tved(tokenId) \n      POP \t\t\tved(tokenId) \n      SWAP1 \t\t\t()) {\\r\\n            require(\\...\n      JUMP \t\t\t()) {\\r\\n            require(\\...\n    tag 29\t\t\tfunction delist(uint256 tokenI...\n      JUMPDEST \t\t\tfunction delist(uint256 tokenI...\n      PUSH 0\t\t\tListing memory listing\n      PUSH 2\t\t\tlistings\n      PUSH 0\t\t\tlistings[tokenId]\n      DUP4 \t\t\ttokenId\n      DUP2 \t\t\tlistings[tokenId]\n      MSTORE \t\t\tlistings[tokenId]\n      PUSH 20\t\t\tlistings[tokenId]\n      ADD \t\t\tlistings[tokenId]\n      SWAP1 \t\t\tlistings[tokenId]\n      DUP2 \t\t\tlistings[tokenId]\n      MSTORE \t\t\tlistings[tokenId]\n      PUSH 20\t\t\tlistings[tokenId]\n      ADD \t\t\tlistings[tokenId]\n      PUSH 0\t\t\tlistings[tokenId]\n      KECCAK256 \t\t\tlistings[tokenId]\n      PUSH 40\t\t\tListing memory listing = listi...\n      MLOAD \t\t\tListing memory listing = listi...\n      DUP1 \t\t\tListing memory listing = listi...\n      PUSH 80\t\t\tListing memory listing = listi...\n      ADD \t\t\tListing memory listing = listi...\n      PUSH 40\t\t\tListing memory listing = listi...\n      MSTORE \t\t\tListing memory listing = listi...\n      SWAP1 \t\t\tListing memory listing = listi...\n      DUP2 \t\t\tListing memory listing = listi...\n      PUSH 0\t\t\tListing memory listing = listi...\n      DUP3 \t\t\tListing memory listing = listi...\n      ADD \t\t\tListing memory listing = listi...\n      SLOAD \t\t\tListing memory listing = listi...\n      DUP2 \t\t\tListing memory listing = listi...\n      MSTORE \t\t\tListing memory listing = listi...\n      PUSH 20\t\t\tListing memory listing = listi...\n      ADD \t\t\tListing memory listing = listi...\n      PUSH 1\t\t\tListing memory listing = listi...\n      DUP3 \t\t\tListing memory listing = listi...\n      ADD \t\t\tListing memory listing = listi...\n      PUSH 0\t\t\tListing memory listing = listi...\n      SWAP1 \t\t\tListing memory listing = listi...\n      SLOAD \t\t\tListing memory listing = listi...\n      SWAP1 \t\t\tListing memory listing = listi...\n      PUSH 100\t\t\tListing memory listing = listi...\n      EXP \t\t\tListing memory listing = listi...\n      SWAP1 \t\t\tListing memory listing = listi...\n      DIV \t\t\tListing memory listing = listi...\n      PUSH FFFFFFFFFFFFFFFFFFFFFFFFFFFFFFFFFFFFFFFF\t\t\tListing memory listing = listi...\n      AND \t\t\tListing memory listing = listi...\n      PUSH FFFFFFFFFFFFFFFFFFFFFFFFFFFFFFFFFFFFFFFF\t\t\tListing memory listing = listi...\n      AND \t\t\tListing memory listing = listi...\n      PUSH FFFFFFFFFFFFFFFFFFFFFFFFFFFFFFFFFFFFFFFF\t\t\tListing memory listing = listi...\n      AND \t\t\tListing memory listing = listi...\n      DUP2 \t\t\tListing memory listing = listi...\n      MSTORE \t\t\tListing memory listing = listi...\n      PUSH 20\t\t\tListing memory listing = listi...\n      ADD \t\t\tListing memory listing = listi...\n      PUSH 2\t\t\tListing memory listing = listi...\n      DUP3 \t\t\tListing memory listing = listi...\n      ADD \t\t\tListing memory listing = listi...\n      SLOAD \t\t\tListing memory listing = listi...\n      DUP2 \t\t\tListing memory listing = listi...\n      MSTORE \t\t\tListing memory listing = listi...\n      PUSH 20\t\t\tListing memory listing = listi...\n      ADD \t\t\tListing memory listing = listi...\n      PUSH 3\t\t\tListing memory listing = listi...\n      DUP3 \t\t\tListing memory listing = listi...\n      ADD \t\t\tListing memory listing = listi...\n      PUSH 0\t\t\tListing memory listing = listi...\n      SWAP1 \t\t\tListing memory listing = listi...\n      SLOAD \t\t\tListing memory listing = listi...\n      SWAP1 \t\t\tListing memory listing = listi...\n      PUSH 100\t\t\tListing memory listing = listi...\n      EXP \t\t\tListing memory listing = listi...\n      SWAP1 \t\t\tListing memory listing = listi...\n      DIV \t\t\tListing memory listing = listi...\n      PUSH FF\t\t\tListing memory listing = listi...\n      AND \t\t\tListing memory listing = listi...\n      ISZERO \t\t\tListing memory listing = listi...\n      ISZERO \t\t\tListing memory listing = listi...\n      ISZERO \t\t\tListing memory listing = listi...\n      ISZERO \t\t\tListing memory listing = listi...\n      DUP2 \t\t\tListing memory listing = listi...\n      MSTORE \t\t\tListing memory listing = listi...\n      POP \t\t\tListing memory listing = listi...\n      POP \t\t\tListing memory listing = listi...\n      SWAP1 \t\t\tListing memory listing = listi...\n      POP \t\t\tListing memory listing = listi...\n      DUP1 \t\t\tlisting\n      PUSH 60\t\t\tlisting.active\n      ADD \t\t\tlisting.active\n      MLOAD \t\t\tlisting.active\n      PUSH [tag] 101\t\t\trequire(listing.active, \"Not l...\n      JUMPI \t\t\trequire(listing.active, \"Not l...\n      PUSH 40\t\t\trequire(listing.active, \"Not l...\n      MLOAD \t\t\trequire(listing.active, \"Not l...\n      PUSH 8C379A000000000000000000000000000000000000000000000000000000000\t\t\trequire(listing.active, \"Not l...\n      DUP2 \t\t\trequire(listing.active, \"Not l...\n      MSTORE \t\t\trequire(listing.active, \"Not l...\n      PUSH 4\t\t\trequire(listing.active, \"Not l...\n      ADD \t\t\trequire(listing.active, \"Not l...\n      PUSH [tag] 102\t\t\trequire(listing.active, \"Not l...\n      SWAP1 \t\t\trequire(listing.active, \"Not l...\n      PUSH [tag] 87\t\t\trequire(listing.active, \"Not l...\n      JUMP \t\t\trequire(listing.active, \"Not l...\n    tag 102\t\t\trequire(listing.active, \"Not l...\n      JUMPDEST \t\t\trequire(listing.active, \"Not l...\n      PUSH 40\t\t\trequire(listing.active, \"Not l...\n      MLOAD \t\t\trequire(listing.active, \"Not l...\n      DUP1 \t\t\trequire(listing.active, \"Not l...\n      SWAP2 \t\t\trequire(listing.active, \"Not l...\n      SUB \t\t\trequire(listing.active, \"Not l...\n      SWAP1 \t\t\trequire(listing.active, \"Not l...\n      REVERT \t\t\trequire(listing.active, \"Not l...\n    tag 101\t\t\trequire(listing.active, \"Not l...\n      JUMPDEST \t\t\trequire(listing.active, \"Not l...\n      DUP1 \t\t\tlisting\n      PUSH 20\t\t\tlisting.seller\n      ADD \t\t\tlisting.seller\n      MLOAD \t\t\tlisting.seller\n      PUSH FFFFFFFFFFFFFFFFFFFFFFFFFFFFFFFFFFFFFFFF\t\t\tmsg.sender == listing.seller\n      AND \t\t\tmsg.sender == listing.seller\n      CALLER \t\t\tmsg.sender\n      PUSH FFFFFFFFFFFFFFFFFFFFFFFFFFFFFFFFFFFFFFFF\t\t\tmsg.sender == listing.seller\n      AND \t\t\tmsg.sender == listing.seller\n      EQ \t\t\tmsg.sender == listing.seller\n      DUP1 \t\t\tmsg.sender == listing.seller |...\n      PUSH [tag] 103\t\t\tmsg.sender == listing.seller |...\n      JUMPI \t\t\tmsg.sender == listing.seller |...\n      POP \t\t\tmsg.sender == listing.seller |...\n      PUSH [tag] 104\t\t\towner()\n      PUSH [tag] 23\t\t\towner\n      JUMP \t\t\towner()\n    tag 104\t\t\towner()\n      JUMPDEST \t\t\towner()\n      PUSH FFFFFFFFFFFFFFFFFFFFFFFFFFFFFFFFFFFFFFFF\t\t\tmsg.sender == owner()\n      AND \t\t\tmsg.sender == owner()\n      CALLER \t\t\tmsg.sender\n      PUSH FFFFFFFFFFFFFFFFFFFFFFFFFFFFFFFFFFFFFFFF\t\t\tmsg.sender == owner()\n      AND \t\t\tmsg.sender == owner()\n      EQ \t\t\tmsg.sender == owner()\n    tag 103\t\t\tmsg.sender == listing.seller |...\n      JUMPDEST \t\t\tmsg.sender == listing.seller |...\n      PUSH [tag] 105\t\t\trequire(\\r\\n            msg.se...\n      JUMPI \t\t\trequire(\\r\\n            msg.se...\n      PUSH 40\t\t\trequire(\\r\\n            msg.se...\n      MLOAD \t\t\trequire(\\r\\n            msg.se...\n      PUSH 8C379A000000000000000000000000000000000000000000000000000000000\t\t\trequire(\\r\\n            msg.se...\n      DUP2 \t\t\trequire(\\r\\n            msg.se...\n      MSTORE \t\t\trequire(\\r\\n            msg.se...\n      PUSH 4\t\t\trequire(\\r\\n            msg.se...\n      ADD \t\t\trequire(\\r\\n            msg.se...\n      PUSH [tag] 106\t\t\trequire(\\r\\n            msg.se...\n      SWAP1 \t\t\trequire(\\r\\n            msg.se...\n      PUSH [tag] 92\t\t\trequire(\\r\\n            msg.se...\n      JUMP \t\t\trequire(\\r\\n            msg.se...\n    tag 106\t\t\trequire(\\r\\n            msg.se...\n      JUMPDEST \t\t\trequire(\\r\\n            msg.se...\n      PUSH 40\t\t\trequire(\\r\\n            msg.se...\n      MLOAD \t\t\trequire(\\r\\n            msg.se...\n      DUP1 \t\t\trequire(\\r\\n            msg.se...\n      SWAP2 \t\t\trequire(\\r\\n            msg.se...\n      SUB \t\t\trequire(\\r\\n            msg.se...\n      SWAP1 \t\t\trequire(\\r\\n            msg.se...\n      REVERT \t\t\trequire(\\r\\n            msg.se...\n    tag 105\t\t\trequire(\\r\\n            msg.se...\n      JUMPDEST \t\t\trequire(\\r\\n            msg.se...\n      PUSH 2\t\t\tlistings\n      PUSH 0\t\t\tlistings[tokenId]\n      DUP4 \t\t\ttokenId\n      DUP2 \t\t\tlistings[tokenId]\n      MSTORE \t\t\tlistings[tokenId]\n      PUSH 20\t\t\tlistings[tokenId]\n      ADD \t\t\tlistings[tokenId]\n      SWAP1 \t\t\tlistings[tokenId]\n      DUP2 \t\t\tlistings[tokenId]\n      MSTORE \t\t\tlistings[tokenId]\n      PUSH 20\t\t\tlistings[tokenId]\n      ADD \t\t\tlistings[tokenId]\n      PUSH 0\t\t\tlistings[tokenId]\n      KECCAK256 \t\t\tlistings[tokenId]\n      PUSH 0\t\t\tlistings[tokenId]\n      PUSH 0\t\t\tdelete listings[tokenId]\n      DUP3 \t\t\tdelete listings[tokenId]\n      ADD \t\t\tdelete listings[tokenId]\n      PUSH 0\t\t\tdelete listings[tokenId]\n      SWAP1 \t\t\tdelete listings[tokenId]\n      SSTORE \t\t\tdelete listings[tokenId]\n      PUSH 1\t\t\tdelete listings[tokenId]\n      DUP3 \t\t\tdelete listings[tokenId]\n      ADD \t\t\tdelete listings[tokenId]\n      PUSH 0\t\t\tdelete listings[tokenId]\n      PUSH 100\t\t\tdelete listings[tokenId]\n      EXP \t\t\tdelete listings[tokenId]\n      DUP2 \t\t\tdelete listings[tokenId]\n      SLOAD \t\t\tdelete listings[tokenId]\n      SWAP1 \t\t\tdelete listings[tokenId]\n      PUSH FFFFFFFFFFFFFFFFFFFFFFFFFFFFFFFFFFFFFFFF\t\t\tdelete listings[tokenId]\n      MUL \t\t\tdelete listings[tokenId]\n      NOT \t\t\tdelete listings[tokenId]\n      AND \t\t\tdelete listings[tokenId]\n      SWAP1 \t\t\tdelete listings[tokenId]\n      SSTORE \t\t\tdelete listings[tokenId]\n      PUSH 2\t\t\tdelete listings[tokenId]\n      DUP3 \t\t\tdelete listings[tokenId]\n      ADD \t\t\tdelete listings[tokenId]\n      PUSH 0\t\t\tdelete listings[tokenId]\n      SWAP1 \t\t\tdelete listings[tokenId]\n      SSTORE \t\t\tdelete listings[tokenId]\n      PUSH 3\t\t\tdelete listings[tokenId]\n      DUP3 \t\t\tdelete listings[tokenId]\n      ADD \t\t\tdelete listings[tokenId]\n      PUSH 0\t\t\tdelete listings[tokenId]\n      PUSH 100\t\t\tdelete listings[tokenId]\n      EXP \t\t\tdelete listings[tokenId]\n      DUP2 \t\t\tdelete listings[tokenId]\n      SLOAD \t\t\tdelete listings[tokenId]\n      SWAP1 \t\t\tdelete listings[tokenId]\n      PUSH FF\t\t\tdelete listings[tokenId]\n      MUL \t\t\tdelete listings[tokenId]\n      NOT \t\t\tdelete listings[tokenId]\n      AND \t\t\tdelete listings[tokenId]\n      SWAP1 \t\t\tdelete listings[tokenId]\n      SSTORE \t\t\tdelete listings[tokenId]\n      POP \t\t\tdelete listings[tokenId]\n      POP \t\t\tdelete listings[tokenId]\n      DUP2 \t\t\ttokenId\n      PUSH C40FDC946EFE80191C467F60727C4ABC08254A056035D467A4516A86005AB763\t\t\tDelisted(tokenId)\n      PUSH 40\t\t\tDelisted(tokenId)\n      MLOAD \t\t\tDelisted(tokenId)\n      PUSH 40\t\t\tDelisted(tokenId)\n      MLOAD \t\t\tDelisted(tokenId)\n      DUP1 \t\t\tDelisted(tokenId)\n      SWAP2 \t\t\tDelisted(tokenId)\n      SUB \t\t\tDelisted(tokenId)\n      SWAP1 \t\t\tDelisted(tokenId)\n      LOG2 \t\t\tDelisted(tokenId)\n      POP \t\t\t{\\r\\n        Listing memory li...\n      POP \t\t\tfunction delist(uint256 tokenI...\n      JUMP \t\t\tfunction delist(uint256 tokenI...\n    tag 31\t\t\tArtifactNFT public nftContract\n      JUMPDEST \t\t\tArtifactNFT public nftContract\n      PUSH 1\t\t\tArtifactNFT public nftContract\n      PUSH 0\t\t\tArtifactNFT public nftContract\n      SWAP1 \t\t\tArtifactNFT public nftContract\n      SLOAD \t\t\tArtifactNFT public nftContract\n      SWAP1 \t\t\tArtifactNFT public nftContract\n      PUSH 100\t\t\tArtifactNFT public nftContract\n      EXP \t\t\tArtifactNFT public nftContract\n      SWAP1 \t\t\tArtifactNFT public nftContract\n      DIV \t\t\tArtifactNFT public nftContract\n      PUSH FFFFFFFFFFFFFFFFFFFFFFFFFFFFFFFFFFFFFFFF\t\t\tArtifactNFT public nftContract\n      AND \t\t\tArtifactNFT public nftContract\n      DUP2 \t\t\tArtifactNFT public nftContract\n      JUMP \t\t\tArtifactNFT public nftContract\n    tag 36\t\t\tmapping(uint256 => Listing) pu...\n      JUMPDEST \t\t\tmapping(uint256 => Listing) pu...\n      PUSH 2\t\t\tmapping(uint256 => Listing) pu...\n      PUSH 20\t\t\tmapping(uint256 => Listing) pu...\n      MSTORE \t\t\tmapping(uint256 => Listing) pu...\n      DUP1 \t\t\tmapping(uint256 => Listing) pu...\n      PUSH 0\t\t\tmapping(uint256 => Listing) pu...\n      MSTORE \t\t\tmapping(uint256 => Listing) pu...\n      PUSH 40\t\t\tmapping(uint256 => Listing) pu...\n      PUSH 0\t\t\tmapping(uint256 => Listing) pu...\n      KECCAK256 \t\t\tmapping(uint256 => Listing) pu...\n      PUSH 0\t\t\tmapping(uint256 => Listing) pu...\n      SWAP2 \t\t\tmapping(uint256 => Listing) pu...\n      POP \t\t\tmapping(uint256 => Listing) pu...\n      SWAP1 \t\t\tmapping(uint256 => Listing) pu...\n      POP \t\t\tmapping(uint256 => Listing) pu...\n      DUP1 \t\t\tmapping(uint256 => Listing) pu...\n      PUSH 0\t\t\tmapping(uint256 => Listing) pu...\n      ADD \t\t\tmapping(uint256 => Listing) pu...\n      SLOAD \t\t\tmapping(uint256 => Listing) pu...\n      SWAP1 \t\t\tmapping(uint256 => Listing) pu...\n      DUP1 \t\t\tmapping(uint256 => Listing) pu...\n      PUSH 1\t\t\tmapping(uint256 => Listing) pu...\n      ADD \t\t\tmapping(uint256 => Listing) pu...\n      PUSH 0\t\t\tmapping(uint256 => Listing) pu...\n      SWAP1 \t\t\tmapping(uint256 => Listing) pu...\n      SLOAD \t\t\tmapping(uint256 => Listing) pu...\n      SWAP1 \t\t\tmapping(uint256 => Listing) pu...\n      PUSH 100\t\t\tmapping(uint256 => Listing) pu...\n      EXP \t\t\tmapping(uint256 => Listing) pu...\n      SWAP1 \t\t\tmapping(uint256 => Listing) pu...\n      DIV \t\t\tmapping(uint256 => Listing) pu...\n      PUSH FFFFFFFFFFFFFFFFFFFFFFFFFFFFFFFFFFFFFFFF\t\t\tmapping(uint256 => Listing) pu...\n      AND \t\t\tmapping(uint256 => Listing) pu...\n      SWAP1 \t\t\tmapping(uint256 => Listing) pu...\n      DUP1 \t\t\tmapping(uint256 => Listing) pu...\n      PUSH 2\t\t\tmapping(uint256 => Listing) pu...\n      ADD \t\t\tmapping(uint256 => Listing) pu...\n      SLOAD \t\t\tmapping(uint256 => Listing) pu...\n      SWAP1 \t\t\tmapping(uint256 => Listing) pu...\n      DUP1 \t\t\tmapping(uint256 => Listing) pu...\n      PUSH 3\t\t\tmapping(uint256 => Listing) pu...\n      ADD \t\t\tmapping(uint256 => Listing) pu...\n      PUSH 0\t\t\tmapping(uint256 => Listing) pu...\n      SWAP1 \t\t\tmapping(uint256 => Listing) pu...\n      SLOAD \t\t\tmapping(uint256 => Listing) pu...\n      SWAP1 \t\t\tmapping(uint256 => Listing) pu...\n      PUSH 100\t\t\tmapping(uint256 => Listing) pu...\n      EXP \t\t\tmapping(uint256 => Listing) pu...\n      SWAP1 \t\t\tmapping(uint256 => Listing) pu...\n      DIV \t\t\tmapping(uint256 => Listing) pu...\n      PUSH FF\t\t\tmapping(uint256 => Listing) pu...\n      AND \t\t\tmapping(uint256 => Listing) pu...\n      SWAP1 \t\t\tmapping(uint256 => Listing) pu...\n      POP \t\t\tmapping(uint256 => Listing) pu...\n      DUP5 \t\t\tmapping(uint256 => Listing) pu...\n      JUMP \t\t\tmapping(uint256 => Listing) pu...\n    tag 42\t\t\t;\\r\\n    }\\r\\n\\r\\n    function...\n      JUMPDEST \t\t\t;\\r\\n    }\\r\\n\\r\\n    function...\n      PUSH [tag] 108\t\t\twner, ensure \n      PUSH [tag] 80\t\t\twner, ensur\n      JUMP \t\t\twner, ensure \n    tag 108\t\t\twner, ensure \n      JUMPDEST \t\t\twner, ensure \n      PUSH 0\t\t\tl\n      PUSH FFFFFFFFFFFFFFFFFFFFFFFFFFFFFFFFFFFFFFFF\t\t\t     Listing memory li\n      AND \t\t\t     Listing memory li\n      DUP2 \t\t\t     Lis\n      PUSH FFFFFFFFFFFFFFFFFFFFFFFFFFFFFFFFFFFFFFFF\t\t\t     Listing memory li\n      AND \t\t\t     Listing memory li\n      SUB \t\t\t     Listing memory li\n      PUSH [tag] 110\t\t\t\\n        Listing memory listi...\n      JUMPI \t\t\t\\n        Listing memory listi...\n      PUSH 0\t\t\t.\n      PUSH 40\t\t\td];\\r\\n        require(listing...\n      MLOAD \t\t\td];\\r\\n        require(listing...\n      PUSH 1E4FBDF700000000000000000000000000000000000000000000000000000000\t\t\td];\\r\\n        require(listing...\n      DUP2 \t\t\td];\\r\\n        require(listing...\n      MSTORE \t\t\td];\\r\\n        require(listing...\n      PUSH 4\t\t\td];\\r\\n        require(listing...\n      ADD \t\t\td];\\r\\n        require(listing...\n      PUSH [tag] 111\t\t\td];\\r\\n        require(listing...\n      SWAP2 \t\t\td];\\r\\n        require(listing...\n      SWAP1 \t\t\td];\\r\\n        require(listing...\n      PUSH [tag] 25\t\t\td];\\r\\n        require(listing...\n      JUMP \t\t\td];\\r\\n        require(listing...\n    tag 111\t\t\td];\\r\\n        require(listing...\n      JUMPDEST \t\t\td];\\r\\n        require(listing...\n      PUSH 40\t\t\td];\\r\\n        require(listing...\n      MLOAD \t\t\td];\\r\\n        require(listing...\n      DUP1 \t\t\td];\\r\\n        require(listing...\n      SWAP2 \t\t\td];\\r\\n        require(listing...\n      SUB \t\t\td];\\r\\n        require(listing...\n      SWAP1 \t\t\td];\\r\\n        require(listing...\n      REVERT \t\t\td];\\r\\n        require(listing...\n    tag 110\t\t\t\\n        Listing memory listi...\n      JUMPDEST \t\t\t\\n        Listing memory listi...\n      PUSH [tag] 112\t\t\t\\r\\n        require(\\r\\n      ...\n      DUP2 \t\t\t\\n       \n      PUSH [tag] 83\t\t\t\\r\\n        require(\n      JUMP \t\t\t\\r\\n        require(\\r\\n      ...\n    tag 112\t\t\t\\r\\n        require(\\r\\n      ...\n      JUMPDEST \t\t\t\\r\\n        require(\\r\\n      ...\n      POP \t\t\t;\\r\\n    }\\r\\n\\r\\n    function...\n      JUMP \t\t\t;\\r\\n    }\\r\\n\\r\\n    function...\n    tag 80\t\t\tess(this)),\\r\\n               ...\n      JUMPDEST \t\t\tess(this)),\\r\\n               ...\n      PUSH [tag] 114\t\t\t       );\\r\\n \n      PUSH [tag] 115\t\t\t       );\\r\n      JUMP \t\t\t       );\\r\\n \n    tag 114\t\t\t       );\\r\\n \n      JUMPDEST \t\t\t       );\\r\\n \n      PUSH FFFFFFFFFFFFFFFFFFFFFFFFFFFFFFFFFFFFFFFF\t\t\tace\"\\r\\n            );\\r\\n \n      AND \t\t\tace\"\\r\\n            );\\r\\n \n      PUSH [tag] 116\t\t\tace\"\\r\\n \n      PUSH [tag] 23\t\t\tace\"\\r\n      JUMP \t\t\tace\"\\r\\n \n    tag 116\t\t\tace\"\\r\\n \n      JUMPDEST \t\t\tace\"\\r\\n \n      PUSH FFFFFFFFFFFFFFFFFFFFFFFFFFFFFFFFFFFFFFFF\t\t\tace\"\\r\\n            );\\r\\n \n      AND \t\t\tace\"\\r\\n            );\\r\\n \n      EQ \t\t\tace\"\\r\\n            );\\r\\n \n      PUSH [tag] 117\t\t\tetplace\"\\r\\n            );\\r\\n...\n      JUMPI \t\t\tetplace\"\\r\\n            );\\r\\n...\n      PUSH [tag] 118\t\t\tive, \"Alread\n      PUSH [tag] 115\t\t\tive, \"Alre\n      JUMP \t\t\tive, \"Alread\n    tag 118\t\t\tive, \"Alread\n      JUMPDEST \t\t\tive, \"Alread\n      PUSH 40\t\t\tuire(!listings[tokenId].active...\n      MLOAD \t\t\tuire(!listings[tokenId].active...\n      PUSH 118CDAA700000000000000000000000000000000000000000000000000000000\t\t\tuire(!listings[tokenId].active...\n      DUP2 \t\t\tuire(!listings[tokenId].active...\n      MSTORE \t\t\tuire(!listings[tokenId].active...\n      PUSH 4\t\t\tuire(!listings[tokenId].active...\n      ADD \t\t\tuire(!listings[tokenId].active...\n      PUSH [tag] 119\t\t\tuire(!listings[tokenId].active...\n      SWAP2 \t\t\tuire(!listings[tokenId].active...\n      SWAP1 \t\t\tuire(!listings[tokenId].active...\n      PUSH [tag] 25\t\t\tuire(!listings[tokenId].active...\n      JUMP \t\t\tuire(!listings[tokenId].active...\n    tag 119\t\t\tuire(!listings[tokenId].active...\n      JUMPDEST \t\t\tuire(!listings[tokenId].active...\n      PUSH 40\t\t\tuire(!listings[tokenId].active...\n      MLOAD \t\t\tuire(!listings[tokenId].active...\n      DUP1 \t\t\tuire(!listings[tokenId].active...\n      SWAP2 \t\t\tuire(!listings[tokenId].active...\n      SUB \t\t\tuire(!listings[tokenId].active...\n      SWAP1 \t\t\tuire(!listings[tokenId].active...\n      REVERT \t\t\tuire(!listings[tokenId].active...\n    tag 117\t\t\tetplace\"\\r\\n            );\\r\\n...\n      JUMPDEST \t\t\tetplace\"\\r\\n            );\\r\\n...\n      JUMP \t\t\tess(this)),\\r\\n               ...\n    tag 83\t\t\t   nftContract.safeTransferFro...\n      JUMPDEST \t\t\t   nftContract.safeTransferFro...\n      PUSH 0\t\t\t emit SaleConfir\n      PUSH 0\t\t\t(token\n      PUSH 0\t\t\t(token\n      SWAP1 \t\t\t(token\n      SLOAD \t\t\t(token\n      SWAP1 \t\t\t(token\n      PUSH 100\t\t\t(token\n      EXP \t\t\t(token\n      SWAP1 \t\t\t(token\n      DIV \t\t\t(token\n      PUSH FFFFFFFFFFFFFFFFFFFFFFFFFFFFFFFFFFFFFFFF\t\t\t(token\n      AND \t\t\t(token\n      SWAP1 \t\t\t emit SaleConfirmed(token\n      POP \t\t\t emit SaleConfirmed(token\n      DUP2 \t\t\t\\n}\\r\\n\n      PUSH 0\t\t\t;\\r\\n   \n      PUSH 0\t\t\t;\\r\\n   \n      PUSH 100\t\t\t;\\r\\n    }\\r\\n}\\r\\n\n      EXP \t\t\t;\\r\\n    }\\r\\n}\\r\\n\n      DUP2 \t\t\t;\\r\\n    }\\r\\n}\\r\\n\n      SLOAD \t\t\t;\\r\\n    }\\r\\n}\\r\\n\n      DUP2 \t\t\t;\\r\\n    }\\r\\n}\\r\\n\n      PUSH FFFFFFFFFFFFFFFFFFFFFFFFFFFFFFFFFFFFFFFF\t\t\t;\\r\\n    }\\r\\n}\\r\\n\n      MUL \t\t\t;\\r\\n    }\\r\\n}\\r\\n\n      NOT \t\t\t;\\r\\n    }\\r\\n}\\r\\n\n      AND \t\t\t;\\r\\n    }\\r\\n}\\r\\n\n      SWAP1 \t\t\t;\\r\\n    }\\r\\n}\\r\\n\n      DUP4 \t\t\t;\\r\\n    }\\r\\n}\\r\\n\n      PUSH FFFFFFFFFFFFFFFFFFFFFFFFFFFFFFFFFFFFFFFF\t\t\t;\\r\\n    }\\r\\n}\\r\\n\n      AND \t\t\t;\\r\\n    }\\r\\n}\\r\\n\n      MUL \t\t\t;\\r\\n    }\\r\\n}\\r\\n\n      OR \t\t\t;\\r\\n    }\\r\\n}\\r\\n\n      SWAP1 \t\t\t;\\r\\n    }\\r\\n}\\r\\n\n      SSTORE \t\t\t;\\r\\n    }\\r\\n}\\r\\n\n      POP \t\t\t;\\r\\n    }\\r\\n}\\r\\n\n      DUP2 \t\t\t\n      PUSH FFFFFFFFFFFFFFFFFFFFFFFFFFFFFFFFFFFFFFFF\t\t\t\n      AND \t\t\t\n      DUP2 \t\t\t\n      PUSH FFFFFFFFFFFFFFFFFFFFFFFFFFFFFFFFFFFFFFFF\t\t\t\n      AND \t\t\t\n      PUSH 8BE0079C531659141344CD1FD0A4F28419497F9722A3DAAFE3B4186F6B6457E0\t\t\t\n      PUSH 40\t\t\t\n      MLOAD \t\t\t\n      PUSH 40\t\t\t\n      MLOAD \t\t\t\n      DUP1 \t\t\t\n      SWAP2 \t\t\t\n      SUB \t\t\t\n      SWAP1 \t\t\t\n      LOG3 \t\t\t\n      POP \t\t\t;\\r\\n        emit SaleConfirme...\n      POP \t\t\t   nftContract.safeTransferFro...\n      JUMP \t\t\t   nftContract.safeTransferFro...\n    tag 115\t\t\tseller, uint256 price);\\r\\n   ...\n      JUMPDEST \t\t\tseller, uint256 price);\\r\\n   ...\n      PUSH 0\t\t\tndexed \n      CALLER \t\t\tt SaleConf\n      SWAP1 \t\t\t   event SaleConf\n      POP \t\t\t   event SaleConf\n      SWAP1 \t\t\tseller, uint256 price);\\r\\n   ...\n      JUMP \t\t\tseller, uint256 price);\\r\\n   ...\n    tag 123\t\t\tacts/access/Ownable.sol\";\\r\\ni...\n      JUMPDEST \t\t\tacts/access/Ownable.sol\";\\r\\ni...\n      PUSH 0\t\t\to\n      PUSH 0\t\t\ta\n      REVERT \t\t\ttplace allow\n    tag 125\t\t\t.\\r\\n */\\r\\ncontract Marketpla...\n      JUMPDEST \t\t\t.\\r\\n */\\r\\ncontract Marketpla...\n      PUSH 0\t\t\tle {\\r\\n \n      DUP2 \t\t\tnftCo\n      SWAP1 \t\t\tNFT public nftCo\n      POP \t\t\tNFT public nftCo\n      SWAP2 \t\t\t.\\r\\n */\\r\\ncontract Marketpla...\n      SWAP1 \t\t\t.\\r\\n */\\r\\ncontract Marketpla...\n      POP \t\t\t.\\r\\n */\\r\\ncontract Marketpla...\n      JUMP \t\t\t.\\r\\n */\\r\\ncontract Marketpla...\n    tag 126\t\t\t   struct Listing {\\r\\n       ...\n      JUMPDEST \t\t\t   struct Listing {\\r\\n       ...\n      PUSH [tag] 161\t\t\t       uint256 price; //\n      DUP2 \t\t\tce; /\n      PUSH [tag] 125\t\t\t       uint256 price; //\n      JUMP \t\t\t       uint256 price; //\n    tag 161\t\t\t       uint256 price; //\n      JUMPDEST \t\t\t       uint256 price; //\n      DUP2 \t\t\tler;\\r\n      EQ \t\t\tseller;\\r\\n        uint256 pri...\n      PUSH [tag] 162\t\t\t  address seller;\\r\\n        u...\n      JUMPI \t\t\t  address seller;\\r\\n        u...\n      PUSH 0\t\t\t \n      PUSH 0\t\t\t \n      REVERT \t\t\tei\\r\\n        \n    tag 162\t\t\t  address seller;\\r\\n        u...\n      JUMPDEST \t\t\t  address seller;\\r\\n        u...\n      POP \t\t\t   struct Listing {\\r\\n       ...\n      JUMP \t\t\t   struct Listing {\\r\\n       ...\n    tag 127\t\t\t    }\\r\\n\\r\\n    mapping(uint2...\n      JUMPDEST \t\t\t    }\\r\\n\\r\\n    mapping(uint2...\n      PUSH 0\t\t\tc lis\n      DUP2 \t\t\t6 inde\n      CALLDATALOAD \t\t\tListed(uint256 index\n      SWAP1 \t\t\t   event Listed(uint256 index\n      POP \t\t\t   event Listed(uint256 index\n      PUSH [tag] 164\t\t\td, address seller, uint256 pri...\n      DUP2 \t\t\tprice\n      PUSH [tag] 126\t\t\td, address seller, uint256 pri...\n      JUMP \t\t\td, address seller, uint256 pri...\n    tag 164\t\t\td, address seller, uint256 pri...\n      JUMPDEST \t\t\td, address seller, uint256 pri...\n      SWAP3 \t\t\t    }\\r\\n\\r\\n    mapping(uint2...\n      SWAP2 \t\t\t    }\\r\\n\\r\\n    mapping(uint2...\n      POP \t\t\t    }\\r\\n\\r\\n    mapping(uint2...\n      POP \t\t\t    }\\r\\n\\r\\n    mapping(uint2...\n      JUMP \t\t\t    }\\r\\n\\r\\n    mapping(uint2...\n    tag 14\t\t\t Delisted(uint256 indexed toke...\n      JUMPDEST \t\t\t Delisted(uint256 indexed toke...\n      PUSH 0\t\t\t index\n      PUSH 0\t\t\t token\n      PUSH 40\t\t\tes\n      DUP4 \t\t\ttructor(a\n      DUP6 \t\t\t\\n    co\n      SUB \t\t\t;\\r\\n\\r\\n    constructor(ad\n      SLT \t\t\tyer);\\r\\n\\r\\n    constructor(a...\n      ISZERO \t\t\t buyer);\\r\\n\\r\\n    constructo...\n      PUSH [tag] 166\t\t\t buyer);\\r\\n\\r\\n    constructo...\n      JUMPI \t\t\t buyer);\\r\\n\\r\\n    constructo...\n      PUSH [tag] 167\t\t\tftAddress, address initialOwne...\n      PUSH [tag] 123\t\t\tftAddress, address initialOwne...\n      JUMP \t\t\tftAddress, address initialOwne...\n    tag 167\t\t\tftAddress, address initialOwne...\n      JUMPDEST \t\t\tftAddress, address initialOwne...\n    tag 166\t\t\t buyer);\\r\\n\\r\\n    constructo...\n      JUMPDEST \t\t\t buyer);\\r\\n\\r\\n    constructo...\n      PUSH 0\t\t\t/\n      PUSH [tag] 168\t\t\t for sale. Can be called by th...\n      DUP6 \t\t\tthe Mar\n      DUP3 \t\t\towner \n      DUP7 \t\t\tby the NF\n      ADD \t\t\tled by the NFT owner o\n      PUSH [tag] 127\t\t\t for sale. Can be called by th...\n      JUMP \t\t\t for sale. Can be called by th...\n    tag 168\t\t\t for sale. Can be called by th...\n      JUMPDEST \t\t\t for sale. Can be called by th...\n      SWAP3 \t\t\tv List NFT for sale. Can be ca...\n      POP \t\t\tv List NFT for sale. Can be ca...\n      POP \t\t\t(_nftAddress);\\r\\n    }\\r\\n\\r\\...\n      PUSH 20\t\t\t  \n      PUSH [tag] 169\t\t\tkenId\\r\\n     * @param price L...\n      DUP6 \t\t\t  */\\r\\n \n      DUP3 \t\t\trice\\r\\n\n      DUP7 \t\t\te Listing\n      ADD \t\t\tprice Listing price\\r\\n \n      PUSH [tag] 127\t\t\tkenId\\r\\n     * @param price L...\n      JUMP \t\t\tkenId\\r\\n     * @param price L...\n    tag 169\t\t\tkenId\\r\\n     * @param price L...\n      JUMPDEST \t\t\tkenId\\r\\n     * @param price L...\n      SWAP2 \t\t\tnId NFT tokenId\\r\\n     * @par...\n      POP \t\t\tnId NFT tokenId\\r\\n     * @par...\n      POP \t\t\talf of an approved owner.\\r\\n ...\n      SWAP3 \t\t\t Delisted(uint256 indexed toke...\n      POP \t\t\t Delisted(uint256 indexed toke...\n      SWAP3 \t\t\t Delisted(uint256 indexed toke...\n      SWAP1 \t\t\t Delisted(uint256 indexed toke...\n      POP \t\t\t Delisted(uint256 indexed toke...\n      JUMP \t\t\t Delisted(uint256 indexed toke...\n    tag 128\t\t\t tokenId, uint256 price) exter...\n      JUMPDEST \t\t\t tokenId, uint256 price) exter...\n      PUSH 0\t\t\t       \n      PUSH FFFFFFFFFFFFFFFFFFFFFFFFFFFFFFFFFFFFFFFF\t\t\twnerOf(tokenId);\\r\\n\\r\\n      ...\n      DUP3 \t\t\ttract\n      AND \t\t\ttContract.ownerOf(tokenId);\\r\\...\n      SWAP1 \t\t\ttOwner = nftContract.ownerOf(t...\n      POP \t\t\ttOwner = nftContract.ownerOf(t...\n      SWAP2 \t\t\t tokenId, uint256 price) exter...\n      SWAP1 \t\t\t tokenId, uint256 price) exter...\n      POP \t\t\t tokenId, uint256 price) exter...\n      JUMP \t\t\t tokenId, uint256 price) exter...\n    tag 129\t\t\t NFT owner, OR the sender is t...\n      JUMPDEST \t\t\t NFT owner, OR the sender is t...\n      PUSH 0\t\t\tetplace\n      PUSH [tag] 172\t\t\te(\\r\\n            msg.send\n      DUP3 \t\t\tg.sen\n      PUSH [tag] 128\t\t\te(\\r\\n            msg.send\n      JUMP \t\t\te(\\r\\n            msg.send\n    tag 172\t\t\te(\\r\\n            msg.send\n      JUMPDEST \t\t\te(\\r\\n            msg.send\n      SWAP1 \t\t\t     require(\\r\\n            m...\n      POP \t\t\t     require(\\r\\n            m...\n      SWAP2 \t\t\t NFT owner, OR the sender is t...\n      SWAP1 \t\t\t NFT owner, OR the sender is t...\n      POP \t\t\t NFT owner, OR the sender is t...\n      JUMP \t\t\t NFT owner, OR the sender is t...\n    tag 130\t\t\ter || msg.sender == owner(),\\r...\n      JUMPDEST \t\t\ter || msg.sender == owner(),\\r...\n      PUSH [tag] 174\t\t\t\"\\r\\n        );\\r\\n\\r\\n       \n      DUP2 \t\t\t     \n      PUSH [tag] 129\t\t\t\"\\r\\n        );\\r\\n\\r\\n       \n      JUMP \t\t\t\"\\r\\n        );\\r\\n\\r\\n       \n    tag 174\t\t\t\"\\r\\n        );\\r\\n\\r\\n       \n      JUMPDEST \t\t\t\"\\r\\n        );\\r\\n\\r\\n       \n      DUP2 \t\t\te adm\n      EQ \t\t\tlace admin\"\\r\\n        );\\r\\n\\...\n      PUSH [tag] 175\t\t\tor marketplace admin\"\\r\\n     ...\n      JUMPI \t\t\tor marketplace admin\"\\r\\n     ...\n      PUSH 0\t\t\ts\n      PUSH 0\t\t\tr\n      REVERT \t\t\tf sender is \n    tag 175\t\t\tor marketplace admin\"\\r\\n     ...\n      JUMPDEST \t\t\tor marketplace admin\"\\r\\n     ...\n      POP \t\t\ter || msg.sender == owner(),\\r...\n      JUMP \t\t\ter || msg.sender == owner(),\\r...\n    tag 131\t\t\tner, ensure the NFT owner appr...\n      JUMPDEST \t\t\tner, ensure the NFT owner appr...\n      PUSH 0\t\t\tlace\\r\n      DUP2 \t\t\t) && n\n      CALLDATALOAD \t\t\tder == owner() && nf\n      SWAP1 \t\t\t (msg.sender == owner() && nf\n      POP \t\t\t (msg.sender == owner() && nf\n      PUSH [tag] 177\t\t\t owner()) {\\r\\n            req...\n      DUP2 \t\t\tquire\n      PUSH [tag] 130\t\t\t owner()) {\\r\\n            req...\n      JUMP \t\t\t owner()) {\\r\\n            req...\n    tag 177\t\t\t owner()) {\\r\\n            req...\n      JUMPDEST \t\t\t owner()) {\\r\\n            req...\n      SWAP3 \t\t\tner, ensure the NFT owner appr...\n      SWAP2 \t\t\tner, ensure the NFT owner appr...\n      POP \t\t\tner, ensure the NFT owner appr...\n      POP \t\t\tner, ensure the NFT owner appr...\n      JUMP \t\t\tner, ensure the NFT owner appr...\n    tag 20\t\t\t      nftContract.getApproved(...\n      JUMPDEST \t\t\t      nftContract.getApproved(...\n      PUSH 0\t\t\t      \n      PUSH 0\t\t\tnftCon\n      PUSH 40\t\t\tis\n      DUP4 \t\t\t, address\n      DUP6 \t\t\t(nftOwn\n      SUB \t\t\trAll(nftOwner, address(\n      SLT \t\t\tedForAll(nftOwner, address(thi...\n      ISZERO \t\t\trovedForAll(nftOwner, address(...\n      PUSH [tag] 179\t\t\trovedForAll(nftOwner, address(...\n      JUMPI \t\t\trovedForAll(nftOwner, address(...\n      PUSH [tag] 180\t\t\t\\n                \"NFT not app...\n      PUSH [tag] 123\t\t\t\\n                \"NFT not app...\n      JUMP \t\t\t\\n                \"NFT not app...\n    tag 180\t\t\t\\n                \"NFT not app...\n      JUMPDEST \t\t\t\\n                \"NFT not app...\n    tag 179\t\t\trovedForAll(nftOwner, address(...\n      JUMPDEST \t\t\trovedForAll(nftOwner, address(...\n      PUSH 0\t\t\ti\n      PUSH [tag] 181\t\t\t\\r\\n        listings[tokenId] ...\n      DUP6 \t\t\t       \n      DUP3 \t\t\tg({\\r\\n \n      DUP7 \t\t\td] = List\n      ADD \t\t\tkenId] = Listing({\\r\\n  \n      PUSH [tag] 127\t\t\t\\r\\n        listings[tokenId] ...\n      JUMP \t\t\t\\r\\n        listings[tokenId] ...\n    tag 181\t\t\t\\r\\n        listings[tokenId] ...\n      JUMPDEST \t\t\t\\r\\n        listings[tokenId] ...\n      SWAP3 \t\t\tisted\");\\r\\n\\r\\n        listin...\n      POP \t\t\tisted\");\\r\\n\\r\\n        listin...\n      POP \t\t\tequire(!listings[tokenId].acti...\n      PUSH 20\t\t\t\\n \n      PUSH [tag] 182\t\t\t\\r\\n            active: true\\r...\n      DUP6 \t\t\t      e\n      DUP3 \t\t\t});\\r\\n\\r\n      DUP7 \t\t\te\\r\\n      \n      ADD \t\t\t true\\r\\n        });\\r\\n\\r\\n\n      PUSH [tag] 131\t\t\t\\r\\n            active: true\\r...\n      JUMP \t\t\t\\r\\n            active: true\\r...\n    tag 182\t\t\t\\r\\n            active: true\\r...\n      JUMPDEST \t\t\t\\r\\n            active: true\\r...\n      SWAP2 \t\t\tce: price,\\r\\n            acti...\n      POP \t\t\tce: price,\\r\\n            acti...\n      POP \t\t\t           seller: nftOwner,\\r...\n      SWAP3 \t\t\t      nftContract.getApproved(...\n      POP \t\t\t      nftContract.getApproved(...\n      SWAP3 \t\t\t      nftContract.getApproved(...\n      SWAP1 \t\t\t      nftContract.getApproved(...\n      POP \t\t\t      nftContract.getApproved(...\n      JUMP \t\t\t      nftContract.getApproved(...\n    tag 132\t\t\twner, price);\\r\\n    }\\r\\n\\r\\n...\n      JUMPDEST \t\t\twner, price);\\r\\n    }\\r\\n\\r\\n...\n      PUSH [tag] 184\t\t\tg memory listing = listi\n      DUP2 \t\t\t list\n      PUSH [tag] 129\t\t\tg memory listing = listi\n      JUMP \t\t\tg memory listing = listi\n    tag 184\t\t\tg memory listing = listi\n      JUMPDEST \t\t\tg memory listing = listi\n      DUP3 \t\t\tist\n      MSTORE \t\t\t      Listing memory listing =...\n      POP \t\t\twner, price);\\r\\n    }\\r\\n\\r\\n...\n      POP \t\t\twner, price);\\r\\n    }\\r\\n\\r\\n...\n      JUMP \t\t\twner, price);\\r\\n    }\\r\\n\\r\\n...\n    tag 25\t\t\t\\r\\n        require(listing.ac...\n      JUMPDEST \t\t\t\\r\\n        require(listing.ac...\n      PUSH 0\t\t\t lis\n      PUSH 20\t\t\t()\n      DUP3 \t\t\ter == own\n      ADD \t\t\tsender == owner(),\n      SWAP1 \t\t\t || msg.sender == owner(),\n      POP \t\t\t || msg.sender == owner(),\n      PUSH [tag] 186\t\t\t    \"Not seller or marketplace...\n      PUSH 0\t\t\tl\n      DUP4 \t\t\t    delet\n      ADD \t\t\t        delete li\n      DUP5 \t\t\t   );\\r\n      PUSH [tag] 132\t\t\t    \"Not seller or marketplace...\n      JUMP \t\t\t    \"Not seller or marketplace...\n    tag 186\t\t\t    \"Not seller or marketplace...\n      JUMPDEST \t\t\t    \"Not seller or marketplace...\n      SWAP3 \t\t\t\\r\\n        require(listing.ac...\n      SWAP2 \t\t\t\\r\\n        require(listing.ac...\n      POP \t\t\t\\r\\n        require(listing.ac...\n      POP \t\t\t\\r\\n        require(listing.ac...\n      JUMP \t\t\t\\r\\n        require(listing.ac...\n    tag 28\t\t\t];\\r\\n        emit Delisted(to...\n      JUMPDEST \t\t\t];\\r\\n        emit Delisted(to...\n      PUSH 0\t\t\tconfir\n      PUSH 20\t\t\tna\n      DUP3 \t\t\tbuyer) ex\n      DUP5 \t\t\t addres\n      SUB \t\t\tnId, address buyer) ext\n      SLT \t\t\ttokenId, address buyer) extern...\n      ISZERO \t\t\t56 tokenId, address buyer) ext...\n      PUSH [tag] 188\t\t\t56 tokenId, address buyer) ext...\n      JUMPI \t\t\t56 tokenId, address buyer) ext...\n      PUSH [tag] 189\t\t\t\\n        Listing memory listi...\n      PUSH [tag] 123\t\t\t\\n        Listing memory listi...\n      JUMP \t\t\t\\n        Listing memory listi...\n    tag 189\t\t\t\\n        Listing memory listi...\n      JUMPDEST \t\t\t\\n        Listing memory listi...\n    tag 188\t\t\t56 tokenId, address buyer) ext...\n      JUMPDEST \t\t\t56 tokenId, address buyer) ext...\n      PUSH 0\t\t\t \n      PUSH [tag] 190\t\t\t listing.seller || msg.sender ...\n      DUP5 \t\t\t       \n      DUP3 \t\t\ter(),\\r\n      DUP6 \t\t\tnder == o\n      ADD \t\t\tg.sender == owner(),\\r\\n\n      PUSH [tag] 127\t\t\t listing.seller || msg.sender ...\n      JUMP \t\t\t listing.seller || msg.sender ...\n    tag 190\t\t\t listing.seller || msg.sender ...\n      JUMPDEST \t\t\t listing.seller || msg.sender ...\n      SWAP2 \t\t\t.sender == listing.seller || m...\n      POP \t\t\t.sender == listing.seller || m...\n      POP \t\t\tlisted\");\\r\\n        require(\\...\n      SWAP3 \t\t\t];\\r\\n        emit Delisted(to...\n      SWAP2 \t\t\t];\\r\\n        emit Delisted(to...\n      POP \t\t\t];\\r\\n        emit Delisted(to...\n      POP \t\t\t];\\r\\n        emit Delisted(to...\n      JUMP \t\t\t];\\r\\n        emit Delisted(to...\n    tag 133\t\t\tplace admin\"\\r\\n        );\\r\\n...\n      JUMPDEST \t\t\tplace admin\"\\r\\n        );\\r\\n...\n      PUSH 0\t\t\t   \n      DUP2 \t\t\tgs[to\n      SWAP1 \t\t\t listings[to\n      POP \t\t\t listings[to\n      SWAP2 \t\t\tplace admin\"\\r\\n        );\\r\\n...\n      SWAP1 \t\t\tplace admin\"\\r\\n        );\\r\\n...\n      POP \t\t\tplace admin\"\\r\\n        );\\r\\n...\n      JUMP \t\t\tplace admin\"\\r\\n        );\\r\\n...\n    tag 134\t\t\t     nftContract.safeTransferF...\n      JUMPDEST \t\t\t     nftContract.safeTransferF...\n      PUSH 0\t\t\tbuyer, to\n      PUSH [tag] 193\t\t\tleConfirmed(tokenId, buyer);\\r...\n      PUSH [tag] 194\t\t\td, buyer);\\r\\n    }\\r\\n}\\r\\n\n      PUSH [tag] 195\t\t\t;\\r\\n    }\\r\\n}\\r\\n\n      DUP5 \t\t\t\n      PUSH [tag] 128\t\t\t;\\r\\n    }\\r\\n}\\r\\n\n      JUMP \t\t\t;\\r\\n    }\\r\\n}\\r\\n\n    tag 195\t\t\t;\\r\\n    }\\r\\n}\\r\\n\n      JUMPDEST \t\t\t;\\r\\n    }\\r\\n}\\r\\n\n      PUSH [tag] 133\t\t\td, buyer);\\r\\n    }\\r\\n}\\r\\n\n      JUMP \t\t\td, buyer);\\r\\n    }\\r\\n}\\r\\n\n    tag 194\t\t\td, buyer);\\r\\n    }\\r\\n}\\r\\n\n      JUMPDEST \t\t\td, buyer);\\r\\n    }\\r\\n}\\r\\n\n      PUSH [tag] 128\t\t\tleConfirmed(tokenId, buyer);\\r...\n      JUMP \t\t\tleConfirmed(tokenId, buyer);\\r...\n    tag 193\t\t\tleConfirmed(tokenId, buyer);\\r...\n      JUMPDEST \t\t\tleConfirmed(tokenId, buyer);\\r...\n      SWAP1 \t\t\t      emit SaleConfirmed(token...\n      POP \t\t\t      emit SaleConfirmed(token...\n      SWAP2 \t\t\t     nftContract.safeTransferF...\n      SWAP1 \t\t\t     nftContract.safeTransferF...\n      POP \t\t\t     nftContract.safeTransferF...\n      JUMP \t\t\t     nftContract.safeTransferF...\n    tag 135\t\t\t\n      JUMPDEST \t\t\t\n      PUSH 0\t\t\t\n      PUSH [tag] 197\t\t\t\n      DUP3 \t\t\t\n      PUSH [tag] 134\t\t\t\n      JUMP \t\t\t\n    tag 197\t\t\t\n      JUMPDEST \t\t\t\n      SWAP1 \t\t\t\n      POP \t\t\t\n      SWAP2 \t\t\t\n      SWAP1 \t\t\t\n      POP \t\t\t\n      JUMP \t\t\t\n    tag 136\t\t\t\n      JUMPDEST \t\t\t\n      PUSH 0\t\t\t\n      PUSH [tag] 199\t\t\t\n      DUP3 \t\t\t\n      PUSH [tag] 135\t\t\t\n      JUMP \t\t\t\n    tag 199\t\t\t\n      JUMPDEST \t\t\t\n      SWAP1 \t\t\t\n      POP \t\t\t\n      SWAP2 \t\t\t\n      SWAP1 \t\t\t\n      POP \t\t\t\n      JUMP \t\t\t\n    tag 137\t\t\t\n      JUMPDEST \t\t\t\n      PUSH [tag] 201\t\t\t\n      DUP2 \t\t\t\n      PUSH [tag] 136\t\t\t\n      JUMP \t\t\t\n    tag 201\t\t\t\n      JUMPDEST \t\t\t\n      DUP3 \t\t\t\n      MSTORE \t\t\t\n      POP \t\t\t\n      POP \t\t\t\n      JUMP \t\t\t\n    tag 33\t\t\t\n      JUMPDEST \t\t\t\n      PUSH 0\t\t\t\n      PUSH 20\t\t\t\n      DUP3 \t\t\t\n      ADD \t\t\t\n      SWAP1 \t\t\t\n      POP \t\t\t\n      PUSH [tag] 203\t\t\t\n      PUSH 0\t\t\t\n      DUP4 \t\t\t\n      ADD \t\t\t\n      DUP5 \t\t\t\n      PUSH [tag] 137\t\t\t\n      JUMP \t\t\t\n    tag 203\t\t\t\n      JUMPDEST \t\t\t\n      SWAP3 \t\t\t\n      SWAP2 \t\t\t\n      POP \t\t\t\n      POP \t\t\t\n      JUMP \t\t\t\n    tag 138\t\t\t\n      JUMPDEST \t\t\t\n      PUSH [tag] 205\t\t\t\n      DUP2 \t\t\t\n      PUSH [tag] 125\t\t\t\n      JUMP \t\t\t\n    tag 205\t\t\t\n      JUMPDEST \t\t\t\n      DUP3 \t\t\t\n      MSTORE \t\t\t\n      POP \t\t\t\n      POP \t\t\t\n      JUMP \t\t\t\n    tag 139\t\t\t\n      JUMPDEST \t\t\t\n      PUSH 0\t\t\t\n      DUP2 \t\t\t\n      ISZERO \t\t\t\n      ISZERO \t\t\t\n      SWAP1 \t\t\t\n      POP \t\t\t\n      SWAP2 \t\t\t\n      SWAP1 \t\t\t\n      POP \t\t\t\n      JUMP \t\t\t\n    tag 140\t\t\t\n      JUMPDEST \t\t\t\n      PUSH [tag] 208\t\t\t\n      DUP2 \t\t\t\n      PUSH [tag] 139\t\t\t\n      JUMP \t\t\t\n    tag 208\t\t\t\n      JUMPDEST \t\t\t\n      DUP3 \t\t\t\n      MSTORE \t\t\t\n      POP \t\t\t\n      POP \t\t\t\n      JUMP \t\t\t\n    tag 38\t\t\t\n      JUMPDEST \t\t\t\n      PUSH 0\t\t\t\n      PUSH 80\t\t\t\n      DUP3 \t\t\t\n      ADD \t\t\t\n      SWAP1 \t\t\t\n      POP \t\t\t\n      PUSH [tag] 210\t\t\t\n      PUSH 0\t\t\t\n      DUP4 \t\t\t\n      ADD \t\t\t\n      DUP8 \t\t\t\n      PUSH [tag] 138\t\t\t\n      JUMP \t\t\t\n    tag 210\t\t\t\n      JUMPDEST \t\t\t\n      PUSH [tag] 211\t\t\t\n      PUSH 20\t\t\t\n      DUP4 \t\t\t\n      ADD \t\t\t\n      DUP7 \t\t\t\n      PUSH [tag] 132\t\t\t\n      JUMP \t\t\t\n    tag 211\t\t\t\n      JUMPDEST \t\t\t\n      PUSH [tag] 212\t\t\t\n      PUSH 40\t\t\t\n      DUP4 \t\t\t\n      ADD \t\t\t\n      DUP6 \t\t\t\n      PUSH [tag] 138\t\t\t\n      JUMP \t\t\t\n    tag 212\t\t\t\n      JUMPDEST \t\t\t\n      PUSH [tag] 213\t\t\t\n      PUSH 60\t\t\t\n      DUP4 \t\t\t\n      ADD \t\t\t\n      DUP5 \t\t\t\n      PUSH [tag] 140\t\t\t\n      JUMP \t\t\t\n    tag 213\t\t\t\n      JUMPDEST \t\t\t\n      SWAP6 \t\t\t\n      SWAP5 \t\t\t\n      POP \t\t\t\n      POP \t\t\t\n      POP \t\t\t\n      POP \t\t\t\n      POP \t\t\t\n      JUMP \t\t\t\n    tag 41\t\t\t\n      JUMPDEST \t\t\t\n      PUSH 0\t\t\t\n      PUSH 20\t\t\t\n      DUP3 \t\t\t\n      DUP5 \t\t\t\n      SUB \t\t\t\n      SLT \t\t\t\n      ISZERO \t\t\t\n      PUSH [tag] 215\t\t\t\n      JUMPI \t\t\t\n      PUSH [tag] 216\t\t\t\n      PUSH [tag] 123\t\t\t\n      JUMP \t\t\t\n    tag 216\t\t\t\n      JUMPDEST \t\t\t\n    tag 215\t\t\t\n      JUMPDEST \t\t\t\n      PUSH 0\t\t\t\n      PUSH [tag] 217\t\t\t\n      DUP5 \t\t\t\n      DUP3 \t\t\t\n      DUP6 \t\t\t\n      ADD \t\t\t\n      PUSH [tag] 131\t\t\t\n      JUMP \t\t\t\n    tag 217\t\t\t\n      JUMPDEST \t\t\t\n      SWAP2 \t\t\t\n      POP \t\t\t\n      POP \t\t\t\n      SWAP3 \t\t\t\n      SWAP2 \t\t\t\n      POP \t\t\t\n      POP \t\t\t\n      JUMP \t\t\t\n    tag 45\t\t\t\n      JUMPDEST \t\t\t\n      PUSH 0\t\t\t\n      PUSH 20\t\t\t\n      DUP3 \t\t\t\n      ADD \t\t\t\n      SWAP1 \t\t\t\n      POP \t\t\t\n      PUSH [tag] 219\t\t\t\n      PUSH 0\t\t\t\n      DUP4 \t\t\t\n      ADD \t\t\t\n      DUP5 \t\t\t\n      PUSH [tag] 138\t\t\t\n      JUMP \t\t\t\n    tag 219\t\t\t\n      JUMPDEST \t\t\t\n      SWAP3 \t\t\t\n      SWAP2 \t\t\t\n      POP \t\t\t\n      POP \t\t\t\n      JUMP \t\t\t\n    tag 141\t\t\t\n      JUMPDEST \t\t\t\n      PUSH 0\t\t\t\n      DUP2 \t\t\t\n      MLOAD \t\t\t\n      SWAP1 \t\t\t\n      POP \t\t\t\n      PUSH [tag] 221\t\t\t\n      DUP2 \t\t\t\n      PUSH [tag] 130\t\t\t\n      JUMP \t\t\t\n    tag 221\t\t\t\n      JUMPDEST \t\t\t\n      SWAP3 \t\t\t\n      SWAP2 \t\t\t\n      POP \t\t\t\n      POP \t\t\t\n      JUMP \t\t\t\n    tag 49\t\t\t\n      JUMPDEST \t\t\t\n      PUSH 0\t\t\t\n      PUSH 20\t\t\t\n      DUP3 \t\t\t\n      DUP5 \t\t\t\n      SUB \t\t\t\n      SLT \t\t\t\n      ISZERO \t\t\t\n      PUSH [tag] 223\t\t\t\n      JUMPI \t\t\t\n      PUSH [tag] 224\t\t\t\n      PUSH [tag] 123\t\t\t\n      JUMP \t\t\t\n    tag 224\t\t\t\n      JUMPDEST \t\t\t\n    tag 223\t\t\t\n      JUMPDEST \t\t\t\n      PUSH 0\t\t\t\n      PUSH [tag] 225\t\t\t\n      DUP5 \t\t\t\n      DUP3 \t\t\t\n      DUP6 \t\t\t\n      ADD \t\t\t\n      PUSH [tag] 141\t\t\t\n      JUMP \t\t\t\n    tag 225\t\t\t\n      JUMPDEST \t\t\t\n      SWAP2 \t\t\t\n      POP \t\t\t\n      POP \t\t\t\n      SWAP3 \t\t\t\n      SWAP2 \t\t\t\n      POP \t\t\t\n      POP \t\t\t\n      JUMP \t\t\t\n    tag 142\t\t\t\n      JUMPDEST \t\t\t\n      PUSH 0\t\t\t\n      DUP3 \t\t\t\n      DUP3 \t\t\t\n      MSTORE \t\t\t\n      PUSH 20\t\t\t\n      DUP3 \t\t\t\n      ADD \t\t\t\n      SWAP1 \t\t\t\n      POP \t\t\t\n      SWAP3 \t\t\t\n      SWAP2 \t\t\t\n      POP \t\t\t\n      POP \t\t\t\n      JUMP \t\t\t\n    tag 143\t\t\t\n      JUMPDEST \t\t\t\n      PUSH 4E6F74206F776E6572206F72206D61726B6574706C6163652061646D696E0000\t\t\t\n      PUSH 0\t\t\t\n      DUP3 \t\t\t\n      ADD \t\t\t\n      MSTORE \t\t\t\n      POP \t\t\t\n      JUMP \t\t\t\n    tag 144\t\t\t\n      JUMPDEST \t\t\t\n      PUSH 0\t\t\t\n      PUSH [tag] 229\t\t\t\n      PUSH 1E\t\t\t\n      DUP4 \t\t\t\n      PUSH [tag] 142\t\t\t\n      JUMP \t\t\t\n    tag 229\t\t\t\n      JUMPDEST \t\t\t\n      SWAP2 \t\t\t\n      POP \t\t\t\n      PUSH [tag] 230\t\t\t\n      DUP3 \t\t\t\n      PUSH [tag] 143\t\t\t\n      JUMP \t\t\t\n    tag 230\t\t\t\n      JUMPDEST \t\t\t\n      PUSH 20\t\t\t\n      DUP3 \t\t\t\n      ADD \t\t\t\n      SWAP1 \t\t\t\n      POP \t\t\t\n      SWAP2 \t\t\t\n      SWAP1 \t\t\t\n      POP \t\t\t\n      JUMP \t\t\t\n    tag 54\t\t\t\n      JUMPDEST \t\t\t\n      PUSH 0\t\t\t\n      PUSH 20\t\t\t\n      DUP3 \t\t\t\n      ADD \t\t\t\n      SWAP1 \t\t\t\n      POP \t\t\t\n      DUP2 \t\t\t\n      DUP2 \t\t\t\n      SUB \t\t\t\n      PUSH 0\t\t\t\n      DUP4 \t\t\t\n      ADD \t\t\t\n      MSTORE \t\t\t\n      PUSH [tag] 232\t\t\t\n      DUP2 \t\t\t\n      PUSH [tag] 144\t\t\t\n      JUMP \t\t\t\n    tag 232\t\t\t\n      JUMPDEST \t\t\t\n      SWAP1 \t\t\t\n      POP \t\t\t\n      SWAP2 \t\t\t\n      SWAP1 \t\t\t\n      POP \t\t\t\n      JUMP \t\t\t\n    tag 65\t\t\t\n      JUMPDEST \t\t\t\n      PUSH 0\t\t\t\n      PUSH 40\t\t\t\n      DUP3 \t\t\t\n      ADD \t\t\t\n      SWAP1 \t\t\t\n      POP \t\t\t\n      PUSH [tag] 234\t\t\t\n      PUSH 0\t\t\t\n      DUP4 \t\t\t\n      ADD \t\t\t\n      DUP6 \t\t\t\n      PUSH [tag] 132\t\t\t\n      JUMP \t\t\t\n    tag 234\t\t\t\n      JUMPDEST \t\t\t\n      PUSH [tag] 235\t\t\t\n      PUSH 20\t\t\t\n      DUP4 \t\t\t\n      ADD \t\t\t\n      DUP5 \t\t\t\n      PUSH [tag] 132\t\t\t\n      JUMP \t\t\t\n    tag 235\t\t\t\n      JUMPDEST \t\t\t\n      SWAP4 \t\t\t\n      SWAP3 \t\t\t\n      POP \t\t\t\n      POP \t\t\t\n      POP \t\t\t\n      JUMP \t\t\t\n    tag 145\t\t\t\n      JUMPDEST \t\t\t\n      PUSH [tag] 237\t\t\t\n      DUP2 \t\t\t\n      PUSH [tag] 139\t\t\t\n      JUMP \t\t\t\n    tag 237\t\t\t\n      JUMPDEST \t\t\t\n      DUP2 \t\t\t\n      EQ \t\t\t\n      PUSH [tag] 238\t\t\t\n      JUMPI \t\t\t\n      PUSH 0\t\t\t\n      PUSH 0\t\t\t\n      REVERT \t\t\t\n    tag 238\t\t\t\n      JUMPDEST \t\t\t\n      POP \t\t\t\n      JUMP \t\t\t\n    tag 146\t\t\t\n      JUMPDEST \t\t\t\n      PUSH 0\t\t\t\n      DUP2 \t\t\t\n      MLOAD \t\t\t\n      SWAP1 \t\t\t\n      POP \t\t\t\n      PUSH [tag] 240\t\t\t\n      DUP2 \t\t\t\n      PUSH [tag] 145\t\t\t\n      JUMP \t\t\t\n    tag 240\t\t\t\n      JUMPDEST \t\t\t\n      SWAP3 \t\t\t\n      SWAP2 \t\t\t\n      POP \t\t\t\n      POP \t\t\t\n      JUMP \t\t\t\n    tag 69\t\t\t\n      JUMPDEST \t\t\t\n      PUSH 0\t\t\t\n      PUSH 20\t\t\t\n      DUP3 \t\t\t\n      DUP5 \t\t\t\n      SUB \t\t\t\n      SLT \t\t\t\n      ISZERO \t\t\t\n      PUSH [tag] 242\t\t\t\n      JUMPI \t\t\t\n      PUSH [tag] 243\t\t\t\n      PUSH [tag] 123\t\t\t\n      JUMP \t\t\t\n    tag 243\t\t\t\n      JUMPDEST \t\t\t\n    tag 242\t\t\t\n      JUMPDEST \t\t\t\n      PUSH 0\t\t\t\n      PUSH [tag] 244\t\t\t\n      DUP5 \t\t\t\n      DUP3 \t\t\t\n      DUP6 \t\t\t\n      ADD \t\t\t\n      PUSH [tag] 146\t\t\t\n      JUMP \t\t\t\n    tag 244\t\t\t\n      JUMPDEST \t\t\t\n      SWAP2 \t\t\t\n      POP \t\t\t\n      POP \t\t\t\n      SWAP3 \t\t\t\n      SWAP2 \t\t\t\n      POP \t\t\t\n      POP \t\t\t\n      JUMP \t\t\t\n    tag 147\t\t\t\n      JUMPDEST \t\t\t\n      PUSH 4E4654206E6F7420617070726F76656420666F72206D61726B6574706C616365\t\t\t\n      PUSH 0\t\t\t\n      DUP3 \t\t\t\n      ADD \t\t\t\n      MSTORE \t\t\t\n      POP \t\t\t\n      JUMP \t\t\t\n    tag 148\t\t\t\n      JUMPDEST \t\t\t\n      PUSH 0\t\t\t\n      PUSH [tag] 247\t\t\t\n      PUSH 20\t\t\t\n      DUP4 \t\t\t\n      PUSH [tag] 142\t\t\t\n      JUMP \t\t\t\n    tag 247\t\t\t\n      JUMPDEST \t\t\t\n      SWAP2 \t\t\t\n      POP \t\t\t\n      PUSH [tag] 248\t\t\t\n      DUP3 \t\t\t\n      PUSH [tag] 147\t\t\t\n      JUMP \t\t\t\n    tag 248\t\t\t\n      JUMPDEST \t\t\t\n      PUSH 20\t\t\t\n      DUP3 \t\t\t\n      ADD \t\t\t\n      SWAP1 \t\t\t\n      POP \t\t\t\n      SWAP2 \t\t\t\n      SWAP1 \t\t\t\n      POP \t\t\t\n      JUMP \t\t\t\n    tag 72\t\t\t\n      JUMPDEST \t\t\t\n      PUSH 0\t\t\t\n      PUSH 20\t\t\t\n      DUP3 \t\t\t\n      ADD \t\t\t\n      SWAP1 \t\t\t\n      POP \t\t\t\n      DUP2 \t\t\t\n      DUP2 \t\t\t\n      SUB \t\t\t\n      PUSH 0\t\t\t\n      DUP4 \t\t\t\n      ADD \t\t\t\n      MSTORE \t\t\t\n      PUSH [tag] 250\t\t\t\n      DUP2 \t\t\t\n      PUSH [tag] 148\t\t\t\n      JUMP \t\t\t\n    tag 250\t\t\t\n      JUMPDEST \t\t\t\n      SWAP1 \t\t\t\n      POP \t\t\t\n      SWAP2 \t\t\t\n      SWAP1 \t\t\t\n      POP \t\t\t\n      JUMP \t\t\t\n    tag 149\t\t\t\n      JUMPDEST \t\t\t\n      PUSH 416C7265616479206C6973746564000000000000000000000000000000000000\t\t\t\n      PUSH 0\t\t\t\n      DUP3 \t\t\t\n      ADD \t\t\t\n      MSTORE \t\t\t\n      POP \t\t\t\n      JUMP \t\t\t\n    tag 150\t\t\t\n      JUMPDEST \t\t\t\n      PUSH 0\t\t\t\n      PUSH [tag] 253\t\t\t\n      PUSH E\t\t\t\n      DUP4 \t\t\t\n      PUSH [tag] 142\t\t\t\n      JUMP \t\t\t\n    tag 253\t\t\t\n      JUMPDEST \t\t\t\n      SWAP2 \t\t\t\n      POP \t\t\t\n      PUSH [tag] 254\t\t\t\n      DUP3 \t\t\t\n      PUSH [tag] 149\t\t\t\n      JUMP \t\t\t\n    tag 254\t\t\t\n      JUMPDEST \t\t\t\n      PUSH 20\t\t\t\n      DUP3 \t\t\t\n      ADD \t\t\t\n      SWAP1 \t\t\t\n      POP \t\t\t\n      SWAP2 \t\t\t\n      SWAP1 \t\t\t\n      POP \t\t\t\n      JUMP \t\t\t\n    tag 75\t\t\t\n      JUMPDEST \t\t\t\n      PUSH 0\t\t\t\n      PUSH 20\t\t\t\n      DUP3 \t\t\t\n      ADD \t\t\t\n      SWAP1 \t\t\t\n      POP \t\t\t\n      DUP2 \t\t\t\n      DUP2 \t\t\t\n      SUB \t\t\t\n      PUSH 0\t\t\t\n      DUP4 \t\t\t\n      ADD \t\t\t\n      MSTORE \t\t\t\n      PUSH [tag] 256\t\t\t\n      DUP2 \t\t\t\n      PUSH [tag] 150\t\t\t\n      JUMP \t\t\t\n    tag 256\t\t\t\n      JUMPDEST \t\t\t\n      SWAP1 \t\t\t\n      POP \t\t\t\n      SWAP2 \t\t\t\n      SWAP1 \t\t\t\n      POP \t\t\t\n      JUMP \t\t\t\n    tag 77\t\t\t\n      JUMPDEST \t\t\t\n      PUSH 0\t\t\t\n      PUSH 40\t\t\t\n      DUP3 \t\t\t\n      ADD \t\t\t\n      SWAP1 \t\t\t\n      POP \t\t\t\n      PUSH [tag] 258\t\t\t\n      PUSH 0\t\t\t\n      DUP4 \t\t\t\n      ADD \t\t\t\n      DUP6 \t\t\t\n      PUSH [tag] 132\t\t\t\n      JUMP \t\t\t\n    tag 258\t\t\t\n      JUMPDEST \t\t\t\n      PUSH [tag] 259\t\t\t\n      PUSH 20\t\t\t\n      DUP4 \t\t\t\n      ADD \t\t\t\n      DUP5 \t\t\t\n      PUSH [tag] 138\t\t\t\n      JUMP \t\t\t\n    tag 259\t\t\t\n      JUMPDEST \t\t\t\n      SWAP4 \t\t\t\n      SWAP3 \t\t\t\n      POP \t\t\t\n      POP \t\t\t\n      POP \t\t\t\n      JUMP \t\t\t\n    tag 151\t\t\t\n      JUMPDEST \t\t\t\n      PUSH 4E6F74206C697374656400000000000000000000000000000000000000000000\t\t\t\n      PUSH 0\t\t\t\n      DUP3 \t\t\t\n      ADD \t\t\t\n      MSTORE \t\t\t\n      POP \t\t\t\n      JUMP \t\t\t\n    tag 152\t\t\t\n      JUMPDEST \t\t\t\n      PUSH 0\t\t\t\n      PUSH [tag] 262\t\t\t\n      PUSH A\t\t\t\n      DUP4 \t\t\t\n      PUSH [tag] 142\t\t\t\n      JUMP \t\t\t\n    tag 262\t\t\t\n      JUMPDEST \t\t\t\n      SWAP2 \t\t\t\n      POP \t\t\t\n      PUSH [tag] 263\t\t\t\n      DUP3 \t\t\t\n      PUSH [tag] 151\t\t\t\n      JUMP \t\t\t\n    tag 263\t\t\t\n      JUMPDEST \t\t\t\n      PUSH 20\t\t\t\n      DUP3 \t\t\t\n      ADD \t\t\t\n      SWAP1 \t\t\t\n      POP \t\t\t\n      SWAP2 \t\t\t\n      SWAP1 \t\t\t\n      POP \t\t\t\n      JUMP \t\t\t\n    tag 87\t\t\t\n      JUMPDEST \t\t\t\n      PUSH 0\t\t\t\n      PUSH 20\t\t\t\n      DUP3 \t\t\t\n      ADD \t\t\t\n      SWAP1 \t\t\t\n      POP \t\t\t\n      DUP2 \t\t\t\n      DUP2 \t\t\t\n      SUB \t\t\t\n      PUSH 0\t\t\t\n      DUP4 \t\t\t\n      ADD \t\t\t\n      MSTORE \t\t\t\n      PUSH [tag] 265\t\t\t\n      DUP2 \t\t\t\n      PUSH [tag] 152\t\t\t\n      JUMP \t\t\t\n    tag 265\t\t\t\n      JUMPDEST \t\t\t\n      SWAP1 \t\t\t\n      POP \t\t\t\n      SWAP2 \t\t\t\n      SWAP1 \t\t\t\n      POP \t\t\t\n      JUMP \t\t\t\n    tag 153\t\t\t\n      JUMPDEST \t\t\t\n      PUSH 4E6F742073656C6C6572206F72206D61726B6574706C6163652061646D696E00\t\t\t\n      PUSH 0\t\t\t\n      DUP3 \t\t\t\n      ADD \t\t\t\n      MSTORE \t\t\t\n      POP \t\t\t\n      JUMP \t\t\t\n    tag 154\t\t\t\n      JUMPDEST \t\t\t\n      PUSH 0\t\t\t\n      PUSH [tag] 268\t\t\t\n      PUSH 1F\t\t\t\n      DUP4 \t\t\t\n      PUSH [tag] 142\t\t\t\n      JUMP \t\t\t\n    tag 268\t\t\t\n      JUMPDEST \t\t\t\n      SWAP2 \t\t\t\n      POP \t\t\t\n      PUSH [tag] 269\t\t\t\n      DUP3 \t\t\t\n      PUSH [tag] 153\t\t\t\n      JUMP \t\t\t\n    tag 269\t\t\t\n      JUMPDEST \t\t\t\n      PUSH 20\t\t\t\n      DUP3 \t\t\t\n      ADD \t\t\t\n      SWAP1 \t\t\t\n      POP \t\t\t\n      SWAP2 \t\t\t\n      SWAP1 \t\t\t\n      POP \t\t\t\n      JUMP \t\t\t\n    tag 92\t\t\t\n      JUMPDEST \t\t\t\n      PUSH 0\t\t\t\n      PUSH 20\t\t\t\n      DUP3 \t\t\t\n      ADD \t\t\t\n      SWAP1 \t\t\t\n      POP \t\t\t\n      DUP2 \t\t\t\n      DUP2 \t\t\t\n      SUB \t\t\t\n      PUSH 0\t\t\t\n      DUP4 \t\t\t\n      ADD \t\t\t\n      MSTORE \t\t\t\n      PUSH [tag] 271\t\t\t\n      DUP2 \t\t\t\n      PUSH [tag] 154\t\t\t\n      JUMP \t\t\t\n    tag 271\t\t\t\n      JUMPDEST \t\t\t\n      SWAP1 \t\t\t\n      POP \t\t\t\n      SWAP2 \t\t\t\n      SWAP1 \t\t\t\n      POP \t\t\t\n      JUMP \t\t\t\n    tag 94\t\t\t\n      JUMPDEST \t\t\t\n      PUSH 0\t\t\t\n      PUSH 60\t\t\t\n      DUP3 \t\t\t\n      ADD \t\t\t\n      SWAP1 \t\t\t\n      POP \t\t\t\n      PUSH [tag] 273\t\t\t\n      PUSH 0\t\t\t\n      DUP4 \t\t\t\n      ADD \t\t\t\n      DUP7 \t\t\t\n      PUSH [tag] 132\t\t\t\n      JUMP \t\t\t\n    tag 273\t\t\t\n      JUMPDEST \t\t\t\n      PUSH [tag] 274\t\t\t\n      PUSH 20\t\t\t\n      DUP4 \t\t\t\n      ADD \t\t\t\n      DUP6 \t\t\t\n      PUSH [tag] 132\t\t\t\n      JUMP \t\t\t\n    tag 274\t\t\t\n      JUMPDEST \t\t\t\n      PUSH [tag] 275\t\t\t\n      PUSH 40\t\t\t\n      DUP4 \t\t\t\n      ADD \t\t\t\n      DUP5 \t\t\t\n      PUSH [tag] 138\t\t\t\n      JUMP \t\t\t\n    tag 275\t\t\t\n      JUMPDEST \t\t\t\n      SWAP5 \t\t\t\n      SWAP4 \t\t\t\n      POP \t\t\t\n      POP \t\t\t\n      POP \t\t\t\n      POP \t\t\t\n      JUMP \t\t\t\n    .data\n"
}